{
  "address": "0xdA1835BD4b521594b2b85A2B288CAfA81ccF8537",
  "abi": [
    {
      "inputs": [],
      "name": "ERC20ApproveFromZeroAddress",
      "type": "error"
    },
    {
      "inputs": [],
      "name": "ERC20ApproveToZeroAddress",
      "type": "error"
    },
    {
      "inputs": [
        {
          "internalType": "uint256",
          "name": "amount",
          "type": "uint256"
        },
        {
          "internalType": "uint256",
          "name": "balance",
          "type": "uint256"
        }
      ],
      "name": "ERC20BurnAmountExceedsBalance",
      "type": "error"
    },
    {
      "inputs": [],
      "name": "ERC20BurnFromZeroAddress",
      "type": "error"
    },
    {
      "inputs": [
        {
          "internalType": "uint256",
          "name": "value",
          "type": "uint256"
        },
        {
          "internalType": "uint256",
          "name": "allowance",
          "type": "uint256"
        }
      ],
      "name": "ERC20DecreasedAllowanceBelowZero",
      "type": "error"
    },
    {
      "inputs": [
        {
          "internalType": "uint256",
          "name": "amount",
          "type": "uint256"
        },
        {
          "internalType": "uint256",
          "name": "allowance",
          "type": "uint256"
        }
      ],
      "name": "ERC20InsufficientAllowance",
      "type": "error"
    },
    {
      "inputs": [],
      "name": "ERC20MintToZeroAddress",
      "type": "error"
    },
    {
      "inputs": [
        {
          "internalType": "uint256",
          "name": "amount",
          "type": "uint256"
        },
        {
          "internalType": "uint256",
          "name": "balance",
          "type": "uint256"
        }
      ],
      "name": "ERC20TransferAmountExceedsBalance",
      "type": "error"
    },
    {
      "inputs": [],
      "name": "ERC20TransferFromZeroAddress",
      "type": "error"
    },
    {
      "inputs": [],
      "name": "ERC20TransferToZeroAddress",
      "type": "error"
    },
    {
      "inputs": [],
      "name": "InitializerContractAlreadyInitialized",
      "type": "error"
    },
    {
      "inputs": [],
      "name": "InitializerContractIsInitializing",
      "type": "error"
    },
    {
      "inputs": [],
      "name": "InitializerContractIsNotInitializing",
      "type": "error"
    },
    {
      "inputs": [
        {
          "internalType": "uint8",
          "name": "version",
          "type": "uint8"
        }
      ],
      "name": "InitializerVersionAlreadyInitialized",
      "type": "error"
    },
    {
      "anonymous": false,
      "inputs": [
        {
          "indexed": true,
          "internalType": "address",
          "name": "owner",
          "type": "address"
        },
        {
          "indexed": true,
          "internalType": "address",
          "name": "spender",
          "type": "address"
        },
        {
          "indexed": false,
          "internalType": "uint256",
          "name": "value",
          "type": "uint256"
        }
      ],
      "name": "Approval",
      "type": "event"
    },
    {
      "anonymous": false,
      "inputs": [
        {
          "indexed": true,
          "internalType": "address",
          "name": "account",
          "type": "address"
        },
        {
          "indexed": true,
          "internalType": "string",
          "name": "reason",
          "type": "string"
        }
      ],
      "name": "Blacklisted",
      "type": "event"
    },
    {
      "anonymous": false,
      "inputs": [
        {
          "indexed": false,
          "internalType": "uint8",
          "name": "version",
          "type": "uint8"
        }
      ],
      "name": "Initialized",
      "type": "event"
    },
    {
      "anonymous": false,
      "inputs": [
        {
          "indexed": true,
          "internalType": "bytes32",
          "name": "role",
          "type": "bytes32"
        },
        {
          "indexed": true,
          "internalType": "bytes32",
          "name": "previousAdminRole",
          "type": "bytes32"
        },
        {
          "indexed": true,
          "internalType": "bytes32",
          "name": "newAdminRole",
          "type": "bytes32"
        }
      ],
      "name": "RoleAdminChanged",
      "type": "event"
    },
    {
      "anonymous": false,
      "inputs": [
        {
          "indexed": true,
          "internalType": "bytes32",
          "name": "role",
          "type": "bytes32"
        },
        {
          "indexed": true,
          "internalType": "address",
          "name": "account",
          "type": "address"
        },
        {
          "indexed": true,
          "internalType": "address",
          "name": "sender",
          "type": "address"
        }
      ],
      "name": "RoleGranted",
      "type": "event"
    },
    {
      "anonymous": false,
      "inputs": [
        {
          "indexed": true,
          "internalType": "bytes32",
          "name": "role",
          "type": "bytes32"
        },
        {
          "indexed": true,
          "internalType": "address",
          "name": "account",
          "type": "address"
        },
        {
          "indexed": true,
          "internalType": "address",
          "name": "sender",
          "type": "address"
        }
      ],
      "name": "RoleRevoked",
      "type": "event"
    },
    {
      "anonymous": false,
      "inputs": [
        {
          "indexed": true,
          "internalType": "address",
          "name": "from",
          "type": "address"
        },
        {
          "indexed": true,
          "internalType": "address",
          "name": "to",
          "type": "address"
        },
        {
          "indexed": false,
          "internalType": "uint256",
          "name": "value",
          "type": "uint256"
        }
      ],
      "name": "Transfer",
      "type": "event"
    },
    {
      "anonymous": false,
      "inputs": [
        {
          "indexed": true,
          "internalType": "address",
          "name": "account",
          "type": "address"
        },
        {
          "indexed": true,
          "internalType": "string",
          "name": "reason",
          "type": "string"
        }
      ],
      "name": "UnBlacklisted",
      "type": "event"
    },
    {
      "inputs": [],
      "name": "MINTER_ROLE",
      "outputs": [
        {
          "internalType": "bytes32",
          "name": "",
          "type": "bytes32"
        }
      ],
      "stateMutability": "view",
      "type": "function"
    },
    {
      "inputs": [
        {
          "internalType": "address",
          "name": "owner",
          "type": "address"
        },
        {
          "internalType": "address",
          "name": "spender",
          "type": "address"
        }
      ],
      "name": "allowance",
      "outputs": [
        {
          "internalType": "uint256",
          "name": "",
          "type": "uint256"
        }
      ],
      "stateMutability": "view",
      "type": "function"
    },
    {
      "inputs": [
        {
          "internalType": "address",
          "name": "spender",
          "type": "address"
        },
        {
          "internalType": "uint256",
          "name": "amount",
          "type": "uint256"
        }
      ],
      "name": "approve",
      "outputs": [
        {
          "internalType": "bool",
          "name": "",
          "type": "bool"
        }
      ],
      "stateMutability": "nonpayable",
      "type": "function"
    },
    {
      "inputs": [
        {
          "internalType": "address",
          "name": "account",
          "type": "address"
        }
      ],
      "name": "balanceOf",
      "outputs": [
        {
          "internalType": "uint256",
          "name": "",
          "type": "uint256"
        }
      ],
      "stateMutability": "view",
      "type": "function"
    },
    {
      "inputs": [
        {
          "internalType": "address[]",
          "name": "accounts",
          "type": "address[]"
        },
        {
          "internalType": "string[]",
          "name": "reasons",
          "type": "string[]"
        }
      ],
      "name": "blacklist",
      "outputs": [],
      "stateMutability": "nonpayable",
      "type": "function"
    },
    {
      "inputs": [
        {
          "internalType": "address",
          "name": "account",
          "type": "address"
        },
        {
          "internalType": "string",
          "name": "reason",
          "type": "string"
        }
      ],
      "name": "blacklist",
      "outputs": [],
      "stateMutability": "nonpayable",
      "type": "function"
    },
    {
      "inputs": [],
      "name": "decimals",
      "outputs": [
        {
          "internalType": "uint8",
          "name": "",
          "type": "uint8"
        }
      ],
      "stateMutability": "view",
      "type": "function"
    },
    {
      "inputs": [
        {
          "internalType": "address",
          "name": "spender",
          "type": "address"
        },
        {
          "internalType": "uint256",
          "name": "subtractedValue",
          "type": "uint256"
        }
      ],
      "name": "decreaseAllowance",
      "outputs": [
        {
          "internalType": "bool",
          "name": "",
          "type": "bool"
        }
      ],
      "stateMutability": "nonpayable",
      "type": "function"
    },
    {
      "inputs": [
        {
          "internalType": "bytes32",
          "name": "role",
          "type": "bytes32"
        }
      ],
      "name": "getRoleAdmin",
      "outputs": [
        {
          "internalType": "bytes32",
          "name": "",
          "type": "bytes32"
        }
      ],
      "stateMutability": "view",
      "type": "function"
    },
    {
      "inputs": [
        {
          "internalType": "bytes32",
          "name": "role",
          "type": "bytes32"
        },
        {
          "internalType": "uint256",
          "name": "index",
          "type": "uint256"
        }
      ],
      "name": "getRoleMember",
      "outputs": [
        {
          "internalType": "address",
          "name": "",
          "type": "address"
        }
      ],
      "stateMutability": "view",
      "type": "function"
    },
    {
      "inputs": [
        {
          "internalType": "bytes32",
          "name": "role",
          "type": "bytes32"
        }
      ],
      "name": "getRoleMemberCount",
      "outputs": [
        {
          "internalType": "uint256",
          "name": "",
          "type": "uint256"
        }
      ],
      "stateMutability": "view",
      "type": "function"
    },
    {
      "inputs": [
        {
          "internalType": "bytes32",
          "name": "role",
          "type": "bytes32"
        },
        {
          "internalType": "address",
          "name": "account",
          "type": "address"
        }
      ],
      "name": "grantRole",
      "outputs": [],
      "stateMutability": "nonpayable",
      "type": "function"
    },
    {
      "inputs": [
        {
          "internalType": "bytes32",
          "name": "role",
          "type": "bytes32"
        },
        {
          "internalType": "address",
          "name": "account",
          "type": "address"
        }
      ],
      "name": "hasRole",
      "outputs": [
        {
          "internalType": "bool",
          "name": "",
          "type": "bool"
        }
      ],
      "stateMutability": "view",
      "type": "function"
    },
    {
      "inputs": [
        {
          "internalType": "address",
          "name": "spender",
          "type": "address"
        },
        {
          "internalType": "uint256",
          "name": "addedValue",
          "type": "uint256"
        }
      ],
      "name": "increaseAllowance",
      "outputs": [
        {
          "internalType": "bool",
          "name": "",
          "type": "bool"
        }
      ],
      "stateMutability": "nonpayable",
      "type": "function"
    },
    {
      "inputs": [
        {
          "internalType": "address",
          "name": "owner",
          "type": "address"
        },
        {
          "internalType": "address[]",
          "name": "mints",
          "type": "address[]"
        },
        {
          "internalType": "uint256[]",
          "name": "mintAmounts",
          "type": "uint256[]"
        }
      ],
      "name": "initialize",
      "outputs": [],
      "stateMutability": "nonpayable",
      "type": "function"
    },
    {
      "inputs": [
        {
          "internalType": "address[]",
          "name": "accounts",
          "type": "address[]"
        }
      ],
      "name": "isBlacklisted",
      "outputs": [
        {
          "internalType": "bool",
          "name": "",
          "type": "bool"
        }
      ],
      "stateMutability": "view",
      "type": "function"
    },
    {
      "inputs": [
        {
          "internalType": "address",
          "name": "account",
          "type": "address"
        }
      ],
      "name": "isBlacklisted",
      "outputs": [
        {
          "internalType": "bool",
          "name": "",
          "type": "bool"
        }
      ],
      "stateMutability": "view",
      "type": "function"
    },
    {
      "inputs": [
        {
          "internalType": "address",
          "name": "account",
          "type": "address"
        },
        {
          "internalType": "uint256",
          "name": "amount",
          "type": "uint256"
        }
      ],
      "name": "mint",
      "outputs": [],
      "stateMutability": "nonpayable",
      "type": "function"
    },
    {
      "inputs": [],
      "name": "name",
      "outputs": [
        {
          "internalType": "string",
          "name": "",
          "type": "string"
        }
      ],
      "stateMutability": "view",
      "type": "function"
    },
    {
      "inputs": [],
      "name": "pause",
      "outputs": [],
      "stateMutability": "nonpayable",
      "type": "function"
    },
    {
      "inputs": [],
      "name": "paused",
      "outputs": [
        {
          "internalType": "bool",
          "name": "",
          "type": "bool"
        }
      ],
      "stateMutability": "view",
      "type": "function"
    },
    {
      "inputs": [
        {
          "internalType": "bytes32",
          "name": "role",
          "type": "bytes32"
        },
        {
          "internalType": "address",
          "name": "account",
          "type": "address"
        }
      ],
      "name": "renounceRole",
      "outputs": [],
      "stateMutability": "nonpayable",
      "type": "function"
    },
    {
      "inputs": [
        {
          "internalType": "bytes32",
          "name": "role",
          "type": "bytes32"
        },
        {
          "internalType": "address",
          "name": "account",
          "type": "address"
        }
      ],
      "name": "revokeRole",
      "outputs": [],
      "stateMutability": "nonpayable",
      "type": "function"
    },
    {
      "inputs": [
        {
          "internalType": "bytes32",
          "name": "role",
          "type": "bytes32"
        },
        {
          "internalType": "bytes32",
          "name": "adminRole",
          "type": "bytes32"
        }
      ],
      "name": "setRoleAdmin",
      "outputs": [],
      "stateMutability": "nonpayable",
      "type": "function"
    },
    {
      "inputs": [],
      "name": "symbol",
      "outputs": [
        {
          "internalType": "string",
          "name": "",
          "type": "string"
        }
      ],
      "stateMutability": "view",
      "type": "function"
    },
    {
      "inputs": [],
      "name": "totalSupply",
      "outputs": [
        {
          "internalType": "uint256",
          "name": "",
          "type": "uint256"
        }
      ],
      "stateMutability": "view",
      "type": "function"
    },
    {
      "inputs": [
        {
          "internalType": "address",
          "name": "to",
          "type": "address"
        },
        {
          "internalType": "uint256",
          "name": "amount",
          "type": "uint256"
        }
      ],
      "name": "transfer",
      "outputs": [
        {
          "internalType": "bool",
          "name": "",
          "type": "bool"
        }
      ],
      "stateMutability": "nonpayable",
      "type": "function"
    },
    {
      "inputs": [
        {
          "internalType": "address",
          "name": "from",
          "type": "address"
        },
        {
          "internalType": "address",
          "name": "to",
          "type": "address"
        },
        {
          "internalType": "uint256",
          "name": "amount",
          "type": "uint256"
        }
      ],
      "name": "transferFrom",
      "outputs": [
        {
          "internalType": "bool",
          "name": "",
          "type": "bool"
        }
      ],
      "stateMutability": "nonpayable",
      "type": "function"
    },
    {
      "inputs": [
        {
          "internalType": "address[]",
          "name": "accounts",
          "type": "address[]"
        },
        {
          "internalType": "string[]",
          "name": "reasons",
          "type": "string[]"
        }
      ],
      "name": "unblacklist",
      "outputs": [],
      "stateMutability": "nonpayable",
      "type": "function"
    },
    {
      "inputs": [
        {
          "internalType": "address",
          "name": "account",
          "type": "address"
        },
        {
          "internalType": "string",
          "name": "reason",
          "type": "string"
        }
      ],
      "name": "unblacklist",
      "outputs": [],
      "stateMutability": "nonpayable",
      "type": "function"
    },
    {
      "inputs": [],
      "name": "unpause",
      "outputs": [],
      "stateMutability": "nonpayable",
      "type": "function"
    }
  ],
  "transactionHash": "0x8a6afd9882e98fa5524549b9078f87ea0f10c9329c2a90f903ae2614d3a9d952",
  "args": [],
  "numDeployments": 1,
  "solcInputHash": "c8eec0c557e42f83b4b13368cad5970f",
  "bytecode": "0x608060405234801561001057600080fd5b506130c3806100206000396000f3fe608060405234801561001057600080fd5b50600436106101e55760003560e01c806370a082311161010f578063ce5da407116100a2578063dd62ed3e11610071578063dd62ed3e14610414578063ddf579ff14610427578063fe575a871461043a578063ff1d57521461044d57600080fd5b8063ce5da407146103b4578063d1e6c30c146103c7578063d5391393146103da578063d547741f1461040157600080fd5b806395d89b41116100de57806395d89b4114610373578063a457c2d71461037b578063a9059cbb1461038e578063ca15c873146103a157600080fd5b806370a082311461030d5780638456cb59146103205780639010d07c1461032857806391d148541461036057600080fd5b80632f2ff15d116101875780633f4ba83a116101565780633f4ba83a146102d757806340c10f19146102df5780635c975abb146102f25780636ebb16d3146102fa57600080fd5b80632f2ff15d1461028f578063313ce567146102a257806336568abe146102b157806339509351146102c457600080fd5b8063186d3830116101c3578063186d3830146102415780631e4e00911461025657806323b872dd14610269578063248a9ca31461027c57600080fd5b806306fdde03146101ea578063095ea7b31461020857806318160ddd1461022b575b600080fd5b6101f2610460565b6040516101ff919061274b565b60405180910390f35b61021b6102163660046127c5565b61046f565b60405190151581526020016101ff565b610233610486565b6040519081526020016101ff565b61025461024f36600461283b565b6104b0565b005b6102546102643660046128a7565b610682565b61021b6102773660046128c9565b6106ca565b61023361028a366004612905565b610710565b61025461029d36600461291e565b610746565b604051601281526020016101ff565b6102546102bf36600461291e565b61078a565b61021b6102d23660046127c5565b610839565b6102546108a1565b6102546102ed3660046127c5565b6108dc565b61021b61090f565b61021b610308366004612a5e565b610919565b61023361031b366004612a9b565b610924565b61025461096e565b61033b6103363660046128a7565b6109a7565b60405173ffffffffffffffffffffffffffffffffffffffff90911681526020016101ff565b61021b61036e36600461291e565b6109ba565b6101f26109c6565b61021b6103893660046127c5565b6109d0565b61021b61039c3660046127c5565b610a71565b6102336103af366004612905565b610a9a565b6102546103c236600461283b565b610aa5565b6102546103d5366004612ab6565b610c64565b6102337ff9424f4303d7f03683a025eb8885734ad99b47df7749d9b0a02cbc985809700b81565b61025461040f36600461291e565b610cd2565b610233610422366004612b39565b610d0c565b610254610435366004612ab6565b610d65565b61021b610448366004612a9b565b610dce565b61025461045b366004612b63565b610e1b565b606061046a611138565b905090565b600061047c3384846111ec565b5060015b92915050565b600061046a7f1bdb0091f995c1d3419374bcead175ae14251e0f0aba8df7ace36571bda12e9c5490565b6104d97ff988e4fb62b8e14f4820fed03192306ddf4d7dbfa215595ba1c6ba4b76b369ee611314565b801561061e57828114610573576040517f08c379a000000000000000000000000000000000000000000000000000000000815260206004820152602360248201527f53696d706c65426c61636b6c6973743a204e6f7420656e6f756768207265617360448201527f6f6e73000000000000000000000000000000000000000000000000000000000060648201526084015b60405180910390fd5b60005b838110156106185761060685858381811061059357610593612c2d565b90506020020160208101906105a89190612a9b565b8484848181106105ba576105ba612c2d565b90506020028101906105cc9190612c5c565b8080601f01602080910402602001604051908101604052809392919081815260200183838082843760009201919091525061132192505050565b8061061081612cf0565b915050610576565b5061067c565b60005b8381101561067a5761066885858381811061063e5761063e612c2d565b90506020020160208101906106539190612a9b565b60405180602001604052806000815250611321565b8061067281612cf0565b915050610621565b505b50505050565b60008281527fffaa26784aca465bf23123375047d80ccb2b41102e02e5c4ef5b5aa00624b2d260205260409020600101546106bc90611314565b6106c68282611432565b5050565b60006106d6848461149c565b6106de61159b565b6106e7846115a4565b6106f0836115a4565b6106fb8433846115ad565b610706848484611677565b5060019392505050565b60008181527fffaa26784aca465bf23123375047d80ccb2b41102e02e5c4ef5b5aa00624b2d26020526040812060010154610480565b60008281527fffaa26784aca465bf23123375047d80ccb2b41102e02e5c4ef5b5aa00624b2d2602052604090206001015461078090611314565b6106c6828261183a565b73ffffffffffffffffffffffffffffffffffffffff8116331461082f576040517f08c379a000000000000000000000000000000000000000000000000000000000815260206004820152602f60248201527f416363657373436f6e74726f6c3a2063616e206f6e6c792072656e6f756e636560448201527f20726f6c657320666f722073656c660000000000000000000000000000000000606482015260840161056a565b6106c6828261193c565b3360008181527f1bdb0091f995c1d3419374bcead175ae14251e0f0aba8df7ace36571bda12ea06020908152604080832073ffffffffffffffffffffffffffffffffffffffff87168452909152812054909161047c91859061089c908690612d28565b6111ec565b6108ca7f356a809dfdea9198dd76fb76bf6d403ecf13ea675eb89e1eda2db2c4a4676a26611314565b6108d2611a3c565b6108da611ada565b565b6109057ff9424f4303d7f03683a025eb8885734ad99b47df7749d9b0a02cbc985809700b611314565b6106c68282611b57565b600061046a611c3a565b600061048082611c67565b73ffffffffffffffffffffffffffffffffffffffff811660009081527f1bdb0091f995c1d3419374bcead175ae14251e0f0aba8df7ace36571bda12e9f6020526040812054610480565b6109977f356a809dfdea9198dd76fb76bf6d403ecf13ea675eb89e1eda2db2c4a4676a26611314565b61099f611d04565b6108da611da3565b60006109b38383611e1d565b9392505050565b60006109b38383611e54565b606061046a611f47565b3360009081527f1bdb0091f995c1d3419374bcead175ae14251e0f0aba8df7ace36571bda12ea06020908152604080832073ffffffffffffffffffffffffffffffffffffffff8616845290915281205480831115610a64576040517fc7d2f36c000000000000000000000000000000000000000000000000000000008152600481018490526024810182905260440161056a565b61070633858584036111ec565b6000610a7e83600061149c565b610a8661159b565b610a8f836115a4565b61047c338484611677565b600061048082611f78565b610ace7ff988e4fb62b8e14f4820fed03192306ddf4d7dbfa215595ba1c6ba4b76b369ee611314565b8015610c0857828114610b63576040517f08c379a000000000000000000000000000000000000000000000000000000000815260206004820152602360248201527f53696d706c65426c61636b6c6973743a204e6f7420656e6f756768207265617360448201527f6f6e730000000000000000000000000000000000000000000000000000000000606482015260840161056a565b60005b8381101561061857610bf6858583818110610b8357610b83612c2d565b9050602002016020810190610b989190612a9b565b848484818110610baa57610baa612c2d565b9050602002810190610bbc9190612c5c565b8080601f016020809104026020016040519081016040528093929190818152602001838380828437600092019190915250611fae92505050565b80610c0081612cf0565b915050610b66565b60005b8381101561067a57610c52858583818110610c2857610c28612c2d565b9050602002016020810190610c3d9190612a9b565b60405180602001604052806000815250611fae565b80610c5c81612cf0565b915050610c0b565b610c8d7ff988e4fb62b8e14f4820fed03192306ddf4d7dbfa215595ba1c6ba4b76b369ee611314565b610ccd8383838080601f01602080910402602001604051908101604052809392919081815260200183838082843760009201919091525061132192505050565b505050565b60008281527fffaa26784aca465bf23123375047d80ccb2b41102e02e5c4ef5b5aa00624b2d2602052604090206001015461082f90611314565b73ffffffffffffffffffffffffffffffffffffffff80831660009081527f1bdb0091f995c1d3419374bcead175ae14251e0f0aba8df7ace36571bda12ea0602090815260408083209385168352929052908120546109b3565b610d8e7ff988e4fb62b8e14f4820fed03192306ddf4d7dbfa215595ba1c6ba4b76b369ee611314565b610ccd8383838080601f016020809104026020016040519081016040528093929190818152602001838380828437600092019190915250611fae92505050565b73ffffffffffffffffffffffffffffffffffffffff811660009081527fdd021e813d5056b401d30ba505d211a2ca2652076f58ad407a75764b92ed7d9d602052604081205460ff16610480565b7f0de7f2b0af5ab1aa4eca2b133cdee828bdcfefa98e4927fa304b2ad002ca6eb354610100900460ff1615808015610e7957507f0de7f2b0af5ab1aa4eca2b133cdee828bdcfefa98e4927fa304b2ad002ca6eb354600160ff909116105b80610e985750303b158015610e985750610e916120c1565b60ff166001145b1561110657610ea760016120e9565b8015610ef9577f0de7f2b0af5ab1aa4eca2b133cdee828bdcfefa98e4927fa304b2ad002ca6eb380547fffffffffffffffffffffffffffffffffffffffffffffffffffffffffffff00ff166101001790555b610f376040518060400160405280600f81526020017f4b796f746f5377617020546f6b656e00000000000000000000000000000000008152506121a1565b610f756040518060400160405280600581526020017f4b535741500000000000000000000000000000000000000000000000000000008152506121cc565b610fbf7ff9424f4303d7f03683a025eb8885734ad99b47df7749d9b0a02cbc985809700b7f241ecf16d79d0f8dbfb92cbc07fe17840425976cf0667f022fe9877caa831b08611432565b610fca60008561183a565b610ff47f241ecf16d79d0f8dbfb92cbc07fe17840425976cf0667f022fe9877caa831b088561183a565b61101e7f241ecf16d79d0f8dbfb92cbc07fe17840425976cf0667f022fe9877caa831b083361183a565b611026611ada565b60005b835181101561107e5761106e84828151811061104757611047612c2d565b602002602001015184838151811061106157611061612c2d565b6020026020010151611b57565b61107781612cf0565b9050611029565b508015611101577f0de7f2b0af5ab1aa4eca2b133cdee828bdcfefa98e4927fa304b2ad002ca6eb380547fffffffffffffffffffffffffffffffffffffffffffffffffffffffffffff00ff169055604051600181527f7f26b83ff96e1f2b6a682f133852f6798a09c465da95921460cefb38474024989060200160405180910390a15b61067c565b6040517f5d99ebd200000000000000000000000000000000000000000000000000000000815260040160405180910390fd5b60607f1bdb0091f995c1d3419374bcead175ae14251e0f0aba8df7ace36571bda12e9c600101805461116990612d3b565b80601f016020809104026020016040519081016040528092919081815260200182805461119590612d3b565b80156111e25780601f106111b7576101008083540402835291602001916111e2565b820191906000526020600020905b8154815290600101906020018083116111c557829003601f168201915b5050505050905090565b73ffffffffffffffffffffffffffffffffffffffff8316611239576040517fbec36d8f00000000000000000000000000000000000000000000000000000000815260040160405180910390fd5b73ffffffffffffffffffffffffffffffffffffffff8216611286576040517fd8aedff600000000000000000000000000000000000000000000000000000000815260040160405180910390fd5b73ffffffffffffffffffffffffffffffffffffffff83811660008181527f1bdb0091f995c1d3419374bcead175ae14251e0f0aba8df7ace36571bda12ea0602090815260408083209487168084529482529182902085905590518481527f8c5be1e5ebec7d5bd14f71427d1e84f3dd0314c0f7b2291e5b200ac8c7c3b92591015b60405180910390a3505050565b61131e81336121f7565b50565b73ffffffffffffffffffffffffffffffffffffffff821660009081527fdd021e813d5056b401d30ba505d211a2ca2652076f58ad407a75764b92ed7d9d602052604090205460ff16156106c65773ffffffffffffffffffffffffffffffffffffffff821660009081527fdd021e813d5056b401d30ba505d211a2ca2652076f58ad407a75764b92ed7d9d60205260409081902080547fffffffffffffffffffffffffffffffffffffffffffffffffffffffffffffff00169055516113e6908290612d8e565b6040519081900381209073ffffffffffffffffffffffffffffffffffffffff8416907fe4e3c0e67592981f9042a3df81ea0ee0dfb06be469efdbd2bfc674ab37ab62fe90600090a35050565b60008281527fffaa26784aca465bf23123375047d80ccb2b41102e02e5c4ef5b5aa00624b2d26020526040808220600101805490849055905190918391839186917fbd79b86ffe0ab8e8776151514217cd7cacd52c909f66475c3af44e129f0b00ff9190a4505050565b6114a4611c3a565b15806114d557506114d57fda6fac9f81a22bb02ed26455dcee2a5f2434c8a3377a2cc986478052c1594f9e33611e54565b8061150557506115057fda6fac9f81a22bb02ed26455dcee2a5f2434c8a3377a2cc986478052c1594f9e83611e54565b8061153557506115357fda6fac9f81a22bb02ed26455dcee2a5f2434c8a3377a2cc986478052c1594f9e82611e54565b6106c6576040517f08c379a000000000000000000000000000000000000000000000000000000000815260206004820152601060248201527f5061757361626c653a2070617573656400000000000000000000000000000000604482015260640161056a565b6108da336122a0565b61131e816122a0565b73ffffffffffffffffffffffffffffffffffffffff83811660009081527f1bdb0091f995c1d3419374bcead175ae14251e0f0aba8df7ace36571bda12ea060209081526040808320938616835292905220547fffffffffffffffffffffffffffffffffffffffffffffffffffffffffffffffff811461067c578082111561166a576040517f9667a91e000000000000000000000000000000000000000000000000000000008152600481018390526024810182905260440161056a565b61067c84848484036111ec565b73ffffffffffffffffffffffffffffffffffffffff83166116c4576040517f27903dcf00000000000000000000000000000000000000000000000000000000815260040160405180910390fd5b73ffffffffffffffffffffffffffffffffffffffff8216611711576040517f0359c55e00000000000000000000000000000000000000000000000000000000815260040160405180910390fd5b73ffffffffffffffffffffffffffffffffffffffff831660009081527f1bdb0091f995c1d3419374bcead175ae14251e0f0aba8df7ace36571bda12e9f60205260409020547f1bdb0091f995c1d3419374bcead175ae14251e0f0aba8df7ace36571bda12e9c90808311156117bc576040517f089b804c000000000000000000000000000000000000000000000000000000008152600481018490526024810182905260440161056a565b73ffffffffffffffffffffffffffffffffffffffff808616600081815260038501602052604080822087860390559287168082529083902080548701905591517fddf252ad1be2c89b69c2b068fc378daa952ba7f163c4a11628f55a4df523b3ef9061182b9087815260200190565b60405180910390a35050505050565b6118448282611e54565b6106c65760008281527fffaa26784aca465bf23123375047d80ccb2b41102e02e5c4ef5b5aa00624b2d26020908152604080832073ffffffffffffffffffffffffffffffffffffffff85168452825280832080547fffffffffffffffffffffffffffffffffffffffffffffffffffffffffffffff001660011790558483527fffaa26784aca465bf23123375047d80ccb2b41102e02e5c4ef5b5aa00624b2d390915290206118f2908261231e565b50604051339073ffffffffffffffffffffffffffffffffffffffff83169084907f2f8788117e7eff1d82e926ec794901d17c78024a50270940304540a733656f0d90600090a45050565b6119468282611e54565b156106c65760008281527fffaa26784aca465bf23123375047d80ccb2b41102e02e5c4ef5b5aa00624b2d26020908152604080832073ffffffffffffffffffffffffffffffffffffffff85168452825280832080547fffffffffffffffffffffffffffffffffffffffffffffffffffffffffffffff001690558483527fffaa26784aca465bf23123375047d80ccb2b41102e02e5c4ef5b5aa00624b2d390915290206119f29082612340565b50604051339073ffffffffffffffffffffffffffffffffffffffff83169084907ff6391f5c32d9c69d2a47ea670b442974b53935d1edc7fd64eb21e047a839171b90600090a45050565b611a44611c3a565b80611a745750611a747fda6fac9f81a22bb02ed26455dcee2a5f2434c8a3377a2cc986478052c1594f9e33611e54565b6108da576040517f08c379a000000000000000000000000000000000000000000000000000000000815260206004820152601460248201527f5061757361626c653a206e6f7420706175736564000000000000000000000000604482015260640161056a565b7fb65939979d77055fe20d21bcb90b95461947bffa39f3588194f5015117626ea780547fffffffffffffffffffffffffffffffffffffffffffffffffffffffffffffff001690556040513381527f5db9ee0a495bf2e6ff9c91a7834c1ba4fdd244a5e8aa4e537bd38aeae4b073aa906020015b60405180910390a1565b73ffffffffffffffffffffffffffffffffffffffff8216611ba4576040517fd1bb5a3e00000000000000000000000000000000000000000000000000000000815260040160405180910390fd5b7f1bdb0091f995c1d3419374bcead175ae14251e0f0aba8df7ace36571bda12e9c805482908290600090611bd9908490612d28565b909155505073ffffffffffffffffffffffffffffffffffffffff831660008181526003830160209081526040808320805487019055518581527fddf252ad1be2c89b69c2b068fc378daa952ba7f163c4a11628f55a4df523b3ef9101611307565b60007fb65939979d77055fe20d21bcb90b95461947bffa39f3588194f5015117626ea75b5460ff16919050565b6000805b8251811015611cfb57611cdb838281518110611c8957611c89612c2d565b602002602001015173ffffffffffffffffffffffffffffffffffffffff1660009081527fdd021e813d5056b401d30ba505d211a2ca2652076f58ad407a75764b92ed7d9d602052604090205460ff1690565b15611ce95750600192915050565b80611cf381612cf0565b915050611c6b565b50600092915050565b611d0c611c3a565b1580611d3d5750611d3d7fda6fac9f81a22bb02ed26455dcee2a5f2434c8a3377a2cc986478052c1594f9e33611e54565b6108da576040517f08c379a000000000000000000000000000000000000000000000000000000000815260206004820152601060248201527f5061757361626c653a2070617573656400000000000000000000000000000000604482015260640161056a565b7fb65939979d77055fe20d21bcb90b95461947bffa39f3588194f5015117626ea780547fffffffffffffffffffffffffffffffffffffffffffffffffffffffffffffff001660011790556040513381527f62e78cea01bee320cd4e420270b5ea74000d11b0c9f74754ebdbfc544b05a25890602001611b4d565b60008281527fffaa26784aca465bf23123375047d80ccb2b41102e02e5c4ef5b5aa00624b2d3602052604081206109b39083612362565b60007fffaa26784aca465bf23123375047d80ccb2b41102e02e5c4ef5b5aa00624b2d260008481526020918252604080822073ffffffffffffffffffffffffffffffffffffffff86168352909252205460ff16806109b357507fffaa26784aca465bf23123375047d80ccb2b41102e02e5c4ef5b5aa00624b2d26000611f088560009081527fffaa26784aca465bf23123375047d80ccb2b41102e02e5c4ef5b5aa00624b2d2602052604090206001015490565b81526020808201929092526040908101600090812073ffffffffffffffffffffffffffffffffffffffff8616825290925290205460ff16905092915050565b60607f1bdb0091f995c1d3419374bcead175ae14251e0f0aba8df7ace36571bda12e9c600201805461116990612d3b565b60008181527fffaa26784aca465bf23123375047d80ccb2b41102e02e5c4ef5b5aa00624b2d3602052604081206104809061236e565b73ffffffffffffffffffffffffffffffffffffffff821660009081527fdd021e813d5056b401d30ba505d211a2ca2652076f58ad407a75764b92ed7d9d602052604090205460ff166106c65773ffffffffffffffffffffffffffffffffffffffff821660009081527fdd021e813d5056b401d30ba505d211a2ca2652076f58ad407a75764b92ed7d9d60205260409081902080547fffffffffffffffffffffffffffffffffffffffffffffffffffffffffffffff0016600117905551612075908290612d8e565b6040519081900381209073ffffffffffffffffffffffffffffffffffffffff8416907f71ffd5b2f7b305f2f756c161455e2951077ed1951f9ecbee6252949bc1e13c5a90600090a35050565b60007f0de7f2b0af5ab1aa4eca2b133cdee828bdcfefa98e4927fa304b2ad002ca6eb3611c5e565b7f0de7f2b0af5ab1aa4eca2b133cdee828bdcfefa98e4927fa304b2ad002ca6eb35460ff80831691161061214e576040517fbfdd178500000000000000000000000000000000000000000000000000000000815260ff8216600482015260240161056a565b7f0de7f2b0af5ab1aa4eca2b133cdee828bdcfefa98e4927fa304b2ad002ca6eb380547fffffffffffffffffffffffffffffffffffffffffffffffffffffffffffffff001660ff92909216919091179055565b7f1bdb0091f995c1d3419374bcead175ae14251e0f0aba8df7ace36571bda12e9d6106c68282612df8565b7f1bdb0091f995c1d3419374bcead175ae14251e0f0aba8df7ace36571bda12e9e6106c68282612df8565b6122018282611e54565b6106c6576122268173ffffffffffffffffffffffffffffffffffffffff166014612378565b612231836020612378565b604051602001612242929190612f12565b604080517fffffffffffffffffffffffffffffffffffffffffffffffffffffffffffffffe0818403018152908290527f08c379a000000000000000000000000000000000000000000000000000000000825261056a9160040161274b565b73ffffffffffffffffffffffffffffffffffffffff811660009081527fdd021e813d5056b401d30ba505d211a2ca2652076f58ad407a75764b92ed7d9d602052604090205460ff161561131e5761230e8173ffffffffffffffffffffffffffffffffffffffff166014612378565b6040516020016122429190612f93565b60006109b38373ffffffffffffffffffffffffffffffffffffffff84166125bb565b60006109b38373ffffffffffffffffffffffffffffffffffffffff841661260a565b60006109b383836126fd565b6000610480825490565b60606000612387836002612fff565b612392906002612d28565b67ffffffffffffffff8111156123aa576123aa61294a565b6040519080825280601f01601f1916602001820160405280156123d4576020820181803683370190505b5090507f30000000000000000000000000000000000000000000000000000000000000008160008151811061240b5761240b612c2d565b60200101907effffffffffffffffffffffffffffffffffffffffffffffffffffffffffffff1916908160001a9053507f78000000000000000000000000000000000000000000000000000000000000008160018151811061246e5761246e612c2d565b60200101907effffffffffffffffffffffffffffffffffffffffffffffffffffffffffffff1916908160001a90535060006124aa846002612fff565b6124b5906001612d28565b90505b6001811115612552577f303132333435363738396162636465660000000000000000000000000000000085600f16601081106124f6576124f6612c2d565b1a60f81b82828151811061250c5761250c612c2d565b60200101907effffffffffffffffffffffffffffffffffffffffffffffffffffffffffffff1916908160001a90535060049490941c9361254b81613016565b90506124b8565b5083156109b3576040517f08c379a000000000000000000000000000000000000000000000000000000000815260206004820181905260248201527f537472696e67733a20686578206c656e67746820696e73756666696369656e74604482015260640161056a565b600081815260018301602052604081205461260257508154600181810184556000848152602080822090930184905584548482528286019093526040902091909155610480565b506000610480565b600081815260018301602052604081205480156126f357600061262e60018361304b565b85549091506000906126429060019061304b565b90508181146126a757600086600001828154811061266257612662612c2d565b906000526020600020015490508087600001848154811061268557612685612c2d565b6000918252602080832090910192909255918252600188019052604090208390555b85548690806126b8576126b861305e565b600190038181906000526020600020016000905590558560010160008681526020019081526020016000206000905560019350505050610480565b6000915050610480565b600082600001828154811061271457612714612c2d565b9060005260206000200154905092915050565b60005b8381101561274257818101518382015260200161272a565b50506000910152565b602081526000825180602084015261276a816040850160208701612727565b601f017fffffffffffffffffffffffffffffffffffffffffffffffffffffffffffffffe0169190910160400192915050565b803573ffffffffffffffffffffffffffffffffffffffff811681146127c057600080fd5b919050565b600080604083850312156127d857600080fd5b6127e18361279c565b946020939093013593505050565b60008083601f84011261280157600080fd5b50813567ffffffffffffffff81111561281957600080fd5b6020830191508360208260051b850101111561283457600080fd5b9250929050565b6000806000806040858703121561285157600080fd5b843567ffffffffffffffff8082111561286957600080fd5b612875888389016127ef565b9096509450602087013591508082111561288e57600080fd5b5061289b878288016127ef565b95989497509550505050565b600080604083850312156128ba57600080fd5b50508035926020909101359150565b6000806000606084860312156128de57600080fd5b6128e78461279c565b92506128f56020850161279c565b9150604084013590509250925092565b60006020828403121561291757600080fd5b5035919050565b6000806040838503121561293157600080fd5b823591506129416020840161279c565b90509250929050565b7f4e487b7100000000000000000000000000000000000000000000000000000000600052604160045260246000fd5b604051601f82017fffffffffffffffffffffffffffffffffffffffffffffffffffffffffffffffe016810167ffffffffffffffff811182821017156129c0576129c061294a565b604052919050565b600067ffffffffffffffff8211156129e2576129e261294a565b5060051b60200190565b600082601f8301126129fd57600080fd5b81356020612a12612a0d836129c8565b612979565b82815260059290921b84018101918181019086841115612a3157600080fd5b8286015b84811015612a5357612a468161279c565b8352918301918301612a35565b509695505050505050565b600060208284031215612a7057600080fd5b813567ffffffffffffffff811115612a8757600080fd5b612a93848285016129ec565b949350505050565b600060208284031215612aad57600080fd5b6109b38261279c565b600080600060408486031215612acb57600080fd5b612ad48461279c565b9250602084013567ffffffffffffffff80821115612af157600080fd5b818601915086601f830112612b0557600080fd5b813581811115612b1457600080fd5b876020828501011115612b2657600080fd5b6020830194508093505050509250925092565b60008060408385031215612b4c57600080fd5b612b558361279c565b91506129416020840161279c565b600080600060608486031215612b7857600080fd5b612b818461279c565b925060208085013567ffffffffffffffff80821115612b9f57600080fd5b612bab888389016129ec565b94506040870135915080821115612bc157600080fd5b508501601f81018713612bd357600080fd5b8035612be1612a0d826129c8565b81815260059190911b82018301908381019089831115612c0057600080fd5b928401925b82841015612c1e57833582529284019290840190612c05565b80955050505050509250925092565b7f4e487b7100000000000000000000000000000000000000000000000000000000600052603260045260246000fd5b60008083357fffffffffffffffffffffffffffffffffffffffffffffffffffffffffffffffe1843603018112612c9157600080fd5b83018035915067ffffffffffffffff821115612cac57600080fd5b60200191503681900382131561283457600080fd5b7f4e487b7100000000000000000000000000000000000000000000000000000000600052601160045260246000fd5b60007fffffffffffffffffffffffffffffffffffffffffffffffffffffffffffffffff8203612d2157612d21612cc1565b5060010190565b8082018082111561048057610480612cc1565b600181811c90821680612d4f57607f821691505b602082108103612d88577f4e487b7100000000000000000000000000000000000000000000000000000000600052602260045260246000fd5b50919050565b60008251612da0818460208701612727565b9190910192915050565b601f821115610ccd57600081815260208120601f850160051c81016020861015612dd15750805b601f850160051c820191505b81811015612df057828155600101612ddd565b505050505050565b815167ffffffffffffffff811115612e1257612e1261294a565b612e2681612e208454612d3b565b84612daa565b602080601f831160018114612e795760008415612e435750858301515b7fffffffffffffffffffffffffffffffffffffffffffffffffffffffffffffffff600386901b1c1916600185901b178555612df0565b6000858152602081207fffffffffffffffffffffffffffffffffffffffffffffffffffffffffffffffe08616915b82811015612ec657888601518255948401946001909101908401612ea7565b5085821015612f0257878501517fffffffffffffffffffffffffffffffffffffffffffffffffffffffffffffffff600388901b60f8161c191681555b5050505050600190811b01905550565b7f416363657373436f6e74726f6c3a206163636f756e7420000000000000000000815260008351612f4a816017850160208801612727565b7f206973206d697373696e6720726f6c65200000000000000000000000000000006017918401918201528351612f87816028840160208801612727565b01602801949350505050565b7f53696d706c65426c61636b6c6973743a206163636f756e742000000000000000815260008251612fcb816019850160208701612727565b7f20697320626c61636b6c697374656400000000000000000000000000000000006019939091019283015250602801919050565b808202811582820484141761048057610480612cc1565b60008161302557613025612cc1565b507fffffffffffffffffffffffffffffffffffffffffffffffffffffffffffffffff0190565b8181038181111561048057610480612cc1565b7f4e487b7100000000000000000000000000000000000000000000000000000000600052603160045260246000fdfea26469706673582212205688406c9cd10cff153890ec879451d508033b3edcd2097218e1cae7ab998f8c64736f6c63430008110033",
  "devdoc": {
    "kind": "dev",
    "methods": {
      "allowance(address,address)": {
        "details": "Returns the remaining number of tokens that `spender` will be allowed to spend on behalf of `owner` through {transferFrom}. This is zero by default. This value changes when {approve} or {transferFrom} are called."
      },
      "approve(address,uint256)": {
        "details": "Sets `amount` as the allowance of `spender` over the caller's tokens. Returns a boolean value indicating whether the operation succeeded. IMPORTANT: Beware that changing an allowance with this method brings the risk that someone may use both the old and the new allowance by unfortunate transaction ordering. One possible solution to mitigate this race condition is to first reduce the spender's allowance to 0 and set the desired value afterwards: https://github.com/ethereum/EIPs/issues/20#issuecomment-263524729 Emits an {Approval} event."
      },
      "balanceOf(address)": {
        "details": "Returns the amount of tokens owned by `account`."
      },
      "blacklist(address,string)": {
        "details": "External function to add `account` to the blacklist. WARNING: This function is abstract, to enforce it's implementation          in the final contract. This is important to make sure          the final contraqct's access control mechanism will be used! See {ISimpleBlacklist-blacklist}"
      },
      "blacklist(address[],string[])": {
        "details": "External function to add `account` to the blacklist. WARNING: This function is abstract, to enforce it's implementation          in the final contract. This is important to make sure          the final contraqct's access control mechanism will be used! See {ISimpleBlacklist-blacklist}"
      },
      "decimals()": {
        "details": "Returns the decimals places of the token."
      },
      "decreaseAllowance(address,uint256)": {
        "details": "Atomically decreases the allowance granted to `spender` by the caller. This is an alternative to {approve} that can be used as a mitigation for problems described in {IERC20-approve}. Emits an {Approval} event indicating the updated allowance. Requirements: - `spender` cannot be the zero address. - `spender` must have allowance for the caller of at least `subtractedValue`."
      },
      "getRoleAdmin(bytes32)": {
        "details": "Returns the admin role that controls `role`. See {grantRole} and {revokeRole}. To change a role's admin, use {AccessControl-setRoleAdmin}."
      },
      "getRoleMember(bytes32,uint256)": {
        "details": "Returns one of the accounts that have `role`. `index` must be a value between 0 and {getRoleMemberCount}, non-inclusive. Role bearers are not sorted in any particular way, and their ordering may change at any point. WARNING: When using {getRoleMember} and {getRoleMemberCount}, make sure you perform all queries on the same block. See the following https://forum.openzeppelin.com/t/iterating-over-elements-on-enumerableset-in-openzeppelin-contracts/2296[forum post] for more information."
      },
      "getRoleMemberCount(bytes32)": {
        "details": "Returns the number of accounts that have `role`. Can be used together with {getRoleMember} to enumerate all bearers of a role."
      },
      "grantRole(bytes32,address)": {
        "details": "Grants `role` to `account`. If `account` had not been already granted `role`, emits a {RoleGranted} event. Requirements: - the caller must have ``role``'s admin role."
      },
      "hasRole(bytes32,address)": {
        "details": "Returns `true` if `account` has been granted `role`."
      },
      "increaseAllowance(address,uint256)": {
        "details": "Atomically increases the allowance granted to `spender` by the caller. This is an alternative to {approve} that can be used as a mitigation for problems described in {IERC20-approve}. Emits an {Approval} event indicating the updated allowance. Requirements: - `spender` cannot be the zero address."
      },
      "isBlacklisted(address)": {
        "details": "Returns `true` if `account` is blacklisted."
      },
      "isBlacklisted(address[])": {
        "details": "Returns `true` if any address in `accounts` is on the blacklist."
      },
      "name()": {
        "details": "Returns the name of the token."
      },
      "pause()": {
        "details": "Triggers stopped state. Requirements: - The contract must not be paused."
      },
      "paused()": {
        "details": "Returns true if the contract is paused, and false otherwise."
      },
      "renounceRole(bytes32,address)": {
        "details": "Revokes `role` from the calling account. Roles are often managed via {grantRole} and {revokeRole}: this function's purpose is to provide a mechanism for accounts to lose their privileges if they are compromised (such as when a trusted device is misplaced). If the calling account had been granted `role`, emits a {RoleRevoked} event. Requirements: - the caller must be `account`."
      },
      "revokeRole(bytes32,address)": {
        "details": "Revokes `role` from `account`. If `account` had been granted `role`, emits a {RoleRevoked} event. Requirements: - the caller must have ``role``'s admin role."
      },
      "setRoleAdmin(bytes32,bytes32)": {
        "details": "Sets `adminRole` as ``role``'s admin role. Emits a {RoleAdminChanged} event."
      },
      "symbol()": {
        "details": "Returns the symbol of the token."
      },
      "totalSupply()": {
        "details": "Returns the amount of tokens in existence."
      },
      "transfer(address,uint256)": {
        "details": "Moves `amount` tokens from the caller's account to `to`. Returns a boolean value indicating whether the operation succeeded. Emits a {Transfer} event."
      },
      "transferFrom(address,address,uint256)": {
        "details": "Moves `amount` tokens from `from` to `to` using the allowance mechanism. `amount` is then deducted from the caller's allowance. Returns a boolean value indicating whether the operation succeeded. Emits a {Transfer} event."
      },
      "unblacklist(address,string)": {
        "details": "External function to remove `account` from the blacklist. WARNING: This function is abstract, to enforce it's implementation          in the final contract. This is important to make sure          the final contraqct's access control mechanism will be used! See {ISimpleBlacklist-unblacklist}"
      },
      "unblacklist(address[],string[])": {
        "details": "External function to add `account` to the blacklist. WARNING: This function is abstract, to enforce it's implementation          in the final contract. This is important to make sure          the final contraqct's access control mechanism will be used! See {ISimpleBlacklist-blacklist}"
      },
      "unpause()": {
        "details": "Returns to normal state. Requirements: - The contract must be paused."
      }
    },
    "version": 1
  },
  "userdoc": {
    "kind": "user",
    "methods": {},
    "version": 1
  },
  "storageLayout": {
    "storage": [],
    "types": null
  }
}