{
  "address": "0x87661a74d8020388dbfad322d9Cc8c00A67109E6",
  "abi": [
    {
      "inputs": [],
      "name": "InitializerContractAlreadyInitialized",
      "type": "error"
    },
    {
      "inputs": [],
      "name": "InitializerContractIsInitializing",
      "type": "error"
    },
    {
      "inputs": [],
      "name": "InitializerContractIsNotInitializing",
      "type": "error"
    },
    {
      "inputs": [
        {
          "internalType": "uint8",
          "name": "version",
          "type": "uint8"
        }
      ],
      "name": "InitializerVersionAlreadyInitialized",
      "type": "error"
    },
    {
      "inputs": [],
      "name": "ReentrancyGuardReentrantCall",
      "type": "error"
    },
    {
      "anonymous": false,
      "inputs": [
        {
          "indexed": true,
          "internalType": "uint256",
          "name": "pid",
          "type": "uint256"
        },
        {
          "indexed": false,
          "internalType": "uint256",
          "name": "allocPoint",
          "type": "uint256"
        },
        {
          "indexed": true,
          "internalType": "contract IERC20",
          "name": "lpToken",
          "type": "address"
        },
        {
          "indexed": false,
          "internalType": "bool",
          "name": "isRegular",
          "type": "bool"
        }
      ],
      "name": "AddPool",
      "type": "event"
    },
    {
      "anonymous": false,
      "inputs": [
        {
          "indexed": true,
          "internalType": "address",
          "name": "account",
          "type": "address"
        },
        {
          "indexed": true,
          "internalType": "string",
          "name": "reason",
          "type": "string"
        }
      ],
      "name": "Blacklisted",
      "type": "event"
    },
    {
      "anonymous": false,
      "inputs": [
        {
          "indexed": true,
          "internalType": "address",
          "name": "user",
          "type": "address"
        },
        {
          "indexed": true,
          "internalType": "uint256",
          "name": "pid",
          "type": "uint256"
        },
        {
          "indexed": false,
          "internalType": "uint256",
          "name": "amount",
          "type": "uint256"
        }
      ],
      "name": "Deposit",
      "type": "event"
    },
    {
      "anonymous": false,
      "inputs": [
        {
          "indexed": true,
          "internalType": "address",
          "name": "user",
          "type": "address"
        },
        {
          "indexed": true,
          "internalType": "uint256",
          "name": "pid",
          "type": "uint256"
        },
        {
          "indexed": false,
          "internalType": "uint256",
          "name": "amount",
          "type": "uint256"
        }
      ],
      "name": "EmergencyWithdraw",
      "type": "event"
    },
    {
      "anonymous": false,
      "inputs": [
        {
          "indexed": false,
          "internalType": "uint8",
          "name": "version",
          "type": "uint8"
        }
      ],
      "name": "Initialized",
      "type": "event"
    },
    {
      "anonymous": false,
      "inputs": [
        {
          "indexed": true,
          "internalType": "bytes32",
          "name": "role",
          "type": "bytes32"
        },
        {
          "indexed": true,
          "internalType": "bytes32",
          "name": "previousAdminRole",
          "type": "bytes32"
        },
        {
          "indexed": true,
          "internalType": "bytes32",
          "name": "newAdminRole",
          "type": "bytes32"
        }
      ],
      "name": "RoleAdminChanged",
      "type": "event"
    },
    {
      "anonymous": false,
      "inputs": [
        {
          "indexed": true,
          "internalType": "bytes32",
          "name": "role",
          "type": "bytes32"
        },
        {
          "indexed": true,
          "internalType": "address",
          "name": "account",
          "type": "address"
        },
        {
          "indexed": true,
          "internalType": "address",
          "name": "sender",
          "type": "address"
        }
      ],
      "name": "RoleGranted",
      "type": "event"
    },
    {
      "anonymous": false,
      "inputs": [
        {
          "indexed": true,
          "internalType": "bytes32",
          "name": "role",
          "type": "bytes32"
        },
        {
          "indexed": true,
          "internalType": "address",
          "name": "account",
          "type": "address"
        },
        {
          "indexed": true,
          "internalType": "address",
          "name": "sender",
          "type": "address"
        }
      ],
      "name": "RoleRevoked",
      "type": "event"
    },
    {
      "anonymous": false,
      "inputs": [
        {
          "indexed": true,
          "internalType": "uint256",
          "name": "pid",
          "type": "uint256"
        },
        {
          "indexed": false,
          "internalType": "uint256",
          "name": "allocPoint",
          "type": "uint256"
        }
      ],
      "name": "SetPool",
      "type": "event"
    },
    {
      "anonymous": false,
      "inputs": [
        {
          "indexed": true,
          "internalType": "address",
          "name": "user",
          "type": "address"
        },
        {
          "indexed": false,
          "internalType": "address",
          "name": "treasury",
          "type": "address"
        }
      ],
      "name": "SetTreasuryAddress",
      "type": "event"
    },
    {
      "anonymous": false,
      "inputs": [
        {
          "indexed": true,
          "internalType": "address",
          "name": "account",
          "type": "address"
        },
        {
          "indexed": true,
          "internalType": "string",
          "name": "reason",
          "type": "string"
        }
      ],
      "name": "UnBlacklisted",
      "type": "event"
    },
    {
      "anonymous": false,
      "inputs": [
        {
          "indexed": true,
          "internalType": "address",
          "name": "boostContract",
          "type": "address"
        }
      ],
      "name": "UpdateBoostContract",
      "type": "event"
    },
    {
      "anonymous": false,
      "inputs": [
        {
          "indexed": true,
          "internalType": "address",
          "name": "user",
          "type": "address"
        },
        {
          "indexed": false,
          "internalType": "uint256",
          "name": "pid",
          "type": "uint256"
        },
        {
          "indexed": false,
          "internalType": "uint256",
          "name": "oldMultiplier",
          "type": "uint256"
        },
        {
          "indexed": false,
          "internalType": "uint256",
          "name": "newMultiplier",
          "type": "uint256"
        }
      ],
      "name": "UpdateBoostMultiplier",
      "type": "event"
    },
    {
      "anonymous": false,
      "inputs": [
        {
          "indexed": true,
          "internalType": "address",
          "name": "oldAdmin",
          "type": "address"
        },
        {
          "indexed": true,
          "internalType": "address",
          "name": "newAdmin",
          "type": "address"
        }
      ],
      "name": "UpdateBurnAdmin",
      "type": "event"
    },
    {
      "anonymous": false,
      "inputs": [
        {
          "indexed": false,
          "internalType": "uint256",
          "name": "burnRate",
          "type": "uint256"
        },
        {
          "indexed": false,
          "internalType": "uint256",
          "name": "regularFarmRate",
          "type": "uint256"
        },
        {
          "indexed": false,
          "internalType": "uint256",
          "name": "specialFarmRate",
          "type": "uint256"
        }
      ],
      "name": "UpdateCakeRate",
      "type": "event"
    },
    {
      "anonymous": false,
      "inputs": [
        {
          "indexed": true,
          "internalType": "uint256",
          "name": "pid",
          "type": "uint256"
        },
        {
          "indexed": false,
          "internalType": "uint256",
          "name": "lastRewardBlock",
          "type": "uint256"
        },
        {
          "indexed": false,
          "internalType": "uint256",
          "name": "lpSupply",
          "type": "uint256"
        },
        {
          "indexed": false,
          "internalType": "uint256",
          "name": "accKswapPerShare",
          "type": "uint256"
        }
      ],
      "name": "UpdatePool",
      "type": "event"
    },
    {
      "anonymous": false,
      "inputs": [
        {
          "indexed": true,
          "internalType": "address",
          "name": "user",
          "type": "address"
        },
        {
          "indexed": false,
          "internalType": "bool",
          "name": "isValid",
          "type": "bool"
        }
      ],
      "name": "UpdateWhiteList",
      "type": "event"
    },
    {
      "anonymous": false,
      "inputs": [
        {
          "indexed": true,
          "internalType": "address",
          "name": "user",
          "type": "address"
        },
        {
          "indexed": true,
          "internalType": "uint256",
          "name": "pid",
          "type": "uint256"
        },
        {
          "indexed": false,
          "internalType": "uint256",
          "name": "amount",
          "type": "uint256"
        }
      ],
      "name": "Withdraw",
      "type": "event"
    },
    {
      "inputs": [],
      "name": "ACC_KSWAP_PRECISION",
      "outputs": [
        {
          "internalType": "uint256",
          "name": "",
          "type": "uint256"
        }
      ],
      "stateMutability": "view",
      "type": "function"
    },
    {
      "inputs": [],
      "name": "BOOST_MANAGER_ROLE",
      "outputs": [
        {
          "internalType": "bytes32",
          "name": "",
          "type": "bytes32"
        }
      ],
      "stateMutability": "view",
      "type": "function"
    },
    {
      "inputs": [],
      "name": "BOOST_PRECISION",
      "outputs": [
        {
          "internalType": "uint256",
          "name": "",
          "type": "uint256"
        }
      ],
      "stateMutability": "view",
      "type": "function"
    },
    {
      "inputs": [],
      "name": "BURN_MANAGER_ROLE",
      "outputs": [
        {
          "internalType": "bytes32",
          "name": "",
          "type": "bytes32"
        }
      ],
      "stateMutability": "view",
      "type": "function"
    },
    {
      "inputs": [],
      "name": "KSWAP_RATE_TOTAL_PRECISION",
      "outputs": [
        {
          "internalType": "uint256",
          "name": "",
          "type": "uint256"
        }
      ],
      "stateMutability": "view",
      "type": "function"
    },
    {
      "inputs": [],
      "name": "MASTERCHEF_KSWAP_PER_BLOCK",
      "outputs": [
        {
          "internalType": "uint256",
          "name": "",
          "type": "uint256"
        }
      ],
      "stateMutability": "view",
      "type": "function"
    },
    {
      "inputs": [],
      "name": "MAX_BOOST_PRECISION",
      "outputs": [
        {
          "internalType": "uint256",
          "name": "",
          "type": "uint256"
        }
      ],
      "stateMutability": "view",
      "type": "function"
    },
    {
      "inputs": [],
      "name": "RATES_MANAGER_ROLE",
      "outputs": [
        {
          "internalType": "bytes32",
          "name": "",
          "type": "bytes32"
        }
      ],
      "stateMutability": "view",
      "type": "function"
    },
    {
      "inputs": [
        {
          "internalType": "uint256",
          "name": "_allocPoint",
          "type": "uint256"
        },
        {
          "internalType": "contract IERC20",
          "name": "_lpToken",
          "type": "address"
        },
        {
          "internalType": "bool",
          "name": "_isRegular",
          "type": "bool"
        },
        {
          "internalType": "uint256",
          "name": "_startBlockNumber",
          "type": "uint256"
        },
        {
          "internalType": "bool",
          "name": "_withUpdate",
          "type": "bool"
        }
      ],
      "name": "add",
      "outputs": [],
      "stateMutability": "nonpayable",
      "type": "function"
    },
    {
      "inputs": [
        {
          "internalType": "address[]",
          "name": "accounts",
          "type": "address[]"
        },
        {
          "internalType": "string[]",
          "name": "reasons",
          "type": "string[]"
        }
      ],
      "name": "blacklist",
      "outputs": [],
      "stateMutability": "nonpayable",
      "type": "function"
    },
    {
      "inputs": [
        {
          "internalType": "address",
          "name": "account",
          "type": "address"
        },
        {
          "internalType": "string",
          "name": "reason",
          "type": "string"
        }
      ],
      "name": "blacklist",
      "outputs": [],
      "stateMutability": "nonpayable",
      "type": "function"
    },
    {
      "inputs": [
        {
          "internalType": "bool",
          "name": "_withUpdate",
          "type": "bool"
        }
      ],
      "name": "burnKswap",
      "outputs": [],
      "stateMutability": "nonpayable",
      "type": "function"
    },
    {
      "inputs": [
        {
          "internalType": "uint256",
          "name": "_pid",
          "type": "uint256"
        },
        {
          "internalType": "uint256",
          "name": "_amount",
          "type": "uint256"
        }
      ],
      "name": "deposit",
      "outputs": [],
      "stateMutability": "nonpayable",
      "type": "function"
    },
    {
      "inputs": [],
      "name": "deprecated2",
      "outputs": [
        {
          "internalType": "address",
          "name": "",
          "type": "address"
        }
      ],
      "stateMutability": "view",
      "type": "function"
    },
    {
      "inputs": [],
      "name": "deprecated3",
      "outputs": [
        {
          "internalType": "address",
          "name": "",
          "type": "address"
        }
      ],
      "stateMutability": "view",
      "type": "function"
    },
    {
      "inputs": [
        {
          "internalType": "uint256",
          "name": "_pid",
          "type": "uint256"
        }
      ],
      "name": "emergencyWithdraw",
      "outputs": [],
      "stateMutability": "nonpayable",
      "type": "function"
    },
    {
      "inputs": [
        {
          "internalType": "address",
          "name": "_user",
          "type": "address"
        },
        {
          "internalType": "uint256",
          "name": "_pid",
          "type": "uint256"
        }
      ],
      "name": "getBoostMultiplier",
      "outputs": [
        {
          "internalType": "uint256",
          "name": "",
          "type": "uint256"
        }
      ],
      "stateMutability": "view",
      "type": "function"
    },
    {
      "inputs": [
        {
          "internalType": "bytes32",
          "name": "role",
          "type": "bytes32"
        }
      ],
      "name": "getRoleAdmin",
      "outputs": [
        {
          "internalType": "bytes32",
          "name": "",
          "type": "bytes32"
        }
      ],
      "stateMutability": "view",
      "type": "function"
    },
    {
      "inputs": [
        {
          "internalType": "bytes32",
          "name": "role",
          "type": "bytes32"
        },
        {
          "internalType": "uint256",
          "name": "index",
          "type": "uint256"
        }
      ],
      "name": "getRoleMember",
      "outputs": [
        {
          "internalType": "address",
          "name": "",
          "type": "address"
        }
      ],
      "stateMutability": "view",
      "type": "function"
    },
    {
      "inputs": [
        {
          "internalType": "bytes32",
          "name": "role",
          "type": "bytes32"
        }
      ],
      "name": "getRoleMemberCount",
      "outputs": [
        {
          "internalType": "uint256",
          "name": "",
          "type": "uint256"
        }
      ],
      "stateMutability": "view",
      "type": "function"
    },
    {
      "inputs": [
        {
          "internalType": "bytes32",
          "name": "role",
          "type": "bytes32"
        },
        {
          "internalType": "address",
          "name": "account",
          "type": "address"
        }
      ],
      "name": "grantRole",
      "outputs": [],
      "stateMutability": "nonpayable",
      "type": "function"
    },
    {
      "inputs": [
        {
          "internalType": "bytes32",
          "name": "role",
          "type": "bytes32"
        },
        {
          "internalType": "address",
          "name": "account",
          "type": "address"
        }
      ],
      "name": "hasRole",
      "outputs": [
        {
          "internalType": "bool",
          "name": "",
          "type": "bool"
        }
      ],
      "stateMutability": "view",
      "type": "function"
    },
    {
      "inputs": [
        {
          "internalType": "address[]",
          "name": "accounts",
          "type": "address[]"
        }
      ],
      "name": "isBlacklisted",
      "outputs": [
        {
          "internalType": "bool",
          "name": "",
          "type": "bool"
        }
      ],
      "stateMutability": "view",
      "type": "function"
    },
    {
      "inputs": [
        {
          "internalType": "address",
          "name": "account",
          "type": "address"
        }
      ],
      "name": "isBlacklisted",
      "outputs": [
        {
          "internalType": "bool",
          "name": "",
          "type": "bool"
        }
      ],
      "stateMutability": "view",
      "type": "function"
    },
    {
      "inputs": [],
      "name": "kswap",
      "outputs": [
        {
          "internalType": "contract IERC20Mintable",
          "name": "",
          "type": "address"
        }
      ],
      "stateMutability": "view",
      "type": "function"
    },
    {
      "inputs": [
        {
          "internalType": "bool",
          "name": "_isRegular",
          "type": "bool"
        }
      ],
      "name": "kswapPerBlock",
      "outputs": [
        {
          "internalType": "uint256",
          "name": "amount",
          "type": "uint256"
        }
      ],
      "stateMutability": "view",
      "type": "function"
    },
    {
      "inputs": [],
      "name": "kswapPerBlockToBurn",
      "outputs": [
        {
          "internalType": "uint256",
          "name": "amount",
          "type": "uint256"
        }
      ],
      "stateMutability": "view",
      "type": "function"
    },
    {
      "inputs": [],
      "name": "kswapRateToBurn",
      "outputs": [
        {
          "internalType": "uint256",
          "name": "",
          "type": "uint256"
        }
      ],
      "stateMutability": "view",
      "type": "function"
    },
    {
      "inputs": [],
      "name": "kswapRateToRegularFarm",
      "outputs": [
        {
          "internalType": "uint256",
          "name": "",
          "type": "uint256"
        }
      ],
      "stateMutability": "view",
      "type": "function"
    },
    {
      "inputs": [],
      "name": "kswapRateToSpecialFarm",
      "outputs": [
        {
          "internalType": "uint256",
          "name": "",
          "type": "uint256"
        }
      ],
      "stateMutability": "view",
      "type": "function"
    },
    {
      "inputs": [],
      "name": "lastBurnedBlock",
      "outputs": [
        {
          "internalType": "uint256",
          "name": "",
          "type": "uint256"
        }
      ],
      "stateMutability": "view",
      "type": "function"
    },
    {
      "inputs": [
        {
          "internalType": "uint256",
          "name": "",
          "type": "uint256"
        }
      ],
      "name": "lpToken",
      "outputs": [
        {
          "internalType": "contract IERC20",
          "name": "",
          "type": "address"
        }
      ],
      "stateMutability": "view",
      "type": "function"
    },
    {
      "inputs": [],
      "name": "massUpdatePools",
      "outputs": [],
      "stateMutability": "nonpayable",
      "type": "function"
    },
    {
      "inputs": [],
      "name": "pause",
      "outputs": [],
      "stateMutability": "nonpayable",
      "type": "function"
    },
    {
      "inputs": [],
      "name": "paused",
      "outputs": [
        {
          "internalType": "bool",
          "name": "",
          "type": "bool"
        }
      ],
      "stateMutability": "view",
      "type": "function"
    },
    {
      "inputs": [
        {
          "internalType": "uint256",
          "name": "_pid",
          "type": "uint256"
        },
        {
          "internalType": "address",
          "name": "_user",
          "type": "address"
        }
      ],
      "name": "pendingKswap",
      "outputs": [
        {
          "internalType": "uint256",
          "name": "",
          "type": "uint256"
        }
      ],
      "stateMutability": "view",
      "type": "function"
    },
    {
      "inputs": [
        {
          "internalType": "uint256[]",
          "name": "_pids",
          "type": "uint256[]"
        },
        {
          "internalType": "address",
          "name": "_user",
          "type": "address"
        }
      ],
      "name": "pendingKswap",
      "outputs": [
        {
          "internalType": "uint256[]",
          "name": "amounts",
          "type": "uint256[]"
        }
      ],
      "stateMutability": "view",
      "type": "function"
    },
    {
      "inputs": [
        {
          "internalType": "uint256",
          "name": "",
          "type": "uint256"
        }
      ],
      "name": "poolInfo",
      "outputs": [
        {
          "internalType": "uint256",
          "name": "accKswapPerShare",
          "type": "uint256"
        },
        {
          "internalType": "uint256",
          "name": "lastRewardBlock",
          "type": "uint256"
        },
        {
          "internalType": "uint256",
          "name": "allocPoint",
          "type": "uint256"
        },
        {
          "internalType": "uint256",
          "name": "totalBoostedShare",
          "type": "uint256"
        },
        {
          "internalType": "bool",
          "name": "isRegular",
          "type": "bool"
        }
      ],
      "stateMutability": "view",
      "type": "function"
    },
    {
      "inputs": [],
      "name": "poolLength",
      "outputs": [
        {
          "internalType": "uint256",
          "name": "pools",
          "type": "uint256"
        }
      ],
      "stateMutability": "view",
      "type": "function"
    },
    {
      "inputs": [],
      "name": "reinitialize2",
      "outputs": [],
      "stateMutability": "nonpayable",
      "type": "function"
    },
    {
      "inputs": [
        {
          "internalType": "address",
          "name": "aprManager",
          "type": "address"
        }
      ],
      "name": "reinitialize3",
      "outputs": [],
      "stateMutability": "nonpayable",
      "type": "function"
    },
    {
      "inputs": [
        {
          "internalType": "bytes32",
          "name": "role",
          "type": "bytes32"
        },
        {
          "internalType": "address",
          "name": "account",
          "type": "address"
        }
      ],
      "name": "renounceRole",
      "outputs": [],
      "stateMutability": "nonpayable",
      "type": "function"
    },
    {
      "inputs": [
        {
          "internalType": "bytes32",
          "name": "role",
          "type": "bytes32"
        },
        {
          "internalType": "address",
          "name": "account",
          "type": "address"
        }
      ],
      "name": "revokeRole",
      "outputs": [],
      "stateMutability": "nonpayable",
      "type": "function"
    },
    {
      "inputs": [
        {
          "components": [
            {
              "internalType": "uint256",
              "name": "pid",
              "type": "uint256"
            },
            {
              "internalType": "uint256",
              "name": "allocPoint",
              "type": "uint256"
            }
          ],
          "internalType": "struct IMasterChefAdmin.SetPoolAllocationInfo[]",
          "name": "poolAlocations",
          "type": "tuple[]"
        },
        {
          "internalType": "bool",
          "name": "_withUpdate",
          "type": "bool"
        }
      ],
      "name": "set",
      "outputs": [],
      "stateMutability": "nonpayable",
      "type": "function"
    },
    {
      "inputs": [
        {
          "internalType": "uint256",
          "name": "_pid",
          "type": "uint256"
        },
        {
          "internalType": "uint256",
          "name": "_allocPoint",
          "type": "uint256"
        },
        {
          "internalType": "bool",
          "name": "_withUpdate",
          "type": "bool"
        }
      ],
      "name": "set",
      "outputs": [],
      "stateMutability": "nonpayable",
      "type": "function"
    },
    {
      "inputs": [
        {
          "internalType": "uint256",
          "name": "_pid",
          "type": "uint256"
        },
        {
          "internalType": "uint256",
          "name": "newLastRewardBlock",
          "type": "uint256"
        }
      ],
      "name": "setPoolLastRewardBlock",
      "outputs": [],
      "stateMutability": "nonpayable",
      "type": "function"
    },
    {
      "inputs": [
        {
          "internalType": "uint256[]",
          "name": "_pids",
          "type": "uint256[]"
        },
        {
          "internalType": "uint256",
          "name": "newLastRewardBlock",
          "type": "uint256"
        }
      ],
      "name": "setPoolLastRewardBlock",
      "outputs": [],
      "stateMutability": "nonpayable",
      "type": "function"
    },
    {
      "inputs": [
        {
          "internalType": "bytes32",
          "name": "role",
          "type": "bytes32"
        },
        {
          "internalType": "bytes32",
          "name": "adminRole",
          "type": "bytes32"
        }
      ],
      "name": "setRoleAdmin",
      "outputs": [],
      "stateMutability": "nonpayable",
      "type": "function"
    },
    {
      "inputs": [
        {
          "internalType": "address",
          "name": "_treasury",
          "type": "address"
        }
      ],
      "name": "setTreasuryAddress",
      "outputs": [],
      "stateMutability": "nonpayable",
      "type": "function"
    },
    {
      "inputs": [],
      "name": "totalRegularAllocPoint",
      "outputs": [
        {
          "internalType": "uint256",
          "name": "",
          "type": "uint256"
        }
      ],
      "stateMutability": "view",
      "type": "function"
    },
    {
      "inputs": [],
      "name": "totalSpecialAllocPoint",
      "outputs": [
        {
          "internalType": "uint256",
          "name": "",
          "type": "uint256"
        }
      ],
      "stateMutability": "view",
      "type": "function"
    },
    {
      "inputs": [],
      "name": "treasury",
      "outputs": [
        {
          "internalType": "address",
          "name": "",
          "type": "address"
        }
      ],
      "stateMutability": "view",
      "type": "function"
    },
    {
      "inputs": [
        {
          "internalType": "address[]",
          "name": "accounts",
          "type": "address[]"
        },
        {
          "internalType": "string[]",
          "name": "reasons",
          "type": "string[]"
        }
      ],
      "name": "unblacklist",
      "outputs": [],
      "stateMutability": "nonpayable",
      "type": "function"
    },
    {
      "inputs": [
        {
          "internalType": "address",
          "name": "account",
          "type": "address"
        },
        {
          "internalType": "string",
          "name": "reason",
          "type": "string"
        }
      ],
      "name": "unblacklist",
      "outputs": [],
      "stateMutability": "nonpayable",
      "type": "function"
    },
    {
      "inputs": [],
      "name": "unpause",
      "outputs": [],
      "stateMutability": "nonpayable",
      "type": "function"
    },
    {
      "inputs": [
        {
          "internalType": "address",
          "name": "_user",
          "type": "address"
        },
        {
          "internalType": "uint256",
          "name": "_pid",
          "type": "uint256"
        },
        {
          "internalType": "uint256",
          "name": "_newMultiplier",
          "type": "uint256"
        }
      ],
      "name": "updateBoostMultiplier",
      "outputs": [],
      "stateMutability": "nonpayable",
      "type": "function"
    },
    {
      "inputs": [
        {
          "internalType": "uint256",
          "name": "_burnRate",
          "type": "uint256"
        },
        {
          "internalType": "uint256",
          "name": "_regularFarmRate",
          "type": "uint256"
        },
        {
          "internalType": "uint256",
          "name": "_specialFarmRate",
          "type": "uint256"
        },
        {
          "internalType": "bool",
          "name": "_withUpdate",
          "type": "bool"
        }
      ],
      "name": "updateKswapRate",
      "outputs": [],
      "stateMutability": "nonpayable",
      "type": "function"
    },
    {
      "inputs": [
        {
          "internalType": "uint256",
          "name": "_pid",
          "type": "uint256"
        }
      ],
      "name": "updatePool",
      "outputs": [
        {
          "components": [
            {
              "internalType": "uint256",
              "name": "accKswapPerShare",
              "type": "uint256"
            },
            {
              "internalType": "uint256",
              "name": "lastRewardBlock",
              "type": "uint256"
            },
            {
              "internalType": "uint256",
              "name": "allocPoint",
              "type": "uint256"
            },
            {
              "internalType": "uint256",
              "name": "totalBoostedShare",
              "type": "uint256"
            },
            {
              "internalType": "bool",
              "name": "isRegular",
              "type": "bool"
            }
          ],
          "internalType": "struct IMasterChef.PoolInfo",
          "name": "pool",
          "type": "tuple"
        }
      ],
      "stateMutability": "nonpayable",
      "type": "function"
    },
    {
      "inputs": [
        {
          "components": [
            {
              "internalType": "uint256",
              "name": "pid",
              "type": "uint256"
            },
            {
              "internalType": "uint256",
              "name": "allocPoint",
              "type": "uint256"
            }
          ],
          "internalType": "struct IMasterChefAdmin.SetPoolAllocationInfo[]",
          "name": "poolAlocations",
          "type": "tuple[]"
        },
        {
          "internalType": "uint256",
          "name": "_burnRate",
          "type": "uint256"
        },
        {
          "internalType": "uint256",
          "name": "_regularFarmRate",
          "type": "uint256"
        },
        {
          "internalType": "uint256",
          "name": "_specialFarmRate",
          "type": "uint256"
        },
        {
          "internalType": "bool",
          "name": "_withUpdate",
          "type": "bool"
        }
      ],
      "name": "updateRatesAndPools",
      "outputs": [],
      "stateMutability": "nonpayable",
      "type": "function"
    },
    {
      "inputs": [
        {
          "internalType": "address",
          "name": "_user",
          "type": "address"
        },
        {
          "internalType": "bool",
          "name": "_isValid",
          "type": "bool"
        }
      ],
      "name": "updateWhiteList",
      "outputs": [],
      "stateMutability": "nonpayable",
      "type": "function"
    },
    {
      "inputs": [
        {
          "internalType": "uint256",
          "name": "",
          "type": "uint256"
        },
        {
          "internalType": "address",
          "name": "",
          "type": "address"
        }
      ],
      "name": "userInfo",
      "outputs": [
        {
          "internalType": "uint256",
          "name": "amount",
          "type": "uint256"
        },
        {
          "internalType": "uint256",
          "name": "rewardDebt",
          "type": "uint256"
        },
        {
          "internalType": "uint256",
          "name": "boostMultiplier",
          "type": "uint256"
        }
      ],
      "stateMutability": "view",
      "type": "function"
    },
    {
      "inputs": [
        {
          "internalType": "address",
          "name": "",
          "type": "address"
        }
      ],
      "name": "whiteList",
      "outputs": [
        {
          "internalType": "bool",
          "name": "",
          "type": "bool"
        }
      ],
      "stateMutability": "view",
      "type": "function"
    },
    {
      "inputs": [
        {
          "internalType": "uint256",
          "name": "_pid",
          "type": "uint256"
        },
        {
          "internalType": "uint256",
          "name": "_amount",
          "type": "uint256"
        }
      ],
      "name": "withdraw",
      "outputs": [],
      "stateMutability": "nonpayable",
      "type": "function"
    }
  ],
  "transactionHash": "0xb5504067e07b1242034b70f338c85ad42ee93b1e0ea92d1d17f3d3b0eda3e220",
  "args": [],
  "numDeployments": 6,
  "solcInputHash": "22e34d427d78080c039638c40ce5c8cf",
  "bytecode": "0x608060405234801561001057600080fd5b506157cb80620000216000396000f3fe608060405234801561001057600080fd5b50600436106103c55760003560e01c80636ebb16d3116101ff578063ac6568891161011a578063e1187d4e116100ad578063f41c8d961161007c578063f41c8d961461090d578063fb3b6c2a14610920578063fe4a004514610933578063fe575a871461093b57600080fd5b8063e1187d4e14610899578063e2bbb158146108c0578063e3396735146108d3578063e671e5fc146108fa57600080fd5b8063ce5da407116100e9578063ce5da4071461084d578063d1e6c30c14610860578063d547741f14610873578063ddf579ff1461088657600080fd5b8063ac65688914610821578063c40d337b14610831578063ca15c8731461083a578063cc6db2da1461052257600080fd5b80639010d07c1161019257806399d7e84a1161016157806399d7e84a146107df578063a3cc8adb146107e8578063a8c28259146107fb578063ac1d06091461080e57600080fd5b80639010d07c1461074457806391d148541461075757806393f1a40b1461076a5780639651f73d146107bf57600080fd5b806378ed5d1f116101ce57806378ed5d1f1461070d5780637a994efd146107205780638456cb59146107295780638dca75db1461073157600080fd5b80636ebb16d3146106cb5780637577e2c3146106de57806378d28781146106f157806378db4c341461070457600080fd5b8063372c12b1116102ef57806357b46f8811610282578063630b5ba111610251578063630b5ba11461069057806364482f79146106985780636605bfda146106ab57806369b02128146106be57600080fd5b806357b46f88146106355780635a789418146106555780635c975abb1461066857806361d027b31461067057600080fd5b80634c0e5a59116102be5780634c0e5a59146105985780634e41bc1a146105ab57806351eb05a6146105cb5780635312ea8e1461062257600080fd5b8063372c12b1146105415780633e0ca005146105745780633f4ba83a1461057d578063441a3e701461058557600080fd5b8063186d3830116103675780632a6f65dc116103365780632a6f65dc146104ca5780632f2ff15d1461050f578063325d186d1461052257806336568abe1461052e57600080fd5b8063186d38301461046a5780631e4e00911461047d578063248a9ca314610490578063297bf35b146104a357600080fd5b8063081e3eda116103a3578063081e3eda1461040e5780630ee520581461041657806311223c32146104255780631526fe271461042d57600080fd5b8063033186e8146103ca578063041a84c9146103f05780630433985b14610405575b600080fd5b6103dd6103d8366004614d51565b61094e565b6040519081526020015b60405180910390f35b6104036103fe366004614d7d565b6109a4565b005b6103dd600b5481565b6004546103dd565b6103dd670de0b6b3a764000081565b610403610e64565b61044061043b366004614db2565b611115565b6040805195865260208601949094529284019190915260608301521515608082015260a0016103e7565b610403610478366004614e17565b611159565b61040361048b366004614e83565b611326565b6103dd61049e366004614db2565b61136e565b6103dd7f603ae08765bc5fad7a971952007e4e84ddd8001052efaad946bd8a191e1870df81565b6002546104ea9073ffffffffffffffffffffffffffffffffffffffff1681565b60405173ffffffffffffffffffffffffffffffffffffffff90911681526020016103e7565b61040361051d366004614ea5565b6113a4565b6103dd64e8d4a5100081565b61040361053c366004614ea5565b6113e8565b61056461054f366004614ed5565b60076020526000908152604090205460ff1681565b60405190151581526020016103e7565b6103dd600a5481565b610403611497565b610403610593366004614e83565b6114d2565b6104036105a6366004614f45565b611795565b6003546104ea9073ffffffffffffffffffffffffffffffffffffffff1681565b6105de6105d9366004614db2565b611823565b6040516103e79190600060a0820190508251825260208301516020830152604083015160408301526060830151606083015260808301511515608083015292915050565b610403610630366004614db2565b611b76565b6000546104ea9073ffffffffffffffffffffffffffffffffffffffff1681565b6103dd610663366004614f9c565b611d20565b610564611d76565b6001546104ea9073ffffffffffffffffffffffffffffffffffffffff1681565b610403611da8565b6104036106a6366004614fb9565b611e40565b6104036106b9366004614ed5565b611e81565b6103dd6501d1a94a200081565b6105646106d9366004615089565b611f7d565b6104036106ec36600461511d565b611f88565b6103dd6106ff366004614ea5565b611fbe565b6103dd600d5481565b6104ea61071b366004614db2565b612155565b6103dd600c5481565b61040361218c565b61040361073f366004614ed5565b6121c5565b6104ea610752366004614e83565b61253f565b610564610765366004614ea5565b612552565b6107a4610778366004614ea5565b600660209081526000928352604080842090915290825290208054600182015460029092015490919083565b604080519384526020840192909252908201526060016103e7565b6107d26107cd36600461517c565b61255e565b6040516103e791906151c8565b6103dd60095481565b6104036107f636600461520c565b6125ff565b61040361080936600461527f565b612693565b61040361081c3660046152c0565b6126d5565b6103dd68022b1c8c1227a0000081565b6103dd60085481565b6103dd610848366004614db2565b61282c565b61040361085b366004614e17565b612837565b61040361086e3660046152ee565b6129f6565b610403610881366004614ea5565b612a5f565b6104036108943660046152ee565b612a99565b6103dd7f479f15b0e08868e42ef233090518d51c94299977f5d2c05187e9393b22eace4e81565b6104036108ce366004614e83565b612b02565b6103dd7f64b4740f54156feb06b7a9f424e5bce966a52344cf27635887cf63c0ebf2a61e81565b610403610908366004614e83565b612f61565b61040361091b366004614f9c565b613056565b61040361092e366004615373565b6130f6565b6103dd613174565b610564610949366004614ed5565b61319d565b600081815260066020908152604080832073ffffffffffffffffffffffffffffffffffffffff8616845290915281206002015464e8d4a5100081116109985764e8d4a5100061099a565b805b9150505b92915050565b7fd370c446e45a741b5961ac03f05d57d1a5768014420ffedc28dbab09fedaee59546002036109ff576040517f3ee5aeb500000000000000000000000000000000000000000000000000000000815260040160405180910390fd5b610a2860027fd370c446e45a741b5961ac03f05d57d1a5768014420ffedc28dbab09fedaee5955565b610a517f479f15b0e08868e42ef233090518d51c94299977f5d2c05187e9393b22eace4e6131ea565b73ffffffffffffffffffffffffffffffffffffffff8316610af9576040517f08c379a000000000000000000000000000000000000000000000000000000000815260206004820152602a60248201527f4d6173746572436865663a2054686520757365722061646472657373206d757360448201527f742062652076616c69640000000000000000000000000000000000000000000060648201526084015b60405180910390fd5b60048281548110610b0c57610b0c61540a565b600091825260209091206004600590920201015460ff16610baf576040517f08c379a000000000000000000000000000000000000000000000000000000000815260206004820152602e60248201527f4d6173746572436865663a204f6e6c7920726567756c6172206661726d20636f60448201527f756c6420626520626f6f737465640000000000000000000000000000000000006064820152608401610af0565b64e8d4a510008110158015610bca57506501d1a94a20008111155b610c56576040517f08c379a000000000000000000000000000000000000000000000000000000000815260206004820152602860248201527f4d6173746572436865663a20496e76616c6964206e657720626f6f7374206d7560448201527f6c7469706c6965720000000000000000000000000000000000000000000000006064820152608401610af0565b6000610c6183611823565b600084815260066020908152604080832073ffffffffffffffffffffffffffffffffffffffff891684529091528120919250610c9d868661094e565b9050610caa8686836131f4565b610cea670de0b6b3a7640000610cde8560000151610ce464e8d4a51000610cde8a89600001546132ce90919063ffffffff16565b906132da565b906132ce565b60018301558154610d3690610d0a9064e8d4a5100090610cde90886132ce565b8354610d3090610d259064e8d4a5100090610cde90876132ce565b6060870151906132e6565b906132f2565b60608401526004805484919087908110610d5257610d5261540a565b600091825260208083208451600593909302019182558381015160018301556040808501516002808501919091556060808701516003860155608090960151600490940180547fffffffffffffffffffffffffffffffffffffffffffffffffffffffffffffff0016941515949094179093558984526006825280842073ffffffffffffffffffffffffffffffffffffffff8c1680865290835293819020909201889055815189815290810185905290810187905290917f01abd62439b64f6c5dab6f94d56099495bd0c094f9c21f98f4d3562a21edb4ba910160405180910390a2505050610e5f60017fd370c446e45a741b5961ac03f05d57d1a5768014420ffedc28dbab09fedaee5955565b505050565b7fb53127684a568b3173ae13b9f8a6016e243e63b6e8ee1178d6a717850b5d61035473ffffffffffffffffffffffffffffffffffffffff163373ffffffffffffffffffffffffffffffffffffffff1614610f1a576040517f08c379a000000000000000000000000000000000000000000000000000000000815260206004820152600e60248201527f4e4f545f415554484f52495a45440000000000000000000000000000000000006044820152606401610af0565b7f0de7f2b0af5ab1aa4eca2b133cdee828bdcfefa98e4927fa304b2ad002ca6eb354600290610100900460ff1680610f7957507f0de7f2b0af5ab1aa4eca2b133cdee828bdcfefa98e4927fa304b2ad002ca6eb35460ff808316911610155b15610fb5576040517fbfdd178500000000000000000000000000000000000000000000000000000000815260ff82166004820152602401610af0565b610fbe816132fe565b7f0de7f2b0af5ab1aa4eca2b133cdee828bdcfefa98e4927fa304b2ad002ca6eb380547fffffffffffffffffffffffffffffffffffffffffffffffffffffffffffff00ff1661010017905560006110337fb53127684a568b3173ae13b9f8a6016e243e63b6e8ee1178d6a717850b5d61035490565b90506110406000826133b6565b61106a7f241ecf16d79d0f8dbfb92cbc07fe17840425976cf0667f022fe9877caa831b08826133b6565b6110947f64b4740f54156feb06b7a9f424e5bce966a52344cf27635887cf63c0ebf2a61e826133b6565b507f0de7f2b0af5ab1aa4eca2b133cdee828bdcfefa98e4927fa304b2ad002ca6eb380547fffffffffffffffffffffffffffffffffffffffffffffffffffffffffffff00ff16905560405160ff821681527f7f26b83ff96e1f2b6a682f133852f6798a09c465da95921460cefb38474024989060200160405180910390a150565b6004818154811061112557600080fd5b6000918252602090912060059091020180546001820154600283015460038401546004909401549294509092909160ff1685565b6111827ff988e4fb62b8e14f4820fed03192306ddf4d7dbfa215595ba1c6ba4b76b369ee6131ea565b80156112c257828114611217576040517f08c379a000000000000000000000000000000000000000000000000000000000815260206004820152602360248201527f53696d706c65426c61636b6c6973743a204e6f7420656e6f756768207265617360448201527f6f6e7300000000000000000000000000000000000000000000000000000000006064820152608401610af0565b60005b838110156112bc576112aa8585838181106112375761123761540a565b905060200201602081019061124c9190614ed5565b84848481811061125e5761125e61540a565b90506020028101906112709190615439565b8080601f0160208091040260200160405190810160405280939291908181526020018383808284376000920191909152506134b892505050565b806112b4816154cd565b91505061121a565b50611320565b60005b8381101561131e5761130c8585838181106112e2576112e261540a565b90506020020160208101906112f79190614ed5565b604051806020016040528060008152506134b8565b80611316816154cd565b9150506112c5565b505b50505050565b60008281527fffaa26784aca465bf23123375047d80ccb2b41102e02e5c4ef5b5aa00624b2d26020526040902060010154611360906131ea565b61136a82826135c9565b5050565b60008181527fffaa26784aca465bf23123375047d80ccb2b41102e02e5c4ef5b5aa00624b2d2602052604081206001015461099e565b60008281527fffaa26784aca465bf23123375047d80ccb2b41102e02e5c4ef5b5aa00624b2d260205260409020600101546113de906131ea565b61136a82826133b6565b73ffffffffffffffffffffffffffffffffffffffff8116331461148d576040517f08c379a000000000000000000000000000000000000000000000000000000000815260206004820152602f60248201527f416363657373436f6e74726f6c3a2063616e206f6e6c792072656e6f756e636560448201527f20726f6c657320666f722073656c6600000000000000000000000000000000006064820152608401610af0565b61136a8282613633565b6114c07f356a809dfdea9198dd76fb76bf6d403ecf13ea675eb89e1eda2db2c4a4676a266131ea565b6114c8613733565b6114d06137ee565b565b7fd370c446e45a741b5961ac03f05d57d1a5768014420ffedc28dbab09fedaee595460020361152d576040517f3ee5aeb500000000000000000000000000000000000000000000000000000000815260040160405180910390fd5b61155660027fd370c446e45a741b5961ac03f05d57d1a5768014420ffedc28dbab09fedaee5955565b61155e61386b565b61156733613927565b600061157283611823565b600084815260066020908152604080832033845290915290208054919250908311156115fa576040517f08c379a000000000000000000000000000000000000000000000000000000000815260206004820152601660248201527f77697468647261773a20496e73756666696369656e74000000000000000000006044820152606401610af0565b6000611606338661094e565b90506116133386836131f4565b831561166e57815461162590856132e6565b826000018190555061166e3385600588815481106116455761164561540a565b60009182526020909120015473ffffffffffffffffffffffffffffffffffffffff169190613930565b6116a2670de0b6b3a7640000610cde8560000151610ce464e8d4a51000610cde8789600001546132ce90919063ffffffff16565b60018301556116f06116bd64e8d4a51000610cde87856132ce565b600487815481106116d0576116d061540a565b9060005260206000209060050201600301546132e690919063ffffffff16565b600486815481106117035761170361540a565b906000526020600020906005020160030181905550843373ffffffffffffffffffffffffffffffffffffffff167ff279e6a1f5e320cca91135676d9cb6e44ca8a08c0b88342bcdb1144f6511b5688660405161176191815260200190565b60405180910390a350505061136a60017fd370c446e45a741b5961ac03f05d57d1a5768014420ffedc28dbab09fedaee5955565b6117be7f241ecf16d79d0f8dbfb92cbc07fe17840425976cf0667f022fe9877caa831b086131ea565b80156117cc576117cc611da8565b6000825b8082101561131e576118188585848181106117ed576117ed61540a565b905060400201600001358686858181106118095761180961540a565b90506040020160200135613a04565b8160010191506117d0565b6118576040518060a00160405280600081526020016000815260200160008152602001600081526020016000151581525090565b6004828154811061186a5761186a61540a565b60009182526020918290206040805160a0810182526005909302909101805483526001810154938301849052600281015491830191909152600381015460608301526004015460ff16151560808201529150431115611b7157606081015160808201516000906118dc576009546118e0565b6008545b90506000821180156118f25750600081115b15611a9d5760006119108460200151436132e690919063ffffffff16565b9050600061193783610cde8760400151610ce46119308a60800151611d20565b87906132ce565b905061195a61195285610cde84670de0b6b3a76400006132ce565b8651906132f2565b855260005460015473ffffffffffffffffffffffffffffffffffffffff918216916340c10f19911661198d84600a6132da565b6040517fffffffff0000000000000000000000000000000000000000000000000000000060e085901b16815273ffffffffffffffffffffffffffffffffffffffff90921660048301526024820152604401600060405180830381600087803b1580156119f857600080fd5b505af1158015611a0c573d6000803e3d6000fd5b50506000546040517f40c10f190000000000000000000000000000000000000000000000000000000081523060048201526024810185905273ffffffffffffffffffffffffffffffffffffffff90911692506340c10f199150604401600060405180830381600087803b158015611a8257600080fd5b505af1158015611a96573d6000803e3d6000fd5b5050505050505b4360208401526004805484919086908110611aba57611aba61540a565b600091825260209182902083516005929092020190815582820151600182015560408084015160028301556060808501516003840155608090940151600490920180547fffffffffffffffffffffffffffffffffffffffffffffffffffffffffffffff00169215159290921790915585820151865182519182529281018690529081019190915285917f3be3541fc42237d611b30329040bfa4569541d156560acdbbae57640d20b8f46910160405180910390a250505b919050565b7fd370c446e45a741b5961ac03f05d57d1a5768014420ffedc28dbab09fedaee5954600203611bd1576040517f3ee5aeb500000000000000000000000000000000000000000000000000000000815260040160405180910390fd5b611bfa60027fd370c446e45a741b5961ac03f05d57d1a5768014420ffedc28dbab09fedaee5955565b611c0261386b565b611c0b33613927565b600060048281548110611c2057611c2061540a565b600091825260208083208584526006825260408085203380875293528420805485825560018201869055600590940290910194509290611c769064e8d4a5100090610cde90611c6f908961094e565b85906132ce565b905080846003015411611c8a576000611c99565b6003840154611c9990826132e6565b8460030181905550611cb93383600588815481106116455761164561540a565b604051828152859033907fbb757047c2b5f3974fe26b7c10f732e7bce710b0952a71082702781e62ae05959060200160405180910390a350505050611d1d60017fd370c446e45a741b5961ac03f05d57d1a5768014420ffedc28dbab09fedaee5955565b50565b60008115611d4f5761099e64e8d4a51000610cde600b5468022b1c8c1227a000006132ce90919063ffffffff16565b61099e64e8d4a51000610cde600c5468022b1c8c1227a000006132ce90919063ffffffff16565b6000611da37fb65939979d77055fe20d21bcb90b95461947bffa39f3588194f5015117626ea75460ff1690565b905090565b60045460005b8181101561136a57600060048281548110611dcb57611dcb61540a565b60009182526020918290206040805160a08101825260059093029091018054835260018101549383019390935260028301549082018190526003830154606083015260049092015460ff1615156080820152915015611e2f57611e2d82611823565b505b50611e39816154cd565b9050611dae565b611e697f241ecf16d79d0f8dbfb92cbc07fe17840425976cf0667f022fe9877caa831b086131ea565b8015611e7757611e77611da8565b610e5f8383613a04565b60015473ffffffffffffffffffffffffffffffffffffffff163314611f02576040517f08c379a000000000000000000000000000000000000000000000000000000000815260206004820152600960248201527f6465763a207775743f00000000000000000000000000000000000000000000006044820152606401610af0565b600180547fffffffffffffffffffffffff00000000000000000000000000000000000000001673ffffffffffffffffffffffffffffffffffffffff831690811790915560405190815233907f61885cdba916be748ff3e3f6f15e4206153b8ea3b7acabade9d04b4063a835109060200160405180910390a250565b600061099e82613b1e565b611fb17f241ecf16d79d0f8dbfb92cbc07fe17840425976cf0667f022fe9877caa831b086131ea565b61131e8585858585613bbb565b60008060048481548110611fd457611fd461540a565b600091825260208083206040805160a081018252600590940290910180548452600180820154858501908152600280840154878601526003840154606080890191825260049095015460ff16151560808901528c89526006875285892073ffffffffffffffffffffffffffffffffffffffff8d168a52875297859020855194850186528054855292830154958401959095529301549181019190915282519351915192945092914311801561208857508015155b156121015760006120a68560200151436132e690919063ffffffff16565b905060006120da86608001516120be576009546120c2565b6008545b610cde8860400151610ce46119308b60800151611d20565b90506120fc6120f584610cde84670de0b6b3a76400006132ce565b85906132f2565b935050505b600061212164e8d4a51000610cde6121198a8c61094e565b8751906132ce565b602085015190915061214990612143670de0b6b3a7640000610cde85886132ce565b906132e6565b98975050505050505050565b6005818154811061216557600080fd5b60009182526020909120015473ffffffffffffffffffffffffffffffffffffffff16905081565b6121b57f356a809dfdea9198dd76fb76bf6d403ecf13ea675eb89e1eda2db2c4a4676a266131ea565b6121bd61386b565b6114d0613f26565b7fb53127684a568b3173ae13b9f8a6016e243e63b6e8ee1178d6a717850b5d61035473ffffffffffffffffffffffffffffffffffffffff163373ffffffffffffffffffffffffffffffffffffffff161461227b576040517f08c379a000000000000000000000000000000000000000000000000000000000815260206004820152600e60248201527f4e4f545f415554484f52495a45440000000000000000000000000000000000006044820152606401610af0565b7f0de7f2b0af5ab1aa4eca2b133cdee828bdcfefa98e4927fa304b2ad002ca6eb354600390610100900460ff16806122da57507f0de7f2b0af5ab1aa4eca2b133cdee828bdcfefa98e4927fa304b2ad002ca6eb35460ff808316911610155b15612316576040517fbfdd178500000000000000000000000000000000000000000000000000000000815260ff82166004820152602401610af0565b61231f816132fe565b7f0de7f2b0af5ab1aa4eca2b133cdee828bdcfefa98e4927fa304b2ad002ca6eb380547fffffffffffffffffffffffffffffffffffffffffffffffffffffffffffff00ff1661010017905560006123947fb53127684a568b3173ae13b9f8a6016e243e63b6e8ee1178d6a717850b5d61035490565b90503373ffffffffffffffffffffffffffffffffffffffff821614612415576040517f08c379a000000000000000000000000000000000000000000000000000000000815260206004820152601960248201527f4f6e6c79206f776e65722063616e20696e697469616c697a65000000000000006044820152606401610af0565b61243f7f603ae08765bc5fad7a971952007e4e84ddd8001052efaad946bd8a191e1870df826133b6565b6124697f479f15b0e08868e42ef233090518d51c94299977f5d2c05187e9393b22eace4e826133b6565b6124937f603ae08765bc5fad7a971952007e4e84ddd8001052efaad946bd8a191e1870df846133b6565b6124bd7f64b4740f54156feb06b7a9f424e5bce966a52344cf27635887cf63c0ebf2a61e846133b6565b507f0de7f2b0af5ab1aa4eca2b133cdee828bdcfefa98e4927fa304b2ad002ca6eb380547fffffffffffffffffffffffffffffffffffffffffffffffffffffffffffff00ff16905560405160ff821681527f7f26b83ff96e1f2b6a682f133852f6798a09c465da95921460cefb38474024989060200160405180910390a15050565b600061254b8383613fa0565b9392505050565b600061254b8383613fd7565b606060008367ffffffffffffffff81111561257b5761257b614fe7565b6040519080825280602002602001820160405280156125a4578160200160208202803683370190505b5091505b838110156125f7576125d28585838181106125c5576125c561540a565b9050602002013584611fbe565b8282815181106125e4576125e461540a565b60209081029190910101526001016125a8565b509392505050565b6126287f64b4740f54156feb06b7a9f424e5bce966a52344cf27635887cf63c0ebf2a61e6131ea565b801561263657612636611da8565b6000855b8082101561267e576126738888848181106126575761265761540a565b905060400201600001358989858181106118095761180961540a565b81600101915061263a565b6126898686866140ca565b5050505050505050565b6126bc7f64b4740f54156feb06b7a9f424e5bce966a52344cf27635887cf63c0ebf2a61e6131ea565b80156126ca576126ca611da8565b6113208484846140ca565b6126fe7f241ecf16d79d0f8dbfb92cbc07fe17840425976cf0667f022fe9877caa831b086131ea565b73ffffffffffffffffffffffffffffffffffffffff82166127a1576040517f08c379a000000000000000000000000000000000000000000000000000000000815260206004820152603060248201527f4d6173746572436865663a20546865207768697465206c69737420616464726560448201527f7373206d7573742062652076616c6964000000000000000000000000000000006064820152608401610af0565b73ffffffffffffffffffffffffffffffffffffffff821660008181526007602090815260409182902080547fffffffffffffffffffffffffffffffffffffffffffffffffffffffffffffff001685151590811790915591519182527fc551bbb22d0406dbfb8b6b7740cc521bcf44e1106029cf899c19b6a8e4c99d5191015b60405180910390a25050565b600061099e82614272565b6128607ff988e4fb62b8e14f4820fed03192306ddf4d7dbfa215595ba1c6ba4b76b369ee6131ea565b801561299a578281146128f5576040517f08c379a000000000000000000000000000000000000000000000000000000000815260206004820152602360248201527f53696d706c65426c61636b6c6973743a204e6f7420656e6f756768207265617360448201527f6f6e7300000000000000000000000000000000000000000000000000000000006064820152608401610af0565b60005b838110156112bc576129888585838181106129155761291561540a565b905060200201602081019061292a9190614ed5565b84848481811061293c5761293c61540a565b905060200281019061294e9190615439565b8080601f0160208091040260200160405190810160405280939291908181526020018383808284376000920191909152506142a892505050565b80612992816154cd565b9150506128f8565b60005b8381101561131e576129e48585838181106129ba576129ba61540a565b90506020020160208101906129cf9190614ed5565b604051806020016040528060008152506142a8565b806129ee816154cd565b91505061299d565b612a1f7ff988e4fb62b8e14f4820fed03192306ddf4d7dbfa215595ba1c6ba4b76b369ee6131ea565b610e5f8383838080601f0160208091040260200160405190810160405280939291908181526020018383808284376000920191909152506134b892505050565b60008281527fffaa26784aca465bf23123375047d80ccb2b41102e02e5c4ef5b5aa00624b2d2602052604090206001015461148d906131ea565b612ac27ff988e4fb62b8e14f4820fed03192306ddf4d7dbfa215595ba1c6ba4b76b369ee6131ea565b610e5f8383838080601f0160208091040260200160405190810160405280939291908181526020018383808284376000920191909152506142a892505050565b7fd370c446e45a741b5961ac03f05d57d1a5768014420ffedc28dbab09fedaee5954600203612b5d576040517f3ee5aeb500000000000000000000000000000000000000000000000000000000815260040160405180910390fd5b612b8660027fd370c446e45a741b5961ac03f05d57d1a5768014420ffedc28dbab09fedaee5955565b612b8e61386b565b612b9733613927565b6000612ba283611823565b6000848152600660209081526040808320338452909152902060808201519192509080612bde57503360009081526007602052604090205460ff165b612c6c57604080517f08c379a00000000000000000000000000000000000000000000000000000000081526020600482015260248101919091527f4d6173746572436865663a205468652061646472657373206973206e6f74206160448201527f7661696c61626c6520746f206465706f73697420696e207468697320706f6f6c6064820152608401610af0565b6000612c78338661094e565b825490915015612c8d57612c8d3386836131f4565b8315612e7357600060058681548110612ca857612ca861540a565b6000918252602090912001546040517f70a0823100000000000000000000000000000000000000000000000000000000815230600482015273ffffffffffffffffffffffffffffffffffffffff909116906370a0823190602401602060405180830381865afa158015612d1f573d6000803e3d6000fd5b505050506040513d601f19601f82011682018060405250810190612d439190615505565b9050612d8833308760058a81548110612d5e57612d5e61540a565b60009182526020909120015473ffffffffffffffffffffffffffffffffffffffff169291906143bb565b612e3a8160058881548110612d9f57612d9f61540a565b6000918252602090912001546040517f70a0823100000000000000000000000000000000000000000000000000000000815230600482015273ffffffffffffffffffffffffffffffffffffffff909116906370a0823190602401602060405180830381865afa158015612e16573d6000803e3d6000fd5b505050506040513d601f19601f820116820180604052508101906121439190615505565b8354909550612e4990866132f2565b8355612e6c612e6164e8d4a51000610cde88866132ce565b6060860151906132f2565b6060850152505b612ea7670de0b6b3a7640000610cde8560000151610ce464e8d4a51000610cde8789600001546132ce90919063ffffffff16565b82600101819055508260048681548110612ec357612ec361540a565b6000918252602091829020835160059290920201908155828201516001820155604080840151600283015560608401516003830155608090930151600490910180547fffffffffffffffffffffffffffffffffffffffffffffffffffffffffffffff00169115159190911790559051858152869133917f90890809c654f11d6e72a28fa60149770a0d11ec6c92319d6ceb2bb0a4ea1a159101611761565b612f8a7f241ecf16d79d0f8dbfb92cbc07fe17840425976cf0667f022fe9877caa831b086131ea565b600060048381548110612f9f57612f9f61540a565b90600052602060002090600502016001015490504381118015612fc25750438210155b613028576040517f08c379a000000000000000000000000000000000000000000000000000000000815260206004820152601460248201527f43616e2774206d6f6469667920686973746f72790000000000000000000000006044820152606401610af0565b816004848154811061303c5761303c61540a565b906000526020600020906005020160010181905550505050565b61307f7f603ae08765bc5fad7a971952007e4e84ddd8001052efaad946bd8a191e1870df6131ea565b801561308d5761308d611da8565b60006130a4600d54436132e690919063ffffffff16565b905060006130ba6130b3613174565b83906132ce565b90506130ed6130e77fb53127684a568b3173ae13b9f8a6016e243e63b6e8ee1178d6a717850b5d61035490565b82614419565b505043600d5550565b61311f7f241ecf16d79d0f8dbfb92cbc07fe17840425976cf0667f022fe9877caa831b086131ea565b80600003613135576131324360c861551e565b90505b60005b8251811015610e5f576131648382815181106131565761315661540a565b602002602001015183612f61565b61316d816154cd565b9050613138565b6000611da364e8d4a51000610cde600a5468022b1c8c1227a000006132ce90919063ffffffff16565b73ffffffffffffffffffffffffffffffffffffffff811660009081527fdd021e813d5056b401d30ba505d211a2ca2652076f58ad407a75764b92ed7d9d602052604081205460ff1661099e565b611d1d81336144e4565b600082815260066020908152604080832073ffffffffffffffffffffffffffffffffffffffff871684528252808320815160608101835281548082526001830154948201949094526002909101549181019190915291906132609064e8d4a5100090610cde90866132ce565b9050600061329e670de0b6b3a7640000610cde600488815481106132865761328661540a565b600091825260209091206005909102015485906132ce565b905060006132b98460200151836132e690919063ffffffff16565b90506132c58782614419565b50505050505050565b600061254b8284615531565b600061254b8284615548565b600061254b8284615583565b600061254b828461551e565b7f0de7f2b0af5ab1aa4eca2b133cdee828bdcfefa98e4927fa304b2ad002ca6eb35460ff808316911610613363576040517fbfdd178500000000000000000000000000000000000000000000000000000000815260ff82166004820152602401610af0565b7f0de7f2b0af5ab1aa4eca2b133cdee828bdcfefa98e4927fa304b2ad002ca6eb380547fffffffffffffffffffffffffffffffffffffffffffffffffffffffffffffff001660ff92909216919091179055565b6133c08282613fd7565b61136a5760008281527fffaa26784aca465bf23123375047d80ccb2b41102e02e5c4ef5b5aa00624b2d26020908152604080832073ffffffffffffffffffffffffffffffffffffffff85168452825280832080547fffffffffffffffffffffffffffffffffffffffffffffffffffffffffffffff001660011790558483527fffaa26784aca465bf23123375047d80ccb2b41102e02e5c4ef5b5aa00624b2d3909152902061346e908261458d565b50604051339073ffffffffffffffffffffffffffffffffffffffff83169084907f2f8788117e7eff1d82e926ec794901d17c78024a50270940304540a733656f0d90600090a45050565b73ffffffffffffffffffffffffffffffffffffffff821660009081527fdd021e813d5056b401d30ba505d211a2ca2652076f58ad407a75764b92ed7d9d602052604090205460ff161561136a5773ffffffffffffffffffffffffffffffffffffffff821660009081527fdd021e813d5056b401d30ba505d211a2ca2652076f58ad407a75764b92ed7d9d60205260409081902080547fffffffffffffffffffffffffffffffffffffffffffffffffffffffffffffff001690555161357d9082906155ba565b6040519081900381209073ffffffffffffffffffffffffffffffffffffffff8416907fe4e3c0e67592981f9042a3df81ea0ee0dfb06be469efdbd2bfc674ab37ab62fe90600090a35050565b60008281527fffaa26784aca465bf23123375047d80ccb2b41102e02e5c4ef5b5aa00624b2d26020526040808220600101805490849055905190918391839186917fbd79b86ffe0ab8e8776151514217cd7cacd52c909f66475c3af44e129f0b00ff9190a4505050565b61363d8282613fd7565b1561136a5760008281527fffaa26784aca465bf23123375047d80ccb2b41102e02e5c4ef5b5aa00624b2d26020908152604080832073ffffffffffffffffffffffffffffffffffffffff85168452825280832080547fffffffffffffffffffffffffffffffffffffffffffffffffffffffffffffff001690558483527fffaa26784aca465bf23123375047d80ccb2b41102e02e5c4ef5b5aa00624b2d390915290206136e990826145af565b50604051339073ffffffffffffffffffffffffffffffffffffffff83169084907ff6391f5c32d9c69d2a47ea670b442974b53935d1edc7fd64eb21e047a839171b90600090a45050565b7fb65939979d77055fe20d21bcb90b95461947bffa39f3588194f5015117626ea75460ff168061378857506137887fda6fac9f81a22bb02ed26455dcee2a5f2434c8a3377a2cc986478052c1594f9e33613fd7565b6114d0576040517f08c379a000000000000000000000000000000000000000000000000000000000815260206004820152601460248201527f5061757361626c653a206e6f74207061757365640000000000000000000000006044820152606401610af0565b7fb65939979d77055fe20d21bcb90b95461947bffa39f3588194f5015117626ea780547fffffffffffffffffffffffffffffffffffffffffffffffffffffffffffffff001690556040513381527f5db9ee0a495bf2e6ff9c91a7834c1ba4fdd244a5e8aa4e537bd38aeae4b073aa906020015b60405180910390a1565b7fb65939979d77055fe20d21bcb90b95461947bffa39f3588194f5015117626ea75460ff1615806138c157506138c17fda6fac9f81a22bb02ed26455dcee2a5f2434c8a3377a2cc986478052c1594f9e33613fd7565b6114d0576040517f08c379a000000000000000000000000000000000000000000000000000000000815260206004820152601060248201527f5061757361626c653a20706175736564000000000000000000000000000000006044820152606401610af0565b611d1d816145d1565b60405173ffffffffffffffffffffffffffffffffffffffff8316602482015260448101829052610e5f9084907fa9059cbb00000000000000000000000000000000000000000000000000000000906064015b604080517fffffffffffffffffffffffffffffffffffffffffffffffffffffffffffffffe08184030181529190526020810180517bffffffffffffffffffffffffffffffffffffffffffffffffffffffff167fffffffff000000000000000000000000000000000000000000000000000000009093169290921790915261464f565b613a0d82611823565b5060048281548110613a2157613a2161540a565b600091825260209091206004600590920201015460ff1615613a8257613a7a81610d3060048581548110613a5757613a5761540a565b9060005260206000209060050201600201546008546132e690919063ffffffff16565b600855613ac3565b613abf81610d3060048581548110613a9c57613a9c61540a565b9060005260206000209060050201600201546009546132e690919063ffffffff16565b6009555b8060048381548110613ad757613ad761540a565b906000526020600020906005020160020181905550817fc0cfd54d2de2b55f1e6e108d3ec53ff0a1abe6055401d32c61e9433b747ef9f88260405161282091815260200190565b6000805b8251811015613bb257613b92838281518110613b4057613b4061540a565b602002602001015173ffffffffffffffffffffffffffffffffffffffff1660009081527fdd021e813d5056b401d30ba505d211a2ca2652076f58ad407a75764b92ed7d9d602052604090205460ff1690565b15613ba05750600192915050565b80613baa816154cd565b915050613b22565b50600092915050565b6040517f70a0823100000000000000000000000000000000000000000000000000000000815230600482015260009073ffffffffffffffffffffffffffffffffffffffff8616906370a0823190602401602060405180830381865afa158015613c28573d6000803e3d6000fd5b505050506040513d601f19601f82011682018060405250810190613c4c9190615505565b1015613cb4576040517f08c379a000000000000000000000000000000000000000000000000000000000815260206004820152601160248201527f4e6f6e6520424550323020746f6b656e730000000000000000000000000000006044820152606401610af0565b60005473ffffffffffffffffffffffffffffffffffffffff90811690851603613d5f576040517f08c379a000000000000000000000000000000000000000000000000000000000815260206004820152602860248201527f4b5357415020746f6b656e2063616e277420626520616464656420746f20666160448201527f726d20706f6f6c730000000000000000000000000000000000000000000000006064820152608401610af0565b8015613d6d57613d6d611da8565b8215613d8857600854613d8090866132f2565b600855613d99565b600954613d9590866132f2565b6009555b6005805460018101825560009182527f036b6384b5eca791c62761152d0c79bb0604c104a5fb6f4eb0703f3154bb3db00180547fffffffffffffffffffffffff00000000000000000000000000000000000000001673ffffffffffffffffffffffffffffffffffffffff87161790556040805160a0810190915290815260049060208101438511613e3457613e2f4360c861551e565b613e36565b845b8152602080820189905260006040808401829052881515606094850152855460018082018855968352918390208551600593840290910190815592850151838701558401516002830155918301516003820155608090920151600490920180547fffffffffffffffffffffffffffffffffffffffffffffffffffffffffffffff0016921515929092179091555473ffffffffffffffffffffffffffffffffffffffff861691613ee591906132e6565b6040805188815286151560208201527f18caa0724a26384928efe604ae6ddc99c242548876259770fc88fcb7e719d8fa910160405180910390a35050505050565b7fb65939979d77055fe20d21bcb90b95461947bffa39f3588194f5015117626ea780547fffffffffffffffffffffffffffffffffffffffffffffffffffffffffffffff001660011790556040513381527f62e78cea01bee320cd4e420270b5ea74000d11b0c9f74754ebdbfc544b05a25890602001613861565b60008281527fffaa26784aca465bf23123375047d80ccb2b41102e02e5c4ef5b5aa00624b2d36020526040812061254b908361475b565b60007fffaa26784aca465bf23123375047d80ccb2b41102e02e5c4ef5b5aa00624b2d260008481526020918252604080822073ffffffffffffffffffffffffffffffffffffffff86168352909252205460ff168061254b57507fffaa26784aca465bf23123375047d80ccb2b41102e02e5c4ef5b5aa00624b2d2600061408b8560009081527fffaa26784aca465bf23123375047d80ccb2b41102e02e5c4ef5b5aa00624b2d2602052604090206001015490565b81526020808201929092526040908101600090812073ffffffffffffffffffffffffffffffffffffffff8616825290925290205460ff16905092915050565b6000831180156140da5750600082115b80156140e65750600081115b614172576040517f08c379a000000000000000000000000000000000000000000000000000000000815260206004820152602d60248201527f4d6173746572436865663a204b737761702072617465206d757374206265206760448201527f726561746572207468616e2030000000000000000000000000000000000000006064820152608401610af0565b64e8d4a5100061418682610d3086866132f2565b14614213576040517f08c379a000000000000000000000000000000000000000000000000000000000815260206004820152602360248201527f4d6173746572436865663a20546f74616c2072617465206d757374206265203160448201527f65313200000000000000000000000000000000000000000000000000000000006064820152608401610af0565b61421d6000613056565b600a839055600b829055600c81905560408051848152602081018490529081018290527fae2d2e7d1ae84564fc72227253ce0f36a007209f7fd5ec414dea80e5af2fb5b09060600160405180910390a1505050565b60008181527fffaa26784aca465bf23123375047d80ccb2b41102e02e5c4ef5b5aa00624b2d36020526040812061099e90614767565b73ffffffffffffffffffffffffffffffffffffffff821660009081527fdd021e813d5056b401d30ba505d211a2ca2652076f58ad407a75764b92ed7d9d602052604090205460ff1661136a5773ffffffffffffffffffffffffffffffffffffffff821660009081527fdd021e813d5056b401d30ba505d211a2ca2652076f58ad407a75764b92ed7d9d60205260409081902080547fffffffffffffffffffffffffffffffffffffffffffffffffffffffffffffff001660011790555161436f9082906155ba565b6040519081900381209073ffffffffffffffffffffffffffffffffffffffff8416907f71ffd5b2f7b305f2f756c161455e2951077ed1951f9ecbee6252949bc1e13c5a90600090a35050565b60405173ffffffffffffffffffffffffffffffffffffffff808516602483015283166044820152606481018290526113209085907f23b872dd0000000000000000000000000000000000000000000000000000000090608401613982565b801561136a57600080546040517f70a0823100000000000000000000000000000000000000000000000000000000815230600482015273ffffffffffffffffffffffffffffffffffffffff909116906370a0823190602401602060405180830381865afa15801561448e573d6000803e3d6000fd5b505050506040513d601f19601f820116820180604052508101906144b29190615505565b9050818110156144c0578091505b600054610e5f9073ffffffffffffffffffffffffffffffffffffffff168484613930565b6144ee8282613fd7565b61136a576145138173ffffffffffffffffffffffffffffffffffffffff166014614771565b61451e836020614771565b60405160200161452f9291906155d6565b604080517fffffffffffffffffffffffffffffffffffffffffffffffffffffffffffffffe0818403018152908290527f08c379a0000000000000000000000000000000000000000000000000000000008252610af091600401615657565b600061254b8373ffffffffffffffffffffffffffffffffffffffff84166149b4565b600061254b8373ffffffffffffffffffffffffffffffffffffffff8416614a03565b73ffffffffffffffffffffffffffffffffffffffff811660009081527fdd021e813d5056b401d30ba505d211a2ca2652076f58ad407a75764b92ed7d9d602052604090205460ff1615611d1d5761463f8173ffffffffffffffffffffffffffffffffffffffff166014614771565b60405160200161452f91906156a8565b60006146b1826040518060400160405280602081526020017f5361666545524332303a206c6f772d6c6576656c2063616c6c206661696c65648152508573ffffffffffffffffffffffffffffffffffffffff16614af69092919063ffffffff16565b805190915015610e5f57808060200190518101906146cf9190615714565b610e5f576040517f08c379a000000000000000000000000000000000000000000000000000000000815260206004820152602a60248201527f5361666545524332303a204552433230206f7065726174696f6e20646964206e60448201527f6f742073756363656564000000000000000000000000000000000000000000006064820152608401610af0565b600061254b8383614b0d565b600061099e825490565b60606000614780836002615531565b61478b90600261551e565b67ffffffffffffffff8111156147a3576147a3614fe7565b6040519080825280601f01601f1916602001820160405280156147cd576020820181803683370190505b5090507f3000000000000000000000000000000000000000000000000000000000000000816000815181106148045761480461540a565b60200101907effffffffffffffffffffffffffffffffffffffffffffffffffffffffffffff1916908160001a9053507f7800000000000000000000000000000000000000000000000000000000000000816001815181106148675761486761540a565b60200101907effffffffffffffffffffffffffffffffffffffffffffffffffffffffffffff1916908160001a90535060006148a3846002615531565b6148ae90600161551e565b90505b600181111561494b577f303132333435363738396162636465660000000000000000000000000000000085600f16601081106148ef576148ef61540a565b1a60f81b8282815181106149055761490561540a565b60200101907effffffffffffffffffffffffffffffffffffffffffffffffffffffffffffff1916908160001a90535060049490941c9361494481615731565b90506148b1565b508315610998576040517f08c379a000000000000000000000000000000000000000000000000000000000815260206004820181905260248201527f537472696e67733a20686578206c656e67746820696e73756666696369656e746044820152606401610af0565b60008181526001830160205260408120546149fb5750815460018181018455600084815260208082209093018490558454848252828601909352604090209190915561099e565b50600061099e565b60008181526001830160205260408120548015614aec576000614a27600183615583565b8554909150600090614a3b90600190615583565b9050818114614aa0576000866000018281548110614a5b57614a5b61540a565b9060005260206000200154905080876000018481548110614a7e57614a7e61540a565b6000918252602080832090910192909255918252600188019052604090208390555b8554869080614ab157614ab1615766565b60019003818190600052602060002001600090559055856001016000868152602001908152602001600020600090556001935050505061099e565b600091505061099e565b6060614b058484600085614b37565b949350505050565b6000826000018281548110614b2457614b2461540a565b9060005260206000200154905092915050565b606082471015614bc9576040517f08c379a000000000000000000000000000000000000000000000000000000000815260206004820152602660248201527f416464726573733a20696e73756666696369656e742062616c616e636520666f60448201527f722063616c6c00000000000000000000000000000000000000000000000000006064820152608401610af0565b6000808673ffffffffffffffffffffffffffffffffffffffff168587604051614bf291906155ba565b60006040518083038185875af1925050503d8060008114614c2f576040519150601f19603f3d011682016040523d82523d6000602084013e614c34565b606091505b5091509150614c4587838387614c50565b979650505050505050565b60608315614ce6578251600003614cdf5773ffffffffffffffffffffffffffffffffffffffff85163b614cdf576040517f08c379a000000000000000000000000000000000000000000000000000000000815260206004820152601d60248201527f416464726573733a2063616c6c20746f206e6f6e2d636f6e74726163740000006044820152606401610af0565b5081614b05565b614b058383815115614cfb5781518083602001fd5b806040517f08c379a0000000000000000000000000000000000000000000000000000000008152600401610af09190615657565b73ffffffffffffffffffffffffffffffffffffffff81168114611d1d57600080fd5b60008060408385031215614d6457600080fd5b8235614d6f81614d2f565b946020939093013593505050565b600080600060608486031215614d9257600080fd5b8335614d9d81614d2f565b95602085013595506040909401359392505050565b600060208284031215614dc457600080fd5b5035919050565b60008083601f840112614ddd57600080fd5b50813567ffffffffffffffff811115614df557600080fd5b6020830191508360208260051b8501011115614e1057600080fd5b9250929050565b60008060008060408587031215614e2d57600080fd5b843567ffffffffffffffff80821115614e4557600080fd5b614e5188838901614dcb565b90965094506020870135915080821115614e6a57600080fd5b50614e7787828801614dcb565b95989497509550505050565b60008060408385031215614e9657600080fd5b50508035926020909101359150565b60008060408385031215614eb857600080fd5b823591506020830135614eca81614d2f565b809150509250929050565b600060208284031215614ee757600080fd5b813561099881614d2f565b60008083601f840112614f0457600080fd5b50813567ffffffffffffffff811115614f1c57600080fd5b6020830191508360208260061b8501011115614e1057600080fd5b8015158114611d1d57600080fd5b600080600060408486031215614f5a57600080fd5b833567ffffffffffffffff811115614f7157600080fd5b614f7d86828701614ef2565b9094509250506020840135614f9181614f37565b809150509250925092565b600060208284031215614fae57600080fd5b813561099881614f37565b600080600060608486031215614fce57600080fd5b83359250602084013591506040840135614f9181614f37565b7f4e487b7100000000000000000000000000000000000000000000000000000000600052604160045260246000fd5b604051601f82017fffffffffffffffffffffffffffffffffffffffffffffffffffffffffffffffe016810167ffffffffffffffff8111828210171561505d5761505d614fe7565b604052919050565b600067ffffffffffffffff82111561507f5761507f614fe7565b5060051b60200190565b6000602080838503121561509c57600080fd5b823567ffffffffffffffff8111156150b357600080fd5b8301601f810185136150c457600080fd5b80356150d76150d282615065565b615016565b81815260059190911b820183019083810190878311156150f657600080fd5b928401925b82841015614c4557833561510e81614d2f565b825292840192908401906150fb565b600080600080600060a0868803121561513557600080fd5b85359450602086013561514781614d2f565b9350604086013561515781614f37565b925060608601359150608086013561516e81614f37565b809150509295509295909350565b60008060006040848603121561519157600080fd5b833567ffffffffffffffff8111156151a857600080fd5b6151b486828701614dcb565b9094509250506020840135614f9181614d2f565b6020808252825182820181905260009190848201906040850190845b81811015615200578351835292840192918401916001016151e4565b50909695505050505050565b60008060008060008060a0878903121561522557600080fd5b863567ffffffffffffffff81111561523c57600080fd5b61524889828a01614ef2565b909750955050602087013593506040870135925060608701359150608087013561527181614f37565b809150509295509295509295565b6000806000806080858703121561529557600080fd5b84359350602085013592506040850135915060608501356152b581614f37565b939692955090935050565b600080604083850312156152d357600080fd5b82356152de81614d2f565b91506020830135614eca81614f37565b60008060006040848603121561530357600080fd5b833561530e81614d2f565b9250602084013567ffffffffffffffff8082111561532b57600080fd5b818601915086601f83011261533f57600080fd5b81358181111561534e57600080fd5b87602082850101111561536057600080fd5b6020830194508093505050509250925092565b6000806040838503121561538657600080fd5b823567ffffffffffffffff81111561539d57600080fd5b8301601f810185136153ae57600080fd5b803560206153be6150d283615065565b82815260059290921b830181019181810190888411156153dd57600080fd5b938201935b838510156153fb578435825293820193908201906153e2565b98969091013596505050505050565b7f4e487b7100000000000000000000000000000000000000000000000000000000600052603260045260246000fd5b60008083357fffffffffffffffffffffffffffffffffffffffffffffffffffffffffffffffe184360301811261546e57600080fd5b83018035915067ffffffffffffffff82111561548957600080fd5b602001915036819003821315614e1057600080fd5b7f4e487b7100000000000000000000000000000000000000000000000000000000600052601160045260246000fd5b60007fffffffffffffffffffffffffffffffffffffffffffffffffffffffffffffffff82036154fe576154fe61549e565b5060010190565b60006020828403121561551757600080fd5b5051919050565b8082018082111561099e5761099e61549e565b808202811582820484141761099e5761099e61549e565b60008261557e577f4e487b7100000000000000000000000000000000000000000000000000000000600052601260045260246000fd5b500490565b8181038181111561099e5761099e61549e565b60005b838110156155b1578181015183820152602001615599565b50506000910152565b600082516155cc818460208701615596565b9190910192915050565b7f416363657373436f6e74726f6c3a206163636f756e742000000000000000000081526000835161560e816017850160208801615596565b7f206973206d697373696e6720726f6c6520000000000000000000000000000000601791840191820152835161564b816028840160208801615596565b01602801949350505050565b6020815260008251806020840152615676816040850160208701615596565b601f017fffffffffffffffffffffffffffffffffffffffffffffffffffffffffffffffe0169190910160400192915050565b7f53696d706c65426c61636b6c6973743a206163636f756e7420000000000000008152600082516156e0816019850160208701615596565b7f20697320626c61636b6c697374656400000000000000000000000000000000006019939091019283015250602801919050565b60006020828403121561572657600080fd5b815161099881614f37565b6000816157405761574061549e565b507fffffffffffffffffffffffffffffffffffffffffffffffffffffffffffffffff0190565b7f4e487b7100000000000000000000000000000000000000000000000000000000600052603160045260246000fdfea26469706673582212203ae21c5e5b702c13c6174ea22e0443026e98f47a089719c4a7482ea7552e726364736f6c63430008110033",
  "devdoc": {
    "kind": "dev",
    "methods": {
      "add(uint256,address,bool,uint256,bool)": {
        "params": {
          "_allocPoint": "Number of allocation points for the new pool.",
          "_isRegular": "Whether the pool is regular or special. LP farms are always \"regular\". \"Special\" pools are",
          "_lpToken": "Address of the LP BEP-20 token.",
          "_withUpdate": "Whether call \"massUpdatePools\" operation. only for KSWAP distributions within Kyoto Swap products."
        }
      },
      "blacklist(address,string)": {
        "details": "External function to add `account` to the blacklist. WARNING: This function is abstract, to enforce it's implementation          in the final contract. This is important to make sure          the final contraqct's access control mechanism will be used! See {ISimpleBlacklist-blacklist}"
      },
      "blacklist(address[],string[])": {
        "details": "External function to add `account` to the blacklist. WARNING: This function is abstract, to enforce it's implementation          in the final contract. This is important to make sure          the final contraqct's access control mechanism will be used! See {ISimpleBlacklist-blacklist}"
      },
      "burnKswap(bool)": {
        "params": {
          "_withUpdate": "Whether call \"massUpdatePools\" operation."
        }
      },
      "deposit(uint256,uint256)": {
        "params": {
          "_amount": "Amount of LP tokens to deposit.",
          "_pid": "The id of the pool. See `poolInfo`."
        }
      },
      "emergencyWithdraw(uint256)": {
        "params": {
          "_pid": "The id of the pool. See `poolInfo`."
        }
      },
      "getBoostMultiplier(address,uint256)": {
        "params": {
          "_pid": "The pool id.",
          "_user": "The user address."
        }
      },
      "getRoleAdmin(bytes32)": {
        "details": "Returns the admin role that controls `role`. See {grantRole} and {revokeRole}. To change a role's admin, use {AccessControl-setRoleAdmin}."
      },
      "getRoleMember(bytes32,uint256)": {
        "details": "Returns one of the accounts that have `role`. `index` must be a value between 0 and {getRoleMemberCount}, non-inclusive. Role bearers are not sorted in any particular way, and their ordering may change at any point. WARNING: When using {getRoleMember} and {getRoleMemberCount}, make sure you perform all queries on the same block. See the following https://forum.openzeppelin.com/t/iterating-over-elements-on-enumerableset-in-openzeppelin-contracts/2296[forum post] for more information."
      },
      "getRoleMemberCount(bytes32)": {
        "details": "Returns the number of accounts that have `role`. Can be used together with {getRoleMember} to enumerate all bearers of a role."
      },
      "grantRole(bytes32,address)": {
        "details": "Grants `role` to `account`. If `account` had not been already granted `role`, emits a {RoleGranted} event. Requirements: - the caller must have ``role``'s admin role."
      },
      "hasRole(bytes32,address)": {
        "details": "Returns `true` if `account` has been granted `role`."
      },
      "isBlacklisted(address)": {
        "details": "Returns `true` if `account` is blacklisted."
      },
      "isBlacklisted(address[])": {
        "details": "Returns `true` if any address in `accounts` is on the blacklist."
      },
      "kswapPerBlock(bool)": {
        "params": {
          "_isRegular": "If the pool belongs to regular or special."
        }
      },
      "pause()": {
        "details": "Triggers stopped state. Requirements: - The contract must not be paused."
      },
      "paused()": {
        "details": "Returns true if the contract is paused, and false otherwise."
      },
      "pendingKswap(uint256,address)": {
        "params": {
          "_pid": "The id of the pool. See `poolInfo`.",
          "_user": "Address of the user."
        }
      },
      "pendingKswap(uint256[],address)": {
        "params": {
          "_pids": "The list of pool ids. See `poolInfo`.",
          "_user": "Address of the user."
        },
        "returns": {
          "amounts": "List of pending amounts for pools from `_pids`."
        }
      },
      "renounceRole(bytes32,address)": {
        "details": "Revokes `role` from the calling account. Roles are often managed via {grantRole} and {revokeRole}: this function's purpose is to provide a mechanism for accounts to lose their privileges if they are compromised (such as when a trusted device is misplaced). If the calling account had been granted `role`, emits a {RoleRevoked} event. Requirements: - the caller must be `account`."
      },
      "revokeRole(bytes32,address)": {
        "details": "Revokes `role` from `account`. If `account` had been granted `role`, emits a {RoleRevoked} event. Requirements: - the caller must have ``role``'s admin role."
      },
      "set((uint256,uint256)[],bool)": {
        "params": {
          "_withUpdate": "Whether call \"massUpdatePools\" operation.",
          "poolAlocations": "List of SetPoolAllocationInfo to update"
        }
      },
      "set(uint256,uint256,bool)": {
        "params": {
          "_allocPoint": "New number of allocation points for the pool.",
          "_pid": "The id of the pool. See `poolInfo`.",
          "_withUpdate": "Whether call \"massUpdatePools\" operation."
        }
      },
      "setPoolLastRewardBlock(uint256,uint256)": {
        "params": {
          "_pid": "The pool id to update.",
          "newLastRewardBlock": "The new value."
        }
      },
      "setPoolLastRewardBlock(uint256[],uint256)": {
        "params": {
          "_pids": "The list of pool ids to update.",
          "newLastRewardBlock": "The new value."
        }
      },
      "setRoleAdmin(bytes32,bytes32)": {
        "details": "Sets `adminRole` as ``role``'s admin role. Emits a {RoleAdminChanged} event."
      },
      "unblacklist(address,string)": {
        "details": "External function to remove `account` from the blacklist. WARNING: This function is abstract, to enforce it's implementation          in the final contract. This is important to make sure          the final contraqct's access control mechanism will be used! See {ISimpleBlacklist-unblacklist}"
      },
      "unblacklist(address[],string[])": {
        "details": "External function to add `account` to the blacklist. WARNING: This function is abstract, to enforce it's implementation          in the final contract. This is important to make sure          the final contraqct's access control mechanism will be used! See {ISimpleBlacklist-blacklist}"
      },
      "unpause()": {
        "details": "Returns to normal state. Requirements: - The contract must be paused."
      },
      "updateBoostMultiplier(address,uint256,uint256)": {
        "params": {
          "_newMultiplier": "New boost multiplier.",
          "_pid": "The pool id for the boost factor updates.",
          "_user": "The user address for boost factor updates."
        }
      },
      "updateKswapRate(uint256,uint256,uint256,bool)": {
        "params": {
          "_burnRate": "The % of KSWAP to burn each block.",
          "_regularFarmRate": "The % of KSWAP to regular pools each block.",
          "_specialFarmRate": "The % of KSWAP to special pools each block.",
          "_withUpdate": "Whether call \"massUpdatePools\" operation."
        }
      },
      "updatePool(uint256)": {
        "params": {
          "_pid": "The id of the pool. See `poolInfo`."
        },
        "returns": {
          "pool": "Returns the pool that was updated."
        }
      },
      "updateRatesAndPools((uint256,uint256)[],uint256,uint256,uint256,bool)": {
        "params": {
          "_burnRate": "The % of KSWAP to burn each block.",
          "_regularFarmRate": "The % of KSWAP to regular pools each block.",
          "_specialFarmRate": "The % of KSWAP to special pools each block.",
          "poolAlocations": "List of SetPoolAllocationInfo to update"
        }
      },
      "updateWhiteList(address,bool)": {
        "params": {
          "_isValid": "The flag for valid or invalid.",
          "_user": "The address to be updated."
        }
      },
      "withdraw(uint256,uint256)": {
        "params": {
          "_amount": "Amount of LP tokens to withdraw.",
          "_pid": "The id of the pool. See `poolInfo`."
        }
      }
    },
    "version": 1
  },
  "userdoc": {
    "kind": "user",
    "methods": {
      "BOOST_PRECISION()": {
        "notice": "Basic boost factor, none boosted user's boost factor"
      },
      "KSWAP_RATE_TOTAL_PRECISION()": {
        "notice": "total kswap rate = toBurn + toRegular + toSpecial"
      },
      "MASTERCHEF_KSWAP_PER_BLOCK()": {
        "notice": "40 KSWAP per block in MC"
      },
      "MAX_BOOST_PRECISION()": {
        "notice": "Hard limit for maxmium boost factor, it must greater than BOOST_PRECISION"
      },
      "add(uint256,address,bool,uint256,bool)": {
        "notice": "Add a new pool. Can only be called by the owner. DO NOT add the same LP token more than once. Rewards will be messed up if you do."
      },
      "burnKswap(bool)": {
        "notice": "Send KSWAP pending for burn to `burnAdmin`."
      },
      "deposit(uint256,uint256)": {
        "notice": "Deposit LP tokens to pool."
      },
      "deprecated2()": {
        "notice": "DEPRECATED. We keep it to have the storage slots consistant."
      },
      "deprecated3()": {
        "notice": "DEPRECATED. We keep it to have the storage slots consistant."
      },
      "emergencyWithdraw(uint256)": {
        "notice": "Withdraw without caring about the rewards. EMERGENCY ONLY."
      },
      "getBoostMultiplier(address,uint256)": {
        "notice": "Get user boost multiplier for specific pool id."
      },
      "kswapPerBlock(bool)": {
        "notice": "Calculates and returns the `amount` of KSWAP per block."
      },
      "kswapPerBlockToBurn()": {
        "notice": "Calculates and returns the `amount` of KSWAP per block to burn."
      },
      "kswapRateToBurn()": {
        "notice": "The last block number of KSWAP burn action being executed."
      },
      "lpToken(uint256)": {
        "notice": "Address of the LP token for each MCV2 pool."
      },
      "massUpdatePools()": {
        "notice": "Update kswap reward for all the active pools. Be careful of gas spending!"
      },
      "pendingKswap(uint256,address)": {
        "notice": "View function for checking pending KSWAP rewards."
      },
      "pendingKswap(uint256[],address)": {
        "notice": "View function for checking pending KSWAP rewards on multiple pools."
      },
      "poolInfo(uint256)": {
        "notice": "Info of each MCV2 pool."
      },
      "poolLength()": {
        "notice": "Returns the number of MC pools."
      },
      "set((uint256,uint256)[],bool)": {
        "notice": "Update the given pool's KSWAP allocation point. Can only be called by the owner."
      },
      "set(uint256,uint256,bool)": {
        "notice": "Update the given pool's KSWAP allocation point. Can only be called by the owner."
      },
      "setPoolLastRewardBlock(uint256,uint256)": {
        "notice": "Updates the lastRewardBlock for a pool.         Both the new and old values must be future blocks!         If the new value is 0, it will be set to `block.number + 200`."
      },
      "setPoolLastRewardBlock(uint256[],uint256)": {
        "notice": "Updates the lastRewardBlock for a list of pools.         Both the new and old values must be future blocks!         If the new value is 0, it will be set to `block.number + 200`."
      },
      "setTreasuryAddress(address)": {
        "notice": "Update the treasury address."
      },
      "totalRegularAllocPoint()": {
        "notice": "Total regular allocation points. Must be the sum of all regular pools' allocation points."
      },
      "totalSpecialAllocPoint()": {
        "notice": "Total special allocation points. Must be the sum of all special pools' allocation points."
      },
      "updateBoostMultiplier(address,uint256,uint256)": {
        "notice": "Update user boost factor."
      },
      "updateKswapRate(uint256,uint256,uint256,bool)": {
        "notice": "Update the % of KSWAP distributions for burn, regular pools and special pools."
      },
      "updatePool(uint256)": {
        "notice": "Update reward variables for the given pool."
      },
      "updateRatesAndPools((uint256,uint256)[],uint256,uint256,uint256,bool)": {
        "notice": "Updates the given pool's allocations and the pool rates."
      },
      "updateWhiteList(address,bool)": {
        "notice": "Update whitelisted addresses for special pools."
      },
      "userInfo(uint256,address)": {
        "notice": "Info of each pool user."
      },
      "whiteList(address)": {
        "notice": "The whitelist of addresses allowed to deposit in special pools."
      },
      "withdraw(uint256,uint256)": {
        "notice": "Withdraw LP tokens from pool."
      }
    },
    "version": 1
  },
  "storageLayout": {
    "storage": [
      {
        "astId": 4607,
        "contract": "contracts/MasterChef.sol:MasterChef",
        "label": "kswap",
        "offset": 0,
        "slot": "0",
        "type": "t_contract(IERC20Mintable)6508"
      },
      {
        "astId": 4609,
        "contract": "contracts/MasterChef.sol:MasterChef",
        "label": "treasury",
        "offset": 0,
        "slot": "1",
        "type": "t_address"
      },
      {
        "astId": 4612,
        "contract": "contracts/MasterChef.sol:MasterChef",
        "label": "deprecated2",
        "offset": 0,
        "slot": "2",
        "type": "t_address"
      },
      {
        "astId": 4615,
        "contract": "contracts/MasterChef.sol:MasterChef",
        "label": "deprecated3",
        "offset": 0,
        "slot": "3",
        "type": "t_address"
      },
      {
        "astId": 4620,
        "contract": "contracts/MasterChef.sol:MasterChef",
        "label": "poolInfo",
        "offset": 0,
        "slot": "4",
        "type": "t_array(t_struct(PoolInfo)6530_storage)dyn_storage"
      },
      {
        "astId": 4625,
        "contract": "contracts/MasterChef.sol:MasterChef",
        "label": "lpToken",
        "offset": 0,
        "slot": "5",
        "type": "t_array(t_contract(IERC20)175)dyn_storage"
      },
      {
        "astId": 4633,
        "contract": "contracts/MasterChef.sol:MasterChef",
        "label": "userInfo",
        "offset": 0,
        "slot": "6",
        "type": "t_mapping(t_uint256,t_mapping(t_address,t_struct(UserInfo)6519_storage))"
      },
      {
        "astId": 4638,
        "contract": "contracts/MasterChef.sol:MasterChef",
        "label": "whiteList",
        "offset": 0,
        "slot": "7",
        "type": "t_mapping(t_address,t_bool)"
      },
      {
        "astId": 4641,
        "contract": "contracts/MasterChef.sol:MasterChef",
        "label": "totalRegularAllocPoint",
        "offset": 0,
        "slot": "8",
        "type": "t_uint256"
      },
      {
        "astId": 4644,
        "contract": "contracts/MasterChef.sol:MasterChef",
        "label": "totalSpecialAllocPoint",
        "offset": 0,
        "slot": "9",
        "type": "t_uint256"
      },
      {
        "astId": 4672,
        "contract": "contracts/MasterChef.sol:MasterChef",
        "label": "kswapRateToBurn",
        "offset": 0,
        "slot": "10",
        "type": "t_uint256"
      },
      {
        "astId": 4674,
        "contract": "contracts/MasterChef.sol:MasterChef",
        "label": "kswapRateToRegularFarm",
        "offset": 0,
        "slot": "11",
        "type": "t_uint256"
      },
      {
        "astId": 4676,
        "contract": "contracts/MasterChef.sol:MasterChef",
        "label": "kswapRateToSpecialFarm",
        "offset": 0,
        "slot": "12",
        "type": "t_uint256"
      },
      {
        "astId": 4678,
        "contract": "contracts/MasterChef.sol:MasterChef",
        "label": "lastBurnedBlock",
        "offset": 0,
        "slot": "13",
        "type": "t_uint256"
      }
    ],
    "types": {
      "t_address": {
        "encoding": "inplace",
        "label": "address",
        "numberOfBytes": "20"
      },
      "t_array(t_contract(IERC20)175)dyn_storage": {
        "base": "t_contract(IERC20)175",
        "encoding": "dynamic_array",
        "label": "contract IERC20[]",
        "numberOfBytes": "32"
      },
      "t_array(t_struct(PoolInfo)6530_storage)dyn_storage": {
        "base": "t_struct(PoolInfo)6530_storage",
        "encoding": "dynamic_array",
        "label": "struct IMasterChef.PoolInfo[]",
        "numberOfBytes": "32"
      },
      "t_bool": {
        "encoding": "inplace",
        "label": "bool",
        "numberOfBytes": "1"
      },
      "t_contract(IERC20)175": {
        "encoding": "inplace",
        "label": "contract IERC20",
        "numberOfBytes": "20"
      },
      "t_contract(IERC20Mintable)6508": {
        "encoding": "inplace",
        "label": "contract IERC20Mintable",
        "numberOfBytes": "20"
      },
      "t_mapping(t_address,t_bool)": {
        "encoding": "mapping",
        "key": "t_address",
        "label": "mapping(address => bool)",
        "numberOfBytes": "32",
        "value": "t_bool"
      },
      "t_mapping(t_address,t_struct(UserInfo)6519_storage)": {
        "encoding": "mapping",
        "key": "t_address",
        "label": "mapping(address => struct IMasterChef.UserInfo)",
        "numberOfBytes": "32",
        "value": "t_struct(UserInfo)6519_storage"
      },
      "t_mapping(t_uint256,t_mapping(t_address,t_struct(UserInfo)6519_storage))": {
        "encoding": "mapping",
        "key": "t_uint256",
        "label": "mapping(uint256 => mapping(address => struct IMasterChef.UserInfo))",
        "numberOfBytes": "32",
        "value": "t_mapping(t_address,t_struct(UserInfo)6519_storage)"
      },
      "t_struct(PoolInfo)6530_storage": {
        "encoding": "inplace",
        "label": "struct IMasterChef.PoolInfo",
        "members": [
          {
            "astId": 6521,
            "contract": "contracts/MasterChef.sol:MasterChef",
            "label": "accKswapPerShare",
            "offset": 0,
            "slot": "0",
            "type": "t_uint256"
          },
          {
            "astId": 6523,
            "contract": "contracts/MasterChef.sol:MasterChef",
            "label": "lastRewardBlock",
            "offset": 0,
            "slot": "1",
            "type": "t_uint256"
          },
          {
            "astId": 6525,
            "contract": "contracts/MasterChef.sol:MasterChef",
            "label": "allocPoint",
            "offset": 0,
            "slot": "2",
            "type": "t_uint256"
          },
          {
            "astId": 6527,
            "contract": "contracts/MasterChef.sol:MasterChef",
            "label": "totalBoostedShare",
            "offset": 0,
            "slot": "3",
            "type": "t_uint256"
          },
          {
            "astId": 6529,
            "contract": "contracts/MasterChef.sol:MasterChef",
            "label": "isRegular",
            "offset": 0,
            "slot": "4",
            "type": "t_bool"
          }
        ],
        "numberOfBytes": "160"
      },
      "t_struct(UserInfo)6519_storage": {
        "encoding": "inplace",
        "label": "struct IMasterChef.UserInfo",
        "members": [
          {
            "astId": 6514,
            "contract": "contracts/MasterChef.sol:MasterChef",
            "label": "amount",
            "offset": 0,
            "slot": "0",
            "type": "t_uint256"
          },
          {
            "astId": 6516,
            "contract": "contracts/MasterChef.sol:MasterChef",
            "label": "rewardDebt",
            "offset": 0,
            "slot": "1",
            "type": "t_uint256"
          },
          {
            "astId": 6518,
            "contract": "contracts/MasterChef.sol:MasterChef",
            "label": "boostMultiplier",
            "offset": 0,
            "slot": "2",
            "type": "t_uint256"
          }
        ],
        "numberOfBytes": "96"
      },
      "t_uint256": {
        "encoding": "inplace",
        "label": "uint256",
        "numberOfBytes": "32"
      }
    }
  }
}