{
  "address": "0x8c801360936171Bcf97742365eF3009fEC5968BC",
  "abi": [
    {
      "inputs": [],
      "name": "InitializerContractAlreadyInitialized",
      "type": "error"
    },
    {
      "inputs": [],
      "name": "InitializerContractIsInitializing",
      "type": "error"
    },
    {
      "inputs": [],
      "name": "InitializerContractIsNotInitializing",
      "type": "error"
    },
    {
      "inputs": [
        {
          "internalType": "uint8",
          "name": "version",
          "type": "uint8"
        }
      ],
      "name": "InitializerVersionAlreadyInitialized",
      "type": "error"
    },
    {
      "inputs": [],
      "name": "ReentrancyGuardReentrantCall",
      "type": "error"
    },
    {
      "anonymous": false,
      "inputs": [
        {
          "indexed": true,
          "internalType": "uint256",
          "name": "pid",
          "type": "uint256"
        },
        {
          "indexed": false,
          "internalType": "uint256",
          "name": "allocPoint",
          "type": "uint256"
        },
        {
          "indexed": true,
          "internalType": "contract IERC20",
          "name": "lpToken",
          "type": "address"
        },
        {
          "indexed": false,
          "internalType": "bool",
          "name": "isRegular",
          "type": "bool"
        }
      ],
      "name": "AddPool",
      "type": "event"
    },
    {
      "anonymous": false,
      "inputs": [
        {
          "indexed": true,
          "internalType": "address",
          "name": "account",
          "type": "address"
        },
        {
          "indexed": true,
          "internalType": "string",
          "name": "reason",
          "type": "string"
        }
      ],
      "name": "Blacklisted",
      "type": "event"
    },
    {
      "anonymous": false,
      "inputs": [
        {
          "indexed": true,
          "internalType": "address",
          "name": "user",
          "type": "address"
        },
        {
          "indexed": true,
          "internalType": "uint256",
          "name": "pid",
          "type": "uint256"
        },
        {
          "indexed": false,
          "internalType": "uint256",
          "name": "amount",
          "type": "uint256"
        }
      ],
      "name": "Deposit",
      "type": "event"
    },
    {
      "anonymous": false,
      "inputs": [
        {
          "indexed": true,
          "internalType": "address",
          "name": "user",
          "type": "address"
        },
        {
          "indexed": true,
          "internalType": "uint256",
          "name": "pid",
          "type": "uint256"
        },
        {
          "indexed": false,
          "internalType": "uint256",
          "name": "amount",
          "type": "uint256"
        }
      ],
      "name": "EmergencyWithdraw",
      "type": "event"
    },
    {
      "anonymous": false,
      "inputs": [
        {
          "indexed": false,
          "internalType": "uint8",
          "name": "version",
          "type": "uint8"
        }
      ],
      "name": "Initialized",
      "type": "event"
    },
    {
      "anonymous": false,
      "inputs": [
        {
          "indexed": true,
          "internalType": "bytes32",
          "name": "role",
          "type": "bytes32"
        },
        {
          "indexed": true,
          "internalType": "bytes32",
          "name": "previousAdminRole",
          "type": "bytes32"
        },
        {
          "indexed": true,
          "internalType": "bytes32",
          "name": "newAdminRole",
          "type": "bytes32"
        }
      ],
      "name": "RoleAdminChanged",
      "type": "event"
    },
    {
      "anonymous": false,
      "inputs": [
        {
          "indexed": true,
          "internalType": "bytes32",
          "name": "role",
          "type": "bytes32"
        },
        {
          "indexed": true,
          "internalType": "address",
          "name": "account",
          "type": "address"
        },
        {
          "indexed": true,
          "internalType": "address",
          "name": "sender",
          "type": "address"
        }
      ],
      "name": "RoleGranted",
      "type": "event"
    },
    {
      "anonymous": false,
      "inputs": [
        {
          "indexed": true,
          "internalType": "bytes32",
          "name": "role",
          "type": "bytes32"
        },
        {
          "indexed": true,
          "internalType": "address",
          "name": "account",
          "type": "address"
        },
        {
          "indexed": true,
          "internalType": "address",
          "name": "sender",
          "type": "address"
        }
      ],
      "name": "RoleRevoked",
      "type": "event"
    },
    {
      "anonymous": false,
      "inputs": [
        {
          "indexed": true,
          "internalType": "uint256",
          "name": "pid",
          "type": "uint256"
        },
        {
          "indexed": false,
          "internalType": "uint256",
          "name": "allocPoint",
          "type": "uint256"
        }
      ],
      "name": "SetPool",
      "type": "event"
    },
    {
      "anonymous": false,
      "inputs": [
        {
          "indexed": true,
          "internalType": "address",
          "name": "user",
          "type": "address"
        },
        {
          "indexed": false,
          "internalType": "address",
          "name": "treasury",
          "type": "address"
        }
      ],
      "name": "SetTreasuryAddress",
      "type": "event"
    },
    {
      "anonymous": false,
      "inputs": [
        {
          "indexed": true,
          "internalType": "address",
          "name": "account",
          "type": "address"
        },
        {
          "indexed": true,
          "internalType": "string",
          "name": "reason",
          "type": "string"
        }
      ],
      "name": "UnBlacklisted",
      "type": "event"
    },
    {
      "anonymous": false,
      "inputs": [
        {
          "indexed": true,
          "internalType": "address",
          "name": "boostContract",
          "type": "address"
        }
      ],
      "name": "UpdateBoostContract",
      "type": "event"
    },
    {
      "anonymous": false,
      "inputs": [
        {
          "indexed": true,
          "internalType": "address",
          "name": "user",
          "type": "address"
        },
        {
          "indexed": false,
          "internalType": "uint256",
          "name": "pid",
          "type": "uint256"
        },
        {
          "indexed": false,
          "internalType": "uint256",
          "name": "oldMultiplier",
          "type": "uint256"
        },
        {
          "indexed": false,
          "internalType": "uint256",
          "name": "newMultiplier",
          "type": "uint256"
        }
      ],
      "name": "UpdateBoostMultiplier",
      "type": "event"
    },
    {
      "anonymous": false,
      "inputs": [
        {
          "indexed": true,
          "internalType": "address",
          "name": "oldAdmin",
          "type": "address"
        },
        {
          "indexed": true,
          "internalType": "address",
          "name": "newAdmin",
          "type": "address"
        }
      ],
      "name": "UpdateBurnAdmin",
      "type": "event"
    },
    {
      "anonymous": false,
      "inputs": [
        {
          "indexed": false,
          "internalType": "uint256",
          "name": "burnRate",
          "type": "uint256"
        },
        {
          "indexed": false,
          "internalType": "uint256",
          "name": "regularFarmRate",
          "type": "uint256"
        },
        {
          "indexed": false,
          "internalType": "uint256",
          "name": "specialFarmRate",
          "type": "uint256"
        }
      ],
      "name": "UpdateCakeRate",
      "type": "event"
    },
    {
      "anonymous": false,
      "inputs": [
        {
          "indexed": true,
          "internalType": "uint256",
          "name": "pid",
          "type": "uint256"
        },
        {
          "indexed": false,
          "internalType": "uint256",
          "name": "lastRewardBlock",
          "type": "uint256"
        },
        {
          "indexed": false,
          "internalType": "uint256",
          "name": "lpSupply",
          "type": "uint256"
        },
        {
          "indexed": false,
          "internalType": "uint256",
          "name": "accKswapPerShare",
          "type": "uint256"
        }
      ],
      "name": "UpdatePool",
      "type": "event"
    },
    {
      "anonymous": false,
      "inputs": [
        {
          "indexed": true,
          "internalType": "address",
          "name": "user",
          "type": "address"
        },
        {
          "indexed": false,
          "internalType": "bool",
          "name": "isValid",
          "type": "bool"
        }
      ],
      "name": "UpdateWhiteList",
      "type": "event"
    },
    {
      "anonymous": false,
      "inputs": [
        {
          "indexed": true,
          "internalType": "address",
          "name": "user",
          "type": "address"
        },
        {
          "indexed": true,
          "internalType": "uint256",
          "name": "pid",
          "type": "uint256"
        },
        {
          "indexed": false,
          "internalType": "uint256",
          "name": "amount",
          "type": "uint256"
        }
      ],
      "name": "Withdraw",
      "type": "event"
    },
    {
      "inputs": [],
      "name": "ACC_KSWAP_PRECISION",
      "outputs": [
        {
          "internalType": "uint256",
          "name": "",
          "type": "uint256"
        }
      ],
      "stateMutability": "view",
      "type": "function"
    },
    {
      "inputs": [],
      "name": "BOOST_MANAGER_ROLE",
      "outputs": [
        {
          "internalType": "bytes32",
          "name": "",
          "type": "bytes32"
        }
      ],
      "stateMutability": "view",
      "type": "function"
    },
    {
      "inputs": [],
      "name": "BOOST_PRECISION",
      "outputs": [
        {
          "internalType": "uint256",
          "name": "",
          "type": "uint256"
        }
      ],
      "stateMutability": "view",
      "type": "function"
    },
    {
      "inputs": [],
      "name": "BURN_MANAGER_ROLE",
      "outputs": [
        {
          "internalType": "bytes32",
          "name": "",
          "type": "bytes32"
        }
      ],
      "stateMutability": "view",
      "type": "function"
    },
    {
      "inputs": [],
      "name": "DEPRECATED_boostContract",
      "outputs": [
        {
          "internalType": "address",
          "name": "",
          "type": "address"
        }
      ],
      "stateMutability": "view",
      "type": "function"
    },
    {
      "inputs": [],
      "name": "DEPRECATED_burnAdmin",
      "outputs": [
        {
          "internalType": "address",
          "name": "",
          "type": "address"
        }
      ],
      "stateMutability": "view",
      "type": "function"
    },
    {
      "inputs": [],
      "name": "KSWAP_RATE_TOTAL_PRECISION",
      "outputs": [
        {
          "internalType": "uint256",
          "name": "",
          "type": "uint256"
        }
      ],
      "stateMutability": "view",
      "type": "function"
    },
    {
      "inputs": [],
      "name": "MASTERCHEF_KSWAP_PER_BLOCK",
      "outputs": [
        {
          "internalType": "uint256",
          "name": "",
          "type": "uint256"
        }
      ],
      "stateMutability": "view",
      "type": "function"
    },
    {
      "inputs": [],
      "name": "MAX_BOOST_PRECISION",
      "outputs": [
        {
          "internalType": "uint256",
          "name": "",
          "type": "uint256"
        }
      ],
      "stateMutability": "view",
      "type": "function"
    },
    {
      "inputs": [],
      "name": "RATES_MANAGER_ROLE",
      "outputs": [
        {
          "internalType": "bytes32",
          "name": "",
          "type": "bytes32"
        }
      ],
      "stateMutability": "view",
      "type": "function"
    },
    {
      "inputs": [
        {
          "internalType": "uint256",
          "name": "_allocPoint",
          "type": "uint256"
        },
        {
          "internalType": "contract IERC20",
          "name": "_lpToken",
          "type": "address"
        },
        {
          "internalType": "bool",
          "name": "_isRegular",
          "type": "bool"
        },
        {
          "internalType": "uint256",
          "name": "_startBlockNumber",
          "type": "uint256"
        },
        {
          "internalType": "bool",
          "name": "_withUpdate",
          "type": "bool"
        }
      ],
      "name": "add",
      "outputs": [],
      "stateMutability": "nonpayable",
      "type": "function"
    },
    {
      "inputs": [
        {
          "internalType": "address[]",
          "name": "accounts",
          "type": "address[]"
        },
        {
          "internalType": "string[]",
          "name": "reasons",
          "type": "string[]"
        }
      ],
      "name": "blacklist",
      "outputs": [],
      "stateMutability": "nonpayable",
      "type": "function"
    },
    {
      "inputs": [
        {
          "internalType": "address",
          "name": "account",
          "type": "address"
        },
        {
          "internalType": "string",
          "name": "reason",
          "type": "string"
        }
      ],
      "name": "blacklist",
      "outputs": [],
      "stateMutability": "nonpayable",
      "type": "function"
    },
    {
      "inputs": [
        {
          "internalType": "bool",
          "name": "_withUpdate",
          "type": "bool"
        }
      ],
      "name": "burnKswap",
      "outputs": [],
      "stateMutability": "nonpayable",
      "type": "function"
    },
    {
      "inputs": [
        {
          "internalType": "uint256",
          "name": "_pid",
          "type": "uint256"
        },
        {
          "internalType": "uint256",
          "name": "_amount",
          "type": "uint256"
        }
      ],
      "name": "deposit",
      "outputs": [],
      "stateMutability": "nonpayable",
      "type": "function"
    },
    {
      "inputs": [
        {
          "internalType": "uint256",
          "name": "_pid",
          "type": "uint256"
        }
      ],
      "name": "emergencyWithdraw",
      "outputs": [],
      "stateMutability": "nonpayable",
      "type": "function"
    },
    {
      "inputs": [
        {
          "internalType": "address",
          "name": "_user",
          "type": "address"
        },
        {
          "internalType": "uint256",
          "name": "_pid",
          "type": "uint256"
        }
      ],
      "name": "getBoostMultiplier",
      "outputs": [
        {
          "internalType": "uint256",
          "name": "",
          "type": "uint256"
        }
      ],
      "stateMutability": "view",
      "type": "function"
    },
    {
      "inputs": [
        {
          "internalType": "bytes32",
          "name": "role",
          "type": "bytes32"
        }
      ],
      "name": "getRoleAdmin",
      "outputs": [
        {
          "internalType": "bytes32",
          "name": "",
          "type": "bytes32"
        }
      ],
      "stateMutability": "view",
      "type": "function"
    },
    {
      "inputs": [
        {
          "internalType": "bytes32",
          "name": "role",
          "type": "bytes32"
        },
        {
          "internalType": "uint256",
          "name": "index",
          "type": "uint256"
        }
      ],
      "name": "getRoleMember",
      "outputs": [
        {
          "internalType": "address",
          "name": "",
          "type": "address"
        }
      ],
      "stateMutability": "view",
      "type": "function"
    },
    {
      "inputs": [
        {
          "internalType": "bytes32",
          "name": "role",
          "type": "bytes32"
        }
      ],
      "name": "getRoleMemberCount",
      "outputs": [
        {
          "internalType": "uint256",
          "name": "",
          "type": "uint256"
        }
      ],
      "stateMutability": "view",
      "type": "function"
    },
    {
      "inputs": [
        {
          "internalType": "bytes32",
          "name": "role",
          "type": "bytes32"
        },
        {
          "internalType": "address",
          "name": "account",
          "type": "address"
        }
      ],
      "name": "grantRole",
      "outputs": [],
      "stateMutability": "nonpayable",
      "type": "function"
    },
    {
      "inputs": [
        {
          "internalType": "bytes32",
          "name": "role",
          "type": "bytes32"
        },
        {
          "internalType": "address",
          "name": "account",
          "type": "address"
        }
      ],
      "name": "hasRole",
      "outputs": [
        {
          "internalType": "bool",
          "name": "",
          "type": "bool"
        }
      ],
      "stateMutability": "view",
      "type": "function"
    },
    {
      "inputs": [
        {
          "internalType": "address[]",
          "name": "accounts",
          "type": "address[]"
        }
      ],
      "name": "isBlacklisted",
      "outputs": [
        {
          "internalType": "bool",
          "name": "",
          "type": "bool"
        }
      ],
      "stateMutability": "view",
      "type": "function"
    },
    {
      "inputs": [
        {
          "internalType": "address",
          "name": "account",
          "type": "address"
        }
      ],
      "name": "isBlacklisted",
      "outputs": [
        {
          "internalType": "bool",
          "name": "",
          "type": "bool"
        }
      ],
      "stateMutability": "view",
      "type": "function"
    },
    {
      "inputs": [],
      "name": "kswap",
      "outputs": [
        {
          "internalType": "contract IERC20Mintable",
          "name": "",
          "type": "address"
        }
      ],
      "stateMutability": "view",
      "type": "function"
    },
    {
      "inputs": [
        {
          "internalType": "bool",
          "name": "_isRegular",
          "type": "bool"
        }
      ],
      "name": "kswapPerBlock",
      "outputs": [
        {
          "internalType": "uint256",
          "name": "amount",
          "type": "uint256"
        }
      ],
      "stateMutability": "view",
      "type": "function"
    },
    {
      "inputs": [],
      "name": "kswapPerBlockToBurn",
      "outputs": [
        {
          "internalType": "uint256",
          "name": "amount",
          "type": "uint256"
        }
      ],
      "stateMutability": "view",
      "type": "function"
    },
    {
      "inputs": [],
      "name": "kswapRateToBurn",
      "outputs": [
        {
          "internalType": "uint256",
          "name": "",
          "type": "uint256"
        }
      ],
      "stateMutability": "view",
      "type": "function"
    },
    {
      "inputs": [],
      "name": "kswapRateToRegularFarm",
      "outputs": [
        {
          "internalType": "uint256",
          "name": "",
          "type": "uint256"
        }
      ],
      "stateMutability": "view",
      "type": "function"
    },
    {
      "inputs": [],
      "name": "kswapRateToSpecialFarm",
      "outputs": [
        {
          "internalType": "uint256",
          "name": "",
          "type": "uint256"
        }
      ],
      "stateMutability": "view",
      "type": "function"
    },
    {
      "inputs": [],
      "name": "lastBurnedBlock",
      "outputs": [
        {
          "internalType": "uint256",
          "name": "",
          "type": "uint256"
        }
      ],
      "stateMutability": "view",
      "type": "function"
    },
    {
      "inputs": [
        {
          "internalType": "uint256",
          "name": "",
          "type": "uint256"
        }
      ],
      "name": "lpToken",
      "outputs": [
        {
          "internalType": "contract IERC20",
          "name": "",
          "type": "address"
        }
      ],
      "stateMutability": "view",
      "type": "function"
    },
    {
      "inputs": [],
      "name": "massUpdatePools",
      "outputs": [],
      "stateMutability": "nonpayable",
      "type": "function"
    },
    {
      "inputs": [],
      "name": "pause",
      "outputs": [],
      "stateMutability": "nonpayable",
      "type": "function"
    },
    {
      "inputs": [],
      "name": "paused",
      "outputs": [
        {
          "internalType": "bool",
          "name": "",
          "type": "bool"
        }
      ],
      "stateMutability": "view",
      "type": "function"
    },
    {
      "inputs": [
        {
          "internalType": "uint256",
          "name": "_pid",
          "type": "uint256"
        },
        {
          "internalType": "address",
          "name": "_user",
          "type": "address"
        }
      ],
      "name": "pendingKswap",
      "outputs": [
        {
          "internalType": "uint256",
          "name": "",
          "type": "uint256"
        }
      ],
      "stateMutability": "view",
      "type": "function"
    },
    {
      "inputs": [
        {
          "internalType": "uint256",
          "name": "",
          "type": "uint256"
        }
      ],
      "name": "poolInfo",
      "outputs": [
        {
          "internalType": "uint256",
          "name": "accKswapPerShare",
          "type": "uint256"
        },
        {
          "internalType": "uint256",
          "name": "lastRewardBlock",
          "type": "uint256"
        },
        {
          "internalType": "uint256",
          "name": "allocPoint",
          "type": "uint256"
        },
        {
          "internalType": "uint256",
          "name": "totalBoostedShare",
          "type": "uint256"
        },
        {
          "internalType": "bool",
          "name": "isRegular",
          "type": "bool"
        }
      ],
      "stateMutability": "view",
      "type": "function"
    },
    {
      "inputs": [],
      "name": "poolLength",
      "outputs": [
        {
          "internalType": "uint256",
          "name": "pools",
          "type": "uint256"
        }
      ],
      "stateMutability": "view",
      "type": "function"
    },
    {
      "inputs": [],
      "name": "reinitialize2",
      "outputs": [],
      "stateMutability": "nonpayable",
      "type": "function"
    },
    {
      "inputs": [
        {
          "internalType": "address",
          "name": "aprManager",
          "type": "address"
        }
      ],
      "name": "reinitialize3",
      "outputs": [],
      "stateMutability": "nonpayable",
      "type": "function"
    },
    {
      "inputs": [
        {
          "internalType": "bytes32",
          "name": "role",
          "type": "bytes32"
        },
        {
          "internalType": "address",
          "name": "account",
          "type": "address"
        }
      ],
      "name": "renounceRole",
      "outputs": [],
      "stateMutability": "nonpayable",
      "type": "function"
    },
    {
      "inputs": [
        {
          "internalType": "bytes32",
          "name": "role",
          "type": "bytes32"
        },
        {
          "internalType": "address",
          "name": "account",
          "type": "address"
        }
      ],
      "name": "revokeRole",
      "outputs": [],
      "stateMutability": "nonpayable",
      "type": "function"
    },
    {
      "inputs": [
        {
          "components": [
            {
              "internalType": "uint256",
              "name": "pid",
              "type": "uint256"
            },
            {
              "internalType": "uint256",
              "name": "allocPoint",
              "type": "uint256"
            }
          ],
          "internalType": "struct IMasterChefAdmin.SetPoolAllocationInfo[]",
          "name": "poolAlocations",
          "type": "tuple[]"
        },
        {
          "internalType": "bool",
          "name": "_withUpdate",
          "type": "bool"
        }
      ],
      "name": "set",
      "outputs": [],
      "stateMutability": "nonpayable",
      "type": "function"
    },
    {
      "inputs": [
        {
          "internalType": "uint256",
          "name": "_pid",
          "type": "uint256"
        },
        {
          "internalType": "uint256",
          "name": "_allocPoint",
          "type": "uint256"
        },
        {
          "internalType": "bool",
          "name": "_withUpdate",
          "type": "bool"
        }
      ],
      "name": "set",
      "outputs": [],
      "stateMutability": "nonpayable",
      "type": "function"
    },
    {
      "inputs": [
        {
          "internalType": "uint256",
          "name": "_pid",
          "type": "uint256"
        },
        {
          "internalType": "uint256",
          "name": "newLastRewardBlock",
          "type": "uint256"
        }
      ],
      "name": "setPoolLastRewardBlock",
      "outputs": [],
      "stateMutability": "nonpayable",
      "type": "function"
    },
    {
      "inputs": [
        {
          "internalType": "uint256[]",
          "name": "_pids",
          "type": "uint256[]"
        },
        {
          "internalType": "uint256",
          "name": "newLastRewardBlock",
          "type": "uint256"
        }
      ],
      "name": "setPoolLastRewardBlock",
      "outputs": [],
      "stateMutability": "nonpayable",
      "type": "function"
    },
    {
      "inputs": [
        {
          "internalType": "bytes32",
          "name": "role",
          "type": "bytes32"
        },
        {
          "internalType": "bytes32",
          "name": "adminRole",
          "type": "bytes32"
        }
      ],
      "name": "setRoleAdmin",
      "outputs": [],
      "stateMutability": "nonpayable",
      "type": "function"
    },
    {
      "inputs": [
        {
          "internalType": "address",
          "name": "_treasury",
          "type": "address"
        }
      ],
      "name": "setTreasuryAddress",
      "outputs": [],
      "stateMutability": "nonpayable",
      "type": "function"
    },
    {
      "inputs": [],
      "name": "totalRegularAllocPoint",
      "outputs": [
        {
          "internalType": "uint256",
          "name": "",
          "type": "uint256"
        }
      ],
      "stateMutability": "view",
      "type": "function"
    },
    {
      "inputs": [],
      "name": "totalSpecialAllocPoint",
      "outputs": [
        {
          "internalType": "uint256",
          "name": "",
          "type": "uint256"
        }
      ],
      "stateMutability": "view",
      "type": "function"
    },
    {
      "inputs": [],
      "name": "treasury",
      "outputs": [
        {
          "internalType": "address",
          "name": "",
          "type": "address"
        }
      ],
      "stateMutability": "view",
      "type": "function"
    },
    {
      "inputs": [
        {
          "internalType": "address[]",
          "name": "accounts",
          "type": "address[]"
        },
        {
          "internalType": "string[]",
          "name": "reasons",
          "type": "string[]"
        }
      ],
      "name": "unblacklist",
      "outputs": [],
      "stateMutability": "nonpayable",
      "type": "function"
    },
    {
      "inputs": [
        {
          "internalType": "address",
          "name": "account",
          "type": "address"
        },
        {
          "internalType": "string",
          "name": "reason",
          "type": "string"
        }
      ],
      "name": "unblacklist",
      "outputs": [],
      "stateMutability": "nonpayable",
      "type": "function"
    },
    {
      "inputs": [],
      "name": "unpause",
      "outputs": [],
      "stateMutability": "nonpayable",
      "type": "function"
    },
    {
      "inputs": [
        {
          "internalType": "address",
          "name": "_user",
          "type": "address"
        },
        {
          "internalType": "uint256",
          "name": "_pid",
          "type": "uint256"
        },
        {
          "internalType": "uint256",
          "name": "_newMultiplier",
          "type": "uint256"
        }
      ],
      "name": "updateBoostMultiplier",
      "outputs": [],
      "stateMutability": "nonpayable",
      "type": "function"
    },
    {
      "inputs": [
        {
          "internalType": "uint256",
          "name": "_burnRate",
          "type": "uint256"
        },
        {
          "internalType": "uint256",
          "name": "_regularFarmRate",
          "type": "uint256"
        },
        {
          "internalType": "uint256",
          "name": "_specialFarmRate",
          "type": "uint256"
        },
        {
          "internalType": "bool",
          "name": "_withUpdate",
          "type": "bool"
        }
      ],
      "name": "updateKswapRate",
      "outputs": [],
      "stateMutability": "nonpayable",
      "type": "function"
    },
    {
      "inputs": [
        {
          "internalType": "uint256",
          "name": "_pid",
          "type": "uint256"
        }
      ],
      "name": "updatePool",
      "outputs": [
        {
          "components": [
            {
              "internalType": "uint256",
              "name": "accKswapPerShare",
              "type": "uint256"
            },
            {
              "internalType": "uint256",
              "name": "lastRewardBlock",
              "type": "uint256"
            },
            {
              "internalType": "uint256",
              "name": "allocPoint",
              "type": "uint256"
            },
            {
              "internalType": "uint256",
              "name": "totalBoostedShare",
              "type": "uint256"
            },
            {
              "internalType": "bool",
              "name": "isRegular",
              "type": "bool"
            }
          ],
          "internalType": "struct IMasterChef.PoolInfo",
          "name": "pool",
          "type": "tuple"
        }
      ],
      "stateMutability": "nonpayable",
      "type": "function"
    },
    {
      "inputs": [
        {
          "components": [
            {
              "internalType": "uint256",
              "name": "pid",
              "type": "uint256"
            },
            {
              "internalType": "uint256",
              "name": "allocPoint",
              "type": "uint256"
            }
          ],
          "internalType": "struct IMasterChefAdmin.SetPoolAllocationInfo[]",
          "name": "poolAlocations",
          "type": "tuple[]"
        },
        {
          "internalType": "uint256",
          "name": "_burnRate",
          "type": "uint256"
        },
        {
          "internalType": "uint256",
          "name": "_regularFarmRate",
          "type": "uint256"
        },
        {
          "internalType": "uint256",
          "name": "_specialFarmRate",
          "type": "uint256"
        },
        {
          "internalType": "bool",
          "name": "_withUpdate",
          "type": "bool"
        }
      ],
      "name": "updateRatesAndPools",
      "outputs": [],
      "stateMutability": "nonpayable",
      "type": "function"
    },
    {
      "inputs": [
        {
          "internalType": "address",
          "name": "_user",
          "type": "address"
        },
        {
          "internalType": "bool",
          "name": "_isValid",
          "type": "bool"
        }
      ],
      "name": "updateWhiteList",
      "outputs": [],
      "stateMutability": "nonpayable",
      "type": "function"
    },
    {
      "inputs": [
        {
          "internalType": "uint256",
          "name": "",
          "type": "uint256"
        },
        {
          "internalType": "address",
          "name": "",
          "type": "address"
        }
      ],
      "name": "userInfo",
      "outputs": [
        {
          "internalType": "uint256",
          "name": "amount",
          "type": "uint256"
        },
        {
          "internalType": "uint256",
          "name": "rewardDebt",
          "type": "uint256"
        },
        {
          "internalType": "uint256",
          "name": "boostMultiplier",
          "type": "uint256"
        }
      ],
      "stateMutability": "view",
      "type": "function"
    },
    {
      "inputs": [
        {
          "internalType": "address",
          "name": "",
          "type": "address"
        }
      ],
      "name": "whiteList",
      "outputs": [
        {
          "internalType": "bool",
          "name": "",
          "type": "bool"
        }
      ],
      "stateMutability": "view",
      "type": "function"
    },
    {
      "inputs": [
        {
          "internalType": "uint256",
          "name": "_pid",
          "type": "uint256"
        },
        {
          "internalType": "uint256",
          "name": "_amount",
          "type": "uint256"
        }
      ],
      "name": "withdraw",
      "outputs": [],
      "stateMutability": "nonpayable",
      "type": "function"
    }
  ],
  "transactionHash": "0xb70e525993afa4f578758fd97a2cd387fd632c71f522e012be957e695ac5f79c",
  "args": [],
  "numDeployments": 4,
  "solcInputHash": "c97eefcdb3cf36be7897c36c6649caef",
  "bytecode": "0x608060405234801561001057600080fd5b5061566f80620000216000396000f3fe608060405234801561001057600080fd5b50600436106103ba5760003560e01c80637577e2c3116101f4578063ac6568891161011a578063e1187d4e116100ad578063f41c8d961161007c578063f41c8d96146108e2578063fb3b6c2a146108f5578063fe4a004514610908578063fe575a871461091057600080fd5b8063e1187d4e1461086e578063e2bbb15814610895578063e3396735146108a8578063e671e5fc146108cf57600080fd5b8063ce5da407116100e9578063ce5da40714610822578063d1e6c30c14610835578063d547741f14610848578063ddf579ff1461085b57600080fd5b8063ac656889146107f6578063c40d337b14610806578063ca15c8731461080f578063cc6db2da1461051757600080fd5b80638dca75db1161019257806399d7e84a1161016157806399d7e84a146107b4578063a3cc8adb146107bd578063a8c28259146107d0578063ac1d0609146107e357600080fd5b80638dca75db146107265780639010d07c1461073957806391d148541461074c57806393f1a40b1461075f57600080fd5b806378ed5d1f116101ce57806378ed5d1f146106e25780637a994efd146106f55780638456cb59146106fe57806389320c4a1461070657600080fd5b80637577e2c3146106b357806378d28781146106c657806378db4c34146106d957600080fd5b8063372c12b1116102e45780635a7894181161027757806364482f791161024657806364482f791461066d5780636605bfda1461068057806369b02128146106935780636ebb16d3146106a057600080fd5b80635a7894181461062a5780635c975abb1461063d57806361d027b314610645578063630b5ba11461066557600080fd5b80634c0e5a59116102b35780634c0e5a591461058d57806351eb05a6146105a05780635312ea8e146105f757806357b46f881461060a57600080fd5b8063372c12b1146105365780633e0ca005146105695780633f4ba83a14610572578063441a3e701461057a57600080fd5b8063186d38301161035c578063297bf35b1161032b578063297bf35b146104dd5780632f2ff15d14610504578063325d186d1461051757806336568abe1461052357600080fd5b8063186d38301461045f5780631c748775146104725780631e4e0091146104b7578063248a9ca3146104ca57600080fd5b8063081e3eda11610398578063081e3eda146104035780630ee520581461040b57806311223c321461041a5780631526fe271461042257600080fd5b8063033186e8146103bf578063041a84c9146103e55780630433985b146103fa575b600080fd5b6103d26103cd366004614c85565b610923565b6040519081526020015b60405180910390f35b6103f86103f3366004614cb1565b610979565b005b6103d2600b5481565b6004546103d2565b6103d2670de0b6b3a764000081565b6103f8610e39565b610435610430366004614ce6565b6110ea565b6040805195865260208601949094529284019190915260608301521515608082015260a0016103dc565b6103f861046d366004614d4b565b61112e565b6003546104929073ffffffffffffffffffffffffffffffffffffffff1681565b60405173ffffffffffffffffffffffffffffffffffffffff90911681526020016103dc565b6103f86104c5366004614db7565b6112fb565b6103d26104d8366004614ce6565b611343565b6103d27f603ae08765bc5fad7a971952007e4e84ddd8001052efaad946bd8a191e1870df81565b6103f8610512366004614dd9565b611379565b6103d264e8d4a5100081565b6103f8610531366004614dd9565b6113bd565b610559610544366004614e09565b60076020526000908152604090205460ff1681565b60405190151581526020016103dc565b6103d2600a5481565b6103f861146c565b6103f8610588366004614db7565b6114a7565b6103f861059b366004614e79565b61176a565b6105b36105ae366004614ce6565b6117f8565b6040516103dc9190600060a0820190508251825260208301516020830152604083015160408301526060830151606083015260808301511515608083015292915050565b6103f8610605366004614ce6565b611b4b565b6000546104929073ffffffffffffffffffffffffffffffffffffffff1681565b6103d2610638366004614ed0565b611cf5565b610559611d4b565b6001546104929073ffffffffffffffffffffffffffffffffffffffff1681565b6103f8611d7d565b6103f861067b366004614eed565b611e15565b6103f861068e366004614e09565b611e56565b6103d26501d1a94a200081565b6105596106ae366004614fbd565b611f52565b6103f86106c1366004615051565b611f5d565b6103d26106d4366004614dd9565b611f93565b6103d2600d5481565b6104926106f0366004614ce6565b61212a565b6103d2600c5481565b6103f8612161565b6002546104929073ffffffffffffffffffffffffffffffffffffffff1681565b6103f8610734366004614e09565b61219a565b610492610747366004614db7565b612514565b61055961075a366004614dd9565b612527565b61079961076d366004614dd9565b600660209081526000928352604080842090915290825290208054600182015460029092015490919083565b604080519384526020840192909252908201526060016103dc565b6103d260095481565b6103f86107cb3660046150b0565b612533565b6103f86107de366004615123565b6125c7565b6103f86107f1366004615164565b612609565b6103d268022b1c8c1227a0000081565b6103d260085481565b6103d261081d366004614ce6565b612760565b6103f8610830366004614d4b565b61276b565b6103f8610843366004615192565b61292a565b6103f8610856366004614dd9565b612993565b6103f8610869366004615192565b6129cd565b6103d27f479f15b0e08868e42ef233090518d51c94299977f5d2c05187e9393b22eace4e81565b6103f86108a3366004614db7565b612a36565b6103d27f64b4740f54156feb06b7a9f424e5bce966a52344cf27635887cf63c0ebf2a61e81565b6103f86108dd366004614db7565b612e95565b6103f86108f0366004614ed0565b612f8a565b6103f8610903366004615217565b61302a565b6103d26130a8565b61055961091e366004614e09565b6130d1565b600081815260066020908152604080832073ffffffffffffffffffffffffffffffffffffffff8616845290915281206002015464e8d4a51000811161096d5764e8d4a5100061096f565b805b9150505b92915050565b7fd370c446e45a741b5961ac03f05d57d1a5768014420ffedc28dbab09fedaee59546002036109d4576040517f3ee5aeb500000000000000000000000000000000000000000000000000000000815260040160405180910390fd5b6109fd60027fd370c446e45a741b5961ac03f05d57d1a5768014420ffedc28dbab09fedaee5955565b610a267f479f15b0e08868e42ef233090518d51c94299977f5d2c05187e9393b22eace4e61311e565b73ffffffffffffffffffffffffffffffffffffffff8316610ace576040517f08c379a000000000000000000000000000000000000000000000000000000000815260206004820152602a60248201527f4d6173746572436865663a2054686520757365722061646472657373206d757360448201527f742062652076616c69640000000000000000000000000000000000000000000060648201526084015b60405180910390fd5b60048281548110610ae157610ae16152ae565b600091825260209091206004600590920201015460ff16610b84576040517f08c379a000000000000000000000000000000000000000000000000000000000815260206004820152602e60248201527f4d6173746572436865663a204f6e6c7920726567756c6172206661726d20636f60448201527f756c6420626520626f6f737465640000000000000000000000000000000000006064820152608401610ac5565b64e8d4a510008110158015610b9f57506501d1a94a20008111155b610c2b576040517f08c379a000000000000000000000000000000000000000000000000000000000815260206004820152602860248201527f4d6173746572436865663a20496e76616c6964206e657720626f6f7374206d7560448201527f6c7469706c6965720000000000000000000000000000000000000000000000006064820152608401610ac5565b6000610c36836117f8565b600084815260066020908152604080832073ffffffffffffffffffffffffffffffffffffffff891684529091528120919250610c728686610923565b9050610c7f868683613128565b610cbf670de0b6b3a7640000610cb38560000151610cb964e8d4a51000610cb38a896000015461320290919063ffffffff16565b9061320e565b90613202565b60018301558154610d0b90610cdf9064e8d4a5100090610cb39088613202565b8354610d0590610cfa9064e8d4a5100090610cb39087613202565b60608701519061321a565b90613226565b60608401526004805484919087908110610d2757610d276152ae565b600091825260208083208451600593909302019182558381015160018301556040808501516002808501919091556060808701516003860155608090960151600490940180547fffffffffffffffffffffffffffffffffffffffffffffffffffffffffffffff0016941515949094179093558984526006825280842073ffffffffffffffffffffffffffffffffffffffff8c1680865290835293819020909201889055815189815290810185905290810187905290917f01abd62439b64f6c5dab6f94d56099495bd0c094f9c21f98f4d3562a21edb4ba910160405180910390a2505050610e3460017fd370c446e45a741b5961ac03f05d57d1a5768014420ffedc28dbab09fedaee5955565b505050565b7fb53127684a568b3173ae13b9f8a6016e243e63b6e8ee1178d6a717850b5d61035473ffffffffffffffffffffffffffffffffffffffff163373ffffffffffffffffffffffffffffffffffffffff1614610eef576040517f08c379a000000000000000000000000000000000000000000000000000000000815260206004820152600e60248201527f4e4f545f415554484f52495a45440000000000000000000000000000000000006044820152606401610ac5565b7f0de7f2b0af5ab1aa4eca2b133cdee828bdcfefa98e4927fa304b2ad002ca6eb354600290610100900460ff1680610f4e57507f0de7f2b0af5ab1aa4eca2b133cdee828bdcfefa98e4927fa304b2ad002ca6eb35460ff808316911610155b15610f8a576040517fbfdd178500000000000000000000000000000000000000000000000000000000815260ff82166004820152602401610ac5565b610f9381613232565b7f0de7f2b0af5ab1aa4eca2b133cdee828bdcfefa98e4927fa304b2ad002ca6eb380547fffffffffffffffffffffffffffffffffffffffffffffffffffffffffffff00ff1661010017905560006110087fb53127684a568b3173ae13b9f8a6016e243e63b6e8ee1178d6a717850b5d61035490565b90506110156000826132ea565b61103f7f241ecf16d79d0f8dbfb92cbc07fe17840425976cf0667f022fe9877caa831b08826132ea565b6110697f64b4740f54156feb06b7a9f424e5bce966a52344cf27635887cf63c0ebf2a61e826132ea565b507f0de7f2b0af5ab1aa4eca2b133cdee828bdcfefa98e4927fa304b2ad002ca6eb380547fffffffffffffffffffffffffffffffffffffffffffffffffffffffffffff00ff16905560405160ff821681527f7f26b83ff96e1f2b6a682f133852f6798a09c465da95921460cefb38474024989060200160405180910390a150565b600481815481106110fa57600080fd5b6000918252602090912060059091020180546001820154600283015460038401546004909401549294509092909160ff1685565b6111577ff988e4fb62b8e14f4820fed03192306ddf4d7dbfa215595ba1c6ba4b76b369ee61311e565b8015611297578281146111ec576040517f08c379a000000000000000000000000000000000000000000000000000000000815260206004820152602360248201527f53696d706c65426c61636b6c6973743a204e6f7420656e6f756768207265617360448201527f6f6e7300000000000000000000000000000000000000000000000000000000006064820152608401610ac5565b60005b838110156112915761127f85858381811061120c5761120c6152ae565b90506020020160208101906112219190614e09565b848484818110611233576112336152ae565b905060200281019061124591906152dd565b8080601f0160208091040260200160405190810160405280939291908181526020018383808284376000920191909152506133ec92505050565b8061128981615371565b9150506111ef565b506112f5565b60005b838110156112f3576112e18585838181106112b7576112b76152ae565b90506020020160208101906112cc9190614e09565b604051806020016040528060008152506133ec565b806112eb81615371565b91505061129a565b505b50505050565b60008281527fffaa26784aca465bf23123375047d80ccb2b41102e02e5c4ef5b5aa00624b2d260205260409020600101546113359061311e565b61133f82826134fd565b5050565b60008181527fffaa26784aca465bf23123375047d80ccb2b41102e02e5c4ef5b5aa00624b2d26020526040812060010154610973565b60008281527fffaa26784aca465bf23123375047d80ccb2b41102e02e5c4ef5b5aa00624b2d260205260409020600101546113b39061311e565b61133f82826132ea565b73ffffffffffffffffffffffffffffffffffffffff81163314611462576040517f08c379a000000000000000000000000000000000000000000000000000000000815260206004820152602f60248201527f416363657373436f6e74726f6c3a2063616e206f6e6c792072656e6f756e636560448201527f20726f6c657320666f722073656c6600000000000000000000000000000000006064820152608401610ac5565b61133f8282613567565b6114957f356a809dfdea9198dd76fb76bf6d403ecf13ea675eb89e1eda2db2c4a4676a2661311e565b61149d613667565b6114a5613722565b565b7fd370c446e45a741b5961ac03f05d57d1a5768014420ffedc28dbab09fedaee5954600203611502576040517f3ee5aeb500000000000000000000000000000000000000000000000000000000815260040160405180910390fd5b61152b60027fd370c446e45a741b5961ac03f05d57d1a5768014420ffedc28dbab09fedaee5955565b61153361379f565b61153c3361385b565b6000611547836117f8565b600084815260066020908152604080832033845290915290208054919250908311156115cf576040517f08c379a000000000000000000000000000000000000000000000000000000000815260206004820152601660248201527f77697468647261773a20496e73756666696369656e74000000000000000000006044820152606401610ac5565b60006115db3386610923565b90506115e8338683613128565b83156116435781546115fa908561321a565b826000018190555061164333856005888154811061161a5761161a6152ae565b60009182526020909120015473ffffffffffffffffffffffffffffffffffffffff169190613864565b611677670de0b6b3a7640000610cb38560000151610cb964e8d4a51000610cb387896000015461320290919063ffffffff16565b60018301556116c561169264e8d4a51000610cb38785613202565b600487815481106116a5576116a56152ae565b90600052602060002090600502016003015461321a90919063ffffffff16565b600486815481106116d8576116d86152ae565b906000526020600020906005020160030181905550843373ffffffffffffffffffffffffffffffffffffffff167ff279e6a1f5e320cca91135676d9cb6e44ca8a08c0b88342bcdb1144f6511b5688660405161173691815260200190565b60405180910390a350505061133f60017fd370c446e45a741b5961ac03f05d57d1a5768014420ffedc28dbab09fedaee5955565b6117937f241ecf16d79d0f8dbfb92cbc07fe17840425976cf0667f022fe9877caa831b0861311e565b80156117a1576117a1611d7d565b6000825b808210156112f3576117ed8585848181106117c2576117c26152ae565b905060400201600001358686858181106117de576117de6152ae565b90506040020160200135613938565b8160010191506117a5565b61182c6040518060a00160405280600081526020016000815260200160008152602001600081526020016000151581525090565b6004828154811061183f5761183f6152ae565b60009182526020918290206040805160a0810182526005909302909101805483526001810154938301849052600281015491830191909152600381015460608301526004015460ff16151560808201529150431115611b4657606081015160808201516000906118b1576009546118b5565b6008545b90506000821180156118c75750600081115b15611a725760006118e584602001514361321a90919063ffffffff16565b9050600061190c83610cb38760400151610cb96119058a60800151611cf5565b8790613202565b905061192f61192785610cb384670de0b6b3a7640000613202565b865190613226565b855260005460015473ffffffffffffffffffffffffffffffffffffffff918216916340c10f19911661196284600a61320e565b6040517fffffffff0000000000000000000000000000000000000000000000000000000060e085901b16815273ffffffffffffffffffffffffffffffffffffffff90921660048301526024820152604401600060405180830381600087803b1580156119cd57600080fd5b505af11580156119e1573d6000803e3d6000fd5b50506000546040517f40c10f190000000000000000000000000000000000000000000000000000000081523060048201526024810185905273ffffffffffffffffffffffffffffffffffffffff90911692506340c10f199150604401600060405180830381600087803b158015611a5757600080fd5b505af1158015611a6b573d6000803e3d6000fd5b5050505050505b4360208401526004805484919086908110611a8f57611a8f6152ae565b600091825260209182902083516005929092020190815582820151600182015560408084015160028301556060808501516003840155608090940151600490920180547fffffffffffffffffffffffffffffffffffffffffffffffffffffffffffffff00169215159290921790915585820151865182519182529281018690529081019190915285917f3be3541fc42237d611b30329040bfa4569541d156560acdbbae57640d20b8f46910160405180910390a250505b919050565b7fd370c446e45a741b5961ac03f05d57d1a5768014420ffedc28dbab09fedaee5954600203611ba6576040517f3ee5aeb500000000000000000000000000000000000000000000000000000000815260040160405180910390fd5b611bcf60027fd370c446e45a741b5961ac03f05d57d1a5768014420ffedc28dbab09fedaee5955565b611bd761379f565b611be03361385b565b600060048281548110611bf557611bf56152ae565b600091825260208083208584526006825260408085203380875293528420805485825560018201869055600590940290910194509290611c4b9064e8d4a5100090610cb390611c449089610923565b8590613202565b905080846003015411611c5f576000611c6e565b6003840154611c6e908261321a565b8460030181905550611c8e33836005888154811061161a5761161a6152ae565b604051828152859033907fbb757047c2b5f3974fe26b7c10f732e7bce710b0952a71082702781e62ae05959060200160405180910390a350505050611cf260017fd370c446e45a741b5961ac03f05d57d1a5768014420ffedc28dbab09fedaee5955565b50565b60008115611d245761097364e8d4a51000610cb3600b5468022b1c8c1227a0000061320290919063ffffffff16565b61097364e8d4a51000610cb3600c5468022b1c8c1227a0000061320290919063ffffffff16565b6000611d787fb65939979d77055fe20d21bcb90b95461947bffa39f3588194f5015117626ea75460ff1690565b905090565b60045460005b8181101561133f57600060048281548110611da057611da06152ae565b60009182526020918290206040805160a08101825260059093029091018054835260018101549383019390935260028301549082018190526003830154606083015260049092015460ff1615156080820152915015611e0457611e02826117f8565b505b50611e0e81615371565b9050611d83565b611e3e7f241ecf16d79d0f8dbfb92cbc07fe17840425976cf0667f022fe9877caa831b0861311e565b8015611e4c57611e4c611d7d565b610e348383613938565b60015473ffffffffffffffffffffffffffffffffffffffff163314611ed7576040517f08c379a000000000000000000000000000000000000000000000000000000000815260206004820152600960248201527f6465763a207775743f00000000000000000000000000000000000000000000006044820152606401610ac5565b600180547fffffffffffffffffffffffff00000000000000000000000000000000000000001673ffffffffffffffffffffffffffffffffffffffff831690811790915560405190815233907f61885cdba916be748ff3e3f6f15e4206153b8ea3b7acabade9d04b4063a835109060200160405180910390a250565b600061097382613a52565b611f867f241ecf16d79d0f8dbfb92cbc07fe17840425976cf0667f022fe9877caa831b0861311e565b6112f38585858585613aef565b60008060048481548110611fa957611fa96152ae565b600091825260208083206040805160a081018252600590940290910180548452600180820154858501908152600280840154878601526003840154606080890191825260049095015460ff16151560808901528c89526006875285892073ffffffffffffffffffffffffffffffffffffffff8d168a52875297859020855194850186528054855292830154958401959095529301549181019190915282519351915192945092914311801561205d57508015155b156120d657600061207b85602001514361321a90919063ffffffff16565b905060006120af866080015161209357600954612097565b6008545b610cb38860400151610cb96119058b60800151611cf5565b90506120d16120ca84610cb384670de0b6b3a7640000613202565b8590613226565b935050505b60006120f664e8d4a51000610cb36120ee8a8c610923565b875190613202565b602085015190915061211e90612118670de0b6b3a7640000610cb38588613202565b9061321a565b98975050505050505050565b6005818154811061213a57600080fd5b60009182526020909120015473ffffffffffffffffffffffffffffffffffffffff16905081565b61218a7f356a809dfdea9198dd76fb76bf6d403ecf13ea675eb89e1eda2db2c4a4676a2661311e565b61219261379f565b6114a5613e5a565b7fb53127684a568b3173ae13b9f8a6016e243e63b6e8ee1178d6a717850b5d61035473ffffffffffffffffffffffffffffffffffffffff163373ffffffffffffffffffffffffffffffffffffffff1614612250576040517f08c379a000000000000000000000000000000000000000000000000000000000815260206004820152600e60248201527f4e4f545f415554484f52495a45440000000000000000000000000000000000006044820152606401610ac5565b7f0de7f2b0af5ab1aa4eca2b133cdee828bdcfefa98e4927fa304b2ad002ca6eb354600390610100900460ff16806122af57507f0de7f2b0af5ab1aa4eca2b133cdee828bdcfefa98e4927fa304b2ad002ca6eb35460ff808316911610155b156122eb576040517fbfdd178500000000000000000000000000000000000000000000000000000000815260ff82166004820152602401610ac5565b6122f481613232565b7f0de7f2b0af5ab1aa4eca2b133cdee828bdcfefa98e4927fa304b2ad002ca6eb380547fffffffffffffffffffffffffffffffffffffffffffffffffffffffffffff00ff1661010017905560006123697fb53127684a568b3173ae13b9f8a6016e243e63b6e8ee1178d6a717850b5d61035490565b90503373ffffffffffffffffffffffffffffffffffffffff8216146123ea576040517f08c379a000000000000000000000000000000000000000000000000000000000815260206004820152601960248201527f4f6e6c79206f776e65722063616e20696e697469616c697a65000000000000006044820152606401610ac5565b6124147f603ae08765bc5fad7a971952007e4e84ddd8001052efaad946bd8a191e1870df826132ea565b61243e7f479f15b0e08868e42ef233090518d51c94299977f5d2c05187e9393b22eace4e826132ea565b6124687f603ae08765bc5fad7a971952007e4e84ddd8001052efaad946bd8a191e1870df846132ea565b6124927f64b4740f54156feb06b7a9f424e5bce966a52344cf27635887cf63c0ebf2a61e846132ea565b507f0de7f2b0af5ab1aa4eca2b133cdee828bdcfefa98e4927fa304b2ad002ca6eb380547fffffffffffffffffffffffffffffffffffffffffffffffffffffffffffff00ff16905560405160ff821681527f7f26b83ff96e1f2b6a682f133852f6798a09c465da95921460cefb38474024989060200160405180910390a15050565b60006125208383613ed4565b9392505050565b60006125208383613f0b565b61255c7f64b4740f54156feb06b7a9f424e5bce966a52344cf27635887cf63c0ebf2a61e61311e565b801561256a5761256a611d7d565b6000855b808210156125b2576125a788888481811061258b5761258b6152ae565b905060400201600001358989858181106117de576117de6152ae565b81600101915061256e565b6125bd868686613ffe565b5050505050505050565b6125f07f64b4740f54156feb06b7a9f424e5bce966a52344cf27635887cf63c0ebf2a61e61311e565b80156125fe576125fe611d7d565b6112f5848484613ffe565b6126327f241ecf16d79d0f8dbfb92cbc07fe17840425976cf0667f022fe9877caa831b0861311e565b73ffffffffffffffffffffffffffffffffffffffff82166126d5576040517f08c379a000000000000000000000000000000000000000000000000000000000815260206004820152603060248201527f4d6173746572436865663a20546865207768697465206c69737420616464726560448201527f7373206d7573742062652076616c6964000000000000000000000000000000006064820152608401610ac5565b73ffffffffffffffffffffffffffffffffffffffff821660008181526007602090815260409182902080547fffffffffffffffffffffffffffffffffffffffffffffffffffffffffffffff001685151590811790915591519182527fc551bbb22d0406dbfb8b6b7740cc521bcf44e1106029cf899c19b6a8e4c99d5191015b60405180910390a25050565b6000610973826141a6565b6127947ff988e4fb62b8e14f4820fed03192306ddf4d7dbfa215595ba1c6ba4b76b369ee61311e565b80156128ce57828114612829576040517f08c379a000000000000000000000000000000000000000000000000000000000815260206004820152602360248201527f53696d706c65426c61636b6c6973743a204e6f7420656e6f756768207265617360448201527f6f6e7300000000000000000000000000000000000000000000000000000000006064820152608401610ac5565b60005b83811015611291576128bc858583818110612849576128496152ae565b905060200201602081019061285e9190614e09565b848484818110612870576128706152ae565b905060200281019061288291906152dd565b8080601f0160208091040260200160405190810160405280939291908181526020018383808284376000920191909152506141dc92505050565b806128c681615371565b91505061282c565b60005b838110156112f3576129188585838181106128ee576128ee6152ae565b90506020020160208101906129039190614e09565b604051806020016040528060008152506141dc565b8061292281615371565b9150506128d1565b6129537ff988e4fb62b8e14f4820fed03192306ddf4d7dbfa215595ba1c6ba4b76b369ee61311e565b610e348383838080601f0160208091040260200160405190810160405280939291908181526020018383808284376000920191909152506133ec92505050565b60008281527fffaa26784aca465bf23123375047d80ccb2b41102e02e5c4ef5b5aa00624b2d260205260409020600101546114629061311e565b6129f67ff988e4fb62b8e14f4820fed03192306ddf4d7dbfa215595ba1c6ba4b76b369ee61311e565b610e348383838080601f0160208091040260200160405190810160405280939291908181526020018383808284376000920191909152506141dc92505050565b7fd370c446e45a741b5961ac03f05d57d1a5768014420ffedc28dbab09fedaee5954600203612a91576040517f3ee5aeb500000000000000000000000000000000000000000000000000000000815260040160405180910390fd5b612aba60027fd370c446e45a741b5961ac03f05d57d1a5768014420ffedc28dbab09fedaee5955565b612ac261379f565b612acb3361385b565b6000612ad6836117f8565b6000848152600660209081526040808320338452909152902060808201519192509080612b1257503360009081526007602052604090205460ff165b612ba057604080517f08c379a00000000000000000000000000000000000000000000000000000000081526020600482015260248101919091527f4d6173746572436865663a205468652061646472657373206973206e6f74206160448201527f7661696c61626c6520746f206465706f73697420696e207468697320706f6f6c6064820152608401610ac5565b6000612bac3386610923565b825490915015612bc157612bc1338683613128565b8315612da757600060058681548110612bdc57612bdc6152ae565b6000918252602090912001546040517f70a0823100000000000000000000000000000000000000000000000000000000815230600482015273ffffffffffffffffffffffffffffffffffffffff909116906370a0823190602401602060405180830381865afa158015612c53573d6000803e3d6000fd5b505050506040513d601f19601f82011682018060405250810190612c7791906153a9565b9050612cbc33308760058a81548110612c9257612c926152ae565b60009182526020909120015473ffffffffffffffffffffffffffffffffffffffff169291906142ef565b612d6e8160058881548110612cd357612cd36152ae565b6000918252602090912001546040517f70a0823100000000000000000000000000000000000000000000000000000000815230600482015273ffffffffffffffffffffffffffffffffffffffff909116906370a0823190602401602060405180830381865afa158015612d4a573d6000803e3d6000fd5b505050506040513d601f19601f8201168201806040525081019061211891906153a9565b8354909550612d7d9086613226565b8355612da0612d9564e8d4a51000610cb38886613202565b606086015190613226565b6060850152505b612ddb670de0b6b3a7640000610cb38560000151610cb964e8d4a51000610cb387896000015461320290919063ffffffff16565b82600101819055508260048681548110612df757612df76152ae565b6000918252602091829020835160059290920201908155828201516001820155604080840151600283015560608401516003830155608090930151600490910180547fffffffffffffffffffffffffffffffffffffffffffffffffffffffffffffff00169115159190911790559051858152869133917f90890809c654f11d6e72a28fa60149770a0d11ec6c92319d6ceb2bb0a4ea1a159101611736565b612ebe7f241ecf16d79d0f8dbfb92cbc07fe17840425976cf0667f022fe9877caa831b0861311e565b600060048381548110612ed357612ed36152ae565b90600052602060002090600502016001015490504381118015612ef65750438210155b612f5c576040517f08c379a000000000000000000000000000000000000000000000000000000000815260206004820152601460248201527f43616e2774206d6f6469667920686973746f72790000000000000000000000006044820152606401610ac5565b8160048481548110612f7057612f706152ae565b906000526020600020906005020160010181905550505050565b612fb37f603ae08765bc5fad7a971952007e4e84ddd8001052efaad946bd8a191e1870df61311e565b8015612fc157612fc1611d7d565b6000612fd8600d544361321a90919063ffffffff16565b90506000612fee612fe76130a8565b8390613202565b905061302161301b7fb53127684a568b3173ae13b9f8a6016e243e63b6e8ee1178d6a717850b5d61035490565b8261434d565b505043600d5550565b6130537f241ecf16d79d0f8dbfb92cbc07fe17840425976cf0667f022fe9877caa831b0861311e565b80600003613069576130664360c86153c2565b90505b60005b8251811015610e345761309883828151811061308a5761308a6152ae565b602002602001015183612e95565b6130a181615371565b905061306c565b6000611d7864e8d4a51000610cb3600a5468022b1c8c1227a0000061320290919063ffffffff16565b73ffffffffffffffffffffffffffffffffffffffff811660009081527fdd021e813d5056b401d30ba505d211a2ca2652076f58ad407a75764b92ed7d9d602052604081205460ff16610973565b611cf28133614418565b600082815260066020908152604080832073ffffffffffffffffffffffffffffffffffffffff871684528252808320815160608101835281548082526001830154948201949094526002909101549181019190915291906131949064e8d4a5100090610cb39086613202565b905060006131d2670de0b6b3a7640000610cb3600488815481106131ba576131ba6152ae565b60009182526020909120600590910201548590613202565b905060006131ed84602001518361321a90919063ffffffff16565b90506131f9878261434d565b50505050505050565b600061252082846153d5565b600061252082846153ec565b60006125208284615427565b600061252082846153c2565b7f0de7f2b0af5ab1aa4eca2b133cdee828bdcfefa98e4927fa304b2ad002ca6eb35460ff808316911610613297576040517fbfdd178500000000000000000000000000000000000000000000000000000000815260ff82166004820152602401610ac5565b7f0de7f2b0af5ab1aa4eca2b133cdee828bdcfefa98e4927fa304b2ad002ca6eb380547fffffffffffffffffffffffffffffffffffffffffffffffffffffffffffffff001660ff92909216919091179055565b6132f48282613f0b565b61133f5760008281527fffaa26784aca465bf23123375047d80ccb2b41102e02e5c4ef5b5aa00624b2d26020908152604080832073ffffffffffffffffffffffffffffffffffffffff85168452825280832080547fffffffffffffffffffffffffffffffffffffffffffffffffffffffffffffff001660011790558483527fffaa26784aca465bf23123375047d80ccb2b41102e02e5c4ef5b5aa00624b2d390915290206133a290826144c1565b50604051339073ffffffffffffffffffffffffffffffffffffffff83169084907f2f8788117e7eff1d82e926ec794901d17c78024a50270940304540a733656f0d90600090a45050565b73ffffffffffffffffffffffffffffffffffffffff821660009081527fdd021e813d5056b401d30ba505d211a2ca2652076f58ad407a75764b92ed7d9d602052604090205460ff161561133f5773ffffffffffffffffffffffffffffffffffffffff821660009081527fdd021e813d5056b401d30ba505d211a2ca2652076f58ad407a75764b92ed7d9d60205260409081902080547fffffffffffffffffffffffffffffffffffffffffffffffffffffffffffffff00169055516134b190829061545e565b6040519081900381209073ffffffffffffffffffffffffffffffffffffffff8416907fe4e3c0e67592981f9042a3df81ea0ee0dfb06be469efdbd2bfc674ab37ab62fe90600090a35050565b60008281527fffaa26784aca465bf23123375047d80ccb2b41102e02e5c4ef5b5aa00624b2d26020526040808220600101805490849055905190918391839186917fbd79b86ffe0ab8e8776151514217cd7cacd52c909f66475c3af44e129f0b00ff9190a4505050565b6135718282613f0b565b1561133f5760008281527fffaa26784aca465bf23123375047d80ccb2b41102e02e5c4ef5b5aa00624b2d26020908152604080832073ffffffffffffffffffffffffffffffffffffffff85168452825280832080547fffffffffffffffffffffffffffffffffffffffffffffffffffffffffffffff001690558483527fffaa26784aca465bf23123375047d80ccb2b41102e02e5c4ef5b5aa00624b2d3909152902061361d90826144e3565b50604051339073ffffffffffffffffffffffffffffffffffffffff83169084907ff6391f5c32d9c69d2a47ea670b442974b53935d1edc7fd64eb21e047a839171b90600090a45050565b7fb65939979d77055fe20d21bcb90b95461947bffa39f3588194f5015117626ea75460ff16806136bc57506136bc7fda6fac9f81a22bb02ed26455dcee2a5f2434c8a3377a2cc986478052c1594f9e33613f0b565b6114a5576040517f08c379a000000000000000000000000000000000000000000000000000000000815260206004820152601460248201527f5061757361626c653a206e6f74207061757365640000000000000000000000006044820152606401610ac5565b7fb65939979d77055fe20d21bcb90b95461947bffa39f3588194f5015117626ea780547fffffffffffffffffffffffffffffffffffffffffffffffffffffffffffffff001690556040513381527f5db9ee0a495bf2e6ff9c91a7834c1ba4fdd244a5e8aa4e537bd38aeae4b073aa906020015b60405180910390a1565b7fb65939979d77055fe20d21bcb90b95461947bffa39f3588194f5015117626ea75460ff1615806137f557506137f57fda6fac9f81a22bb02ed26455dcee2a5f2434c8a3377a2cc986478052c1594f9e33613f0b565b6114a5576040517f08c379a000000000000000000000000000000000000000000000000000000000815260206004820152601060248201527f5061757361626c653a20706175736564000000000000000000000000000000006044820152606401610ac5565b611cf281614505565b60405173ffffffffffffffffffffffffffffffffffffffff8316602482015260448101829052610e349084907fa9059cbb00000000000000000000000000000000000000000000000000000000906064015b604080517fffffffffffffffffffffffffffffffffffffffffffffffffffffffffffffffe08184030181529190526020810180517bffffffffffffffffffffffffffffffffffffffffffffffffffffffff167fffffffff0000000000000000000000000000000000000000000000000000000090931692909217909152614583565b613941826117f8565b5060048281548110613955576139556152ae565b600091825260209091206004600590920201015460ff16156139b6576139ae81610d056004858154811061398b5761398b6152ae565b90600052602060002090600502016002015460085461321a90919063ffffffff16565b6008556139f7565b6139f381610d05600485815481106139d0576139d06152ae565b90600052602060002090600502016002015460095461321a90919063ffffffff16565b6009555b8060048381548110613a0b57613a0b6152ae565b906000526020600020906005020160020181905550817fc0cfd54d2de2b55f1e6e108d3ec53ff0a1abe6055401d32c61e9433b747ef9f88260405161275491815260200190565b6000805b8251811015613ae657613ac6838281518110613a7457613a746152ae565b602002602001015173ffffffffffffffffffffffffffffffffffffffff1660009081527fdd021e813d5056b401d30ba505d211a2ca2652076f58ad407a75764b92ed7d9d602052604090205460ff1690565b15613ad45750600192915050565b80613ade81615371565b915050613a56565b50600092915050565b6040517f70a0823100000000000000000000000000000000000000000000000000000000815230600482015260009073ffffffffffffffffffffffffffffffffffffffff8616906370a0823190602401602060405180830381865afa158015613b5c573d6000803e3d6000fd5b505050506040513d601f19601f82011682018060405250810190613b8091906153a9565b1015613be8576040517f08c379a000000000000000000000000000000000000000000000000000000000815260206004820152601160248201527f4e6f6e6520424550323020746f6b656e730000000000000000000000000000006044820152606401610ac5565b60005473ffffffffffffffffffffffffffffffffffffffff90811690851603613c93576040517f08c379a000000000000000000000000000000000000000000000000000000000815260206004820152602860248201527f4b5357415020746f6b656e2063616e277420626520616464656420746f20666160448201527f726d20706f6f6c730000000000000000000000000000000000000000000000006064820152608401610ac5565b8015613ca157613ca1611d7d565b8215613cbc57600854613cb49086613226565b600855613ccd565b600954613cc99086613226565b6009555b6005805460018101825560009182527f036b6384b5eca791c62761152d0c79bb0604c104a5fb6f4eb0703f3154bb3db00180547fffffffffffffffffffffffff00000000000000000000000000000000000000001673ffffffffffffffffffffffffffffffffffffffff87161790556040805160a0810190915290815260049060208101438511613d6857613d634360c86153c2565b613d6a565b845b8152602080820189905260006040808401829052881515606094850152855460018082018855968352918390208551600593840290910190815592850151838701558401516002830155918301516003820155608090920151600490920180547fffffffffffffffffffffffffffffffffffffffffffffffffffffffffffffff0016921515929092179091555473ffffffffffffffffffffffffffffffffffffffff861691613e19919061321a565b6040805188815286151560208201527f18caa0724a26384928efe604ae6ddc99c242548876259770fc88fcb7e719d8fa910160405180910390a35050505050565b7fb65939979d77055fe20d21bcb90b95461947bffa39f3588194f5015117626ea780547fffffffffffffffffffffffffffffffffffffffffffffffffffffffffffffff001660011790556040513381527f62e78cea01bee320cd4e420270b5ea74000d11b0c9f74754ebdbfc544b05a25890602001613795565b60008281527fffaa26784aca465bf23123375047d80ccb2b41102e02e5c4ef5b5aa00624b2d360205260408120612520908361468f565b60007fffaa26784aca465bf23123375047d80ccb2b41102e02e5c4ef5b5aa00624b2d260008481526020918252604080822073ffffffffffffffffffffffffffffffffffffffff86168352909252205460ff168061252057507fffaa26784aca465bf23123375047d80ccb2b41102e02e5c4ef5b5aa00624b2d26000613fbf8560009081527fffaa26784aca465bf23123375047d80ccb2b41102e02e5c4ef5b5aa00624b2d2602052604090206001015490565b81526020808201929092526040908101600090812073ffffffffffffffffffffffffffffffffffffffff8616825290925290205460ff16905092915050565b60008311801561400e5750600082115b801561401a5750600081115b6140a6576040517f08c379a000000000000000000000000000000000000000000000000000000000815260206004820152602d60248201527f4d6173746572436865663a204b737761702072617465206d757374206265206760448201527f726561746572207468616e2030000000000000000000000000000000000000006064820152608401610ac5565b64e8d4a510006140ba82610d058686613226565b14614147576040517f08c379a000000000000000000000000000000000000000000000000000000000815260206004820152602360248201527f4d6173746572436865663a20546f74616c2072617465206d757374206265203160448201527f65313200000000000000000000000000000000000000000000000000000000006064820152608401610ac5565b6141516000612f8a565b600a839055600b829055600c81905560408051848152602081018490529081018290527fae2d2e7d1ae84564fc72227253ce0f36a007209f7fd5ec414dea80e5af2fb5b09060600160405180910390a1505050565b60008181527fffaa26784aca465bf23123375047d80ccb2b41102e02e5c4ef5b5aa00624b2d3602052604081206109739061469b565b73ffffffffffffffffffffffffffffffffffffffff821660009081527fdd021e813d5056b401d30ba505d211a2ca2652076f58ad407a75764b92ed7d9d602052604090205460ff1661133f5773ffffffffffffffffffffffffffffffffffffffff821660009081527fdd021e813d5056b401d30ba505d211a2ca2652076f58ad407a75764b92ed7d9d60205260409081902080547fffffffffffffffffffffffffffffffffffffffffffffffffffffffffffffff00166001179055516142a390829061545e565b6040519081900381209073ffffffffffffffffffffffffffffffffffffffff8416907f71ffd5b2f7b305f2f756c161455e2951077ed1951f9ecbee6252949bc1e13c5a90600090a35050565b60405173ffffffffffffffffffffffffffffffffffffffff808516602483015283166044820152606481018290526112f59085907f23b872dd00000000000000000000000000000000000000000000000000000000906084016138b6565b801561133f57600080546040517f70a0823100000000000000000000000000000000000000000000000000000000815230600482015273ffffffffffffffffffffffffffffffffffffffff909116906370a0823190602401602060405180830381865afa1580156143c2573d6000803e3d6000fd5b505050506040513d601f19601f820116820180604052508101906143e691906153a9565b9050818110156143f4578091505b600054610e349073ffffffffffffffffffffffffffffffffffffffff168484613864565b6144228282613f0b565b61133f576144478173ffffffffffffffffffffffffffffffffffffffff1660146146a5565b6144528360206146a5565b60405160200161446392919061547a565b604080517fffffffffffffffffffffffffffffffffffffffffffffffffffffffffffffffe0818403018152908290527f08c379a0000000000000000000000000000000000000000000000000000000008252610ac5916004016154fb565b60006125208373ffffffffffffffffffffffffffffffffffffffff84166148e8565b60006125208373ffffffffffffffffffffffffffffffffffffffff8416614937565b73ffffffffffffffffffffffffffffffffffffffff811660009081527fdd021e813d5056b401d30ba505d211a2ca2652076f58ad407a75764b92ed7d9d602052604090205460ff1615611cf2576145738173ffffffffffffffffffffffffffffffffffffffff1660146146a5565b604051602001614463919061554c565b60006145e5826040518060400160405280602081526020017f5361666545524332303a206c6f772d6c6576656c2063616c6c206661696c65648152508573ffffffffffffffffffffffffffffffffffffffff16614a2a9092919063ffffffff16565b805190915015610e34578080602001905181019061460391906155b8565b610e34576040517f08c379a000000000000000000000000000000000000000000000000000000000815260206004820152602a60248201527f5361666545524332303a204552433230206f7065726174696f6e20646964206e60448201527f6f742073756363656564000000000000000000000000000000000000000000006064820152608401610ac5565b60006125208383614a41565b6000610973825490565b606060006146b48360026153d5565b6146bf9060026153c2565b67ffffffffffffffff8111156146d7576146d7614f1b565b6040519080825280601f01601f191660200182016040528015614701576020820181803683370190505b5090507f300000000000000000000000000000000000000000000000000000000000000081600081518110614738576147386152ae565b60200101907effffffffffffffffffffffffffffffffffffffffffffffffffffffffffffff1916908160001a9053507f78000000000000000000000000000000000000000000000000000000000000008160018151811061479b5761479b6152ae565b60200101907effffffffffffffffffffffffffffffffffffffffffffffffffffffffffffff1916908160001a90535060006147d78460026153d5565b6147e29060016153c2565b90505b600181111561487f577f303132333435363738396162636465660000000000000000000000000000000085600f1660108110614823576148236152ae565b1a60f81b828281518110614839576148396152ae565b60200101907effffffffffffffffffffffffffffffffffffffffffffffffffffffffffffff1916908160001a90535060049490941c93614878816155d5565b90506147e5565b50831561096d576040517f08c379a000000000000000000000000000000000000000000000000000000000815260206004820181905260248201527f537472696e67733a20686578206c656e67746820696e73756666696369656e746044820152606401610ac5565b600081815260018301602052604081205461492f57508154600181810184556000848152602080822090930184905584548482528286019093526040902091909155610973565b506000610973565b60008181526001830160205260408120548015614a2057600061495b600183615427565b855490915060009061496f90600190615427565b90508181146149d457600086600001828154811061498f5761498f6152ae565b90600052602060002001549050808760000184815481106149b2576149b26152ae565b6000918252602080832090910192909255918252600188019052604090208390555b85548690806149e5576149e561560a565b600190038181906000526020600020016000905590558560010160008681526020019081526020016000206000905560019350505050610973565b6000915050610973565b6060614a398484600085614a6b565b949350505050565b6000826000018281548110614a5857614a586152ae565b9060005260206000200154905092915050565b606082471015614afd576040517f08c379a000000000000000000000000000000000000000000000000000000000815260206004820152602660248201527f416464726573733a20696e73756666696369656e742062616c616e636520666f60448201527f722063616c6c00000000000000000000000000000000000000000000000000006064820152608401610ac5565b6000808673ffffffffffffffffffffffffffffffffffffffff168587604051614b26919061545e565b60006040518083038185875af1925050503d8060008114614b63576040519150601f19603f3d011682016040523d82523d6000602084013e614b68565b606091505b5091509150614b7987838387614b84565b979650505050505050565b60608315614c1a578251600003614c135773ffffffffffffffffffffffffffffffffffffffff85163b614c13576040517f08c379a000000000000000000000000000000000000000000000000000000000815260206004820152601d60248201527f416464726573733a2063616c6c20746f206e6f6e2d636f6e74726163740000006044820152606401610ac5565b5081614a39565b614a398383815115614c2f5781518083602001fd5b806040517f08c379a0000000000000000000000000000000000000000000000000000000008152600401610ac591906154fb565b73ffffffffffffffffffffffffffffffffffffffff81168114611cf257600080fd5b60008060408385031215614c9857600080fd5b8235614ca381614c63565b946020939093013593505050565b600080600060608486031215614cc657600080fd5b8335614cd181614c63565b95602085013595506040909401359392505050565b600060208284031215614cf857600080fd5b5035919050565b60008083601f840112614d1157600080fd5b50813567ffffffffffffffff811115614d2957600080fd5b6020830191508360208260051b8501011115614d4457600080fd5b9250929050565b60008060008060408587031215614d6157600080fd5b843567ffffffffffffffff80821115614d7957600080fd5b614d8588838901614cff565b90965094506020870135915080821115614d9e57600080fd5b50614dab87828801614cff565b95989497509550505050565b60008060408385031215614dca57600080fd5b50508035926020909101359150565b60008060408385031215614dec57600080fd5b823591506020830135614dfe81614c63565b809150509250929050565b600060208284031215614e1b57600080fd5b813561096d81614c63565b60008083601f840112614e3857600080fd5b50813567ffffffffffffffff811115614e5057600080fd5b6020830191508360208260061b8501011115614d4457600080fd5b8015158114611cf257600080fd5b600080600060408486031215614e8e57600080fd5b833567ffffffffffffffff811115614ea557600080fd5b614eb186828701614e26565b9094509250506020840135614ec581614e6b565b809150509250925092565b600060208284031215614ee257600080fd5b813561096d81614e6b565b600080600060608486031215614f0257600080fd5b83359250602084013591506040840135614ec581614e6b565b7f4e487b7100000000000000000000000000000000000000000000000000000000600052604160045260246000fd5b604051601f82017fffffffffffffffffffffffffffffffffffffffffffffffffffffffffffffffe016810167ffffffffffffffff81118282101715614f9157614f91614f1b565b604052919050565b600067ffffffffffffffff821115614fb357614fb3614f1b565b5060051b60200190565b60006020808385031215614fd057600080fd5b823567ffffffffffffffff811115614fe757600080fd5b8301601f81018513614ff857600080fd5b803561500b61500682614f99565b614f4a565b81815260059190911b8201830190838101908783111561502a57600080fd5b928401925b82841015614b7957833561504281614c63565b8252928401929084019061502f565b600080600080600060a0868803121561506957600080fd5b85359450602086013561507b81614c63565b9350604086013561508b81614e6b565b92506060860135915060808601356150a281614e6b565b809150509295509295909350565b60008060008060008060a087890312156150c957600080fd5b863567ffffffffffffffff8111156150e057600080fd5b6150ec89828a01614e26565b909750955050602087013593506040870135925060608701359150608087013561511581614e6b565b809150509295509295509295565b6000806000806080858703121561513957600080fd5b843593506020850135925060408501359150606085013561515981614e6b565b939692955090935050565b6000806040838503121561517757600080fd5b823561518281614c63565b91506020830135614dfe81614e6b565b6000806000604084860312156151a757600080fd5b83356151b281614c63565b9250602084013567ffffffffffffffff808211156151cf57600080fd5b818601915086601f8301126151e357600080fd5b8135818111156151f257600080fd5b87602082850101111561520457600080fd5b6020830194508093505050509250925092565b6000806040838503121561522a57600080fd5b823567ffffffffffffffff81111561524157600080fd5b8301601f8101851361525257600080fd5b8035602061526261500683614f99565b82815260059290921b8301810191818101908884111561528157600080fd5b938201935b8385101561529f57843582529382019390820190615286565b98969091013596505050505050565b7f4e487b7100000000000000000000000000000000000000000000000000000000600052603260045260246000fd5b60008083357fffffffffffffffffffffffffffffffffffffffffffffffffffffffffffffffe184360301811261531257600080fd5b83018035915067ffffffffffffffff82111561532d57600080fd5b602001915036819003821315614d4457600080fd5b7f4e487b7100000000000000000000000000000000000000000000000000000000600052601160045260246000fd5b60007fffffffffffffffffffffffffffffffffffffffffffffffffffffffffffffffff82036153a2576153a2615342565b5060010190565b6000602082840312156153bb57600080fd5b5051919050565b8082018082111561097357610973615342565b808202811582820484141761097357610973615342565b600082615422577f4e487b7100000000000000000000000000000000000000000000000000000000600052601260045260246000fd5b500490565b8181038181111561097357610973615342565b60005b8381101561545557818101518382015260200161543d565b50506000910152565b6000825161547081846020870161543a565b9190910192915050565b7f416363657373436f6e74726f6c3a206163636f756e74200000000000000000008152600083516154b281601785016020880161543a565b7f206973206d697373696e6720726f6c652000000000000000000000000000000060179184019182015283516154ef81602884016020880161543a565b01602801949350505050565b602081526000825180602084015261551a81604085016020870161543a565b601f017fffffffffffffffffffffffffffffffffffffffffffffffffffffffffffffffe0169190910160400192915050565b7f53696d706c65426c61636b6c6973743a206163636f756e74200000000000000081526000825161558481601985016020870161543a565b7f20697320626c61636b6c697374656400000000000000000000000000000000006019939091019283015250602801919050565b6000602082840312156155ca57600080fd5b815161096d81614e6b565b6000816155e4576155e4615342565b507fffffffffffffffffffffffffffffffffffffffffffffffffffffffffffffffff0190565b7f4e487b7100000000000000000000000000000000000000000000000000000000600052603160045260246000fdfea26469706673582212203b79d42fcdc047d3d86b4fd45ffbbd443b6226b4ab2ec498ef16bfe01428553b64736f6c63430008110033",
  "devdoc": {
    "kind": "dev",
    "methods": {
      "add(uint256,address,bool,uint256,bool)": {
        "params": {
          "_allocPoint": "Number of allocation points for the new pool.",
          "_isRegular": "Whether the pool is regular or special. LP farms are always \"regular\". \"Special\" pools are",
          "_lpToken": "Address of the LP BEP-20 token.",
          "_withUpdate": "Whether call \"massUpdatePools\" operation. only for KSWAP distributions within Kyoto Swap products."
        }
      },
      "blacklist(address,string)": {
        "details": "External function to add `account` to the blacklist. WARNING: This function is abstract, to enforce it's implementation          in the final contract. This is important to make sure          the final contraqct's access control mechanism will be used! See {ISimpleBlacklist-blacklist}"
      },
      "blacklist(address[],string[])": {
        "details": "External function to add `account` to the blacklist. WARNING: This function is abstract, to enforce it's implementation          in the final contract. This is important to make sure          the final contraqct's access control mechanism will be used! See {ISimpleBlacklist-blacklist}"
      },
      "burnKswap(bool)": {
        "params": {
          "_withUpdate": "Whether call \"massUpdatePools\" operation."
        }
      },
      "deposit(uint256,uint256)": {
        "params": {
          "_amount": "Amount of LP tokens to deposit.",
          "_pid": "The id of the pool. See `poolInfo`."
        }
      },
      "emergencyWithdraw(uint256)": {
        "params": {
          "_pid": "The id of the pool. See `poolInfo`."
        }
      },
      "getBoostMultiplier(address,uint256)": {
        "params": {
          "_pid": "The pool id.",
          "_user": "The user address."
        }
      },
      "getRoleAdmin(bytes32)": {
        "details": "Returns the admin role that controls `role`. See {grantRole} and {revokeRole}. To change a role's admin, use {AccessControl-setRoleAdmin}."
      },
      "getRoleMember(bytes32,uint256)": {
        "details": "Returns one of the accounts that have `role`. `index` must be a value between 0 and {getRoleMemberCount}, non-inclusive. Role bearers are not sorted in any particular way, and their ordering may change at any point. WARNING: When using {getRoleMember} and {getRoleMemberCount}, make sure you perform all queries on the same block. See the following https://forum.openzeppelin.com/t/iterating-over-elements-on-enumerableset-in-openzeppelin-contracts/2296[forum post] for more information."
      },
      "getRoleMemberCount(bytes32)": {
        "details": "Returns the number of accounts that have `role`. Can be used together with {getRoleMember} to enumerate all bearers of a role."
      },
      "grantRole(bytes32,address)": {
        "details": "Grants `role` to `account`. If `account` had not been already granted `role`, emits a {RoleGranted} event. Requirements: - the caller must have ``role``'s admin role."
      },
      "hasRole(bytes32,address)": {
        "details": "Returns `true` if `account` has been granted `role`."
      },
      "isBlacklisted(address)": {
        "details": "Returns `true` if `account` is blacklisted."
      },
      "isBlacklisted(address[])": {
        "details": "Returns `true` if any address in `accounts` is on the blacklist."
      },
      "kswapPerBlock(bool)": {
        "params": {
          "_isRegular": "If the pool belongs to regular or special."
        }
      },
      "pause()": {
        "details": "Triggers stopped state. Requirements: - The contract must not be paused."
      },
      "paused()": {
        "details": "Returns true if the contract is paused, and false otherwise."
      },
      "pendingKswap(uint256,address)": {
        "params": {
          "_pid": "The id of the pool. See `poolInfo`.",
          "_user": "Address of the user."
        }
      },
      "renounceRole(bytes32,address)": {
        "details": "Revokes `role` from the calling account. Roles are often managed via {grantRole} and {revokeRole}: this function's purpose is to provide a mechanism for accounts to lose their privileges if they are compromised (such as when a trusted device is misplaced). If the calling account had been granted `role`, emits a {RoleRevoked} event. Requirements: - the caller must be `account`."
      },
      "revokeRole(bytes32,address)": {
        "details": "Revokes `role` from `account`. If `account` had been granted `role`, emits a {RoleRevoked} event. Requirements: - the caller must have ``role``'s admin role."
      },
      "set((uint256,uint256)[],bool)": {
        "params": {
          "_withUpdate": "Whether call \"massUpdatePools\" operation.",
          "poolAlocations": "List of SetPoolAllocationInfo to update"
        }
      },
      "set(uint256,uint256,bool)": {
        "params": {
          "_allocPoint": "New number of allocation points for the pool.",
          "_pid": "The id of the pool. See `poolInfo`.",
          "_withUpdate": "Whether call \"massUpdatePools\" operation."
        }
      },
      "setPoolLastRewardBlock(uint256,uint256)": {
        "params": {
          "_pid": "The pool id to update.",
          "newLastRewardBlock": "The new value."
        }
      },
      "setPoolLastRewardBlock(uint256[],uint256)": {
        "params": {
          "_pids": "The list of pool ids to update.",
          "newLastRewardBlock": "The new value."
        }
      },
      "setRoleAdmin(bytes32,bytes32)": {
        "details": "Sets `adminRole` as ``role``'s admin role. Emits a {RoleAdminChanged} event."
      },
      "unblacklist(address,string)": {
        "details": "External function to remove `account` from the blacklist. WARNING: This function is abstract, to enforce it's implementation          in the final contract. This is important to make sure          the final contraqct's access control mechanism will be used! See {ISimpleBlacklist-unblacklist}"
      },
      "unblacklist(address[],string[])": {
        "details": "External function to add `account` to the blacklist. WARNING: This function is abstract, to enforce it's implementation          in the final contract. This is important to make sure          the final contraqct's access control mechanism will be used! See {ISimpleBlacklist-blacklist}"
      },
      "unpause()": {
        "details": "Returns to normal state. Requirements: - The contract must be paused."
      },
      "updateBoostMultiplier(address,uint256,uint256)": {
        "params": {
          "_newMultiplier": "New boost multiplier.",
          "_pid": "The pool id for the boost factor updates.",
          "_user": "The user address for boost factor updates."
        }
      },
      "updateKswapRate(uint256,uint256,uint256,bool)": {
        "params": {
          "_burnRate": "The % of KSWAP to burn each block.",
          "_regularFarmRate": "The % of KSWAP to regular pools each block.",
          "_specialFarmRate": "The % of KSWAP to special pools each block.",
          "_withUpdate": "Whether call \"massUpdatePools\" operation."
        }
      },
      "updatePool(uint256)": {
        "params": {
          "_pid": "The id of the pool. See `poolInfo`."
        },
        "returns": {
          "pool": "Returns the pool that was updated."
        }
      },
      "updateRatesAndPools((uint256,uint256)[],uint256,uint256,uint256,bool)": {
        "params": {
          "_burnRate": "The % of KSWAP to burn each block.",
          "_regularFarmRate": "The % of KSWAP to regular pools each block.",
          "_specialFarmRate": "The % of KSWAP to special pools each block.",
          "poolAlocations": "List of SetPoolAllocationInfo to update"
        }
      },
      "updateWhiteList(address,bool)": {
        "params": {
          "_isValid": "The flag for valid or invalid.",
          "_user": "The address to be updated."
        }
      },
      "withdraw(uint256,uint256)": {
        "params": {
          "_amount": "Amount of LP tokens to withdraw.",
          "_pid": "The id of the pool. See `poolInfo`."
        }
      }
    },
    "version": 1
  },
  "userdoc": {
    "kind": "user",
    "methods": {
      "BOOST_PRECISION()": {
        "notice": "Basic boost factor, none boosted user's boost factor"
      },
      "DEPRECATED_boostContract()": {
        "notice": "The contract handles the share boosts."
      },
      "DEPRECATED_burnAdmin()": {
        "notice": "The only address can withdraw all the burn KSWAP."
      },
      "KSWAP_RATE_TOTAL_PRECISION()": {
        "notice": "total kswap rate = toBurn + toRegular + toSpecial"
      },
      "MASTERCHEF_KSWAP_PER_BLOCK()": {
        "notice": "40 KSWAP per block in MC"
      },
      "MAX_BOOST_PRECISION()": {
        "notice": "Hard limit for maxmium boost factor, it must greater than BOOST_PRECISION"
      },
      "add(uint256,address,bool,uint256,bool)": {
        "notice": "Add a new pool. Can only be called by the owner. DO NOT add the same LP token more than once. Rewards will be messed up if you do."
      },
      "burnKswap(bool)": {
        "notice": "Send KSWAP pending for burn to `burnAdmin`."
      },
      "deposit(uint256,uint256)": {
        "notice": "Deposit LP tokens to pool."
      },
      "emergencyWithdraw(uint256)": {
        "notice": "Withdraw without caring about the rewards. EMERGENCY ONLY."
      },
      "getBoostMultiplier(address,uint256)": {
        "notice": "Get user boost multiplier for specific pool id."
      },
      "kswapPerBlock(bool)": {
        "notice": "Calculates and returns the `amount` of KSWAP per block."
      },
      "kswapPerBlockToBurn()": {
        "notice": "Calculates and returns the `amount` of KSWAP per block to burn."
      },
      "kswapRateToBurn()": {
        "notice": "The last block number of KSWAP burn action being executed."
      },
      "lpToken(uint256)": {
        "notice": "Address of the LP token for each MCV2 pool."
      },
      "massUpdatePools()": {
        "notice": "Update kswap reward for all the active pools. Be careful of gas spending!"
      },
      "pendingKswap(uint256,address)": {
        "notice": "View function for checking pending KSWAP rewards."
      },
      "poolInfo(uint256)": {
        "notice": "Info of each MCV2 pool."
      },
      "poolLength()": {
        "notice": "Returns the number of MC pools."
      },
      "set((uint256,uint256)[],bool)": {
        "notice": "Update the given pool's KSWAP allocation point. Can only be called by the owner."
      },
      "set(uint256,uint256,bool)": {
        "notice": "Update the given pool's KSWAP allocation point. Can only be called by the owner."
      },
      "setPoolLastRewardBlock(uint256,uint256)": {
        "notice": "Updates the lastRewardBlock for a pool.         Both the new and old values must be future blocks!         If the new value is 0, it will be set to `block.number + 200`."
      },
      "setPoolLastRewardBlock(uint256[],uint256)": {
        "notice": "Updates the lastRewardBlock for a list of pools.         Both the new and old values must be future blocks!         If the new value is 0, it will be set to `block.number + 200`."
      },
      "setTreasuryAddress(address)": {
        "notice": "Update the treasury address."
      },
      "totalRegularAllocPoint()": {
        "notice": "Total regular allocation points. Must be the sum of all regular pools' allocation points."
      },
      "totalSpecialAllocPoint()": {
        "notice": "Total special allocation points. Must be the sum of all special pools' allocation points."
      },
      "updateBoostMultiplier(address,uint256,uint256)": {
        "notice": "Update user boost factor."
      },
      "updateKswapRate(uint256,uint256,uint256,bool)": {
        "notice": "Update the % of KSWAP distributions for burn, regular pools and special pools."
      },
      "updatePool(uint256)": {
        "notice": "Update reward variables for the given pool."
      },
      "updateRatesAndPools((uint256,uint256)[],uint256,uint256,uint256,bool)": {
        "notice": "Updates the given pool's allocations and the pool rates."
      },
      "updateWhiteList(address,bool)": {
        "notice": "Update whitelisted addresses for special pools."
      },
      "userInfo(uint256,address)": {
        "notice": "Info of each pool user."
      },
      "whiteList(address)": {
        "notice": "The whitelist of addresses allowed to deposit in special pools."
      },
      "withdraw(uint256,uint256)": {
        "notice": "Withdraw LP tokens from pool."
      }
    },
    "version": 1
  },
  "storageLayout": {
    "storage": [
      {
        "astId": 4607,
        "contract": "contracts/MasterChef.sol:MasterChef",
        "label": "kswap",
        "offset": 0,
        "slot": "0",
        "type": "t_contract(IERC20Mintable)6461"
      },
      {
        "astId": 4609,
        "contract": "contracts/MasterChef.sol:MasterChef",
        "label": "treasury",
        "offset": 0,
        "slot": "1",
        "type": "t_address"
      },
      {
        "astId": 4612,
        "contract": "contracts/MasterChef.sol:MasterChef",
        "label": "DEPRECATED_burnAdmin",
        "offset": 0,
        "slot": "2",
        "type": "t_address"
      },
      {
        "astId": 4615,
        "contract": "contracts/MasterChef.sol:MasterChef",
        "label": "DEPRECATED_boostContract",
        "offset": 0,
        "slot": "3",
        "type": "t_address"
      },
      {
        "astId": 4620,
        "contract": "contracts/MasterChef.sol:MasterChef",
        "label": "poolInfo",
        "offset": 0,
        "slot": "4",
        "type": "t_array(t_struct(PoolInfo)6483_storage)dyn_storage"
      },
      {
        "astId": 4625,
        "contract": "contracts/MasterChef.sol:MasterChef",
        "label": "lpToken",
        "offset": 0,
        "slot": "5",
        "type": "t_array(t_contract(IERC20)175)dyn_storage"
      },
      {
        "astId": 4633,
        "contract": "contracts/MasterChef.sol:MasterChef",
        "label": "userInfo",
        "offset": 0,
        "slot": "6",
        "type": "t_mapping(t_uint256,t_mapping(t_address,t_struct(UserInfo)6472_storage))"
      },
      {
        "astId": 4638,
        "contract": "contracts/MasterChef.sol:MasterChef",
        "label": "whiteList",
        "offset": 0,
        "slot": "7",
        "type": "t_mapping(t_address,t_bool)"
      },
      {
        "astId": 4641,
        "contract": "contracts/MasterChef.sol:MasterChef",
        "label": "totalRegularAllocPoint",
        "offset": 0,
        "slot": "8",
        "type": "t_uint256"
      },
      {
        "astId": 4644,
        "contract": "contracts/MasterChef.sol:MasterChef",
        "label": "totalSpecialAllocPoint",
        "offset": 0,
        "slot": "9",
        "type": "t_uint256"
      },
      {
        "astId": 4672,
        "contract": "contracts/MasterChef.sol:MasterChef",
        "label": "kswapRateToBurn",
        "offset": 0,
        "slot": "10",
        "type": "t_uint256"
      },
      {
        "astId": 4674,
        "contract": "contracts/MasterChef.sol:MasterChef",
        "label": "kswapRateToRegularFarm",
        "offset": 0,
        "slot": "11",
        "type": "t_uint256"
      },
      {
        "astId": 4676,
        "contract": "contracts/MasterChef.sol:MasterChef",
        "label": "kswapRateToSpecialFarm",
        "offset": 0,
        "slot": "12",
        "type": "t_uint256"
      },
      {
        "astId": 4678,
        "contract": "contracts/MasterChef.sol:MasterChef",
        "label": "lastBurnedBlock",
        "offset": 0,
        "slot": "13",
        "type": "t_uint256"
      }
    ],
    "types": {
      "t_address": {
        "encoding": "inplace",
        "label": "address",
        "numberOfBytes": "20"
      },
      "t_array(t_contract(IERC20)175)dyn_storage": {
        "base": "t_contract(IERC20)175",
        "encoding": "dynamic_array",
        "label": "contract IERC20[]",
        "numberOfBytes": "32"
      },
      "t_array(t_struct(PoolInfo)6483_storage)dyn_storage": {
        "base": "t_struct(PoolInfo)6483_storage",
        "encoding": "dynamic_array",
        "label": "struct IMasterChef.PoolInfo[]",
        "numberOfBytes": "32"
      },
      "t_bool": {
        "encoding": "inplace",
        "label": "bool",
        "numberOfBytes": "1"
      },
      "t_contract(IERC20)175": {
        "encoding": "inplace",
        "label": "contract IERC20",
        "numberOfBytes": "20"
      },
      "t_contract(IERC20Mintable)6461": {
        "encoding": "inplace",
        "label": "contract IERC20Mintable",
        "numberOfBytes": "20"
      },
      "t_mapping(t_address,t_bool)": {
        "encoding": "mapping",
        "key": "t_address",
        "label": "mapping(address => bool)",
        "numberOfBytes": "32",
        "value": "t_bool"
      },
      "t_mapping(t_address,t_struct(UserInfo)6472_storage)": {
        "encoding": "mapping",
        "key": "t_address",
        "label": "mapping(address => struct IMasterChef.UserInfo)",
        "numberOfBytes": "32",
        "value": "t_struct(UserInfo)6472_storage"
      },
      "t_mapping(t_uint256,t_mapping(t_address,t_struct(UserInfo)6472_storage))": {
        "encoding": "mapping",
        "key": "t_uint256",
        "label": "mapping(uint256 => mapping(address => struct IMasterChef.UserInfo))",
        "numberOfBytes": "32",
        "value": "t_mapping(t_address,t_struct(UserInfo)6472_storage)"
      },
      "t_struct(PoolInfo)6483_storage": {
        "encoding": "inplace",
        "label": "struct IMasterChef.PoolInfo",
        "members": [
          {
            "astId": 6474,
            "contract": "contracts/MasterChef.sol:MasterChef",
            "label": "accKswapPerShare",
            "offset": 0,
            "slot": "0",
            "type": "t_uint256"
          },
          {
            "astId": 6476,
            "contract": "contracts/MasterChef.sol:MasterChef",
            "label": "lastRewardBlock",
            "offset": 0,
            "slot": "1",
            "type": "t_uint256"
          },
          {
            "astId": 6478,
            "contract": "contracts/MasterChef.sol:MasterChef",
            "label": "allocPoint",
            "offset": 0,
            "slot": "2",
            "type": "t_uint256"
          },
          {
            "astId": 6480,
            "contract": "contracts/MasterChef.sol:MasterChef",
            "label": "totalBoostedShare",
            "offset": 0,
            "slot": "3",
            "type": "t_uint256"
          },
          {
            "astId": 6482,
            "contract": "contracts/MasterChef.sol:MasterChef",
            "label": "isRegular",
            "offset": 0,
            "slot": "4",
            "type": "t_bool"
          }
        ],
        "numberOfBytes": "160"
      },
      "t_struct(UserInfo)6472_storage": {
        "encoding": "inplace",
        "label": "struct IMasterChef.UserInfo",
        "members": [
          {
            "astId": 6467,
            "contract": "contracts/MasterChef.sol:MasterChef",
            "label": "amount",
            "offset": 0,
            "slot": "0",
            "type": "t_uint256"
          },
          {
            "astId": 6469,
            "contract": "contracts/MasterChef.sol:MasterChef",
            "label": "rewardDebt",
            "offset": 0,
            "slot": "1",
            "type": "t_uint256"
          },
          {
            "astId": 6471,
            "contract": "contracts/MasterChef.sol:MasterChef",
            "label": "boostMultiplier",
            "offset": 0,
            "slot": "2",
            "type": "t_uint256"
          }
        ],
        "numberOfBytes": "96"
      },
      "t_uint256": {
        "encoding": "inplace",
        "label": "uint256",
        "numberOfBytes": "32"
      }
    }
  }
}