{
  "address": "0x907b4c235c912d9979435A8e9E036739aA6e5161",
  "abi": [
    {
      "inputs": [],
      "name": "InitializerContractAlreadyInitialized",
      "type": "error"
    },
    {
      "inputs": [],
      "name": "InitializerContractIsInitializing",
      "type": "error"
    },
    {
      "inputs": [],
      "name": "InitializerContractIsNotInitializing",
      "type": "error"
    },
    {
      "inputs": [
        {
          "internalType": "uint8",
          "name": "version",
          "type": "uint8"
        }
      ],
      "name": "InitializerVersionAlreadyInitialized",
      "type": "error"
    },
    {
      "inputs": [],
      "name": "ReentrancyGuardReentrantCall",
      "type": "error"
    },
    {
      "anonymous": false,
      "inputs": [
        {
          "indexed": true,
          "internalType": "uint256",
          "name": "pid",
          "type": "uint256"
        },
        {
          "indexed": false,
          "internalType": "uint256",
          "name": "allocPoint",
          "type": "uint256"
        },
        {
          "indexed": true,
          "internalType": "contract IERC20",
          "name": "lpToken",
          "type": "address"
        },
        {
          "indexed": false,
          "internalType": "bool",
          "name": "isRegular",
          "type": "bool"
        }
      ],
      "name": "AddPool",
      "type": "event"
    },
    {
      "anonymous": false,
      "inputs": [
        {
          "indexed": true,
          "internalType": "address",
          "name": "account",
          "type": "address"
        },
        {
          "indexed": true,
          "internalType": "string",
          "name": "reason",
          "type": "string"
        }
      ],
      "name": "Blacklisted",
      "type": "event"
    },
    {
      "anonymous": false,
      "inputs": [
        {
          "indexed": true,
          "internalType": "address",
          "name": "user",
          "type": "address"
        },
        {
          "indexed": true,
          "internalType": "uint256",
          "name": "pid",
          "type": "uint256"
        },
        {
          "indexed": false,
          "internalType": "uint256",
          "name": "amount",
          "type": "uint256"
        }
      ],
      "name": "Deposit",
      "type": "event"
    },
    {
      "anonymous": false,
      "inputs": [
        {
          "indexed": true,
          "internalType": "address",
          "name": "user",
          "type": "address"
        },
        {
          "indexed": true,
          "internalType": "uint256",
          "name": "pid",
          "type": "uint256"
        },
        {
          "indexed": false,
          "internalType": "uint256",
          "name": "amount",
          "type": "uint256"
        }
      ],
      "name": "EmergencyWithdraw",
      "type": "event"
    },
    {
      "anonymous": false,
      "inputs": [
        {
          "indexed": false,
          "internalType": "uint8",
          "name": "version",
          "type": "uint8"
        }
      ],
      "name": "Initialized",
      "type": "event"
    },
    {
      "anonymous": false,
      "inputs": [
        {
          "indexed": true,
          "internalType": "bytes32",
          "name": "role",
          "type": "bytes32"
        },
        {
          "indexed": true,
          "internalType": "bytes32",
          "name": "previousAdminRole",
          "type": "bytes32"
        },
        {
          "indexed": true,
          "internalType": "bytes32",
          "name": "newAdminRole",
          "type": "bytes32"
        }
      ],
      "name": "RoleAdminChanged",
      "type": "event"
    },
    {
      "anonymous": false,
      "inputs": [
        {
          "indexed": true,
          "internalType": "bytes32",
          "name": "role",
          "type": "bytes32"
        },
        {
          "indexed": true,
          "internalType": "address",
          "name": "account",
          "type": "address"
        },
        {
          "indexed": true,
          "internalType": "address",
          "name": "sender",
          "type": "address"
        }
      ],
      "name": "RoleGranted",
      "type": "event"
    },
    {
      "anonymous": false,
      "inputs": [
        {
          "indexed": true,
          "internalType": "bytes32",
          "name": "role",
          "type": "bytes32"
        },
        {
          "indexed": true,
          "internalType": "address",
          "name": "account",
          "type": "address"
        },
        {
          "indexed": true,
          "internalType": "address",
          "name": "sender",
          "type": "address"
        }
      ],
      "name": "RoleRevoked",
      "type": "event"
    },
    {
      "anonymous": false,
      "inputs": [
        {
          "indexed": true,
          "internalType": "uint256",
          "name": "pid",
          "type": "uint256"
        },
        {
          "indexed": false,
          "internalType": "uint256",
          "name": "allocPoint",
          "type": "uint256"
        }
      ],
      "name": "SetPool",
      "type": "event"
    },
    {
      "anonymous": false,
      "inputs": [
        {
          "indexed": true,
          "internalType": "address",
          "name": "user",
          "type": "address"
        },
        {
          "indexed": false,
          "internalType": "address",
          "name": "treasury",
          "type": "address"
        }
      ],
      "name": "SetTreasuryAddress",
      "type": "event"
    },
    {
      "anonymous": false,
      "inputs": [
        {
          "indexed": true,
          "internalType": "address",
          "name": "account",
          "type": "address"
        },
        {
          "indexed": true,
          "internalType": "string",
          "name": "reason",
          "type": "string"
        }
      ],
      "name": "UnBlacklisted",
      "type": "event"
    },
    {
      "anonymous": false,
      "inputs": [
        {
          "indexed": true,
          "internalType": "address",
          "name": "boostContract",
          "type": "address"
        }
      ],
      "name": "UpdateBoostContract",
      "type": "event"
    },
    {
      "anonymous": false,
      "inputs": [
        {
          "indexed": true,
          "internalType": "address",
          "name": "user",
          "type": "address"
        },
        {
          "indexed": false,
          "internalType": "uint256",
          "name": "pid",
          "type": "uint256"
        },
        {
          "indexed": false,
          "internalType": "uint256",
          "name": "oldMultiplier",
          "type": "uint256"
        },
        {
          "indexed": false,
          "internalType": "uint256",
          "name": "newMultiplier",
          "type": "uint256"
        }
      ],
      "name": "UpdateBoostMultiplier",
      "type": "event"
    },
    {
      "anonymous": false,
      "inputs": [
        {
          "indexed": true,
          "internalType": "address",
          "name": "oldAdmin",
          "type": "address"
        },
        {
          "indexed": true,
          "internalType": "address",
          "name": "newAdmin",
          "type": "address"
        }
      ],
      "name": "UpdateBurnAdmin",
      "type": "event"
    },
    {
      "anonymous": false,
      "inputs": [
        {
          "indexed": false,
          "internalType": "uint256",
          "name": "burnRate",
          "type": "uint256"
        },
        {
          "indexed": false,
          "internalType": "uint256",
          "name": "regularFarmRate",
          "type": "uint256"
        },
        {
          "indexed": false,
          "internalType": "uint256",
          "name": "specialFarmRate",
          "type": "uint256"
        }
      ],
      "name": "UpdateCakeRate",
      "type": "event"
    },
    {
      "anonymous": false,
      "inputs": [
        {
          "indexed": true,
          "internalType": "uint256",
          "name": "pid",
          "type": "uint256"
        },
        {
          "indexed": false,
          "internalType": "uint256",
          "name": "lastRewardBlock",
          "type": "uint256"
        },
        {
          "indexed": false,
          "internalType": "uint256",
          "name": "lpSupply",
          "type": "uint256"
        },
        {
          "indexed": false,
          "internalType": "uint256",
          "name": "accKswapPerShare",
          "type": "uint256"
        }
      ],
      "name": "UpdatePool",
      "type": "event"
    },
    {
      "anonymous": false,
      "inputs": [
        {
          "indexed": true,
          "internalType": "address",
          "name": "user",
          "type": "address"
        },
        {
          "indexed": false,
          "internalType": "bool",
          "name": "isValid",
          "type": "bool"
        }
      ],
      "name": "UpdateWhiteList",
      "type": "event"
    },
    {
      "anonymous": false,
      "inputs": [
        {
          "indexed": true,
          "internalType": "address",
          "name": "user",
          "type": "address"
        },
        {
          "indexed": true,
          "internalType": "uint256",
          "name": "pid",
          "type": "uint256"
        },
        {
          "indexed": false,
          "internalType": "uint256",
          "name": "amount",
          "type": "uint256"
        }
      ],
      "name": "Withdraw",
      "type": "event"
    },
    {
      "inputs": [],
      "name": "ACC_KSWAP_PRECISION",
      "outputs": [
        {
          "internalType": "uint256",
          "name": "",
          "type": "uint256"
        }
      ],
      "stateMutability": "view",
      "type": "function"
    },
    {
      "inputs": [],
      "name": "BOOST_MANAGER_ROLE",
      "outputs": [
        {
          "internalType": "bytes32",
          "name": "",
          "type": "bytes32"
        }
      ],
      "stateMutability": "view",
      "type": "function"
    },
    {
      "inputs": [],
      "name": "BOOST_PRECISION",
      "outputs": [
        {
          "internalType": "uint256",
          "name": "",
          "type": "uint256"
        }
      ],
      "stateMutability": "view",
      "type": "function"
    },
    {
      "inputs": [],
      "name": "BURN_MANAGER_ROLE",
      "outputs": [
        {
          "internalType": "bytes32",
          "name": "",
          "type": "bytes32"
        }
      ],
      "stateMutability": "view",
      "type": "function"
    },
    {
      "inputs": [],
      "name": "DEPRECATED_boostContract",
      "outputs": [
        {
          "internalType": "address",
          "name": "",
          "type": "address"
        }
      ],
      "stateMutability": "view",
      "type": "function"
    },
    {
      "inputs": [],
      "name": "DEPRECATED_burnAdmin",
      "outputs": [
        {
          "internalType": "address",
          "name": "",
          "type": "address"
        }
      ],
      "stateMutability": "view",
      "type": "function"
    },
    {
      "inputs": [],
      "name": "KSWAP_RATE_TOTAL_PRECISION",
      "outputs": [
        {
          "internalType": "uint256",
          "name": "",
          "type": "uint256"
        }
      ],
      "stateMutability": "view",
      "type": "function"
    },
    {
      "inputs": [],
      "name": "MASTERCHEF_KSWAP_PER_BLOCK",
      "outputs": [
        {
          "internalType": "uint256",
          "name": "",
          "type": "uint256"
        }
      ],
      "stateMutability": "view",
      "type": "function"
    },
    {
      "inputs": [],
      "name": "MAX_BOOST_PRECISION",
      "outputs": [
        {
          "internalType": "uint256",
          "name": "",
          "type": "uint256"
        }
      ],
      "stateMutability": "view",
      "type": "function"
    },
    {
      "inputs": [],
      "name": "RATES_MANAGER_ROLE",
      "outputs": [
        {
          "internalType": "bytes32",
          "name": "",
          "type": "bytes32"
        }
      ],
      "stateMutability": "view",
      "type": "function"
    },
    {
      "inputs": [
        {
          "internalType": "uint256",
          "name": "_allocPoint",
          "type": "uint256"
        },
        {
          "internalType": "contract IERC20",
          "name": "_lpToken",
          "type": "address"
        },
        {
          "internalType": "bool",
          "name": "_isRegular",
          "type": "bool"
        },
        {
          "internalType": "uint256",
          "name": "_startBlockNumber",
          "type": "uint256"
        },
        {
          "internalType": "bool",
          "name": "_withUpdate",
          "type": "bool"
        }
      ],
      "name": "add",
      "outputs": [],
      "stateMutability": "nonpayable",
      "type": "function"
    },
    {
      "inputs": [
        {
          "internalType": "address[]",
          "name": "accounts",
          "type": "address[]"
        },
        {
          "internalType": "string[]",
          "name": "reasons",
          "type": "string[]"
        }
      ],
      "name": "blacklist",
      "outputs": [],
      "stateMutability": "nonpayable",
      "type": "function"
    },
    {
      "inputs": [
        {
          "internalType": "address",
          "name": "account",
          "type": "address"
        },
        {
          "internalType": "string",
          "name": "reason",
          "type": "string"
        }
      ],
      "name": "blacklist",
      "outputs": [],
      "stateMutability": "nonpayable",
      "type": "function"
    },
    {
      "inputs": [
        {
          "internalType": "bool",
          "name": "_withUpdate",
          "type": "bool"
        }
      ],
      "name": "burnKswap",
      "outputs": [],
      "stateMutability": "nonpayable",
      "type": "function"
    },
    {
      "inputs": [
        {
          "internalType": "uint256[]",
          "name": "_pids",
          "type": "uint256[]"
        }
      ],
      "name": "claimPendingKswap",
      "outputs": [],
      "stateMutability": "nonpayable",
      "type": "function"
    },
    {
      "inputs": [
        {
          "internalType": "uint256",
          "name": "_pid",
          "type": "uint256"
        },
        {
          "internalType": "uint256",
          "name": "_amount",
          "type": "uint256"
        }
      ],
      "name": "deposit",
      "outputs": [],
      "stateMutability": "nonpayable",
      "type": "function"
    },
    {
      "inputs": [
        {
          "internalType": "uint256",
          "name": "_pid",
          "type": "uint256"
        }
      ],
      "name": "emergencyWithdraw",
      "outputs": [],
      "stateMutability": "nonpayable",
      "type": "function"
    },
    {
      "inputs": [
        {
          "internalType": "address",
          "name": "_user",
          "type": "address"
        },
        {
          "internalType": "uint256",
          "name": "_pid",
          "type": "uint256"
        }
      ],
      "name": "getBoostMultiplier",
      "outputs": [
        {
          "internalType": "uint256",
          "name": "",
          "type": "uint256"
        }
      ],
      "stateMutability": "view",
      "type": "function"
    },
    {
      "inputs": [
        {
          "internalType": "bytes32",
          "name": "role",
          "type": "bytes32"
        }
      ],
      "name": "getRoleAdmin",
      "outputs": [
        {
          "internalType": "bytes32",
          "name": "",
          "type": "bytes32"
        }
      ],
      "stateMutability": "view",
      "type": "function"
    },
    {
      "inputs": [
        {
          "internalType": "bytes32",
          "name": "role",
          "type": "bytes32"
        },
        {
          "internalType": "uint256",
          "name": "index",
          "type": "uint256"
        }
      ],
      "name": "getRoleMember",
      "outputs": [
        {
          "internalType": "address",
          "name": "",
          "type": "address"
        }
      ],
      "stateMutability": "view",
      "type": "function"
    },
    {
      "inputs": [
        {
          "internalType": "bytes32",
          "name": "role",
          "type": "bytes32"
        }
      ],
      "name": "getRoleMemberCount",
      "outputs": [
        {
          "internalType": "uint256",
          "name": "",
          "type": "uint256"
        }
      ],
      "stateMutability": "view",
      "type": "function"
    },
    {
      "inputs": [
        {
          "internalType": "bytes32",
          "name": "role",
          "type": "bytes32"
        },
        {
          "internalType": "address",
          "name": "account",
          "type": "address"
        }
      ],
      "name": "grantRole",
      "outputs": [],
      "stateMutability": "nonpayable",
      "type": "function"
    },
    {
      "inputs": [
        {
          "internalType": "bytes32",
          "name": "role",
          "type": "bytes32"
        },
        {
          "internalType": "address",
          "name": "account",
          "type": "address"
        }
      ],
      "name": "hasRole",
      "outputs": [
        {
          "internalType": "bool",
          "name": "",
          "type": "bool"
        }
      ],
      "stateMutability": "view",
      "type": "function"
    },
    {
      "inputs": [
        {
          "internalType": "address[]",
          "name": "accounts",
          "type": "address[]"
        }
      ],
      "name": "isBlacklisted",
      "outputs": [
        {
          "internalType": "bool",
          "name": "",
          "type": "bool"
        }
      ],
      "stateMutability": "view",
      "type": "function"
    },
    {
      "inputs": [
        {
          "internalType": "address",
          "name": "account",
          "type": "address"
        }
      ],
      "name": "isBlacklisted",
      "outputs": [
        {
          "internalType": "bool",
          "name": "",
          "type": "bool"
        }
      ],
      "stateMutability": "view",
      "type": "function"
    },
    {
      "inputs": [],
      "name": "kswap",
      "outputs": [
        {
          "internalType": "contract IERC20Mintable",
          "name": "",
          "type": "address"
        }
      ],
      "stateMutability": "view",
      "type": "function"
    },
    {
      "inputs": [
        {
          "internalType": "bool",
          "name": "_isRegular",
          "type": "bool"
        }
      ],
      "name": "kswapPerBlock",
      "outputs": [
        {
          "internalType": "uint256",
          "name": "amount",
          "type": "uint256"
        }
      ],
      "stateMutability": "view",
      "type": "function"
    },
    {
      "inputs": [],
      "name": "kswapPerBlockToBurn",
      "outputs": [
        {
          "internalType": "uint256",
          "name": "amount",
          "type": "uint256"
        }
      ],
      "stateMutability": "view",
      "type": "function"
    },
    {
      "inputs": [],
      "name": "kswapRateToBurn",
      "outputs": [
        {
          "internalType": "uint256",
          "name": "",
          "type": "uint256"
        }
      ],
      "stateMutability": "view",
      "type": "function"
    },
    {
      "inputs": [],
      "name": "kswapRateToRegularFarm",
      "outputs": [
        {
          "internalType": "uint256",
          "name": "",
          "type": "uint256"
        }
      ],
      "stateMutability": "view",
      "type": "function"
    },
    {
      "inputs": [],
      "name": "kswapRateToSpecialFarm",
      "outputs": [
        {
          "internalType": "uint256",
          "name": "",
          "type": "uint256"
        }
      ],
      "stateMutability": "view",
      "type": "function"
    },
    {
      "inputs": [],
      "name": "lastBurnedBlock",
      "outputs": [
        {
          "internalType": "uint256",
          "name": "",
          "type": "uint256"
        }
      ],
      "stateMutability": "view",
      "type": "function"
    },
    {
      "inputs": [
        {
          "internalType": "uint256",
          "name": "",
          "type": "uint256"
        }
      ],
      "name": "lpToken",
      "outputs": [
        {
          "internalType": "contract IERC20",
          "name": "",
          "type": "address"
        }
      ],
      "stateMutability": "view",
      "type": "function"
    },
    {
      "inputs": [],
      "name": "massUpdatePools",
      "outputs": [],
      "stateMutability": "nonpayable",
      "type": "function"
    },
    {
      "inputs": [],
      "name": "pause",
      "outputs": [],
      "stateMutability": "nonpayable",
      "type": "function"
    },
    {
      "inputs": [],
      "name": "paused",
      "outputs": [
        {
          "internalType": "bool",
          "name": "",
          "type": "bool"
        }
      ],
      "stateMutability": "view",
      "type": "function"
    },
    {
      "inputs": [
        {
          "internalType": "uint256",
          "name": "_pid",
          "type": "uint256"
        },
        {
          "internalType": "address",
          "name": "_user",
          "type": "address"
        }
      ],
      "name": "pendingKswap",
      "outputs": [
        {
          "internalType": "uint256",
          "name": "",
          "type": "uint256"
        }
      ],
      "stateMutability": "view",
      "type": "function"
    },
    {
      "inputs": [
        {
          "internalType": "uint256[]",
          "name": "_pids",
          "type": "uint256[]"
        },
        {
          "internalType": "address",
          "name": "_user",
          "type": "address"
        }
      ],
      "name": "pendingKswap",
      "outputs": [
        {
          "internalType": "uint256[]",
          "name": "amounts",
          "type": "uint256[]"
        }
      ],
      "stateMutability": "view",
      "type": "function"
    },
    {
      "inputs": [
        {
          "internalType": "uint256",
          "name": "",
          "type": "uint256"
        }
      ],
      "name": "poolInfo",
      "outputs": [
        {
          "internalType": "uint256",
          "name": "accKswapPerShare",
          "type": "uint256"
        },
        {
          "internalType": "uint256",
          "name": "lastRewardBlock",
          "type": "uint256"
        },
        {
          "internalType": "uint256",
          "name": "allocPoint",
          "type": "uint256"
        },
        {
          "internalType": "uint256",
          "name": "totalBoostedShare",
          "type": "uint256"
        },
        {
          "internalType": "bool",
          "name": "isRegular",
          "type": "bool"
        }
      ],
      "stateMutability": "view",
      "type": "function"
    },
    {
      "inputs": [],
      "name": "poolLength",
      "outputs": [
        {
          "internalType": "uint256",
          "name": "pools",
          "type": "uint256"
        }
      ],
      "stateMutability": "view",
      "type": "function"
    },
    {
      "inputs": [],
      "name": "reinitialize2",
      "outputs": [],
      "stateMutability": "nonpayable",
      "type": "function"
    },
    {
      "inputs": [
        {
          "internalType": "address",
          "name": "aprManager",
          "type": "address"
        }
      ],
      "name": "reinitialize3",
      "outputs": [],
      "stateMutability": "nonpayable",
      "type": "function"
    },
    {
      "inputs": [
        {
          "internalType": "bytes32",
          "name": "role",
          "type": "bytes32"
        },
        {
          "internalType": "address",
          "name": "account",
          "type": "address"
        }
      ],
      "name": "renounceRole",
      "outputs": [],
      "stateMutability": "nonpayable",
      "type": "function"
    },
    {
      "inputs": [
        {
          "internalType": "bytes32",
          "name": "role",
          "type": "bytes32"
        },
        {
          "internalType": "address",
          "name": "account",
          "type": "address"
        }
      ],
      "name": "revokeRole",
      "outputs": [],
      "stateMutability": "nonpayable",
      "type": "function"
    },
    {
      "inputs": [
        {
          "components": [
            {
              "internalType": "uint256",
              "name": "pid",
              "type": "uint256"
            },
            {
              "internalType": "uint256",
              "name": "allocPoint",
              "type": "uint256"
            }
          ],
          "internalType": "struct IMasterChefAdmin.SetPoolAllocationInfo[]",
          "name": "poolAlocations",
          "type": "tuple[]"
        },
        {
          "internalType": "bool",
          "name": "_withUpdate",
          "type": "bool"
        }
      ],
      "name": "set",
      "outputs": [],
      "stateMutability": "nonpayable",
      "type": "function"
    },
    {
      "inputs": [
        {
          "internalType": "uint256",
          "name": "_pid",
          "type": "uint256"
        },
        {
          "internalType": "uint256",
          "name": "_allocPoint",
          "type": "uint256"
        },
        {
          "internalType": "bool",
          "name": "_withUpdate",
          "type": "bool"
        }
      ],
      "name": "set",
      "outputs": [],
      "stateMutability": "nonpayable",
      "type": "function"
    },
    {
      "inputs": [
        {
          "internalType": "uint256",
          "name": "_pid",
          "type": "uint256"
        },
        {
          "internalType": "uint256",
          "name": "newLastRewardBlock",
          "type": "uint256"
        }
      ],
      "name": "setPoolLastRewardBlock",
      "outputs": [],
      "stateMutability": "nonpayable",
      "type": "function"
    },
    {
      "inputs": [
        {
          "internalType": "uint256[]",
          "name": "_pids",
          "type": "uint256[]"
        },
        {
          "internalType": "uint256",
          "name": "newLastRewardBlock",
          "type": "uint256"
        }
      ],
      "name": "setPoolLastRewardBlock",
      "outputs": [],
      "stateMutability": "nonpayable",
      "type": "function"
    },
    {
      "inputs": [
        {
          "internalType": "bytes32",
          "name": "role",
          "type": "bytes32"
        },
        {
          "internalType": "bytes32",
          "name": "adminRole",
          "type": "bytes32"
        }
      ],
      "name": "setRoleAdmin",
      "outputs": [],
      "stateMutability": "nonpayable",
      "type": "function"
    },
    {
      "inputs": [
        {
          "internalType": "address",
          "name": "_treasury",
          "type": "address"
        }
      ],
      "name": "setTreasuryAddress",
      "outputs": [],
      "stateMutability": "nonpayable",
      "type": "function"
    },
    {
      "inputs": [],
      "name": "totalRegularAllocPoint",
      "outputs": [
        {
          "internalType": "uint256",
          "name": "",
          "type": "uint256"
        }
      ],
      "stateMutability": "view",
      "type": "function"
    },
    {
      "inputs": [],
      "name": "totalSpecialAllocPoint",
      "outputs": [
        {
          "internalType": "uint256",
          "name": "",
          "type": "uint256"
        }
      ],
      "stateMutability": "view",
      "type": "function"
    },
    {
      "inputs": [],
      "name": "treasury",
      "outputs": [
        {
          "internalType": "address",
          "name": "",
          "type": "address"
        }
      ],
      "stateMutability": "view",
      "type": "function"
    },
    {
      "inputs": [
        {
          "internalType": "address[]",
          "name": "accounts",
          "type": "address[]"
        },
        {
          "internalType": "string[]",
          "name": "reasons",
          "type": "string[]"
        }
      ],
      "name": "unblacklist",
      "outputs": [],
      "stateMutability": "nonpayable",
      "type": "function"
    },
    {
      "inputs": [
        {
          "internalType": "address",
          "name": "account",
          "type": "address"
        },
        {
          "internalType": "string",
          "name": "reason",
          "type": "string"
        }
      ],
      "name": "unblacklist",
      "outputs": [],
      "stateMutability": "nonpayable",
      "type": "function"
    },
    {
      "inputs": [],
      "name": "unpause",
      "outputs": [],
      "stateMutability": "nonpayable",
      "type": "function"
    },
    {
      "inputs": [
        {
          "internalType": "address",
          "name": "_user",
          "type": "address"
        },
        {
          "internalType": "uint256",
          "name": "_pid",
          "type": "uint256"
        },
        {
          "internalType": "uint256",
          "name": "_newMultiplier",
          "type": "uint256"
        }
      ],
      "name": "updateBoostMultiplier",
      "outputs": [],
      "stateMutability": "nonpayable",
      "type": "function"
    },
    {
      "inputs": [
        {
          "internalType": "uint256",
          "name": "_burnRate",
          "type": "uint256"
        },
        {
          "internalType": "uint256",
          "name": "_regularFarmRate",
          "type": "uint256"
        },
        {
          "internalType": "uint256",
          "name": "_specialFarmRate",
          "type": "uint256"
        },
        {
          "internalType": "bool",
          "name": "_withUpdate",
          "type": "bool"
        }
      ],
      "name": "updateKswapRate",
      "outputs": [],
      "stateMutability": "nonpayable",
      "type": "function"
    },
    {
      "inputs": [
        {
          "internalType": "uint256",
          "name": "_pid",
          "type": "uint256"
        }
      ],
      "name": "updatePool",
      "outputs": [
        {
          "components": [
            {
              "internalType": "uint256",
              "name": "accKswapPerShare",
              "type": "uint256"
            },
            {
              "internalType": "uint256",
              "name": "lastRewardBlock",
              "type": "uint256"
            },
            {
              "internalType": "uint256",
              "name": "allocPoint",
              "type": "uint256"
            },
            {
              "internalType": "uint256",
              "name": "totalBoostedShare",
              "type": "uint256"
            },
            {
              "internalType": "bool",
              "name": "isRegular",
              "type": "bool"
            }
          ],
          "internalType": "struct IMasterChef.PoolInfo",
          "name": "pool",
          "type": "tuple"
        }
      ],
      "stateMutability": "nonpayable",
      "type": "function"
    },
    {
      "inputs": [
        {
          "components": [
            {
              "internalType": "uint256",
              "name": "pid",
              "type": "uint256"
            },
            {
              "internalType": "uint256",
              "name": "allocPoint",
              "type": "uint256"
            }
          ],
          "internalType": "struct IMasterChefAdmin.SetPoolAllocationInfo[]",
          "name": "poolAlocations",
          "type": "tuple[]"
        },
        {
          "internalType": "uint256",
          "name": "_burnRate",
          "type": "uint256"
        },
        {
          "internalType": "uint256",
          "name": "_regularFarmRate",
          "type": "uint256"
        },
        {
          "internalType": "uint256",
          "name": "_specialFarmRate",
          "type": "uint256"
        },
        {
          "internalType": "bool",
          "name": "_withUpdate",
          "type": "bool"
        }
      ],
      "name": "updateRatesAndPools",
      "outputs": [],
      "stateMutability": "nonpayable",
      "type": "function"
    },
    {
      "inputs": [
        {
          "internalType": "address",
          "name": "_user",
          "type": "address"
        },
        {
          "internalType": "bool",
          "name": "_isValid",
          "type": "bool"
        }
      ],
      "name": "updateWhiteList",
      "outputs": [],
      "stateMutability": "nonpayable",
      "type": "function"
    },
    {
      "inputs": [
        {
          "internalType": "uint256",
          "name": "",
          "type": "uint256"
        },
        {
          "internalType": "address",
          "name": "",
          "type": "address"
        }
      ],
      "name": "userInfo",
      "outputs": [
        {
          "internalType": "uint256",
          "name": "amount",
          "type": "uint256"
        },
        {
          "internalType": "uint256",
          "name": "rewardDebt",
          "type": "uint256"
        },
        {
          "internalType": "uint256",
          "name": "boostMultiplier",
          "type": "uint256"
        }
      ],
      "stateMutability": "view",
      "type": "function"
    },
    {
      "inputs": [
        {
          "internalType": "address",
          "name": "",
          "type": "address"
        }
      ],
      "name": "whiteList",
      "outputs": [
        {
          "internalType": "bool",
          "name": "",
          "type": "bool"
        }
      ],
      "stateMutability": "view",
      "type": "function"
    },
    {
      "inputs": [
        {
          "internalType": "uint256",
          "name": "_pid",
          "type": "uint256"
        },
        {
          "internalType": "uint256",
          "name": "_amount",
          "type": "uint256"
        }
      ],
      "name": "withdraw",
      "outputs": [],
      "stateMutability": "nonpayable",
      "type": "function"
    }
  ],
  "transactionHash": "0x5e3b95b4ce9b7c697037a40ce9c0335bcc723140305fa8bfd73db81db353f114",
  "args": [],
  "numDeployments": 5,
  "solcInputHash": "271118678a0ad32ab739d46cb7a8f861",
  "bytecode": "0x608060405234801561001057600080fd5b506158a180620000216000396000f3fe608060405234801561001057600080fd5b50600436106103d05760003560e01c80637577e2c3116101ff578063ac6568891161011a578063e1187d4e116100ad578063f41c8d961161007c578063f41c8d961461092b578063fb3b6c2a1461093e578063fe4a004514610951578063fe575a871461095957600080fd5b8063e1187d4e146108b7578063e2bbb158146108de578063e3396735146108f1578063e671e5fc1461091857600080fd5b8063ce5da407116100e9578063ce5da4071461086b578063d1e6c30c1461087e578063d547741f14610891578063ddf579ff146108a457600080fd5b8063ac6568891461083f578063c40d337b1461084f578063ca15c87314610858578063cc6db2da1461052d57600080fd5b80639010d07c1161019257806399d7e84a1161016157806399d7e84a146107fd578063a3cc8adb14610806578063a8c2825914610819578063ac1d06091461082c57600080fd5b80639010d07c1461076257806391d148541461077557806393f1a40b146107885780639651f73d146107dd57600080fd5b80637a994efd116101ce5780637a994efd1461071e5780638456cb591461072757806389320c4a1461072f5780638dca75db1461074f57600080fd5b80637577e2c3146106dc57806378d28781146106ef57806378db4c341461070257806378ed5d1f1461070b57600080fd5b80633d788830116102ef5780635a7894181161028257806364482f791161025157806364482f79146106965780636605bfda146106a957806369b02128146106bc5780636ebb16d3146106c957600080fd5b80635a789418146106535780635c975abb1461066657806361d027b31461066e578063630b5ba11461068e57600080fd5b80634c0e5a59116102be5780634c0e5a59146105b657806351eb05a6146105c95780635312ea8e1461062057806357b46f881461063357600080fd5b80633d7888301461057f5780633e0ca005146105925780633f4ba83a1461059b578063441a3e70146105a357600080fd5b80631c748775116103675780632f2ff15d116103365780632f2ff15d1461051a578063325d186d1461052d57806336568abe14610539578063372c12b11461054c57600080fd5b80631c748775146104885780631e4e0091146104cd578063248a9ca3146104e0578063297bf35b146104f357600080fd5b80630ee52058116103a35780630ee520581461042157806311223c32146104305780631526fe2714610438578063186d38301461047557600080fd5b8063033186e8146103d5578063041a84c9146103fb5780630433985b14610410578063081e3eda14610419575b600080fd5b6103e86103e3366004614de5565b61096c565b6040519081526020015b60405180910390f35b61040e610409366004614e11565b6109c2565b005b6103e8600b5481565b6004546103e8565b6103e8670de0b6b3a764000081565b61040e610e82565b61044b610446366004614e46565b611133565b6040805195865260208601949094529284019190915260608301521515608082015260a0016103f2565b61040e610483366004614eab565b611177565b6003546104a89073ffffffffffffffffffffffffffffffffffffffff1681565b60405173ffffffffffffffffffffffffffffffffffffffff90911681526020016103f2565b61040e6104db366004614f17565b611344565b6103e86104ee366004614e46565b61138c565b6103e87f603ae08765bc5fad7a971952007e4e84ddd8001052efaad946bd8a191e1870df81565b61040e610528366004614f39565b6113c2565b6103e864e8d4a5100081565b61040e610547366004614f39565b611406565b61056f61055a366004614f69565b60076020526000908152604090205460ff1681565b60405190151581526020016103f2565b61040e61058d366004614f86565b6114b5565b6103e8600a5481565b61040e61152b565b61040e6105b1366004614f17565b611566565b61040e6105c436600461501b565b611829565b6105dc6105d7366004614e46565b6118b7565b6040516103f29190600060a0820190508251825260208301516020830152604083015160408301526060830151606083015260808301511515608083015292915050565b61040e61062e366004614e46565b611c0a565b6000546104a89073ffffffffffffffffffffffffffffffffffffffff1681565b6103e8610661366004615072565b611db4565b61056f611e0a565b6001546104a89073ffffffffffffffffffffffffffffffffffffffff1681565b61040e611e3c565b61040e6106a436600461508f565b611ed4565b61040e6106b7366004614f69565b611f15565b6103e86501d1a94a200081565b61056f6106d736600461515f565b612011565b61040e6106ea3660046151f3565b61201c565b6103e86106fd366004614f39565b612052565b6103e8600d5481565b6104a8610719366004614e46565b6121e9565b6103e8600c5481565b61040e612220565b6002546104a89073ffffffffffffffffffffffffffffffffffffffff1681565b61040e61075d366004614f69565b612259565b6104a8610770366004614f17565b6125d3565b61056f610783366004614f39565b6125e6565b6107c2610796366004614f39565b600660209081526000928352604080842090915290825290208054600182015460029092015490919083565b604080519384526020840192909252908201526060016103f2565b6107f06107eb366004615252565b6125f2565b6040516103f2919061529e565b6103e860095481565b61040e6108143660046152e2565b612693565b61040e610827366004615355565b612727565b61040e61083a366004615396565b612769565b6103e868022b1c8c1227a0000081565b6103e860085481565b6103e8610866366004614e46565b6128c0565b61040e610879366004614eab565b6128cb565b61040e61088c3660046153c4565b612a8a565b61040e61089f366004614f39565b612af3565b61040e6108b23660046153c4565b612b2d565b6103e87f479f15b0e08868e42ef233090518d51c94299977f5d2c05187e9393b22eace4e81565b61040e6108ec366004614f17565b612b96565b6103e87f64b4740f54156feb06b7a9f424e5bce966a52344cf27635887cf63c0ebf2a61e81565b61040e610926366004614f17565b612ff5565b61040e610939366004615072565b6130ea565b61040e61094c366004615449565b61318a565b6103e8613208565b61056f610967366004614f69565b613231565b600081815260066020908152604080832073ffffffffffffffffffffffffffffffffffffffff8616845290915281206002015464e8d4a5100081116109b65764e8d4a510006109b8565b805b9150505b92915050565b7fd370c446e45a741b5961ac03f05d57d1a5768014420ffedc28dbab09fedaee5954600203610a1d576040517f3ee5aeb500000000000000000000000000000000000000000000000000000000815260040160405180910390fd5b610a4660027fd370c446e45a741b5961ac03f05d57d1a5768014420ffedc28dbab09fedaee5955565b610a6f7f479f15b0e08868e42ef233090518d51c94299977f5d2c05187e9393b22eace4e61327e565b73ffffffffffffffffffffffffffffffffffffffff8316610b17576040517f08c379a000000000000000000000000000000000000000000000000000000000815260206004820152602a60248201527f4d6173746572436865663a2054686520757365722061646472657373206d757360448201527f742062652076616c69640000000000000000000000000000000000000000000060648201526084015b60405180910390fd5b60048281548110610b2a57610b2a6154e0565b600091825260209091206004600590920201015460ff16610bcd576040517f08c379a000000000000000000000000000000000000000000000000000000000815260206004820152602e60248201527f4d6173746572436865663a204f6e6c7920726567756c6172206661726d20636f60448201527f756c6420626520626f6f737465640000000000000000000000000000000000006064820152608401610b0e565b64e8d4a510008110158015610be857506501d1a94a20008111155b610c74576040517f08c379a000000000000000000000000000000000000000000000000000000000815260206004820152602860248201527f4d6173746572436865663a20496e76616c6964206e657720626f6f7374206d7560448201527f6c7469706c6965720000000000000000000000000000000000000000000000006064820152608401610b0e565b6000610c7f836118b7565b600084815260066020908152604080832073ffffffffffffffffffffffffffffffffffffffff891684529091528120919250610cbb868661096c565b9050610cc8868683613288565b610d08670de0b6b3a7640000610cfc8560000151610d0264e8d4a51000610cfc8a896000015461336290919063ffffffff16565b9061336e565b90613362565b60018301558154610d5490610d289064e8d4a5100090610cfc9088613362565b8354610d4e90610d439064e8d4a5100090610cfc9087613362565b60608701519061337a565b90613386565b60608401526004805484919087908110610d7057610d706154e0565b600091825260208083208451600593909302019182558381015160018301556040808501516002808501919091556060808701516003860155608090960151600490940180547fffffffffffffffffffffffffffffffffffffffffffffffffffffffffffffff0016941515949094179093558984526006825280842073ffffffffffffffffffffffffffffffffffffffff8c1680865290835293819020909201889055815189815290810185905290810187905290917f01abd62439b64f6c5dab6f94d56099495bd0c094f9c21f98f4d3562a21edb4ba910160405180910390a2505050610e7d60017fd370c446e45a741b5961ac03f05d57d1a5768014420ffedc28dbab09fedaee5955565b505050565b7fb53127684a568b3173ae13b9f8a6016e243e63b6e8ee1178d6a717850b5d61035473ffffffffffffffffffffffffffffffffffffffff163373ffffffffffffffffffffffffffffffffffffffff1614610f38576040517f08c379a000000000000000000000000000000000000000000000000000000000815260206004820152600e60248201527f4e4f545f415554484f52495a45440000000000000000000000000000000000006044820152606401610b0e565b7f0de7f2b0af5ab1aa4eca2b133cdee828bdcfefa98e4927fa304b2ad002ca6eb354600290610100900460ff1680610f9757507f0de7f2b0af5ab1aa4eca2b133cdee828bdcfefa98e4927fa304b2ad002ca6eb35460ff808316911610155b15610fd3576040517fbfdd178500000000000000000000000000000000000000000000000000000000815260ff82166004820152602401610b0e565b610fdc81613392565b7f0de7f2b0af5ab1aa4eca2b133cdee828bdcfefa98e4927fa304b2ad002ca6eb380547fffffffffffffffffffffffffffffffffffffffffffffffffffffffffffff00ff1661010017905560006110517fb53127684a568b3173ae13b9f8a6016e243e63b6e8ee1178d6a717850b5d61035490565b905061105e60008261344a565b6110887f241ecf16d79d0f8dbfb92cbc07fe17840425976cf0667f022fe9877caa831b088261344a565b6110b27f64b4740f54156feb06b7a9f424e5bce966a52344cf27635887cf63c0ebf2a61e8261344a565b507f0de7f2b0af5ab1aa4eca2b133cdee828bdcfefa98e4927fa304b2ad002ca6eb380547fffffffffffffffffffffffffffffffffffffffffffffffffffffffffffff00ff16905560405160ff821681527f7f26b83ff96e1f2b6a682f133852f6798a09c465da95921460cefb38474024989060200160405180910390a150565b6004818154811061114357600080fd5b6000918252602090912060059091020180546001820154600283015460038401546004909401549294509092909160ff1685565b6111a07ff988e4fb62b8e14f4820fed03192306ddf4d7dbfa215595ba1c6ba4b76b369ee61327e565b80156112e057828114611235576040517f08c379a000000000000000000000000000000000000000000000000000000000815260206004820152602360248201527f53696d706c65426c61636b6c6973743a204e6f7420656e6f756768207265617360448201527f6f6e7300000000000000000000000000000000000000000000000000000000006064820152608401610b0e565b60005b838110156112da576112c8858583818110611255576112556154e0565b905060200201602081019061126a9190614f69565b84848481811061127c5761127c6154e0565b905060200281019061128e919061550f565b8080601f01602080910402602001604051908101604052809392919081815260200183838082843760009201919091525061354c92505050565b806112d2816155a3565b915050611238565b5061133e565b60005b8381101561133c5761132a858583818110611300576113006154e0565b90506020020160208101906113159190614f69565b6040518060200160405280600081525061354c565b80611334816155a3565b9150506112e3565b505b50505050565b60008281527fffaa26784aca465bf23123375047d80ccb2b41102e02e5c4ef5b5aa00624b2d2602052604090206001015461137e9061327e565b611388828261365d565b5050565b60008181527fffaa26784aca465bf23123375047d80ccb2b41102e02e5c4ef5b5aa00624b2d260205260408120600101546109bc565b60008281527fffaa26784aca465bf23123375047d80ccb2b41102e02e5c4ef5b5aa00624b2d260205260409020600101546113fc9061327e565b611388828261344a565b73ffffffffffffffffffffffffffffffffffffffff811633146114ab576040517f08c379a000000000000000000000000000000000000000000000000000000000815260206004820152602f60248201527f416363657373436f6e74726f6c3a2063616e206f6e6c792072656e6f756e636560448201527f20726f6c657320666f722073656c6600000000000000000000000000000000006064820152608401610b0e565b61138882826136c7565b60005b81811015610e7d576114e18383838181106114d5576114d56154e0565b905060200201356118b7565b50611526338484848181106114f8576114f86154e0565b9050602002013561152133878787818110611515576115156154e0565b9050602002013561096c565b613288565b6114b8565b6115547f356a809dfdea9198dd76fb76bf6d403ecf13ea675eb89e1eda2db2c4a4676a2661327e565b61155c6137c7565b611564613882565b565b7fd370c446e45a741b5961ac03f05d57d1a5768014420ffedc28dbab09fedaee59546002036115c1576040517f3ee5aeb500000000000000000000000000000000000000000000000000000000815260040160405180910390fd5b6115ea60027fd370c446e45a741b5961ac03f05d57d1a5768014420ffedc28dbab09fedaee5955565b6115f26138ff565b6115fb336139bb565b6000611606836118b7565b6000848152600660209081526040808320338452909152902080549192509083111561168e576040517f08c379a000000000000000000000000000000000000000000000000000000000815260206004820152601660248201527f77697468647261773a20496e73756666696369656e74000000000000000000006044820152606401610b0e565b600061169a338661096c565b90506116a7338683613288565b83156117025781546116b9908561337a565b82600001819055506117023385600588815481106116d9576116d96154e0565b60009182526020909120015473ffffffffffffffffffffffffffffffffffffffff1691906139c4565b611736670de0b6b3a7640000610cfc8560000151610d0264e8d4a51000610cfc87896000015461336290919063ffffffff16565b600183015561178461175164e8d4a51000610cfc8785613362565b60048781548110611764576117646154e0565b90600052602060002090600502016003015461337a90919063ffffffff16565b60048681548110611797576117976154e0565b906000526020600020906005020160030181905550843373ffffffffffffffffffffffffffffffffffffffff167ff279e6a1f5e320cca91135676d9cb6e44ca8a08c0b88342bcdb1144f6511b568866040516117f591815260200190565b60405180910390a350505061138860017fd370c446e45a741b5961ac03f05d57d1a5768014420ffedc28dbab09fedaee5955565b6118527f241ecf16d79d0f8dbfb92cbc07fe17840425976cf0667f022fe9877caa831b0861327e565b801561186057611860611e3c565b6000825b8082101561133c576118ac858584818110611881576118816154e0565b9050604002016000013586868581811061189d5761189d6154e0565b90506040020160200135613a98565b816001019150611864565b6118eb6040518060a00160405280600081526020016000815260200160008152602001600081526020016000151581525090565b600482815481106118fe576118fe6154e0565b60009182526020918290206040805160a0810182526005909302909101805483526001810154938301849052600281015491830191909152600381015460608301526004015460ff16151560808201529150431115611c05576060810151608082015160009061197057600954611974565b6008545b90506000821180156119865750600081115b15611b315760006119a484602001514361337a90919063ffffffff16565b905060006119cb83610cfc8760400151610d026119c48a60800151611db4565b8790613362565b90506119ee6119e685610cfc84670de0b6b3a7640000613362565b865190613386565b855260005460015473ffffffffffffffffffffffffffffffffffffffff918216916340c10f199116611a2184600a61336e565b6040517fffffffff0000000000000000000000000000000000000000000000000000000060e085901b16815273ffffffffffffffffffffffffffffffffffffffff90921660048301526024820152604401600060405180830381600087803b158015611a8c57600080fd5b505af1158015611aa0573d6000803e3d6000fd5b50506000546040517f40c10f190000000000000000000000000000000000000000000000000000000081523060048201526024810185905273ffffffffffffffffffffffffffffffffffffffff90911692506340c10f199150604401600060405180830381600087803b158015611b1657600080fd5b505af1158015611b2a573d6000803e3d6000fd5b5050505050505b4360208401526004805484919086908110611b4e57611b4e6154e0565b600091825260209182902083516005929092020190815582820151600182015560408084015160028301556060808501516003840155608090940151600490920180547fffffffffffffffffffffffffffffffffffffffffffffffffffffffffffffff00169215159290921790915585820151865182519182529281018690529081019190915285917f3be3541fc42237d611b30329040bfa4569541d156560acdbbae57640d20b8f46910160405180910390a250505b919050565b7fd370c446e45a741b5961ac03f05d57d1a5768014420ffedc28dbab09fedaee5954600203611c65576040517f3ee5aeb500000000000000000000000000000000000000000000000000000000815260040160405180910390fd5b611c8e60027fd370c446e45a741b5961ac03f05d57d1a5768014420ffedc28dbab09fedaee5955565b611c966138ff565b611c9f336139bb565b600060048281548110611cb457611cb46154e0565b600091825260208083208584526006825260408085203380875293528420805485825560018201869055600590940290910194509290611d0a9064e8d4a5100090610cfc90611d03908961096c565b8590613362565b905080846003015411611d1e576000611d2d565b6003840154611d2d908261337a565b8460030181905550611d4d3383600588815481106116d9576116d96154e0565b604051828152859033907fbb757047c2b5f3974fe26b7c10f732e7bce710b0952a71082702781e62ae05959060200160405180910390a350505050611db160017fd370c446e45a741b5961ac03f05d57d1a5768014420ffedc28dbab09fedaee5955565b50565b60008115611de3576109bc64e8d4a51000610cfc600b5468022b1c8c1227a0000061336290919063ffffffff16565b6109bc64e8d4a51000610cfc600c5468022b1c8c1227a0000061336290919063ffffffff16565b6000611e377fb65939979d77055fe20d21bcb90b95461947bffa39f3588194f5015117626ea75460ff1690565b905090565b60045460005b8181101561138857600060048281548110611e5f57611e5f6154e0565b60009182526020918290206040805160a08101825260059093029091018054835260018101549383019390935260028301549082018190526003830154606083015260049092015460ff1615156080820152915015611ec357611ec1826118b7565b505b50611ecd816155a3565b9050611e42565b611efd7f241ecf16d79d0f8dbfb92cbc07fe17840425976cf0667f022fe9877caa831b0861327e565b8015611f0b57611f0b611e3c565b610e7d8383613a98565b60015473ffffffffffffffffffffffffffffffffffffffff163314611f96576040517f08c379a000000000000000000000000000000000000000000000000000000000815260206004820152600960248201527f6465763a207775743f00000000000000000000000000000000000000000000006044820152606401610b0e565b600180547fffffffffffffffffffffffff00000000000000000000000000000000000000001673ffffffffffffffffffffffffffffffffffffffff831690811790915560405190815233907f61885cdba916be748ff3e3f6f15e4206153b8ea3b7acabade9d04b4063a835109060200160405180910390a250565b60006109bc82613bb2565b6120457f241ecf16d79d0f8dbfb92cbc07fe17840425976cf0667f022fe9877caa831b0861327e565b61133c8585858585613c4f565b60008060048481548110612068576120686154e0565b600091825260208083206040805160a081018252600590940290910180548452600180820154858501908152600280840154878601526003840154606080890191825260049095015460ff16151560808901528c89526006875285892073ffffffffffffffffffffffffffffffffffffffff8d168a52875297859020855194850186528054855292830154958401959095529301549181019190915282519351915192945092914311801561211c57508015155b1561219557600061213a85602001514361337a90919063ffffffff16565b9050600061216e866080015161215257600954612156565b6008545b610cfc8860400151610d026119c48b60800151611db4565b905061219061218984610cfc84670de0b6b3a7640000613362565b8590613386565b935050505b60006121b564e8d4a51000610cfc6121ad8a8c61096c565b875190613362565b60208501519091506121dd906121d7670de0b6b3a7640000610cfc8588613362565b9061337a565b98975050505050505050565b600581815481106121f957600080fd5b60009182526020909120015473ffffffffffffffffffffffffffffffffffffffff16905081565b6122497f356a809dfdea9198dd76fb76bf6d403ecf13ea675eb89e1eda2db2c4a4676a2661327e565b6122516138ff565b611564613fba565b7fb53127684a568b3173ae13b9f8a6016e243e63b6e8ee1178d6a717850b5d61035473ffffffffffffffffffffffffffffffffffffffff163373ffffffffffffffffffffffffffffffffffffffff161461230f576040517f08c379a000000000000000000000000000000000000000000000000000000000815260206004820152600e60248201527f4e4f545f415554484f52495a45440000000000000000000000000000000000006044820152606401610b0e565b7f0de7f2b0af5ab1aa4eca2b133cdee828bdcfefa98e4927fa304b2ad002ca6eb354600390610100900460ff168061236e57507f0de7f2b0af5ab1aa4eca2b133cdee828bdcfefa98e4927fa304b2ad002ca6eb35460ff808316911610155b156123aa576040517fbfdd178500000000000000000000000000000000000000000000000000000000815260ff82166004820152602401610b0e565b6123b381613392565b7f0de7f2b0af5ab1aa4eca2b133cdee828bdcfefa98e4927fa304b2ad002ca6eb380547fffffffffffffffffffffffffffffffffffffffffffffffffffffffffffff00ff1661010017905560006124287fb53127684a568b3173ae13b9f8a6016e243e63b6e8ee1178d6a717850b5d61035490565b90503373ffffffffffffffffffffffffffffffffffffffff8216146124a9576040517f08c379a000000000000000000000000000000000000000000000000000000000815260206004820152601960248201527f4f6e6c79206f776e65722063616e20696e697469616c697a65000000000000006044820152606401610b0e565b6124d37f603ae08765bc5fad7a971952007e4e84ddd8001052efaad946bd8a191e1870df8261344a565b6124fd7f479f15b0e08868e42ef233090518d51c94299977f5d2c05187e9393b22eace4e8261344a565b6125277f603ae08765bc5fad7a971952007e4e84ddd8001052efaad946bd8a191e1870df8461344a565b6125517f64b4740f54156feb06b7a9f424e5bce966a52344cf27635887cf63c0ebf2a61e8461344a565b507f0de7f2b0af5ab1aa4eca2b133cdee828bdcfefa98e4927fa304b2ad002ca6eb380547fffffffffffffffffffffffffffffffffffffffffffffffffffffffffffff00ff16905560405160ff821681527f7f26b83ff96e1f2b6a682f133852f6798a09c465da95921460cefb38474024989060200160405180910390a15050565b60006125df8383614034565b9392505050565b60006125df838361406b565b606060008367ffffffffffffffff81111561260f5761260f6150bd565b604051908082528060200260200182016040528015612638578160200160208202803683370190505b5091505b8381101561268b57612666858583818110612659576126596154e0565b9050602002013584612052565b828281518110612678576126786154e0565b602090810291909101015260010161263c565b509392505050565b6126bc7f64b4740f54156feb06b7a9f424e5bce966a52344cf27635887cf63c0ebf2a61e61327e565b80156126ca576126ca611e3c565b6000855b80821015612712576127078888848181106126eb576126eb6154e0565b9050604002016000013589898581811061189d5761189d6154e0565b8160010191506126ce565b61271d86868661415e565b5050505050505050565b6127507f64b4740f54156feb06b7a9f424e5bce966a52344cf27635887cf63c0ebf2a61e61327e565b801561275e5761275e611e3c565b61133e84848461415e565b6127927f241ecf16d79d0f8dbfb92cbc07fe17840425976cf0667f022fe9877caa831b0861327e565b73ffffffffffffffffffffffffffffffffffffffff8216612835576040517f08c379a000000000000000000000000000000000000000000000000000000000815260206004820152603060248201527f4d6173746572436865663a20546865207768697465206c69737420616464726560448201527f7373206d7573742062652076616c6964000000000000000000000000000000006064820152608401610b0e565b73ffffffffffffffffffffffffffffffffffffffff821660008181526007602090815260409182902080547fffffffffffffffffffffffffffffffffffffffffffffffffffffffffffffff001685151590811790915591519182527fc551bbb22d0406dbfb8b6b7740cc521bcf44e1106029cf899c19b6a8e4c99d5191015b60405180910390a25050565b60006109bc82614306565b6128f47ff988e4fb62b8e14f4820fed03192306ddf4d7dbfa215595ba1c6ba4b76b369ee61327e565b8015612a2e57828114612989576040517f08c379a000000000000000000000000000000000000000000000000000000000815260206004820152602360248201527f53696d706c65426c61636b6c6973743a204e6f7420656e6f756768207265617360448201527f6f6e7300000000000000000000000000000000000000000000000000000000006064820152608401610b0e565b60005b838110156112da57612a1c8585838181106129a9576129a96154e0565b90506020020160208101906129be9190614f69565b8484848181106129d0576129d06154e0565b90506020028101906129e2919061550f565b8080601f01602080910402602001604051908101604052809392919081815260200183838082843760009201919091525061433c92505050565b80612a26816155a3565b91505061298c565b60005b8381101561133c57612a78858583818110612a4e57612a4e6154e0565b9050602002016020810190612a639190614f69565b6040518060200160405280600081525061433c565b80612a82816155a3565b915050612a31565b612ab37ff988e4fb62b8e14f4820fed03192306ddf4d7dbfa215595ba1c6ba4b76b369ee61327e565b610e7d8383838080601f01602080910402602001604051908101604052809392919081815260200183838082843760009201919091525061354c92505050565b60008281527fffaa26784aca465bf23123375047d80ccb2b41102e02e5c4ef5b5aa00624b2d260205260409020600101546114ab9061327e565b612b567ff988e4fb62b8e14f4820fed03192306ddf4d7dbfa215595ba1c6ba4b76b369ee61327e565b610e7d8383838080601f01602080910402602001604051908101604052809392919081815260200183838082843760009201919091525061433c92505050565b7fd370c446e45a741b5961ac03f05d57d1a5768014420ffedc28dbab09fedaee5954600203612bf1576040517f3ee5aeb500000000000000000000000000000000000000000000000000000000815260040160405180910390fd5b612c1a60027fd370c446e45a741b5961ac03f05d57d1a5768014420ffedc28dbab09fedaee5955565b612c226138ff565b612c2b336139bb565b6000612c36836118b7565b6000848152600660209081526040808320338452909152902060808201519192509080612c7257503360009081526007602052604090205460ff165b612d0057604080517f08c379a00000000000000000000000000000000000000000000000000000000081526020600482015260248101919091527f4d6173746572436865663a205468652061646472657373206973206e6f74206160448201527f7661696c61626c6520746f206465706f73697420696e207468697320706f6f6c6064820152608401610b0e565b6000612d0c338661096c565b825490915015612d2157612d21338683613288565b8315612f0757600060058681548110612d3c57612d3c6154e0565b6000918252602090912001546040517f70a0823100000000000000000000000000000000000000000000000000000000815230600482015273ffffffffffffffffffffffffffffffffffffffff909116906370a0823190602401602060405180830381865afa158015612db3573d6000803e3d6000fd5b505050506040513d601f19601f82011682018060405250810190612dd791906155db565b9050612e1c33308760058a81548110612df257612df26154e0565b60009182526020909120015473ffffffffffffffffffffffffffffffffffffffff1692919061444f565b612ece8160058881548110612e3357612e336154e0565b6000918252602090912001546040517f70a0823100000000000000000000000000000000000000000000000000000000815230600482015273ffffffffffffffffffffffffffffffffffffffff909116906370a0823190602401602060405180830381865afa158015612eaa573d6000803e3d6000fd5b505050506040513d601f19601f820116820180604052508101906121d791906155db565b8354909550612edd9086613386565b8355612f00612ef564e8d4a51000610cfc8886613362565b606086015190613386565b6060850152505b612f3b670de0b6b3a7640000610cfc8560000151610d0264e8d4a51000610cfc87896000015461336290919063ffffffff16565b82600101819055508260048681548110612f5757612f576154e0565b6000918252602091829020835160059290920201908155828201516001820155604080840151600283015560608401516003830155608090930151600490910180547fffffffffffffffffffffffffffffffffffffffffffffffffffffffffffffff00169115159190911790559051858152869133917f90890809c654f11d6e72a28fa60149770a0d11ec6c92319d6ceb2bb0a4ea1a1591016117f5565b61301e7f241ecf16d79d0f8dbfb92cbc07fe17840425976cf0667f022fe9877caa831b0861327e565b600060048381548110613033576130336154e0565b906000526020600020906005020160010154905043811180156130565750438210155b6130bc576040517f08c379a000000000000000000000000000000000000000000000000000000000815260206004820152601460248201527f43616e2774206d6f6469667920686973746f72790000000000000000000000006044820152606401610b0e565b81600484815481106130d0576130d06154e0565b906000526020600020906005020160010181905550505050565b6131137f603ae08765bc5fad7a971952007e4e84ddd8001052efaad946bd8a191e1870df61327e565b801561312157613121611e3c565b6000613138600d544361337a90919063ffffffff16565b9050600061314e613147613208565b8390613362565b905061318161317b7fb53127684a568b3173ae13b9f8a6016e243e63b6e8ee1178d6a717850b5d61035490565b826144ad565b505043600d5550565b6131b37f241ecf16d79d0f8dbfb92cbc07fe17840425976cf0667f022fe9877caa831b0861327e565b806000036131c9576131c64360c86155f4565b90505b60005b8251811015610e7d576131f88382815181106131ea576131ea6154e0565b602002602001015183612ff5565b613201816155a3565b90506131cc565b6000611e3764e8d4a51000610cfc600a5468022b1c8c1227a0000061336290919063ffffffff16565b73ffffffffffffffffffffffffffffffffffffffff811660009081527fdd021e813d5056b401d30ba505d211a2ca2652076f58ad407a75764b92ed7d9d602052604081205460ff166109bc565b611db18133614578565b600082815260066020908152604080832073ffffffffffffffffffffffffffffffffffffffff871684528252808320815160608101835281548082526001830154948201949094526002909101549181019190915291906132f49064e8d4a5100090610cfc9086613362565b90506000613332670de0b6b3a7640000610cfc6004888154811061331a5761331a6154e0565b60009182526020909120600590910201548590613362565b9050600061334d84602001518361337a90919063ffffffff16565b905061335987826144ad565b50505050505050565b60006125df8284615607565b60006125df828461561e565b60006125df8284615659565b60006125df82846155f4565b7f0de7f2b0af5ab1aa4eca2b133cdee828bdcfefa98e4927fa304b2ad002ca6eb35460ff8083169116106133f7576040517fbfdd178500000000000000000000000000000000000000000000000000000000815260ff82166004820152602401610b0e565b7f0de7f2b0af5ab1aa4eca2b133cdee828bdcfefa98e4927fa304b2ad002ca6eb380547fffffffffffffffffffffffffffffffffffffffffffffffffffffffffffffff001660ff92909216919091179055565b613454828261406b565b6113885760008281527fffaa26784aca465bf23123375047d80ccb2b41102e02e5c4ef5b5aa00624b2d26020908152604080832073ffffffffffffffffffffffffffffffffffffffff85168452825280832080547fffffffffffffffffffffffffffffffffffffffffffffffffffffffffffffff001660011790558483527fffaa26784aca465bf23123375047d80ccb2b41102e02e5c4ef5b5aa00624b2d390915290206135029082614621565b50604051339073ffffffffffffffffffffffffffffffffffffffff83169084907f2f8788117e7eff1d82e926ec794901d17c78024a50270940304540a733656f0d90600090a45050565b73ffffffffffffffffffffffffffffffffffffffff821660009081527fdd021e813d5056b401d30ba505d211a2ca2652076f58ad407a75764b92ed7d9d602052604090205460ff16156113885773ffffffffffffffffffffffffffffffffffffffff821660009081527fdd021e813d5056b401d30ba505d211a2ca2652076f58ad407a75764b92ed7d9d60205260409081902080547fffffffffffffffffffffffffffffffffffffffffffffffffffffffffffffff0016905551613611908290615690565b6040519081900381209073ffffffffffffffffffffffffffffffffffffffff8416907fe4e3c0e67592981f9042a3df81ea0ee0dfb06be469efdbd2bfc674ab37ab62fe90600090a35050565b60008281527fffaa26784aca465bf23123375047d80ccb2b41102e02e5c4ef5b5aa00624b2d26020526040808220600101805490849055905190918391839186917fbd79b86ffe0ab8e8776151514217cd7cacd52c909f66475c3af44e129f0b00ff9190a4505050565b6136d1828261406b565b156113885760008281527fffaa26784aca465bf23123375047d80ccb2b41102e02e5c4ef5b5aa00624b2d26020908152604080832073ffffffffffffffffffffffffffffffffffffffff85168452825280832080547fffffffffffffffffffffffffffffffffffffffffffffffffffffffffffffff001690558483527fffaa26784aca465bf23123375047d80ccb2b41102e02e5c4ef5b5aa00624b2d3909152902061377d9082614643565b50604051339073ffffffffffffffffffffffffffffffffffffffff83169084907ff6391f5c32d9c69d2a47ea670b442974b53935d1edc7fd64eb21e047a839171b90600090a45050565b7fb65939979d77055fe20d21bcb90b95461947bffa39f3588194f5015117626ea75460ff168061381c575061381c7fda6fac9f81a22bb02ed26455dcee2a5f2434c8a3377a2cc986478052c1594f9e3361406b565b611564576040517f08c379a000000000000000000000000000000000000000000000000000000000815260206004820152601460248201527f5061757361626c653a206e6f74207061757365640000000000000000000000006044820152606401610b0e565b7fb65939979d77055fe20d21bcb90b95461947bffa39f3588194f5015117626ea780547fffffffffffffffffffffffffffffffffffffffffffffffffffffffffffffff001690556040513381527f5db9ee0a495bf2e6ff9c91a7834c1ba4fdd244a5e8aa4e537bd38aeae4b073aa906020015b60405180910390a1565b7fb65939979d77055fe20d21bcb90b95461947bffa39f3588194f5015117626ea75460ff16158061395557506139557fda6fac9f81a22bb02ed26455dcee2a5f2434c8a3377a2cc986478052c1594f9e3361406b565b611564576040517f08c379a000000000000000000000000000000000000000000000000000000000815260206004820152601060248201527f5061757361626c653a20706175736564000000000000000000000000000000006044820152606401610b0e565b611db181614665565b60405173ffffffffffffffffffffffffffffffffffffffff8316602482015260448101829052610e7d9084907fa9059cbb00000000000000000000000000000000000000000000000000000000906064015b604080517fffffffffffffffffffffffffffffffffffffffffffffffffffffffffffffffe08184030181529190526020810180517bffffffffffffffffffffffffffffffffffffffffffffffffffffffff167fffffffff00000000000000000000000000000000000000000000000000000000909316929092179091526146e3565b613aa1826118b7565b5060048281548110613ab557613ab56154e0565b600091825260209091206004600590920201015460ff1615613b1657613b0e81610d4e60048581548110613aeb57613aeb6154e0565b90600052602060002090600502016002015460085461337a90919063ffffffff16565b600855613b57565b613b5381610d4e60048581548110613b3057613b306154e0565b90600052602060002090600502016002015460095461337a90919063ffffffff16565b6009555b8060048381548110613b6b57613b6b6154e0565b906000526020600020906005020160020181905550817fc0cfd54d2de2b55f1e6e108d3ec53ff0a1abe6055401d32c61e9433b747ef9f8826040516128b491815260200190565b6000805b8251811015613c4657613c26838281518110613bd457613bd46154e0565b602002602001015173ffffffffffffffffffffffffffffffffffffffff1660009081527fdd021e813d5056b401d30ba505d211a2ca2652076f58ad407a75764b92ed7d9d602052604090205460ff1690565b15613c345750600192915050565b80613c3e816155a3565b915050613bb6565b50600092915050565b6040517f70a0823100000000000000000000000000000000000000000000000000000000815230600482015260009073ffffffffffffffffffffffffffffffffffffffff8616906370a0823190602401602060405180830381865afa158015613cbc573d6000803e3d6000fd5b505050506040513d601f19601f82011682018060405250810190613ce091906155db565b1015613d48576040517f08c379a000000000000000000000000000000000000000000000000000000000815260206004820152601160248201527f4e6f6e6520424550323020746f6b656e730000000000000000000000000000006044820152606401610b0e565b60005473ffffffffffffffffffffffffffffffffffffffff90811690851603613df3576040517f08c379a000000000000000000000000000000000000000000000000000000000815260206004820152602860248201527f4b5357415020746f6b656e2063616e277420626520616464656420746f20666160448201527f726d20706f6f6c730000000000000000000000000000000000000000000000006064820152608401610b0e565b8015613e0157613e01611e3c565b8215613e1c57600854613e149086613386565b600855613e2d565b600954613e299086613386565b6009555b6005805460018101825560009182527f036b6384b5eca791c62761152d0c79bb0604c104a5fb6f4eb0703f3154bb3db00180547fffffffffffffffffffffffff00000000000000000000000000000000000000001673ffffffffffffffffffffffffffffffffffffffff87161790556040805160a0810190915290815260049060208101438511613ec857613ec34360c86155f4565b613eca565b845b8152602080820189905260006040808401829052881515606094850152855460018082018855968352918390208551600593840290910190815592850151838701558401516002830155918301516003820155608090920151600490920180547fffffffffffffffffffffffffffffffffffffffffffffffffffffffffffffff0016921515929092179091555473ffffffffffffffffffffffffffffffffffffffff861691613f79919061337a565b6040805188815286151560208201527f18caa0724a26384928efe604ae6ddc99c242548876259770fc88fcb7e719d8fa910160405180910390a35050505050565b7fb65939979d77055fe20d21bcb90b95461947bffa39f3588194f5015117626ea780547fffffffffffffffffffffffffffffffffffffffffffffffffffffffffffffff001660011790556040513381527f62e78cea01bee320cd4e420270b5ea74000d11b0c9f74754ebdbfc544b05a258906020016138f5565b60008281527fffaa26784aca465bf23123375047d80ccb2b41102e02e5c4ef5b5aa00624b2d3602052604081206125df90836147ef565b60007fffaa26784aca465bf23123375047d80ccb2b41102e02e5c4ef5b5aa00624b2d260008481526020918252604080822073ffffffffffffffffffffffffffffffffffffffff86168352909252205460ff16806125df57507fffaa26784aca465bf23123375047d80ccb2b41102e02e5c4ef5b5aa00624b2d2600061411f8560009081527fffaa26784aca465bf23123375047d80ccb2b41102e02e5c4ef5b5aa00624b2d2602052604090206001015490565b81526020808201929092526040908101600090812073ffffffffffffffffffffffffffffffffffffffff8616825290925290205460ff16905092915050565b60008311801561416e5750600082115b801561417a5750600081115b614206576040517f08c379a000000000000000000000000000000000000000000000000000000000815260206004820152602d60248201527f4d6173746572436865663a204b737761702072617465206d757374206265206760448201527f726561746572207468616e2030000000000000000000000000000000000000006064820152608401610b0e565b64e8d4a5100061421a82610d4e8686613386565b146142a7576040517f08c379a000000000000000000000000000000000000000000000000000000000815260206004820152602360248201527f4d6173746572436865663a20546f74616c2072617465206d757374206265203160448201527f65313200000000000000000000000000000000000000000000000000000000006064820152608401610b0e565b6142b160006130ea565b600a839055600b829055600c81905560408051848152602081018490529081018290527fae2d2e7d1ae84564fc72227253ce0f36a007209f7fd5ec414dea80e5af2fb5b09060600160405180910390a1505050565b60008181527fffaa26784aca465bf23123375047d80ccb2b41102e02e5c4ef5b5aa00624b2d3602052604081206109bc906147fb565b73ffffffffffffffffffffffffffffffffffffffff821660009081527fdd021e813d5056b401d30ba505d211a2ca2652076f58ad407a75764b92ed7d9d602052604090205460ff166113885773ffffffffffffffffffffffffffffffffffffffff821660009081527fdd021e813d5056b401d30ba505d211a2ca2652076f58ad407a75764b92ed7d9d60205260409081902080547fffffffffffffffffffffffffffffffffffffffffffffffffffffffffffffff0016600117905551614403908290615690565b6040519081900381209073ffffffffffffffffffffffffffffffffffffffff8416907f71ffd5b2f7b305f2f756c161455e2951077ed1951f9ecbee6252949bc1e13c5a90600090a35050565b60405173ffffffffffffffffffffffffffffffffffffffff8085166024830152831660448201526064810182905261133e9085907f23b872dd0000000000000000000000000000000000000000000000000000000090608401613a16565b801561138857600080546040517f70a0823100000000000000000000000000000000000000000000000000000000815230600482015273ffffffffffffffffffffffffffffffffffffffff909116906370a0823190602401602060405180830381865afa158015614522573d6000803e3d6000fd5b505050506040513d601f19601f8201168201806040525081019061454691906155db565b905081811015614554578091505b600054610e7d9073ffffffffffffffffffffffffffffffffffffffff1684846139c4565b614582828261406b565b611388576145a78173ffffffffffffffffffffffffffffffffffffffff166014614805565b6145b2836020614805565b6040516020016145c39291906156ac565b604080517fffffffffffffffffffffffffffffffffffffffffffffffffffffffffffffffe0818403018152908290527f08c379a0000000000000000000000000000000000000000000000000000000008252610b0e9160040161572d565b60006125df8373ffffffffffffffffffffffffffffffffffffffff8416614a48565b60006125df8373ffffffffffffffffffffffffffffffffffffffff8416614a97565b73ffffffffffffffffffffffffffffffffffffffff811660009081527fdd021e813d5056b401d30ba505d211a2ca2652076f58ad407a75764b92ed7d9d602052604090205460ff1615611db1576146d38173ffffffffffffffffffffffffffffffffffffffff166014614805565b6040516020016145c3919061577e565b6000614745826040518060400160405280602081526020017f5361666545524332303a206c6f772d6c6576656c2063616c6c206661696c65648152508573ffffffffffffffffffffffffffffffffffffffff16614b8a9092919063ffffffff16565b805190915015610e7d578080602001905181019061476391906157ea565b610e7d576040517f08c379a000000000000000000000000000000000000000000000000000000000815260206004820152602a60248201527f5361666545524332303a204552433230206f7065726174696f6e20646964206e60448201527f6f742073756363656564000000000000000000000000000000000000000000006064820152608401610b0e565b60006125df8383614ba1565b60006109bc825490565b60606000614814836002615607565b61481f9060026155f4565b67ffffffffffffffff811115614837576148376150bd565b6040519080825280601f01601f191660200182016040528015614861576020820181803683370190505b5090507f300000000000000000000000000000000000000000000000000000000000000081600081518110614898576148986154e0565b60200101907effffffffffffffffffffffffffffffffffffffffffffffffffffffffffffff1916908160001a9053507f7800000000000000000000000000000000000000000000000000000000000000816001815181106148fb576148fb6154e0565b60200101907effffffffffffffffffffffffffffffffffffffffffffffffffffffffffffff1916908160001a9053506000614937846002615607565b6149429060016155f4565b90505b60018111156149df577f303132333435363738396162636465660000000000000000000000000000000085600f1660108110614983576149836154e0565b1a60f81b828281518110614999576149996154e0565b60200101907effffffffffffffffffffffffffffffffffffffffffffffffffffffffffffff1916908160001a90535060049490941c936149d881615807565b9050614945565b5083156109b6576040517f08c379a000000000000000000000000000000000000000000000000000000000815260206004820181905260248201527f537472696e67733a20686578206c656e67746820696e73756666696369656e746044820152606401610b0e565b6000818152600183016020526040812054614a8f575081546001818101845560008481526020808220909301849055845484825282860190935260409020919091556109bc565b5060006109bc565b60008181526001830160205260408120548015614b80576000614abb600183615659565b8554909150600090614acf90600190615659565b9050818114614b34576000866000018281548110614aef57614aef6154e0565b9060005260206000200154905080876000018481548110614b1257614b126154e0565b6000918252602080832090910192909255918252600188019052604090208390555b8554869080614b4557614b4561583c565b6001900381819060005260206000200160009055905585600101600086815260200190815260200160002060009055600193505050506109bc565b60009150506109bc565b6060614b998484600085614bcb565b949350505050565b6000826000018281548110614bb857614bb86154e0565b9060005260206000200154905092915050565b606082471015614c5d576040517f08c379a000000000000000000000000000000000000000000000000000000000815260206004820152602660248201527f416464726573733a20696e73756666696369656e742062616c616e636520666f60448201527f722063616c6c00000000000000000000000000000000000000000000000000006064820152608401610b0e565b6000808673ffffffffffffffffffffffffffffffffffffffff168587604051614c869190615690565b60006040518083038185875af1925050503d8060008114614cc3576040519150601f19603f3d011682016040523d82523d6000602084013e614cc8565b606091505b5091509150614cd987838387614ce4565b979650505050505050565b60608315614d7a578251600003614d735773ffffffffffffffffffffffffffffffffffffffff85163b614d73576040517f08c379a000000000000000000000000000000000000000000000000000000000815260206004820152601d60248201527f416464726573733a2063616c6c20746f206e6f6e2d636f6e74726163740000006044820152606401610b0e565b5081614b99565b614b998383815115614d8f5781518083602001fd5b806040517f08c379a0000000000000000000000000000000000000000000000000000000008152600401610b0e919061572d565b73ffffffffffffffffffffffffffffffffffffffff81168114611db157600080fd5b60008060408385031215614df857600080fd5b8235614e0381614dc3565b946020939093013593505050565b600080600060608486031215614e2657600080fd5b8335614e3181614dc3565b95602085013595506040909401359392505050565b600060208284031215614e5857600080fd5b5035919050565b60008083601f840112614e7157600080fd5b50813567ffffffffffffffff811115614e8957600080fd5b6020830191508360208260051b8501011115614ea457600080fd5b9250929050565b60008060008060408587031215614ec157600080fd5b843567ffffffffffffffff80821115614ed957600080fd5b614ee588838901614e5f565b90965094506020870135915080821115614efe57600080fd5b50614f0b87828801614e5f565b95989497509550505050565b60008060408385031215614f2a57600080fd5b50508035926020909101359150565b60008060408385031215614f4c57600080fd5b823591506020830135614f5e81614dc3565b809150509250929050565b600060208284031215614f7b57600080fd5b81356109b681614dc3565b60008060208385031215614f9957600080fd5b823567ffffffffffffffff811115614fb057600080fd5b614fbc85828601614e5f565b90969095509350505050565b60008083601f840112614fda57600080fd5b50813567ffffffffffffffff811115614ff257600080fd5b6020830191508360208260061b8501011115614ea457600080fd5b8015158114611db157600080fd5b60008060006040848603121561503057600080fd5b833567ffffffffffffffff81111561504757600080fd5b61505386828701614fc8565b90945092505060208401356150678161500d565b809150509250925092565b60006020828403121561508457600080fd5b81356109b68161500d565b6000806000606084860312156150a457600080fd5b833592506020840135915060408401356150678161500d565b7f4e487b7100000000000000000000000000000000000000000000000000000000600052604160045260246000fd5b604051601f82017fffffffffffffffffffffffffffffffffffffffffffffffffffffffffffffffe016810167ffffffffffffffff81118282101715615133576151336150bd565b604052919050565b600067ffffffffffffffff821115615155576151556150bd565b5060051b60200190565b6000602080838503121561517257600080fd5b823567ffffffffffffffff81111561518957600080fd5b8301601f8101851361519a57600080fd5b80356151ad6151a88261513b565b6150ec565b81815260059190911b820183019083810190878311156151cc57600080fd5b928401925b82841015614cd95783356151e481614dc3565b825292840192908401906151d1565b600080600080600060a0868803121561520b57600080fd5b85359450602086013561521d81614dc3565b9350604086013561522d8161500d565b92506060860135915060808601356152448161500d565b809150509295509295909350565b60008060006040848603121561526757600080fd5b833567ffffffffffffffff81111561527e57600080fd5b61528a86828701614e5f565b909450925050602084013561506781614dc3565b6020808252825182820181905260009190848201906040850190845b818110156152d6578351835292840192918401916001016152ba565b50909695505050505050565b60008060008060008060a087890312156152fb57600080fd5b863567ffffffffffffffff81111561531257600080fd5b61531e89828a01614fc8565b90975095505060208701359350604087013592506060870135915060808701356153478161500d565b809150509295509295509295565b6000806000806080858703121561536b57600080fd5b843593506020850135925060408501359150606085013561538b8161500d565b939692955090935050565b600080604083850312156153a957600080fd5b82356153b481614dc3565b91506020830135614f5e8161500d565b6000806000604084860312156153d957600080fd5b83356153e481614dc3565b9250602084013567ffffffffffffffff8082111561540157600080fd5b818601915086601f83011261541557600080fd5b81358181111561542457600080fd5b87602082850101111561543657600080fd5b6020830194508093505050509250925092565b6000806040838503121561545c57600080fd5b823567ffffffffffffffff81111561547357600080fd5b8301601f8101851361548457600080fd5b803560206154946151a88361513b565b82815260059290921b830181019181810190888411156154b357600080fd5b938201935b838510156154d1578435825293820193908201906154b8565b98969091013596505050505050565b7f4e487b7100000000000000000000000000000000000000000000000000000000600052603260045260246000fd5b60008083357fffffffffffffffffffffffffffffffffffffffffffffffffffffffffffffffe184360301811261554457600080fd5b83018035915067ffffffffffffffff82111561555f57600080fd5b602001915036819003821315614ea457600080fd5b7f4e487b7100000000000000000000000000000000000000000000000000000000600052601160045260246000fd5b60007fffffffffffffffffffffffffffffffffffffffffffffffffffffffffffffffff82036155d4576155d4615574565b5060010190565b6000602082840312156155ed57600080fd5b5051919050565b808201808211156109bc576109bc615574565b80820281158282048414176109bc576109bc615574565b600082615654577f4e487b7100000000000000000000000000000000000000000000000000000000600052601260045260246000fd5b500490565b818103818111156109bc576109bc615574565b60005b8381101561568757818101518382015260200161566f565b50506000910152565b600082516156a281846020870161566c565b9190910192915050565b7f416363657373436f6e74726f6c3a206163636f756e74200000000000000000008152600083516156e481601785016020880161566c565b7f206973206d697373696e6720726f6c6520000000000000000000000000000000601791840191820152835161572181602884016020880161566c565b01602801949350505050565b602081526000825180602084015261574c81604085016020870161566c565b601f017fffffffffffffffffffffffffffffffffffffffffffffffffffffffffffffffe0169190910160400192915050565b7f53696d706c65426c61636b6c6973743a206163636f756e7420000000000000008152600082516157b681601985016020870161566c565b7f20697320626c61636b6c697374656400000000000000000000000000000000006019939091019283015250602801919050565b6000602082840312156157fc57600080fd5b81516109b68161500d565b60008161581657615816615574565b507fffffffffffffffffffffffffffffffffffffffffffffffffffffffffffffffff0190565b7f4e487b7100000000000000000000000000000000000000000000000000000000600052603160045260246000fdfea2646970667358221220ffb35f3efeacdb15ca4eb30e42dce5a52989946df3cb717fc9a9fd17c6f3297064736f6c63430008110033",
  "devdoc": {
    "kind": "dev",
    "methods": {
      "add(uint256,address,bool,uint256,bool)": {
        "params": {
          "_allocPoint": "Number of allocation points for the new pool.",
          "_isRegular": "Whether the pool is regular or special. LP farms are always \"regular\". \"Special\" pools are",
          "_lpToken": "Address of the LP BEP-20 token.",
          "_withUpdate": "Whether call \"massUpdatePools\" operation. only for KSWAP distributions within Kyoto Swap products."
        }
      },
      "blacklist(address,string)": {
        "details": "External function to add `account` to the blacklist. WARNING: This function is abstract, to enforce it's implementation          in the final contract. This is important to make sure          the final contraqct's access control mechanism will be used! See {ISimpleBlacklist-blacklist}"
      },
      "blacklist(address[],string[])": {
        "details": "External function to add `account` to the blacklist. WARNING: This function is abstract, to enforce it's implementation          in the final contract. This is important to make sure          the final contraqct's access control mechanism will be used! See {ISimpleBlacklist-blacklist}"
      },
      "burnKswap(bool)": {
        "params": {
          "_withUpdate": "Whether call \"massUpdatePools\" operation."
        }
      },
      "claimPendingKswap(uint256[])": {
        "params": {
          "_pids": "The list of pool ids to claim KSWAP from."
        }
      },
      "deposit(uint256,uint256)": {
        "params": {
          "_amount": "Amount of LP tokens to deposit.",
          "_pid": "The id of the pool. See `poolInfo`."
        }
      },
      "emergencyWithdraw(uint256)": {
        "params": {
          "_pid": "The id of the pool. See `poolInfo`."
        }
      },
      "getBoostMultiplier(address,uint256)": {
        "params": {
          "_pid": "The pool id.",
          "_user": "The user address."
        }
      },
      "getRoleAdmin(bytes32)": {
        "details": "Returns the admin role that controls `role`. See {grantRole} and {revokeRole}. To change a role's admin, use {AccessControl-setRoleAdmin}."
      },
      "getRoleMember(bytes32,uint256)": {
        "details": "Returns one of the accounts that have `role`. `index` must be a value between 0 and {getRoleMemberCount}, non-inclusive. Role bearers are not sorted in any particular way, and their ordering may change at any point. WARNING: When using {getRoleMember} and {getRoleMemberCount}, make sure you perform all queries on the same block. See the following https://forum.openzeppelin.com/t/iterating-over-elements-on-enumerableset-in-openzeppelin-contracts/2296[forum post] for more information."
      },
      "getRoleMemberCount(bytes32)": {
        "details": "Returns the number of accounts that have `role`. Can be used together with {getRoleMember} to enumerate all bearers of a role."
      },
      "grantRole(bytes32,address)": {
        "details": "Grants `role` to `account`. If `account` had not been already granted `role`, emits a {RoleGranted} event. Requirements: - the caller must have ``role``'s admin role."
      },
      "hasRole(bytes32,address)": {
        "details": "Returns `true` if `account` has been granted `role`."
      },
      "isBlacklisted(address)": {
        "details": "Returns `true` if `account` is blacklisted."
      },
      "isBlacklisted(address[])": {
        "details": "Returns `true` if any address in `accounts` is on the blacklist."
      },
      "kswapPerBlock(bool)": {
        "params": {
          "_isRegular": "If the pool belongs to regular or special."
        }
      },
      "pause()": {
        "details": "Triggers stopped state. Requirements: - The contract must not be paused."
      },
      "paused()": {
        "details": "Returns true if the contract is paused, and false otherwise."
      },
      "pendingKswap(uint256,address)": {
        "params": {
          "_pid": "The id of the pool. See `poolInfo`.",
          "_user": "Address of the user."
        }
      },
      "pendingKswap(uint256[],address)": {
        "params": {
          "_pids": "The list of pool ids. See `poolInfo`.",
          "_user": "Address of the user."
        },
        "returns": {
          "amounts": "List of pending amounts for pools from `_pids`."
        }
      },
      "renounceRole(bytes32,address)": {
        "details": "Revokes `role` from the calling account. Roles are often managed via {grantRole} and {revokeRole}: this function's purpose is to provide a mechanism for accounts to lose their privileges if they are compromised (such as when a trusted device is misplaced). If the calling account had been granted `role`, emits a {RoleRevoked} event. Requirements: - the caller must be `account`."
      },
      "revokeRole(bytes32,address)": {
        "details": "Revokes `role` from `account`. If `account` had been granted `role`, emits a {RoleRevoked} event. Requirements: - the caller must have ``role``'s admin role."
      },
      "set((uint256,uint256)[],bool)": {
        "params": {
          "_withUpdate": "Whether call \"massUpdatePools\" operation.",
          "poolAlocations": "List of SetPoolAllocationInfo to update"
        }
      },
      "set(uint256,uint256,bool)": {
        "params": {
          "_allocPoint": "New number of allocation points for the pool.",
          "_pid": "The id of the pool. See `poolInfo`.",
          "_withUpdate": "Whether call \"massUpdatePools\" operation."
        }
      },
      "setPoolLastRewardBlock(uint256,uint256)": {
        "params": {
          "_pid": "The pool id to update.",
          "newLastRewardBlock": "The new value."
        }
      },
      "setPoolLastRewardBlock(uint256[],uint256)": {
        "params": {
          "_pids": "The list of pool ids to update.",
          "newLastRewardBlock": "The new value."
        }
      },
      "setRoleAdmin(bytes32,bytes32)": {
        "details": "Sets `adminRole` as ``role``'s admin role. Emits a {RoleAdminChanged} event."
      },
      "unblacklist(address,string)": {
        "details": "External function to remove `account` from the blacklist. WARNING: This function is abstract, to enforce it's implementation          in the final contract. This is important to make sure          the final contraqct's access control mechanism will be used! See {ISimpleBlacklist-unblacklist}"
      },
      "unblacklist(address[],string[])": {
        "details": "External function to add `account` to the blacklist. WARNING: This function is abstract, to enforce it's implementation          in the final contract. This is important to make sure          the final contraqct's access control mechanism will be used! See {ISimpleBlacklist-blacklist}"
      },
      "unpause()": {
        "details": "Returns to normal state. Requirements: - The contract must be paused."
      },
      "updateBoostMultiplier(address,uint256,uint256)": {
        "params": {
          "_newMultiplier": "New boost multiplier.",
          "_pid": "The pool id for the boost factor updates.",
          "_user": "The user address for boost factor updates."
        }
      },
      "updateKswapRate(uint256,uint256,uint256,bool)": {
        "params": {
          "_burnRate": "The % of KSWAP to burn each block.",
          "_regularFarmRate": "The % of KSWAP to regular pools each block.",
          "_specialFarmRate": "The % of KSWAP to special pools each block.",
          "_withUpdate": "Whether call \"massUpdatePools\" operation."
        }
      },
      "updatePool(uint256)": {
        "params": {
          "_pid": "The id of the pool. See `poolInfo`."
        },
        "returns": {
          "pool": "Returns the pool that was updated."
        }
      },
      "updateRatesAndPools((uint256,uint256)[],uint256,uint256,uint256,bool)": {
        "params": {
          "_burnRate": "The % of KSWAP to burn each block.",
          "_regularFarmRate": "The % of KSWAP to regular pools each block.",
          "_specialFarmRate": "The % of KSWAP to special pools each block.",
          "poolAlocations": "List of SetPoolAllocationInfo to update"
        }
      },
      "updateWhiteList(address,bool)": {
        "params": {
          "_isValid": "The flag for valid or invalid.",
          "_user": "The address to be updated."
        }
      },
      "withdraw(uint256,uint256)": {
        "params": {
          "_amount": "Amount of LP tokens to withdraw.",
          "_pid": "The id of the pool. See `poolInfo`."
        }
      }
    },
    "version": 1
  },
  "userdoc": {
    "kind": "user",
    "methods": {
      "BOOST_PRECISION()": {
        "notice": "Basic boost factor, none boosted user's boost factor"
      },
      "DEPRECATED_boostContract()": {
        "notice": "The contract handles the share boosts."
      },
      "DEPRECATED_burnAdmin()": {
        "notice": "The only address can withdraw all the burn KSWAP."
      },
      "KSWAP_RATE_TOTAL_PRECISION()": {
        "notice": "total kswap rate = toBurn + toRegular + toSpecial"
      },
      "MASTERCHEF_KSWAP_PER_BLOCK()": {
        "notice": "40 KSWAP per block in MC"
      },
      "MAX_BOOST_PRECISION()": {
        "notice": "Hard limit for maxmium boost factor, it must greater than BOOST_PRECISION"
      },
      "add(uint256,address,bool,uint256,bool)": {
        "notice": "Add a new pool. Can only be called by the owner. DO NOT add the same LP token more than once. Rewards will be messed up if you do."
      },
      "burnKswap(bool)": {
        "notice": "Send KSWAP pending for burn to `burnAdmin`."
      },
      "claimPendingKswap(uint256[])": {
        "notice": "Claims pending KSWAP for the caller."
      },
      "deposit(uint256,uint256)": {
        "notice": "Deposit LP tokens to pool."
      },
      "emergencyWithdraw(uint256)": {
        "notice": "Withdraw without caring about the rewards. EMERGENCY ONLY."
      },
      "getBoostMultiplier(address,uint256)": {
        "notice": "Get user boost multiplier for specific pool id."
      },
      "kswapPerBlock(bool)": {
        "notice": "Calculates and returns the `amount` of KSWAP per block."
      },
      "kswapPerBlockToBurn()": {
        "notice": "Calculates and returns the `amount` of KSWAP per block to burn."
      },
      "kswapRateToBurn()": {
        "notice": "The last block number of KSWAP burn action being executed."
      },
      "lpToken(uint256)": {
        "notice": "Address of the LP token for each MCV2 pool."
      },
      "massUpdatePools()": {
        "notice": "Update kswap reward for all the active pools. Be careful of gas spending!"
      },
      "pendingKswap(uint256,address)": {
        "notice": "View function for checking pending KSWAP rewards."
      },
      "pendingKswap(uint256[],address)": {
        "notice": "View function for checking pending KSWAP rewards on multiple pools."
      },
      "poolInfo(uint256)": {
        "notice": "Info of each MCV2 pool."
      },
      "poolLength()": {
        "notice": "Returns the number of MC pools."
      },
      "set((uint256,uint256)[],bool)": {
        "notice": "Update the given pool's KSWAP allocation point. Can only be called by the owner."
      },
      "set(uint256,uint256,bool)": {
        "notice": "Update the given pool's KSWAP allocation point. Can only be called by the owner."
      },
      "setPoolLastRewardBlock(uint256,uint256)": {
        "notice": "Updates the lastRewardBlock for a pool.         Both the new and old values must be future blocks!         If the new value is 0, it will be set to `block.number + 200`."
      },
      "setPoolLastRewardBlock(uint256[],uint256)": {
        "notice": "Updates the lastRewardBlock for a list of pools.         Both the new and old values must be future blocks!         If the new value is 0, it will be set to `block.number + 200`."
      },
      "setTreasuryAddress(address)": {
        "notice": "Update the treasury address."
      },
      "totalRegularAllocPoint()": {
        "notice": "Total regular allocation points. Must be the sum of all regular pools' allocation points."
      },
      "totalSpecialAllocPoint()": {
        "notice": "Total special allocation points. Must be the sum of all special pools' allocation points."
      },
      "updateBoostMultiplier(address,uint256,uint256)": {
        "notice": "Update user boost factor."
      },
      "updateKswapRate(uint256,uint256,uint256,bool)": {
        "notice": "Update the % of KSWAP distributions for burn, regular pools and special pools."
      },
      "updatePool(uint256)": {
        "notice": "Update reward variables for the given pool."
      },
      "updateRatesAndPools((uint256,uint256)[],uint256,uint256,uint256,bool)": {
        "notice": "Updates the given pool's allocations and the pool rates."
      },
      "updateWhiteList(address,bool)": {
        "notice": "Update whitelisted addresses for special pools."
      },
      "userInfo(uint256,address)": {
        "notice": "Info of each pool user."
      },
      "whiteList(address)": {
        "notice": "The whitelist of addresses allowed to deposit in special pools."
      },
      "withdraw(uint256,uint256)": {
        "notice": "Withdraw LP tokens from pool."
      }
    },
    "version": 1
  },
  "storageLayout": {
    "storage": [
      {
        "astId": 4607,
        "contract": "contracts/MasterChef.sol:MasterChef",
        "label": "kswap",
        "offset": 0,
        "slot": "0",
        "type": "t_contract(IERC20Mintable)6546"
      },
      {
        "astId": 4609,
        "contract": "contracts/MasterChef.sol:MasterChef",
        "label": "treasury",
        "offset": 0,
        "slot": "1",
        "type": "t_address"
      },
      {
        "astId": 4612,
        "contract": "contracts/MasterChef.sol:MasterChef",
        "label": "DEPRECATED_burnAdmin",
        "offset": 0,
        "slot": "2",
        "type": "t_address"
      },
      {
        "astId": 4615,
        "contract": "contracts/MasterChef.sol:MasterChef",
        "label": "DEPRECATED_boostContract",
        "offset": 0,
        "slot": "3",
        "type": "t_address"
      },
      {
        "astId": 4620,
        "contract": "contracts/MasterChef.sol:MasterChef",
        "label": "poolInfo",
        "offset": 0,
        "slot": "4",
        "type": "t_array(t_struct(PoolInfo)6568_storage)dyn_storage"
      },
      {
        "astId": 4625,
        "contract": "contracts/MasterChef.sol:MasterChef",
        "label": "lpToken",
        "offset": 0,
        "slot": "5",
        "type": "t_array(t_contract(IERC20)175)dyn_storage"
      },
      {
        "astId": 4633,
        "contract": "contracts/MasterChef.sol:MasterChef",
        "label": "userInfo",
        "offset": 0,
        "slot": "6",
        "type": "t_mapping(t_uint256,t_mapping(t_address,t_struct(UserInfo)6557_storage))"
      },
      {
        "astId": 4638,
        "contract": "contracts/MasterChef.sol:MasterChef",
        "label": "whiteList",
        "offset": 0,
        "slot": "7",
        "type": "t_mapping(t_address,t_bool)"
      },
      {
        "astId": 4641,
        "contract": "contracts/MasterChef.sol:MasterChef",
        "label": "totalRegularAllocPoint",
        "offset": 0,
        "slot": "8",
        "type": "t_uint256"
      },
      {
        "astId": 4644,
        "contract": "contracts/MasterChef.sol:MasterChef",
        "label": "totalSpecialAllocPoint",
        "offset": 0,
        "slot": "9",
        "type": "t_uint256"
      },
      {
        "astId": 4672,
        "contract": "contracts/MasterChef.sol:MasterChef",
        "label": "kswapRateToBurn",
        "offset": 0,
        "slot": "10",
        "type": "t_uint256"
      },
      {
        "astId": 4674,
        "contract": "contracts/MasterChef.sol:MasterChef",
        "label": "kswapRateToRegularFarm",
        "offset": 0,
        "slot": "11",
        "type": "t_uint256"
      },
      {
        "astId": 4676,
        "contract": "contracts/MasterChef.sol:MasterChef",
        "label": "kswapRateToSpecialFarm",
        "offset": 0,
        "slot": "12",
        "type": "t_uint256"
      },
      {
        "astId": 4678,
        "contract": "contracts/MasterChef.sol:MasterChef",
        "label": "lastBurnedBlock",
        "offset": 0,
        "slot": "13",
        "type": "t_uint256"
      }
    ],
    "types": {
      "t_address": {
        "encoding": "inplace",
        "label": "address",
        "numberOfBytes": "20"
      },
      "t_array(t_contract(IERC20)175)dyn_storage": {
        "base": "t_contract(IERC20)175",
        "encoding": "dynamic_array",
        "label": "contract IERC20[]",
        "numberOfBytes": "32"
      },
      "t_array(t_struct(PoolInfo)6568_storage)dyn_storage": {
        "base": "t_struct(PoolInfo)6568_storage",
        "encoding": "dynamic_array",
        "label": "struct IMasterChef.PoolInfo[]",
        "numberOfBytes": "32"
      },
      "t_bool": {
        "encoding": "inplace",
        "label": "bool",
        "numberOfBytes": "1"
      },
      "t_contract(IERC20)175": {
        "encoding": "inplace",
        "label": "contract IERC20",
        "numberOfBytes": "20"
      },
      "t_contract(IERC20Mintable)6546": {
        "encoding": "inplace",
        "label": "contract IERC20Mintable",
        "numberOfBytes": "20"
      },
      "t_mapping(t_address,t_bool)": {
        "encoding": "mapping",
        "key": "t_address",
        "label": "mapping(address => bool)",
        "numberOfBytes": "32",
        "value": "t_bool"
      },
      "t_mapping(t_address,t_struct(UserInfo)6557_storage)": {
        "encoding": "mapping",
        "key": "t_address",
        "label": "mapping(address => struct IMasterChef.UserInfo)",
        "numberOfBytes": "32",
        "value": "t_struct(UserInfo)6557_storage"
      },
      "t_mapping(t_uint256,t_mapping(t_address,t_struct(UserInfo)6557_storage))": {
        "encoding": "mapping",
        "key": "t_uint256",
        "label": "mapping(uint256 => mapping(address => struct IMasterChef.UserInfo))",
        "numberOfBytes": "32",
        "value": "t_mapping(t_address,t_struct(UserInfo)6557_storage)"
      },
      "t_struct(PoolInfo)6568_storage": {
        "encoding": "inplace",
        "label": "struct IMasterChef.PoolInfo",
        "members": [
          {
            "astId": 6559,
            "contract": "contracts/MasterChef.sol:MasterChef",
            "label": "accKswapPerShare",
            "offset": 0,
            "slot": "0",
            "type": "t_uint256"
          },
          {
            "astId": 6561,
            "contract": "contracts/MasterChef.sol:MasterChef",
            "label": "lastRewardBlock",
            "offset": 0,
            "slot": "1",
            "type": "t_uint256"
          },
          {
            "astId": 6563,
            "contract": "contracts/MasterChef.sol:MasterChef",
            "label": "allocPoint",
            "offset": 0,
            "slot": "2",
            "type": "t_uint256"
          },
          {
            "astId": 6565,
            "contract": "contracts/MasterChef.sol:MasterChef",
            "label": "totalBoostedShare",
            "offset": 0,
            "slot": "3",
            "type": "t_uint256"
          },
          {
            "astId": 6567,
            "contract": "contracts/MasterChef.sol:MasterChef",
            "label": "isRegular",
            "offset": 0,
            "slot": "4",
            "type": "t_bool"
          }
        ],
        "numberOfBytes": "160"
      },
      "t_struct(UserInfo)6557_storage": {
        "encoding": "inplace",
        "label": "struct IMasterChef.UserInfo",
        "members": [
          {
            "astId": 6552,
            "contract": "contracts/MasterChef.sol:MasterChef",
            "label": "amount",
            "offset": 0,
            "slot": "0",
            "type": "t_uint256"
          },
          {
            "astId": 6554,
            "contract": "contracts/MasterChef.sol:MasterChef",
            "label": "rewardDebt",
            "offset": 0,
            "slot": "1",
            "type": "t_uint256"
          },
          {
            "astId": 6556,
            "contract": "contracts/MasterChef.sol:MasterChef",
            "label": "boostMultiplier",
            "offset": 0,
            "slot": "2",
            "type": "t_uint256"
          }
        ],
        "numberOfBytes": "96"
      },
      "t_uint256": {
        "encoding": "inplace",
        "label": "uint256",
        "numberOfBytes": "32"
      }
    }
  }
}