{
  "address": "0xD0760Cc67F609a491AE38A134e37fa38D5221626",
  "abi": [
    {
      "inputs": [],
      "name": "InitializerContractAlreadyInitialized",
      "type": "error"
    },
    {
      "inputs": [],
      "name": "InitializerContractIsInitializing",
      "type": "error"
    },
    {
      "inputs": [],
      "name": "InitializerContractIsNotInitializing",
      "type": "error"
    },
    {
      "inputs": [
        {
          "internalType": "uint8",
          "name": "version",
          "type": "uint8"
        }
      ],
      "name": "InitializerVersionAlreadyInitialized",
      "type": "error"
    },
    {
      "anonymous": false,
      "inputs": [
        {
          "indexed": true,
          "internalType": "address",
          "name": "account",
          "type": "address"
        },
        {
          "indexed": true,
          "internalType": "string",
          "name": "reason",
          "type": "string"
        }
      ],
      "name": "Blacklisted",
      "type": "event"
    },
    {
      "anonymous": false,
      "inputs": [
        {
          "indexed": false,
          "internalType": "address",
          "name": "account",
          "type": "address"
        },
        {
          "indexed": false,
          "internalType": "uint256",
          "name": "amount",
          "type": "uint256"
        }
      ],
      "name": "Contributed",
      "type": "event"
    },
    {
      "anonymous": false,
      "inputs": [
        {
          "indexed": false,
          "internalType": "uint8",
          "name": "version",
          "type": "uint8"
        }
      ],
      "name": "Initialized",
      "type": "event"
    },
    {
      "anonymous": false,
      "inputs": [
        {
          "indexed": true,
          "internalType": "address",
          "name": "account",
          "type": "address"
        },
        {
          "indexed": true,
          "internalType": "string",
          "name": "reason",
          "type": "string"
        }
      ],
      "name": "UnBlacklisted",
      "type": "event"
    },
    {
      "inputs": [
        {
          "internalType": "address[]",
          "name": "accounts",
          "type": "address[]"
        },
        {
          "internalType": "string[]",
          "name": "reasons",
          "type": "string[]"
        }
      ],
      "name": "blacklist",
      "outputs": [],
      "stateMutability": "nonpayable",
      "type": "function"
    },
    {
      "inputs": [
        {
          "internalType": "address",
          "name": "account",
          "type": "address"
        },
        {
          "internalType": "string",
          "name": "reason",
          "type": "string"
        }
      ],
      "name": "blacklist",
      "outputs": [],
      "stateMutability": "nonpayable",
      "type": "function"
    },
    {
      "inputs": [
        {
          "internalType": "uint256",
          "name": "amount",
          "type": "uint256"
        }
      ],
      "name": "contribute",
      "outputs": [],
      "stateMutability": "nonpayable",
      "type": "function"
    },
    {
      "inputs": [
        {
          "internalType": "contract IERC20",
          "name": "token_",
          "type": "address"
        },
        {
          "internalType": "address",
          "name": "treasury_",
          "type": "address"
        }
      ],
      "name": "initialize",
      "outputs": [],
      "stateMutability": "nonpayable",
      "type": "function"
    },
    {
      "inputs": [
        {
          "internalType": "address[]",
          "name": "accounts",
          "type": "address[]"
        }
      ],
      "name": "isBlacklisted",
      "outputs": [
        {
          "internalType": "bool",
          "name": "",
          "type": "bool"
        }
      ],
      "stateMutability": "view",
      "type": "function"
    },
    {
      "inputs": [
        {
          "internalType": "address",
          "name": "account",
          "type": "address"
        }
      ],
      "name": "isBlacklisted",
      "outputs": [
        {
          "internalType": "bool",
          "name": "",
          "type": "bool"
        }
      ],
      "stateMutability": "view",
      "type": "function"
    },
    {
      "inputs": [],
      "name": "pause",
      "outputs": [],
      "stateMutability": "nonpayable",
      "type": "function"
    },
    {
      "inputs": [],
      "name": "paused",
      "outputs": [
        {
          "internalType": "bool",
          "name": "",
          "type": "bool"
        }
      ],
      "stateMutability": "view",
      "type": "function"
    },
    {
      "inputs": [],
      "name": "token",
      "outputs": [
        {
          "internalType": "contract IERC20",
          "name": "",
          "type": "address"
        }
      ],
      "stateMutability": "view",
      "type": "function"
    },
    {
      "inputs": [],
      "name": "treasury",
      "outputs": [
        {
          "internalType": "address",
          "name": "",
          "type": "address"
        }
      ],
      "stateMutability": "view",
      "type": "function"
    },
    {
      "inputs": [
        {
          "internalType": "address[]",
          "name": "accounts",
          "type": "address[]"
        },
        {
          "internalType": "string[]",
          "name": "reasons",
          "type": "string[]"
        }
      ],
      "name": "unblacklist",
      "outputs": [],
      "stateMutability": "nonpayable",
      "type": "function"
    },
    {
      "inputs": [
        {
          "internalType": "address",
          "name": "account",
          "type": "address"
        },
        {
          "internalType": "string",
          "name": "reason",
          "type": "string"
        }
      ],
      "name": "unblacklist",
      "outputs": [],
      "stateMutability": "nonpayable",
      "type": "function"
    },
    {
      "inputs": [],
      "name": "unpause",
      "outputs": [],
      "stateMutability": "nonpayable",
      "type": "function"
    }
  ],
  "transactionHash": "0x8dd6998904c526d7dd485819b20ff785d93ea50be64f17a82c251596dd050091",
  "args": [],
  "numDeployments": 1,
  "solcInputHash": "d976b6cc178fcec65f1c3398ff618248",
  "bytecode": "0x608060405234801561001057600080fd5b50611d65806100206000396000f3fe608060405234801561001057600080fd5b50600436106100df5760003560e01c80638456cb591161008c578063d1e6c30c11610066578063d1e6c30c146101b7578063ddf579ff146101ca578063fc0c546a146101dd578063fe575a87146101fd57600080fd5b80638456cb5914610189578063c1cbbca714610191578063ce5da407146101a457600080fd5b80635c975abb116100bd5780635c975abb1461011457806361d027b3146101315780636ebb16d31461017657600080fd5b8063186d3830146100e45780633f4ba83a146100f9578063485cc95514610101575b600080fd5b6100f76100f23660046117fd565b610210565b005b6100f76103e2565b6100f761010f36600461189b565b61041d565b61011c610609565b60405190151581526020015b60405180910390f35b6001546101519073ffffffffffffffffffffffffffffffffffffffff1681565b60405173ffffffffffffffffffffffffffffffffffffffff9091168152602001610128565b61011c610184366004611903565b610618565b6100f7610629565b6100f761019f3660046119e6565b610662565b6100f76101b23660046117fd565b610734565b6100f76101c53660046119ff565b6108f3565b6100f76101d83660046119ff565b61095c565b6000546101519073ffffffffffffffffffffffffffffffffffffffff1681565b61011c61020b366004611a84565b6109c5565b6102397ff988e4fb62b8e14f4820fed03192306ddf4d7dbfa215595ba1c6ba4b76b369ee610a12565b801561037e578281146102d3576040517f08c379a000000000000000000000000000000000000000000000000000000000815260206004820152602360248201527f53696d706c65426c61636b6c6973743a204e6f7420656e6f756768207265617360448201527f6f6e73000000000000000000000000000000000000000000000000000000000060648201526084015b60405180910390fd5b60005b83811015610378576103668585838181106102f3576102f3611aa1565b90506020020160208101906103089190611a84565b84848481811061031a5761031a611aa1565b905060200281019061032c9190611ad0565b8080601f016020809104026020016040519081016040528093929190818152602001838380828437600092019190915250610a1f92505050565b8061037081611b64565b9150506102d6565b506103dc565b60005b838110156103da576103c885858381811061039e5761039e611aa1565b90506020020160208101906103b39190611a84565b60405180602001604052806000815250610a1f565b806103d281611b64565b915050610381565b505b50505050565b61040b7f356a809dfdea9198dd76fb76bf6d403ecf13ea675eb89e1eda2db2c4a4676a26610a12565b610413610b31565b61041b610bcf565b565b7f0de7f2b0af5ab1aa4eca2b133cdee828bdcfefa98e4927fa304b2ad002ca6eb354610100900460ff161580801561047b57507f0de7f2b0af5ab1aa4eca2b133cdee828bdcfefa98e4927fa304b2ad002ca6eb354600160ff909116105b8061049a5750303b15801561049a5750610493610c4c565b60ff166001145b156105d7576104a96001610c79565b80156104fb577f0de7f2b0af5ab1aa4eca2b133cdee828bdcfefa98e4927fa304b2ad002ca6eb380547fffffffffffffffffffffffffffffffffffffffffffffffffffffffffffff00ff166101001790555b6000805473ffffffffffffffffffffffffffffffffffffffff8086167fffffffffffffffffffffffff000000000000000000000000000000000000000092831617909255600180549285169290911691909117905580156105d2577f0de7f2b0af5ab1aa4eca2b133cdee828bdcfefa98e4927fa304b2ad002ca6eb380547fffffffffffffffffffffffffffffffffffffffffffffffffffffffffffff00ff169055604051600181527f7f26b83ff96e1f2b6a682f133852f6798a09c465da95921460cefb38474024989060200160405180910390a15b505050565b6040517f5d99ebd200000000000000000000000000000000000000000000000000000000815260040160405180910390fd5b6000610613610d31565b905090565b600061062382610d59565b92915050565b6106527f356a809dfdea9198dd76fb76bf6d403ecf13ea675eb89e1eda2db2c4a4676a26610a12565b61065a610df6565b61041b610e95565b600081116106cc576040517f08c379a000000000000000000000000000000000000000000000000000000000815260206004820152600b60248201527f416d6f756e74206973203000000000000000000000000000000000000000000060448201526064016102ca565b6001546000546106f89173ffffffffffffffffffffffffffffffffffffffff9182169133911684610f0f565b60408051338152602081018390527f62722348256371b5147820d6cad90c40fd2da1ccee18c3ed52c0bca5a61dbbab910160405180910390a150565b61075d7ff988e4fb62b8e14f4820fed03192306ddf4d7dbfa215595ba1c6ba4b76b369ee610a12565b8015610897578281146107f2576040517f08c379a000000000000000000000000000000000000000000000000000000000815260206004820152602360248201527f53696d706c65426c61636b6c6973743a204e6f7420656e6f756768207265617360448201527f6f6e73000000000000000000000000000000000000000000000000000000000060648201526084016102ca565b60005b838110156103785761088585858381811061081257610812611aa1565b90506020020160208101906108279190611a84565b84848481811061083957610839611aa1565b905060200281019061084b9190611ad0565b8080601f016020809104026020016040519081016040528093929190818152602001838380828437600092019190915250610fa492505050565b8061088f81611b64565b9150506107f5565b60005b838110156103da576108e18585838181106108b7576108b7611aa1565b90506020020160208101906108cc9190611a84565b60405180602001604052806000815250610fa4565b806108eb81611b64565b91505061089a565b61091c7ff988e4fb62b8e14f4820fed03192306ddf4d7dbfa215595ba1c6ba4b76b369ee610a12565b6105d28383838080601f016020809104026020016040519081016040528093929190818152602001838380828437600092019190915250610a1f92505050565b6109857ff988e4fb62b8e14f4820fed03192306ddf4d7dbfa215595ba1c6ba4b76b369ee610a12565b6105d28383838080601f016020809104026020016040519081016040528093929190818152602001838380828437600092019190915250610fa492505050565b73ffffffffffffffffffffffffffffffffffffffff811660009081527fdd021e813d5056b401d30ba505d211a2ca2652076f58ad407a75764b92ed7d9d602052604081205460ff16610623565b610a1c81336110b7565b50565b73ffffffffffffffffffffffffffffffffffffffff821660009081527fdd021e813d5056b401d30ba505d211a2ca2652076f58ad407a75764b92ed7d9d602052604090205460ff1615610b2d5773ffffffffffffffffffffffffffffffffffffffff821660009081527fdd021e813d5056b401d30ba505d211a2ca2652076f58ad407a75764b92ed7d9d60205260409081902080547fffffffffffffffffffffffffffffffffffffffffffffffffffffffffffffff0016905551610ae4908290611bc0565b6040519081900381209073ffffffffffffffffffffffffffffffffffffffff8416907fe4e3c0e67592981f9042a3df81ea0ee0dfb06be469efdbd2bfc674ab37ab62fe90600090a35b5050565b610b39610d31565b80610b695750610b697fda6fac9f81a22bb02ed26455dcee2a5f2434c8a3377a2cc986478052c1594f9e33611160565b61041b576040517f08c379a000000000000000000000000000000000000000000000000000000000815260206004820152601460248201527f5061757361626c653a206e6f742070617573656400000000000000000000000060448201526064016102ca565b7fb65939979d77055fe20d21bcb90b95461947bffa39f3588194f5015117626ea780547fffffffffffffffffffffffffffffffffffffffffffffffffffffffffffffff001690556040513381527f5db9ee0a495bf2e6ff9c91a7834c1ba4fdd244a5e8aa4e537bd38aeae4b073aa906020015b60405180910390a1565b60007f0de7f2b0af5ab1aa4eca2b133cdee828bdcfefa98e4927fa304b2ad002ca6eb35b5460ff16919050565b7f0de7f2b0af5ab1aa4eca2b133cdee828bdcfefa98e4927fa304b2ad002ca6eb35460ff808316911610610cde576040517fbfdd178500000000000000000000000000000000000000000000000000000000815260ff821660048201526024016102ca565b7f0de7f2b0af5ab1aa4eca2b133cdee828bdcfefa98e4927fa304b2ad002ca6eb380547fffffffffffffffffffffffffffffffffffffffffffffffffffffffffffffff001660ff92909216919091179055565b60007fb65939979d77055fe20d21bcb90b95461947bffa39f3588194f5015117626ea7610c70565b6000805b8251811015610ded57610dcd838281518110610d7b57610d7b611aa1565b602002602001015173ffffffffffffffffffffffffffffffffffffffff1660009081527fdd021e813d5056b401d30ba505d211a2ca2652076f58ad407a75764b92ed7d9d602052604090205460ff1690565b15610ddb5750600192915050565b80610de581611b64565b915050610d5d565b50600092915050565b610dfe610d31565b1580610e2f5750610e2f7fda6fac9f81a22bb02ed26455dcee2a5f2434c8a3377a2cc986478052c1594f9e33611160565b61041b576040517f08c379a000000000000000000000000000000000000000000000000000000000815260206004820152601060248201527f5061757361626c653a207061757365640000000000000000000000000000000060448201526064016102ca565b7fb65939979d77055fe20d21bcb90b95461947bffa39f3588194f5015117626ea780547fffffffffffffffffffffffffffffffffffffffffffffffffffffffffffffff001660011790556040513381527f62e78cea01bee320cd4e420270b5ea74000d11b0c9f74754ebdbfc544b05a25890602001610c42565b6040805173ffffffffffffffffffffffffffffffffffffffff85811660248301528416604482015260648082018490528251808303909101815260849091019091526020810180517bffffffffffffffffffffffffffffffffffffffffffffffffffffffff167f23b872dd000000000000000000000000000000000000000000000000000000001790526103dc908590611253565b73ffffffffffffffffffffffffffffffffffffffff821660009081527fdd021e813d5056b401d30ba505d211a2ca2652076f58ad407a75764b92ed7d9d602052604090205460ff16610b2d5773ffffffffffffffffffffffffffffffffffffffff821660009081527fdd021e813d5056b401d30ba505d211a2ca2652076f58ad407a75764b92ed7d9d60205260409081902080547fffffffffffffffffffffffffffffffffffffffffffffffffffffffffffffff001660011790555161106b908290611bc0565b6040519081900381209073ffffffffffffffffffffffffffffffffffffffff8416907f71ffd5b2f7b305f2f756c161455e2951077ed1951f9ecbee6252949bc1e13c5a90600090a35050565b6110c18282611160565b610b2d576110e68173ffffffffffffffffffffffffffffffffffffffff16601461135f565b6110f183602061135f565b604051602001611102929190611bdc565b604080517fffffffffffffffffffffffffffffffffffffffffffffffffffffffffffffffe0818403018152908290527f08c379a00000000000000000000000000000000000000000000000000000000082526102ca91600401611c5d565b60007fffaa26784aca465bf23123375047d80ccb2b41102e02e5c4ef5b5aa00624b2d260008481526020918252604080822073ffffffffffffffffffffffffffffffffffffffff86168352909252205460ff168061124c57507fffaa26784aca465bf23123375047d80ccb2b41102e02e5c4ef5b5aa00624b2d260006112148560009081527fffaa26784aca465bf23123375047d80ccb2b41102e02e5c4ef5b5aa00624b2d2602052604090206001015490565b81526020808201929092526040908101600090812073ffffffffffffffffffffffffffffffffffffffff8616825290925290205460ff165b9392505050565b60006112b5826040518060400160405280602081526020017f5361666545524332303a206c6f772d6c6576656c2063616c6c206661696c65648152508573ffffffffffffffffffffffffffffffffffffffff166115a29092919063ffffffff16565b8051909150156105d257808060200190518101906112d39190611cae565b6105d2576040517f08c379a000000000000000000000000000000000000000000000000000000000815260206004820152602a60248201527f5361666545524332303a204552433230206f7065726174696f6e20646964206e60448201527f6f7420737563636565640000000000000000000000000000000000000000000060648201526084016102ca565b6060600061136e836002611cd0565b611379906002611ce7565b67ffffffffffffffff811115611391576113916118d4565b6040519080825280601f01601f1916602001820160405280156113bb576020820181803683370190505b5090507f3000000000000000000000000000000000000000000000000000000000000000816000815181106113f2576113f2611aa1565b60200101907effffffffffffffffffffffffffffffffffffffffffffffffffffffffffffff1916908160001a9053507f78000000000000000000000000000000000000000000000000000000000000008160018151811061145557611455611aa1565b60200101907effffffffffffffffffffffffffffffffffffffffffffffffffffffffffffff1916908160001a9053506000611491846002611cd0565b61149c906001611ce7565b90505b6001811115611539577f303132333435363738396162636465660000000000000000000000000000000085600f16601081106114dd576114dd611aa1565b1a60f81b8282815181106114f3576114f3611aa1565b60200101907effffffffffffffffffffffffffffffffffffffffffffffffffffffffffffff1916908160001a90535060049490941c9361153281611cfa565b905061149f565b50831561124c576040517f08c379a000000000000000000000000000000000000000000000000000000000815260206004820181905260248201527f537472696e67733a20686578206c656e67746820696e73756666696369656e7460448201526064016102ca565b60606115b184846000856115b9565b949350505050565b60608247101561164b576040517f08c379a000000000000000000000000000000000000000000000000000000000815260206004820152602660248201527f416464726573733a20696e73756666696369656e742062616c616e636520666f60448201527f722063616c6c000000000000000000000000000000000000000000000000000060648201526084016102ca565b6000808673ffffffffffffffffffffffffffffffffffffffff1685876040516116749190611bc0565b60006040518083038185875af1925050503d80600081146116b1576040519150601f19603f3d011682016040523d82523d6000602084013e6116b6565b606091505b50915091506116c7878383876116d2565b979650505050505050565b606083156117685782516000036117615773ffffffffffffffffffffffffffffffffffffffff85163b611761576040517f08c379a000000000000000000000000000000000000000000000000000000000815260206004820152601d60248201527f416464726573733a2063616c6c20746f206e6f6e2d636f6e747261637400000060448201526064016102ca565b50816115b1565b6115b1838381511561177d5781518083602001fd5b806040517f08c379a00000000000000000000000000000000000000000000000000000000081526004016102ca9190611c5d565b60008083601f8401126117c357600080fd5b50813567ffffffffffffffff8111156117db57600080fd5b6020830191508360208260051b85010111156117f657600080fd5b9250929050565b6000806000806040858703121561181357600080fd5b843567ffffffffffffffff8082111561182b57600080fd5b611837888389016117b1565b9096509450602087013591508082111561185057600080fd5b5061185d878288016117b1565b95989497509550505050565b73ffffffffffffffffffffffffffffffffffffffff81168114610a1c57600080fd5b803561189681611869565b919050565b600080604083850312156118ae57600080fd5b82356118b981611869565b915060208301356118c981611869565b809150509250929050565b7f4e487b7100000000000000000000000000000000000000000000000000000000600052604160045260246000fd5b6000602080838503121561191657600080fd5b823567ffffffffffffffff8082111561192e57600080fd5b818501915085601f83011261194257600080fd5b813581811115611954576119546118d4565b8060051b6040517fffffffffffffffffffffffffffffffffffffffffffffffffffffffffffffffe0603f83011681018181108582111715611997576119976118d4565b6040529182528482019250838101850191888311156119b557600080fd5b938501935b828510156119da576119cb8561188b565b845293850193928501926119ba565b98975050505050505050565b6000602082840312156119f857600080fd5b5035919050565b600080600060408486031215611a1457600080fd5b8335611a1f81611869565b9250602084013567ffffffffffffffff80821115611a3c57600080fd5b818601915086601f830112611a5057600080fd5b813581811115611a5f57600080fd5b876020828501011115611a7157600080fd5b6020830194508093505050509250925092565b600060208284031215611a9657600080fd5b813561124c81611869565b7f4e487b7100000000000000000000000000000000000000000000000000000000600052603260045260246000fd5b60008083357fffffffffffffffffffffffffffffffffffffffffffffffffffffffffffffffe1843603018112611b0557600080fd5b83018035915067ffffffffffffffff821115611b2057600080fd5b6020019150368190038213156117f657600080fd5b7f4e487b7100000000000000000000000000000000000000000000000000000000600052601160045260246000fd5b60007fffffffffffffffffffffffffffffffffffffffffffffffffffffffffffffffff8203611b9557611b95611b35565b5060010190565b60005b83811015611bb7578181015183820152602001611b9f565b50506000910152565b60008251611bd2818460208701611b9c565b9190910192915050565b7f416363657373436f6e74726f6c3a206163636f756e7420000000000000000000815260008351611c14816017850160208801611b9c565b7f206973206d697373696e6720726f6c65200000000000000000000000000000006017918401918201528351611c51816028840160208801611b9c565b01602801949350505050565b6020815260008251806020840152611c7c816040850160208701611b9c565b601f017fffffffffffffffffffffffffffffffffffffffffffffffffffffffffffffffe0169190910160400192915050565b600060208284031215611cc057600080fd5b8151801515811461124c57600080fd5b808202811582820484141761062357610623611b35565b8082018082111561062357610623611b35565b600081611d0957611d09611b35565b507fffffffffffffffffffffffffffffffffffffffffffffffffffffffffffffffff019056fea264697066735822122095c441717a1f7fc15866f78e51ecc2a1297d20c586add784125f15f57439c9bf64736f6c63430008110033",
  "devdoc": {
    "kind": "dev",
    "methods": {
      "blacklist(address,string)": {
        "details": "External function to add `account` to the blacklist. WARNING: This function is abstract, to enforce it's implementation          in the final contract. This is important to make sure          the final contraqct's access control mechanism will be used! See {ISimpleBlacklist-blacklist}"
      },
      "blacklist(address[],string[])": {
        "details": "External function to add `account` to the blacklist. WARNING: This function is abstract, to enforce it's implementation          in the final contract. This is important to make sure          the final contraqct's access control mechanism will be used! See {ISimpleBlacklist-blacklist}"
      },
      "isBlacklisted(address)": {
        "details": "Returns `true` if `account` is blacklisted."
      },
      "isBlacklisted(address[])": {
        "details": "Returns `true` if any address in `accounts` is on the blacklist."
      },
      "pause()": {
        "details": "Triggers stopped state. Requirements: - The contract must not be paused."
      },
      "paused()": {
        "details": "Returns true if the contract is paused, and false otherwise."
      },
      "unblacklist(address,string)": {
        "details": "External function to remove `account` from the blacklist. WARNING: This function is abstract, to enforce it's implementation          in the final contract. This is important to make sure          the final contraqct's access control mechanism will be used! See {ISimpleBlacklist-unblacklist}"
      },
      "unblacklist(address[],string[])": {
        "details": "External function to add `account` to the blacklist. WARNING: This function is abstract, to enforce it's implementation          in the final contract. This is important to make sure          the final contraqct's access control mechanism will be used! See {ISimpleBlacklist-blacklist}"
      },
      "unpause()": {
        "details": "Returns to normal state. Requirements: - The contract must be paused."
      }
    },
    "version": 1
  },
  "userdoc": {
    "kind": "user",
    "methods": {},
    "version": 1
  },
  "storageLayout": {
    "storage": [
      {
        "astId": 6863,
        "contract": "contracts/positive-impact/PositiveImpact.sol:PositiveImpact",
        "label": "token",
        "offset": 0,
        "slot": "0",
        "type": "t_contract(IERC20)175"
      },
      {
        "astId": 6865,
        "contract": "contracts/positive-impact/PositiveImpact.sol:PositiveImpact",
        "label": "treasury",
        "offset": 0,
        "slot": "1",
        "type": "t_address"
      }
    ],
    "types": {
      "t_address": {
        "encoding": "inplace",
        "label": "address",
        "numberOfBytes": "20"
      },
      "t_contract(IERC20)175": {
        "encoding": "inplace",
        "label": "contract IERC20",
        "numberOfBytes": "20"
      }
    }
  }
}