{
  "address": "0x581fC3Fc663cd025c41E76365a15a3b280c0FF1C",
  "abi": [
    {
      "inputs": [],
      "name": "ERC20ApproveFromZeroAddress",
      "type": "error"
    },
    {
      "inputs": [],
      "name": "ERC20ApproveToZeroAddress",
      "type": "error"
    },
    {
      "inputs": [
        {
          "internalType": "uint256",
          "name": "amount",
          "type": "uint256"
        },
        {
          "internalType": "uint256",
          "name": "balance",
          "type": "uint256"
        }
      ],
      "name": "ERC20BurnAmountExceedsBalance",
      "type": "error"
    },
    {
      "inputs": [],
      "name": "ERC20BurnFromZeroAddress",
      "type": "error"
    },
    {
      "inputs": [
        {
          "internalType": "uint256",
          "name": "value",
          "type": "uint256"
        },
        {
          "internalType": "uint256",
          "name": "allowance",
          "type": "uint256"
        }
      ],
      "name": "ERC20DecreasedAllowanceBelowZero",
      "type": "error"
    },
    {
      "inputs": [
        {
          "internalType": "uint256",
          "name": "amount",
          "type": "uint256"
        },
        {
          "internalType": "uint256",
          "name": "allowance",
          "type": "uint256"
        }
      ],
      "name": "ERC20InsufficientAllowance",
      "type": "error"
    },
    {
      "inputs": [],
      "name": "ERC20MintToZeroAddress",
      "type": "error"
    },
    {
      "inputs": [
        {
          "internalType": "uint256",
          "name": "amount",
          "type": "uint256"
        },
        {
          "internalType": "uint256",
          "name": "balance",
          "type": "uint256"
        }
      ],
      "name": "ERC20TransferAmountExceedsBalance",
      "type": "error"
    },
    {
      "inputs": [],
      "name": "ERC20TransferFromZeroAddress",
      "type": "error"
    },
    {
      "inputs": [],
      "name": "ERC20TransferToZeroAddress",
      "type": "error"
    },
    {
      "inputs": [],
      "name": "InitializerContractAlreadyInitialized",
      "type": "error"
    },
    {
      "inputs": [],
      "name": "InitializerContractIsInitializing",
      "type": "error"
    },
    {
      "inputs": [],
      "name": "InitializerContractIsNotInitializing",
      "type": "error"
    },
    {
      "inputs": [
        {
          "internalType": "uint8",
          "name": "version",
          "type": "uint8"
        }
      ],
      "name": "InitializerVersionAlreadyInitialized",
      "type": "error"
    },
    {
      "inputs": [],
      "name": "LockNotExpired",
      "type": "error"
    },
    {
      "inputs": [],
      "name": "LockNotFound",
      "type": "error"
    },
    {
      "inputs": [],
      "name": "UnsupportedDuration",
      "type": "error"
    },
    {
      "anonymous": false,
      "inputs": [
        {
          "indexed": true,
          "internalType": "address",
          "name": "owner",
          "type": "address"
        },
        {
          "indexed": true,
          "internalType": "address",
          "name": "spender",
          "type": "address"
        },
        {
          "indexed": false,
          "internalType": "uint256",
          "name": "value",
          "type": "uint256"
        }
      ],
      "name": "Approval",
      "type": "event"
    },
    {
      "anonymous": false,
      "inputs": [
        {
          "indexed": true,
          "internalType": "address",
          "name": "account",
          "type": "address"
        },
        {
          "indexed": true,
          "internalType": "string",
          "name": "reason",
          "type": "string"
        }
      ],
      "name": "Blacklisted",
      "type": "event"
    },
    {
      "anonymous": false,
      "inputs": [
        {
          "indexed": false,
          "internalType": "address",
          "name": "account",
          "type": "address"
        },
        {
          "indexed": false,
          "internalType": "uint256",
          "name": "amount",
          "type": "uint256"
        },
        {
          "indexed": false,
          "internalType": "uint256",
          "name": "reward",
          "type": "uint256"
        },
        {
          "indexed": false,
          "internalType": "uint32",
          "name": "duration",
          "type": "uint32"
        },
        {
          "indexed": false,
          "internalType": "uint32",
          "name": "lockedAt",
          "type": "uint32"
        },
        {
          "indexed": false,
          "internalType": "uint32",
          "name": "expiresAt",
          "type": "uint32"
        }
      ],
      "name": "Deposit",
      "type": "event"
    },
    {
      "anonymous": false,
      "inputs": [
        {
          "indexed": false,
          "internalType": "uint8",
          "name": "version",
          "type": "uint8"
        }
      ],
      "name": "Initialized",
      "type": "event"
    },
    {
      "anonymous": false,
      "inputs": [
        {
          "indexed": false,
          "internalType": "address",
          "name": "account",
          "type": "address"
        },
        {
          "indexed": false,
          "internalType": "uint256",
          "name": "amount",
          "type": "uint256"
        },
        {
          "indexed": false,
          "internalType": "uint256",
          "name": "reward",
          "type": "uint256"
        },
        {
          "indexed": false,
          "internalType": "uint32",
          "name": "duration",
          "type": "uint32"
        },
        {
          "indexed": false,
          "internalType": "uint32",
          "name": "lockedAt",
          "type": "uint32"
        }
      ],
      "name": "Redeem",
      "type": "event"
    },
    {
      "anonymous": false,
      "inputs": [
        {
          "indexed": true,
          "internalType": "bytes32",
          "name": "role",
          "type": "bytes32"
        },
        {
          "indexed": true,
          "internalType": "bytes32",
          "name": "previousAdminRole",
          "type": "bytes32"
        },
        {
          "indexed": true,
          "internalType": "bytes32",
          "name": "newAdminRole",
          "type": "bytes32"
        }
      ],
      "name": "RoleAdminChanged",
      "type": "event"
    },
    {
      "anonymous": false,
      "inputs": [
        {
          "indexed": true,
          "internalType": "bytes32",
          "name": "role",
          "type": "bytes32"
        },
        {
          "indexed": true,
          "internalType": "address",
          "name": "account",
          "type": "address"
        },
        {
          "indexed": true,
          "internalType": "address",
          "name": "sender",
          "type": "address"
        }
      ],
      "name": "RoleGranted",
      "type": "event"
    },
    {
      "anonymous": false,
      "inputs": [
        {
          "indexed": true,
          "internalType": "bytes32",
          "name": "role",
          "type": "bytes32"
        },
        {
          "indexed": true,
          "internalType": "address",
          "name": "account",
          "type": "address"
        },
        {
          "indexed": true,
          "internalType": "address",
          "name": "sender",
          "type": "address"
        }
      ],
      "name": "RoleRevoked",
      "type": "event"
    },
    {
      "anonymous": false,
      "inputs": [
        {
          "indexed": true,
          "internalType": "address",
          "name": "from",
          "type": "address"
        },
        {
          "indexed": true,
          "internalType": "address",
          "name": "to",
          "type": "address"
        },
        {
          "indexed": false,
          "internalType": "uint256",
          "name": "value",
          "type": "uint256"
        }
      ],
      "name": "Transfer",
      "type": "event"
    },
    {
      "anonymous": false,
      "inputs": [
        {
          "indexed": true,
          "internalType": "address",
          "name": "account",
          "type": "address"
        },
        {
          "indexed": true,
          "internalType": "string",
          "name": "reason",
          "type": "string"
        }
      ],
      "name": "UnBlacklisted",
      "type": "event"
    },
    {
      "inputs": [],
      "name": "MAX_DEPOSIT_AMOUNT",
      "outputs": [
        {
          "internalType": "uint256",
          "name": "",
          "type": "uint256"
        }
      ],
      "stateMutability": "view",
      "type": "function"
    },
    {
      "inputs": [],
      "name": "MIN_DEPOSIT_AMOUNT",
      "outputs": [
        {
          "internalType": "uint256",
          "name": "",
          "type": "uint256"
        }
      ],
      "stateMutability": "view",
      "type": "function"
    },
    {
      "inputs": [
        {
          "internalType": "address",
          "name": "owner",
          "type": "address"
        },
        {
          "internalType": "address",
          "name": "spender",
          "type": "address"
        }
      ],
      "name": "allowance",
      "outputs": [
        {
          "internalType": "uint256",
          "name": "",
          "type": "uint256"
        }
      ],
      "stateMutability": "view",
      "type": "function"
    },
    {
      "inputs": [
        {
          "internalType": "address",
          "name": "spender",
          "type": "address"
        },
        {
          "internalType": "uint256",
          "name": "amount",
          "type": "uint256"
        }
      ],
      "name": "approve",
      "outputs": [
        {
          "internalType": "bool",
          "name": "",
          "type": "bool"
        }
      ],
      "stateMutability": "nonpayable",
      "type": "function"
    },
    {
      "inputs": [
        {
          "internalType": "address",
          "name": "account",
          "type": "address"
        }
      ],
      "name": "balanceOf",
      "outputs": [
        {
          "internalType": "uint256",
          "name": "",
          "type": "uint256"
        }
      ],
      "stateMutability": "view",
      "type": "function"
    },
    {
      "inputs": [
        {
          "internalType": "address[]",
          "name": "accounts",
          "type": "address[]"
        },
        {
          "internalType": "string[]",
          "name": "reasons",
          "type": "string[]"
        }
      ],
      "name": "blacklist",
      "outputs": [],
      "stateMutability": "nonpayable",
      "type": "function"
    },
    {
      "inputs": [
        {
          "internalType": "address",
          "name": "account",
          "type": "address"
        },
        {
          "internalType": "string",
          "name": "reason",
          "type": "string"
        }
      ],
      "name": "blacklist",
      "outputs": [],
      "stateMutability": "nonpayable",
      "type": "function"
    },
    {
      "inputs": [],
      "name": "decimals",
      "outputs": [
        {
          "internalType": "uint8",
          "name": "",
          "type": "uint8"
        }
      ],
      "stateMutability": "view",
      "type": "function"
    },
    {
      "inputs": [
        {
          "internalType": "address",
          "name": "spender",
          "type": "address"
        },
        {
          "internalType": "uint256",
          "name": "subtractedValue",
          "type": "uint256"
        }
      ],
      "name": "decreaseAllowance",
      "outputs": [
        {
          "internalType": "bool",
          "name": "",
          "type": "bool"
        }
      ],
      "stateMutability": "nonpayable",
      "type": "function"
    },
    {
      "inputs": [
        {
          "internalType": "uint256",
          "name": "amount",
          "type": "uint256"
        },
        {
          "internalType": "uint32",
          "name": "duration",
          "type": "uint32"
        }
      ],
      "name": "deposit",
      "outputs": [],
      "stateMutability": "nonpayable",
      "type": "function"
    },
    {
      "inputs": [
        {
          "internalType": "address",
          "name": "account",
          "type": "address"
        },
        {
          "internalType": "uint32",
          "name": "duration",
          "type": "uint32"
        }
      ],
      "name": "getLock",
      "outputs": [
        {
          "components": [
            {
              "internalType": "uint256",
              "name": "amount",
              "type": "uint256"
            },
            {
              "internalType": "uint256",
              "name": "reward",
              "type": "uint256"
            },
            {
              "internalType": "uint32",
              "name": "duration",
              "type": "uint32"
            },
            {
              "internalType": "uint32",
              "name": "lockedAt",
              "type": "uint32"
            },
            {
              "internalType": "uint32",
              "name": "expiresAt",
              "type": "uint32"
            }
          ],
          "internalType": "struct ITokenLocker.Lock",
          "name": "lock",
          "type": "tuple"
        }
      ],
      "stateMutability": "view",
      "type": "function"
    },
    {
      "inputs": [
        {
          "internalType": "address[]",
          "name": "accounts",
          "type": "address[]"
        },
        {
          "internalType": "uint32[]",
          "name": "durations",
          "type": "uint32[]"
        }
      ],
      "name": "getLocks",
      "outputs": [
        {
          "components": [
            {
              "internalType": "uint256",
              "name": "amount",
              "type": "uint256"
            },
            {
              "internalType": "uint256",
              "name": "reward",
              "type": "uint256"
            },
            {
              "internalType": "uint32",
              "name": "duration",
              "type": "uint32"
            },
            {
              "internalType": "uint32",
              "name": "lockedAt",
              "type": "uint32"
            },
            {
              "internalType": "uint32",
              "name": "expiresAt",
              "type": "uint32"
            }
          ],
          "internalType": "struct ITokenLocker.Lock[]",
          "name": "locks",
          "type": "tuple[]"
        }
      ],
      "stateMutability": "view",
      "type": "function"
    },
    {
      "inputs": [
        {
          "internalType": "bytes32",
          "name": "role",
          "type": "bytes32"
        }
      ],
      "name": "getRoleAdmin",
      "outputs": [
        {
          "internalType": "bytes32",
          "name": "",
          "type": "bytes32"
        }
      ],
      "stateMutability": "view",
      "type": "function"
    },
    {
      "inputs": [
        {
          "internalType": "bytes32",
          "name": "role",
          "type": "bytes32"
        },
        {
          "internalType": "uint256",
          "name": "index",
          "type": "uint256"
        }
      ],
      "name": "getRoleMember",
      "outputs": [
        {
          "internalType": "address",
          "name": "",
          "type": "address"
        }
      ],
      "stateMutability": "view",
      "type": "function"
    },
    {
      "inputs": [
        {
          "internalType": "bytes32",
          "name": "role",
          "type": "bytes32"
        }
      ],
      "name": "getRoleMemberCount",
      "outputs": [
        {
          "internalType": "uint256",
          "name": "",
          "type": "uint256"
        }
      ],
      "stateMutability": "view",
      "type": "function"
    },
    {
      "inputs": [
        {
          "internalType": "address",
          "name": "account",
          "type": "address"
        }
      ],
      "name": "getUserInfo",
      "outputs": [
        {
          "components": [
            {
              "internalType": "uint256",
              "name": "amount",
              "type": "uint256"
            },
            {
              "internalType": "uint32",
              "name": "duration",
              "type": "uint32"
            },
            {
              "internalType": "uint32",
              "name": "lockedAt",
              "type": "uint32"
            }
          ],
          "internalType": "struct ITokenLocker.UserInfo[]",
          "name": "userLockInfo",
          "type": "tuple[]"
        }
      ],
      "stateMutability": "view",
      "type": "function"
    },
    {
      "inputs": [
        {
          "internalType": "address",
          "name": "account",
          "type": "address"
        },
        {
          "internalType": "uint256",
          "name": "id",
          "type": "uint256"
        }
      ],
      "name": "getUserInfo",
      "outputs": [
        {
          "components": [
            {
              "internalType": "uint256",
              "name": "amount",
              "type": "uint256"
            },
            {
              "internalType": "uint32",
              "name": "duration",
              "type": "uint32"
            },
            {
              "internalType": "uint32",
              "name": "lockedAt",
              "type": "uint32"
            }
          ],
          "internalType": "struct ITokenLocker.UserInfo",
          "name": "",
          "type": "tuple"
        }
      ],
      "stateMutability": "view",
      "type": "function"
    },
    {
      "inputs": [
        {
          "internalType": "address",
          "name": "account",
          "type": "address"
        }
      ],
      "name": "getUserInfoLength",
      "outputs": [
        {
          "internalType": "uint256",
          "name": "",
          "type": "uint256"
        }
      ],
      "stateMutability": "view",
      "type": "function"
    },
    {
      "inputs": [
        {
          "internalType": "bytes32",
          "name": "role",
          "type": "bytes32"
        },
        {
          "internalType": "address",
          "name": "account",
          "type": "address"
        }
      ],
      "name": "grantRole",
      "outputs": [],
      "stateMutability": "nonpayable",
      "type": "function"
    },
    {
      "inputs": [
        {
          "internalType": "bytes32",
          "name": "role",
          "type": "bytes32"
        },
        {
          "internalType": "address",
          "name": "account",
          "type": "address"
        }
      ],
      "name": "hasRole",
      "outputs": [
        {
          "internalType": "bool",
          "name": "",
          "type": "bool"
        }
      ],
      "stateMutability": "view",
      "type": "function"
    },
    {
      "inputs": [
        {
          "internalType": "address",
          "name": "spender",
          "type": "address"
        },
        {
          "internalType": "uint256",
          "name": "addedValue",
          "type": "uint256"
        }
      ],
      "name": "increaseAllowance",
      "outputs": [
        {
          "internalType": "bool",
          "name": "",
          "type": "bool"
        }
      ],
      "stateMutability": "nonpayable",
      "type": "function"
    },
    {
      "inputs": [
        {
          "internalType": "contract IERC20",
          "name": "token_",
          "type": "address"
        },
        {
          "internalType": "address",
          "name": "owner",
          "type": "address"
        }
      ],
      "name": "initialize",
      "outputs": [],
      "stateMutability": "nonpayable",
      "type": "function"
    },
    {
      "inputs": [
        {
          "internalType": "address[]",
          "name": "accounts",
          "type": "address[]"
        }
      ],
      "name": "isBlacklisted",
      "outputs": [
        {
          "internalType": "bool",
          "name": "",
          "type": "bool"
        }
      ],
      "stateMutability": "view",
      "type": "function"
    },
    {
      "inputs": [
        {
          "internalType": "address",
          "name": "account",
          "type": "address"
        }
      ],
      "name": "isBlacklisted",
      "outputs": [
        {
          "internalType": "bool",
          "name": "",
          "type": "bool"
        }
      ],
      "stateMutability": "view",
      "type": "function"
    },
    {
      "inputs": [
        {
          "internalType": "address[]",
          "name": "accounts",
          "type": "address[]"
        }
      ],
      "name": "migrate",
      "outputs": [],
      "stateMutability": "nonpayable",
      "type": "function"
    },
    {
      "inputs": [],
      "name": "name",
      "outputs": [
        {
          "internalType": "string",
          "name": "",
          "type": "string"
        }
      ],
      "stateMutability": "view",
      "type": "function"
    },
    {
      "inputs": [],
      "name": "pause",
      "outputs": [],
      "stateMutability": "nonpayable",
      "type": "function"
    },
    {
      "inputs": [],
      "name": "paused",
      "outputs": [
        {
          "internalType": "bool",
          "name": "",
          "type": "bool"
        }
      ],
      "stateMutability": "view",
      "type": "function"
    },
    {
      "inputs": [
        {
          "internalType": "uint32",
          "name": "duration",
          "type": "uint32"
        }
      ],
      "name": "redeem",
      "outputs": [],
      "stateMutability": "nonpayable",
      "type": "function"
    },
    {
      "inputs": [
        {
          "internalType": "address[]",
          "name": "migrationManagers",
          "type": "address[]"
        }
      ],
      "name": "reinitialize",
      "outputs": [],
      "stateMutability": "nonpayable",
      "type": "function"
    },
    {
      "inputs": [
        {
          "internalType": "bytes32",
          "name": "role",
          "type": "bytes32"
        },
        {
          "internalType": "address",
          "name": "account",
          "type": "address"
        }
      ],
      "name": "renounceRole",
      "outputs": [],
      "stateMutability": "nonpayable",
      "type": "function"
    },
    {
      "inputs": [
        {
          "internalType": "bytes32",
          "name": "role",
          "type": "bytes32"
        },
        {
          "internalType": "address",
          "name": "account",
          "type": "address"
        }
      ],
      "name": "revokeRole",
      "outputs": [],
      "stateMutability": "nonpayable",
      "type": "function"
    },
    {
      "inputs": [
        {
          "internalType": "bytes32",
          "name": "role",
          "type": "bytes32"
        },
        {
          "internalType": "bytes32",
          "name": "adminRole",
          "type": "bytes32"
        }
      ],
      "name": "setRoleAdmin",
      "outputs": [],
      "stateMutability": "nonpayable",
      "type": "function"
    },
    {
      "inputs": [],
      "name": "symbol",
      "outputs": [
        {
          "internalType": "string",
          "name": "",
          "type": "string"
        }
      ],
      "stateMutability": "view",
      "type": "function"
    },
    {
      "inputs": [],
      "name": "token",
      "outputs": [
        {
          "internalType": "contract IERC20",
          "name": "",
          "type": "address"
        }
      ],
      "stateMutability": "view",
      "type": "function"
    },
    {
      "inputs": [],
      "name": "totalSupply",
      "outputs": [
        {
          "internalType": "uint256",
          "name": "",
          "type": "uint256"
        }
      ],
      "stateMutability": "view",
      "type": "function"
    },
    {
      "inputs": [
        {
          "internalType": "address",
          "name": "to",
          "type": "address"
        },
        {
          "internalType": "uint256",
          "name": "amount",
          "type": "uint256"
        }
      ],
      "name": "transfer",
      "outputs": [
        {
          "internalType": "bool",
          "name": "",
          "type": "bool"
        }
      ],
      "stateMutability": "nonpayable",
      "type": "function"
    },
    {
      "inputs": [
        {
          "internalType": "address",
          "name": "from",
          "type": "address"
        },
        {
          "internalType": "address",
          "name": "to",
          "type": "address"
        },
        {
          "internalType": "uint256",
          "name": "amount",
          "type": "uint256"
        }
      ],
      "name": "transferFrom",
      "outputs": [
        {
          "internalType": "bool",
          "name": "",
          "type": "bool"
        }
      ],
      "stateMutability": "nonpayable",
      "type": "function"
    },
    {
      "inputs": [
        {
          "internalType": "address[]",
          "name": "accounts",
          "type": "address[]"
        },
        {
          "internalType": "string[]",
          "name": "reasons",
          "type": "string[]"
        }
      ],
      "name": "unblacklist",
      "outputs": [],
      "stateMutability": "nonpayable",
      "type": "function"
    },
    {
      "inputs": [
        {
          "internalType": "address",
          "name": "account",
          "type": "address"
        },
        {
          "internalType": "string",
          "name": "reason",
          "type": "string"
        }
      ],
      "name": "unblacklist",
      "outputs": [],
      "stateMutability": "nonpayable",
      "type": "function"
    },
    {
      "inputs": [],
      "name": "unpause",
      "outputs": [],
      "stateMutability": "nonpayable",
      "type": "function"
    },
    {
      "inputs": [
        {
          "internalType": "address",
          "name": "",
          "type": "address"
        },
        {
          "internalType": "uint256",
          "name": "",
          "type": "uint256"
        }
      ],
      "name": "userInfo",
      "outputs": [
        {
          "internalType": "uint256",
          "name": "amount",
          "type": "uint256"
        },
        {
          "internalType": "uint32",
          "name": "duration",
          "type": "uint32"
        },
        {
          "internalType": "uint32",
          "name": "lockedAt",
          "type": "uint32"
        }
      ],
      "stateMutability": "view",
      "type": "function"
    },
    {
      "inputs": [
        {
          "internalType": "address",
          "name": "",
          "type": "address"
        },
        {
          "internalType": "uint256",
          "name": "",
          "type": "uint256"
        }
      ],
      "name": "userInfoMigrated",
      "outputs": [
        {
          "internalType": "bool",
          "name": "",
          "type": "bool"
        }
      ],
      "stateMutability": "view",
      "type": "function"
    }
  ],
  "transactionHash": "0xa91fa5f8046d589dea53b2aadc8cd4101891c609b0ef4fb2b45680595a0726b8",
  "args": [],
  "numDeployments": 2,
  "solcInputHash": "f3b9fe82b8b6b04da344e71c2b803807",
  "bytecode": "0x608060405234801561001057600080fd5b50614e94806100206000396000f3fe608060405234801561001057600080fd5b50600436106102e95760003560e01c80634c34a98211610191578063a457c2d7116100e3578063d1e6c30c11610097578063ddf579ff11610071578063ddf579ff14610684578063fc0c546a14610697578063fe575a87146106b757600080fd5b8063d1e6c30c1461064b578063d547741f1461065e578063dd62ed3e1461067157600080fd5b8063c3392ee5116100c8578063c3392ee5146105ef578063ca15c87314610625578063ce5da4071461063857600080fd5b8063a457c2d7146105ce578063a9059cbb146105e157600080fd5b806376e8424f116101455780639010d07c1161011f5780639010d07c1461057b57806391d14854146105b357806395d89b41146105c657600080fd5b806376e8424f146105405780638456cb591461056057806385bee14b1461056857600080fd5b80636386c1c7116101765780636386c1c7146104fa5780636ebb16d31461051a57806370a082311461052d57600080fd5b80634c34a982146104e15780635c975abb146104f257600080fd5b8063248a9ca31161024a57806336568abe116101fe57806339509351116101d857806339509351146104b35780633f4ba83a146104c6578063485cc955146104ce57600080fd5b806336568abe1461046057806338bae1f71461047357806338c6e7951461049357600080fd5b80632e558d691161022f5780632e558d691461042b5780632f2ff15d1461043e578063313ce5671461045157600080fd5b8063248a9ca3146104055780632b2dfd2c1461041857600080fd5b80631c8f9f25116102a15780631ea30fef116102865780631ea30fef146103ae57806321ce919d146103bd57806323b872dd146103f257600080fd5b80631c8f9f251461036d5780631e4e00911461039b57600080fd5b8063095ea7b3116102d2578063095ea7b31461032157806318160ddd14610344578063186d38301461035a57600080fd5b806305a7508b146102ee57806306fdde0314610303575b600080fd5b6103016102fc3660046142f5565b6106ca565b005b61030b6106f3565b6040516103189190614334565b60405180910390f35b61033461032f3660046143b2565b610702565b6040519015158152602001610318565b61034c610719565b604051908152602001610318565b61030161036836600461442a565b610743565b61033461037b3660046143b2565b600260209081526000928352604080842090915290825290205460ff1681565b6103016103a9366004614496565b610915565b61034c670de0b6b3a764000081565b6103d06103cb3660046143b2565b610959565b6040805193845263ffffffff9283166020850152911690820152606001610318565b6103346104003660046144b8565b6109a7565b61034c6104133660046144f9565b610a0c565b610301610426366004614512565b610a42565b61030161043936600461453e565b610b5a565b61030161044c366004614580565b610d8c565b60405160128152602001610318565b61030161046e366004614580565b610dd0565b61048661048136600461442a565b610e7f565b60405161031891906145b0565b6104a66104a1366004614637565b6110d5565b6040516103189190614663565b6103346104c13660046143b2565b6111c7565b61030161122f565b6103016104dc3660046146aa565b61126a565b61034c69010f0cf064dd5920000081565b61033461149f565b61050d6105083660046146d8565b6114a9565b60405161031891906146f5565b610334610528366004614786565b6115e8565b61034c61053b3660046146d8565b6115f3565b61055361054e3660046143b2565b61163d565b6040516103189190614869565b6103016116db565b61030161057636600461453e565b611714565b61058e610589366004614496565b6119fc565b60405173ffffffffffffffffffffffffffffffffffffffff9091168152602001610318565b6103346105c1366004614580565b611a08565b61030b611a14565b6103346105dc3660046143b2565b611a1e565b6103346104003660046143b2565b61034c6105fd3660046146d8565b73ffffffffffffffffffffffffffffffffffffffff1660009081526001602052604090205490565b61034c6106333660046144f9565b611ac9565b61030161064636600461442a565b611ad4565b610301610659366004614897565b611c93565b61030161066c366004614580565b611cfc565b61034c61067f3660046146aa565b611d36565b610301610692366004614897565b611d8f565b60005461058e9073ffffffffffffffffffffffffffffffffffffffff1681565b6103346106c53660046146d8565b611df8565b6106d2611e45565b6106db33611ee4565b6106e53382611ef0565b6106ef3382611fe4565b5050565b60606106fd6122e4565b905090565b600061070f338484612398565b5060015b92915050565b60006106fd7f1bdb0091f995c1d3419374bcead175ae14251e0f0aba8df7ace36571bda12e9c5490565b61076c7ff988e4fb62b8e14f4820fed03192306ddf4d7dbfa215595ba1c6ba4b76b369ee6124c0565b80156108b157828114610806576040517f08c379a000000000000000000000000000000000000000000000000000000000815260206004820152602360248201527f53696d706c65426c61636b6c6973743a204e6f7420656e6f756768207265617360448201527f6f6e73000000000000000000000000000000000000000000000000000000000060648201526084015b60405180910390fd5b60005b838110156108ab576108998585838181106108265761082661491c565b905060200201602081019061083b91906146d8565b84848481811061084d5761084d61491c565b905060200281019061085f919061494b565b8080601f0160208091040260200160405190810160405280939291908181526020018383808284376000920191909152506124ca92505050565b806108a3816149df565b915050610809565b5061090f565b60005b8381101561090d576108fb8585838181106108d1576108d161491c565b90506020020160208101906108e691906146d8565b604051806020016040528060008152506124ca565b80610905816149df565b9150506108b4565b505b50505050565b60008281527fffaa26784aca465bf23123375047d80ccb2b41102e02e5c4ef5b5aa00624b2d2602052604090206001015461094f906124c0565b6106ef82826125db565b6001602052816000526040600020818154811061097557600080fd5b60009182526020909120600290910201805460019091015490925063ffffffff80821692506401000000009091041683565b6040517f08c379a000000000000000000000000000000000000000000000000000000000815260206004820152601860248201527f45524332303a204e6974207472616e736665727261626c65000000000000000060448201526000906064016107fd565b60008181527fffaa26784aca465bf23123375047d80ccb2b41102e02e5c4ef5b5aa00624b2d26020526040812060010154610713565b610a4a611e45565b610a5333611ee4565b670de0b6b3a76400008211610ac4576040517f08c379a000000000000000000000000000000000000000000000000000000000815260206004820152601b60248201527f416d6f756e74203c204d494e5f4445504f5349545f414d4f554e54000000000060448201526064016107fd565b69010f0cf064dd592000008210610b37576040517f08c379a000000000000000000000000000000000000000000000000000000000815260206004820152601b60248201527f416d6f756e74203e204d41585f4445504f5349545f414d4f554e54000000000060448201526064016107fd565b6000610b4282612645565b11610b4f57610b4f614a17565b6106ef3383836126b6565b610b837f739a51874800ca2ea551f6738888eda63da7b0ffed906ab18243498239604e966124c0565b60005b81811015610d8757600060016000858585818110610ba657610ba661491c565b9050602002016020810190610bbb91906146d8565b73ffffffffffffffffffffffffffffffffffffffff1673ffffffffffffffffffffffffffffffffffffffff168152602001908152602001600020905060005b8154811015610d745760026000868686818110610c1957610c1961491c565b9050602002016020810190610c2e91906146d8565b73ffffffffffffffffffffffffffffffffffffffff1681526020808201929092526040908101600090812084825290925290205460ff16610d64576000828281548110610c7d57610c7d61491c565b90600052602060002090600202019050610cd5868686818110610ca257610ca261491c565b9050602002016020810190610cb791906146d8565b8254600184015463ffffffff80821691640100000000900416612935565b600160026000888888818110610ced57610ced61491c565b9050602002016020810190610d0291906146d8565b73ffffffffffffffffffffffffffffffffffffffff16815260208082019290925260409081016000908120868252909252902080547fffffffffffffffffffffffffffffffffffffffffffffffffffffffffffffff0016911515919091179055505b610d6d816149df565b9050610bfa565b505080610d80906149df565b9050610b86565b505050565b60008281527fffaa26784aca465bf23123375047d80ccb2b41102e02e5c4ef5b5aa00624b2d26020526040902060010154610dc6906124c0565b6106ef8282612f12565b73ffffffffffffffffffffffffffffffffffffffff81163314610e75576040517f08c379a000000000000000000000000000000000000000000000000000000000815260206004820152602f60248201527f416363657373436f6e74726f6c3a2063616e206f6e6c792072656e6f756e636560448201527f20726f6c657320666f722073656c66000000000000000000000000000000000060648201526084016107fd565b6106ef8282613014565b606083828114610eeb576040517f08c379a000000000000000000000000000000000000000000000000000000000815260206004820152601060248201527f4c656e677468206d6973736d617463680000000000000000000000000000000060448201526064016107fd565b8467ffffffffffffffff811115610f0457610f04614757565b604051908082528060200260200182016040528015610f7b57816020015b6040805160a0810182526000808252602080830182905292820181905260608201819052608082015282527fffffffffffffffffffffffffffffffffffffffffffffffffffffffffffffffff909201910181610f225790505b50915060005b818110156110cb576110a6878783818110610f9e57610f9e61491c565b9050602002016020810190610fb391906146d8565b868684818110610fc557610fc561491c565b9050602002016020810190610fda91906142f5565b6040805160a08082018352600080835260208084018290528385018290526060808501839052608094850183905273ffffffffffffffffffffffffffffffffffffffff9790971682527fc3e2198cb9100972704cf8e52b0abb0942d86d4aefd2e3b156a1254839eebab6815284822063ffffffff9687168352815290849020845192830185528054835260018101549183019190915260020154808516938201939093526401000000008304841694810194909452680100000000000000009091049091169082015290565b8382815181106110b8576110b861491c565b6020908102919091010152600101610f81565b5050949350505050565b6040805160a08082018352600080835260208084018290528385018290526060808501839052608080860184905286518086018852848152808401859052808801859052808301859052810184905273ffffffffffffffffffffffffffffffffffffffff891684527fc3e2198cb9100972704cf8e52b0abb0942d86d4aefd2e3b156a1254839eebab6835286842063ffffffff808a168652908452938790208751958601885280548652600181015493860193909352600290920154808416968501969096526401000000008604831690840152680100000000000000009094041692810192909252905b9392505050565b3360008181527f1bdb0091f995c1d3419374bcead175ae14251e0f0aba8df7ace36571bda12ea06020908152604080832073ffffffffffffffffffffffffffffffffffffffff87168452909152812054909161070f91859061122a908690614a46565b612398565b6112587f356a809dfdea9198dd76fb76bf6d403ecf13ea675eb89e1eda2db2c4a4676a266124c0565b611260613114565b6112686131b2565b565b7f0de7f2b0af5ab1aa4eca2b133cdee828bdcfefa98e4927fa304b2ad002ca6eb354610100900460ff16158080156112c857507f0de7f2b0af5ab1aa4eca2b133cdee828bdcfefa98e4927fa304b2ad002ca6eb354600160ff909116105b806112e75750303b1580156112e757506112e061322f565b60ff166001145b1561146d576112f6600161325c565b8015611348577f0de7f2b0af5ab1aa4eca2b133cdee828bdcfefa98e4927fa304b2ad002ca6eb380547fffffffffffffffffffffffffffffffffffffffffffffffffffffffffffff00ff166101001790555b600080547fffffffffffffffffffffffff00000000000000000000000000000000000000001673ffffffffffffffffffffffffffffffffffffffff85161781556113929083612f12565b6113bc7f241ecf16d79d0f8dbfb92cbc07fe17840425976cf0667f022fe9877caa831b0883612f12565b6113e67fda6fac9f81a22bb02ed26455dcee2a5f2434c8a3377a2cc986478052c1594f9e83612f12565b8015610d87577f0de7f2b0af5ab1aa4eca2b133cdee828bdcfefa98e4927fa304b2ad002ca6eb380547fffffffffffffffffffffffffffffffffffffffffffffffffffffffffffff00ff169055604051600181527f7f26b83ff96e1f2b6a682f133852f6798a09c465da95921460cefb3847402498906020015b60405180910390a1505050565b6040517f5d99ebd200000000000000000000000000000000000000000000000000000000815260040160405180910390fd5b60006106fd613314565b73ffffffffffffffffffffffffffffffffffffffff8116600090815260016020526040812080546060928167ffffffffffffffff8111156114ec576114ec614757565b60405190808252806020026020018201604052801561155557816020015b60408051606081018252600080825260208083018290529282015282527fffffffffffffffffffffffffffffffffffffffffffffffffffffffffffffffff90920191018161150a5790505b5093505b818110156115e0578281815481106115735761157361491c565b6000918252602091829020604080516060810182526002909302909101805483526001015463ffffffff8082169484019490945264010000000090049092169181019190915284518590839081106115cd576115cd61491c565b6020908102919091010152600101611559565b505050919050565b60006107138261333c565b73ffffffffffffffffffffffffffffffffffffffff811660009081527f1bdb0091f995c1d3419374bcead175ae14251e0f0aba8df7ace36571bda12e9f6020526040812054610713565b604080516060810182526000808252602080830182905282840182905273ffffffffffffffffffffffffffffffffffffffff86168252600190529190912080548390811061168d5761168d61491c565b6000918252602091829020604080516060810182526002909302909101805483526001015463ffffffff80821694840194909452640100000000900490921691810191909152905092915050565b6117047f356a809dfdea9198dd76fb76bf6d403ecf13ea675eb89e1eda2db2c4a4676a266124c0565b61170c611e45565b6112686133d9565b7f0de7f2b0af5ab1aa4eca2b133cdee828bdcfefa98e4927fa304b2ad002ca6eb354600290610100900460ff168061177357507f0de7f2b0af5ab1aa4eca2b133cdee828bdcfefa98e4927fa304b2ad002ca6eb35460ff808316911610155b156117af576040517fbfdd178500000000000000000000000000000000000000000000000000000000815260ff821660048201526024016107fd565b6117b88161325c565b7f0de7f2b0af5ab1aa4eca2b133cdee828bdcfefa98e4927fa304b2ad002ca6eb380547fffffffffffffffffffffffffffffffffffffffffffffffffffffffffffff00ff1661010017905561182c7f241ecf16d79d0f8dbfb92cbc07fe17840425976cf0667f022fe9877caa831b086124c0565b61186a6040518060400160405280601a81526020017f4b796f746f5377617020476f7665726e616e636520546f6b656e000000000000815250613453565b6118a86040518060400160405280600781526020017f766f4b535741500000000000000000000000000000000000000000000000000081525061347e565b6000547fc3e2198cb9100972704cf8e52b0abb0942d86d4aefd2e3b156a1254839eebab580547fffffffffffffffffffffffff00000000000000000000000000000000000000001673ffffffffffffffffffffffffffffffffffffffff9092169190911790556119166133d9565b60005b82811015611981576119717f739a51874800ca2ea551f6738888eda63da7b0ffed906ab18243498239604e968585848181106119575761195761491c565b905060200201602081019061196c91906146d8565b612f12565b61197a816149df565b9050611919565b507f0de7f2b0af5ab1aa4eca2b133cdee828bdcfefa98e4927fa304b2ad002ca6eb380547fffffffffffffffffffffffffffffffffffffffffffffffffffffffffffff00ff16905560405160ff821681527f7f26b83ff96e1f2b6a682f133852f6798a09c465da95921460cefb384740249890602001611460565b60006111c083836134a9565b60006111c083836134e0565b60606106fd6135d3565b3360009081527f1bdb0091f995c1d3419374bcead175ae14251e0f0aba8df7ace36571bda12ea06020908152604080832073ffffffffffffffffffffffffffffffffffffffff8616845290915281205480831115611ab2576040517fc7d2f36c00000000000000000000000000000000000000000000000000000000815260048101849052602481018290526044016107fd565b611abf3385858403612398565b5060019392505050565b600061071382613604565b611afd7ff988e4fb62b8e14f4820fed03192306ddf4d7dbfa215595ba1c6ba4b76b369ee6124c0565b8015611c3757828114611b92576040517f08c379a000000000000000000000000000000000000000000000000000000000815260206004820152602360248201527f53696d706c65426c61636b6c6973743a204e6f7420656e6f756768207265617360448201527f6f6e73000000000000000000000000000000000000000000000000000000000060648201526084016107fd565b60005b838110156108ab57611c25858583818110611bb257611bb261491c565b9050602002016020810190611bc791906146d8565b848484818110611bd957611bd961491c565b9050602002810190611beb919061494b565b8080601f01602080910402602001604051908101604052809392919081815260200183838082843760009201919091525061363a92505050565b80611c2f816149df565b915050611b95565b60005b8381101561090d57611c81858583818110611c5757611c5761491c565b9050602002016020810190611c6c91906146d8565b6040518060200160405280600081525061363a565b80611c8b816149df565b915050611c3a565b611cbc7ff988e4fb62b8e14f4820fed03192306ddf4d7dbfa215595ba1c6ba4b76b369ee6124c0565b610d878383838080601f0160208091040260200160405190810160405280939291908181526020018383808284376000920191909152506124ca92505050565b60008281527fffaa26784aca465bf23123375047d80ccb2b41102e02e5c4ef5b5aa00624b2d26020526040902060010154610e75906124c0565b73ffffffffffffffffffffffffffffffffffffffff80831660009081527f1bdb0091f995c1d3419374bcead175ae14251e0f0aba8df7ace36571bda12ea0602090815260408083209385168352929052908120546111c0565b611db87ff988e4fb62b8e14f4820fed03192306ddf4d7dbfa215595ba1c6ba4b76b369ee6124c0565b610d878383838080601f01602080910402602001604051908101604052809392919081815260200183838082843760009201919091525061363a92505050565b73ffffffffffffffffffffffffffffffffffffffff811660009081527fdd021e813d5056b401d30ba505d211a2ca2652076f58ad407a75764b92ed7d9d602052604081205460ff16610713565b611e4d613314565b1580611e7e5750611e7e7fda6fac9f81a22bb02ed26455dcee2a5f2434c8a3377a2cc986478052c1594f9e336134e0565b611268576040517f08c379a000000000000000000000000000000000000000000000000000000000815260206004820152601060248201527f5061757361626c653a207061757365640000000000000000000000000000000060448201526064016107fd565b611eed8161374d565b50565b73ffffffffffffffffffffffffffffffffffffffff821660009081527fc3e2198cb9100972704cf8e52b0abb0942d86d4aefd2e3b156a1254839eebab66020908152604080832063ffffffff85811685529252822060028101549092680100000000000000009091049091169003611f94576040517fc10ddcde00000000000000000000000000000000000000000000000000000000815260040160405180910390fd5b600281015468010000000000000000900463ffffffff16421015610d87576040517f6855a80200000000000000000000000000000000000000000000000000000000815260040160405180910390fd5b73ffffffffffffffffffffffffffffffffffffffff821660009081527fc3e2198cb9100972704cf8e52b0abb0942d86d4aefd2e3b156a1254839eebab66020908152604080832063ffffffff8581168552908352818420825160a081018452815480825260018301549582019590955260029091015480831693820193909352640100000000830482166060820152680100000000000000009092041660808201527fc3e2198cb9100972704cf8e52b0abb0942d86d4aefd2e3b156a1254839eebab59183036120e0576040517fc10ddcde00000000000000000000000000000000000000000000000000000000815260040160405180910390fd5b6120fd85826020015183600001516120f89190614a46565b613829565b6020810151608082015163ffffffff1642101561213b5761213881836040015142856080015163ffffffff166121339190614a59565b61398f565b90505b8151612148908290614a46565b83546040517f40c10f190000000000000000000000000000000000000000000000000000000081523060048201526024810184905291955073ffffffffffffffffffffffffffffffffffffffff169081906340c10f1990604401600060405180830381600087803b1580156121bc57600080fd5b505af11580156121d0573d6000803e3d6000fd5b506121f69250505073ffffffffffffffffffffffffffffffffffffffff821688876139cf565b6020808401516060808601516040805173ffffffffffffffffffffffffffffffffffffffff8d1681529485018a905284019290925263ffffffff808a16918401919091521660808201527f7e7b8348e805fc4ba413c959fbbe6735485605b293a9fd525bb79c0e027ef7ba9060a00160405180910390a150505073ffffffffffffffffffffffffffffffffffffffff909316600090815260019384016020908152604080832063ffffffff909516835293905291822082815592830191909155600290910180547fffffffffffffffffffffffffffffffffffffffff00000000000000000000000016905590565b60607f1bdb0091f995c1d3419374bcead175ae14251e0f0aba8df7ace36571bda12e9c600101805461231590614a6c565b80601f016020809104026020016040519081016040528092919081815260200182805461234190614a6c565b801561238e5780601f106123635761010080835404028352916020019161238e565b820191906000526020600020905b81548152906001019060200180831161237157829003601f168201915b5050505050905090565b73ffffffffffffffffffffffffffffffffffffffff83166123e5576040517fbec36d8f00000000000000000000000000000000000000000000000000000000815260040160405180910390fd5b73ffffffffffffffffffffffffffffffffffffffff8216612432576040517fd8aedff600000000000000000000000000000000000000000000000000000000815260040160405180910390fd5b73ffffffffffffffffffffffffffffffffffffffff83811660008181527f1bdb0091f995c1d3419374bcead175ae14251e0f0aba8df7ace36571bda12ea0602090815260408083209487168084529482529182902085905590518481527f8c5be1e5ebec7d5bd14f71427d1e84f3dd0314c0f7b2291e5b200ac8c7c3b92591015b60405180910390a3505050565b611eed8133613aa3565b73ffffffffffffffffffffffffffffffffffffffff821660009081527fdd021e813d5056b401d30ba505d211a2ca2652076f58ad407a75764b92ed7d9d602052604090205460ff16156106ef5773ffffffffffffffffffffffffffffffffffffffff821660009081527fdd021e813d5056b401d30ba505d211a2ca2652076f58ad407a75764b92ed7d9d60205260409081902080547fffffffffffffffffffffffffffffffffffffffffffffffffffffffffffffff001690555161258f908290614abf565b6040519081900381209073ffffffffffffffffffffffffffffffffffffffff8416907fe4e3c0e67592981f9042a3df81ea0ee0dfb06be469efdbd2bfc674ab37ab62fe90600090a35050565b60008281527fffaa26784aca465bf23123375047d80ccb2b41102e02e5c4ef5b5aa00624b2d26020526040808220600101805490849055905190918391839186917fbd79b86ffe0ab8e8776151514217cd7cacd52c909f66475c3af44e129f0b00ff9190a4505050565b60008163ffffffff1662278d000361266257506304f27ac0919050565b8163ffffffff166301e133800361267f57506401836e2100919050565b6040517f4df76e0300000000000000000000000000000000000000000000000000000000815260040160405180910390fd5b919050565b7fc3e2198cb9100972704cf8e52b0abb0942d86d4aefd2e3b156a1254839eebab560006126e864010000000042614b0a565b73ffffffffffffffffffffffffffffffffffffffff86166000908152600184016020908152604080832063ffffffff8816845290915290205490915015612740576127338584611fe4565b61273d9085614a46565b93505b81546127649073ffffffffffffffffffffffffffffffffffffffff16863087613aee565b60006040518060a001604052808681526020016127818787613b4c565b815263ffffffff8087166020830152841660408201526060016127a48685614b1e565b63ffffffff90811690915273ffffffffffffffffffffffffffffffffffffffff881660009081526001808701602090815260408084208a86168552825292839020855180825591860151928101839055928501516002909301805460608701516080880151871668010000000000000000027fffffffffffffffffffffffffffffffffffffffff00000000ffffffffffffffff918816640100000000027fffffffffffffffffffffffffffffffffffffffffffffffff0000000000000000909316969097169590951717939093169390931790915591925061289191889161288c9190614a46565b613b71565b7f4263ff4bf483fdbd3d385d4777e89e099a862063a0fd57650c8ee052ff5dcce586826000015183602001518460400151856060015186608001516040516129259695949392919073ffffffffffffffffffffffffffffffffffffffff9690961686526020860194909452604085019290925263ffffffff908116606085015290811660808401521660a082015260c00190565b60405180910390a1505050505050565b73ffffffffffffffffffffffffffffffffffffffff841660009081527fc3e2198cb9100972704cf8e52b0abb0942d86d4aefd2e3b156a1254839eebab66020908152604080832063ffffffff861684529091528120547fc3e2198cb9100972704cf8e52b0abb0942d86d4aefd2e3b156a1254839eebab59103612b7c5760006040518060a001604052808681526020016129cf8787613b4c565b815263ffffffff8087166020830152851660408201526060016129f28686614b1e565b63ffffffff90811690915273ffffffffffffffffffffffffffffffffffffffff881660009081526001808601602090815260408084208a86168552825292839020855180825591860151928101839055928501516002909301805460608701516080880151871668010000000000000000027fffffffffffffffffffffffffffffffffffffffff00000000ffffffffffffffff918816640100000000027fffffffffffffffffffffffffffffffffffffffffffffffff00000000000000009093169690971695909517179390931693909317909155919250612ada91889161288c9190614a46565b7f4263ff4bf483fdbd3d385d4777e89e099a862063a0fd57650c8ee052ff5dcce58682600001518360200151846040015185606001518660800151604051612b6e9695949392919073ffffffffffffffffffffffffffffffffffffffff9690961686526020860194909452604085019290925263ffffffff908116606085015290811660808401521660a082015260c00190565b60405180910390a15061090d565b73ffffffffffffffffffffffffffffffffffffffff8516600090815260018083016020908152604080842063ffffffff88168552909152909120908101548154612bcc9188916120f89190614a46565b6001810154600282015463ffffffff6801000000000000000090910481169085161015612c29576002820154612c2690829063ffffffff80821691612c1b916401000000009091041688614b3b565b63ffffffff1661398f565b90505b815460028301546040805173ffffffffffffffffffffffffffffffffffffffff8b1681526020810193909352820183905263ffffffff80881660608401526401000000009091041660808201527f7e7b8348e805fc4ba413c959fbbe6735485605b293a9fd525bb79c0e027ef7ba9060a00160405180910390a182546040517f40c10f190000000000000000000000000000000000000000000000000000000081523060048201526024810183905273ffffffffffffffffffffffffffffffffffffffff909116906340c10f1990604401600060405180830381600087803b158015612d1457600080fd5b505af1158015612d28573d6000803e3d6000fd5b505050508581612d389190614a46565b826000016000828254612d4b9190614a46565b90915550508154612d5c9086613b4c565b60018301556002820180547fffffffffffffffffffffffffffffffffffffffffffffffff00000000ffffffff1664010000000063ffffffff871602179055612da48585614b1e565b60028301805463ffffffff9290921668010000000000000000027fffffffffffffffffffffffffffffffffffffffff00000000ffffffffffffffff90921691909117905573ffffffffffffffffffffffffffffffffffffffff871660009081527f1bdb0091f995c1d3419374bcead175ae14251e0f0aba8df7ace36571bda12e9f602052604081205460018401548454919291612e419190614a46565b905080821115612e5e57612e59896120f88385614a59565b612e74565b81811115612e7457612e748961288c8484614a59565b8354600185015460028601546040805173ffffffffffffffffffffffffffffffffffffffff8e168152602081019490945283019190915263ffffffff8082166060840152640100000000820481166080840152680100000000000000009091041660a08201527f4263ff4bf483fdbd3d385d4777e89e099a862063a0fd57650c8ee052ff5dcce59060c00160405180910390a1505050505050505050565b612f1c82826134e0565b6106ef5760008281527fffaa26784aca465bf23123375047d80ccb2b41102e02e5c4ef5b5aa00624b2d26020908152604080832073ffffffffffffffffffffffffffffffffffffffff85168452825280832080547fffffffffffffffffffffffffffffffffffffffffffffffffffffffffffffff001660011790558483527fffaa26784aca465bf23123375047d80ccb2b41102e02e5c4ef5b5aa00624b2d39091529020612fca9082613c54565b50604051339073ffffffffffffffffffffffffffffffffffffffff83169084907f2f8788117e7eff1d82e926ec794901d17c78024a50270940304540a733656f0d90600090a45050565b61301e82826134e0565b156106ef5760008281527fffaa26784aca465bf23123375047d80ccb2b41102e02e5c4ef5b5aa00624b2d26020908152604080832073ffffffffffffffffffffffffffffffffffffffff85168452825280832080547fffffffffffffffffffffffffffffffffffffffffffffffffffffffffffffff001690558483527fffaa26784aca465bf23123375047d80ccb2b41102e02e5c4ef5b5aa00624b2d390915290206130ca9082613c76565b50604051339073ffffffffffffffffffffffffffffffffffffffff83169084907ff6391f5c32d9c69d2a47ea670b442974b53935d1edc7fd64eb21e047a839171b90600090a45050565b61311c613314565b8061314c575061314c7fda6fac9f81a22bb02ed26455dcee2a5f2434c8a3377a2cc986478052c1594f9e336134e0565b611268576040517f08c379a000000000000000000000000000000000000000000000000000000000815260206004820152601460248201527f5061757361626c653a206e6f742070617573656400000000000000000000000060448201526064016107fd565b7fb65939979d77055fe20d21bcb90b95461947bffa39f3588194f5015117626ea780547fffffffffffffffffffffffffffffffffffffffffffffffffffffffffffffff001690556040513381527f5db9ee0a495bf2e6ff9c91a7834c1ba4fdd244a5e8aa4e537bd38aeae4b073aa906020015b60405180910390a1565b60007f0de7f2b0af5ab1aa4eca2b133cdee828bdcfefa98e4927fa304b2ad002ca6eb35b5460ff16919050565b7f0de7f2b0af5ab1aa4eca2b133cdee828bdcfefa98e4927fa304b2ad002ca6eb35460ff8083169116106132c1576040517fbfdd178500000000000000000000000000000000000000000000000000000000815260ff821660048201526024016107fd565b7f0de7f2b0af5ab1aa4eca2b133cdee828bdcfefa98e4927fa304b2ad002ca6eb380547fffffffffffffffffffffffffffffffffffffffffffffffffffffffffffffff001660ff92909216919091179055565b60007fb65939979d77055fe20d21bcb90b95461947bffa39f3588194f5015117626ea7613253565b6000805b82518110156133d0576133b083828151811061335e5761335e61491c565b602002602001015173ffffffffffffffffffffffffffffffffffffffff1660009081527fdd021e813d5056b401d30ba505d211a2ca2652076f58ad407a75764b92ed7d9d602052604090205460ff1690565b156133be5750600192915050565b806133c8816149df565b915050613340565b50600092915050565b7fb65939979d77055fe20d21bcb90b95461947bffa39f3588194f5015117626ea780547fffffffffffffffffffffffffffffffffffffffffffffffffffffffffffffff001660011790556040513381527f62e78cea01bee320cd4e420270b5ea74000d11b0c9f74754ebdbfc544b05a25890602001613225565b7f1bdb0091f995c1d3419374bcead175ae14251e0f0aba8df7ace36571bda12e9d6106ef8282614ba6565b7f1bdb0091f995c1d3419374bcead175ae14251e0f0aba8df7ace36571bda12e9e6106ef8282614ba6565b60008281527fffaa26784aca465bf23123375047d80ccb2b41102e02e5c4ef5b5aa00624b2d3602052604081206111c09083613c98565b60007fffaa26784aca465bf23123375047d80ccb2b41102e02e5c4ef5b5aa00624b2d260008481526020918252604080822073ffffffffffffffffffffffffffffffffffffffff86168352909252205460ff16806111c057507fffaa26784aca465bf23123375047d80ccb2b41102e02e5c4ef5b5aa00624b2d260006135948560009081527fffaa26784aca465bf23123375047d80ccb2b41102e02e5c4ef5b5aa00624b2d2602052604090206001015490565b81526020808201929092526040908101600090812073ffffffffffffffffffffffffffffffffffffffff8616825290925290205460ff16905092915050565b60607f1bdb0091f995c1d3419374bcead175ae14251e0f0aba8df7ace36571bda12e9c600201805461231590614a6c565b60008181527fffaa26784aca465bf23123375047d80ccb2b41102e02e5c4ef5b5aa00624b2d36020526040812061071390613ca4565b73ffffffffffffffffffffffffffffffffffffffff821660009081527fdd021e813d5056b401d30ba505d211a2ca2652076f58ad407a75764b92ed7d9d602052604090205460ff166106ef5773ffffffffffffffffffffffffffffffffffffffff821660009081527fdd021e813d5056b401d30ba505d211a2ca2652076f58ad407a75764b92ed7d9d60205260409081902080547fffffffffffffffffffffffffffffffffffffffffffffffffffffffffffffff0016600117905551613701908290614abf565b6040519081900381209073ffffffffffffffffffffffffffffffffffffffff8416907f71ffd5b2f7b305f2f756c161455e2951077ed1951f9ecbee6252949bc1e13c5a90600090a35050565b73ffffffffffffffffffffffffffffffffffffffff811660009081527fdd021e813d5056b401d30ba505d211a2ca2652076f58ad407a75764b92ed7d9d602052604090205460ff1615611eed576137bb8173ffffffffffffffffffffffffffffffffffffffff166014613cae565b6040516020016137cb9190614cc0565b604080517fffffffffffffffffffffffffffffffffffffffffffffffffffffffffffffffe0818403018152908290527f08c379a00000000000000000000000000000000000000000000000000000000082526107fd91600401614334565b73ffffffffffffffffffffffffffffffffffffffff8216613876576040517f560d88fb00000000000000000000000000000000000000000000000000000000815260040160405180910390fd5b73ffffffffffffffffffffffffffffffffffffffff821660009081527f1bdb0091f995c1d3419374bcead175ae14251e0f0aba8df7ace36571bda12e9f60205260409020547f1bdb0091f995c1d3419374bcead175ae14251e0f0aba8df7ace36571bda12e9c9080831115613921576040517fe1166d4100000000000000000000000000000000000000000000000000000000815260048101849052602481018290526044016107fd565b73ffffffffffffffffffffffffffffffffffffffff841660008181526003840160209081526040808320878603905585548790038655518681529192917fddf252ad1be2c89b69c2b068fc378daa952ba7f163c4a11628f55a4df523b3ef910160405180910390a350505050565b60006402540be4008263ffffffff85166139a98388614d2c565b6139b39190614d43565b6139bd9190614d2c565b6139c79190614d43565b949350505050565b60405173ffffffffffffffffffffffffffffffffffffffff8316602482015260448101829052610d879084907fa9059cbb00000000000000000000000000000000000000000000000000000000906064015b604080517fffffffffffffffffffffffffffffffffffffffffffffffffffffffffffffffe08184030181529190526020810180517bffffffffffffffffffffffffffffffffffffffffffffffffffffffff167fffffffff0000000000000000000000000000000000000000000000000000000090931692909217909152613ef1565b613aad82826134e0565b6106ef57613ad28173ffffffffffffffffffffffffffffffffffffffff166014613cae565b613add836020613cae565b6040516020016137cb929190614d57565b60405173ffffffffffffffffffffffffffffffffffffffff8085166024830152831660448201526064810182905261090f9085907f23b872dd0000000000000000000000000000000000000000000000000000000090608401613a21565b60006402540be400613b5d83612645565b613b679085614d2c565b6111c09190614d43565b73ffffffffffffffffffffffffffffffffffffffff8216613bbe576040517fd1bb5a3e00000000000000000000000000000000000000000000000000000000815260040160405180910390fd5b7f1bdb0091f995c1d3419374bcead175ae14251e0f0aba8df7ace36571bda12e9c805482908290600090613bf3908490614a46565b909155505073ffffffffffffffffffffffffffffffffffffffff831660008181526003830160209081526040808320805487019055518581527fddf252ad1be2c89b69c2b068fc378daa952ba7f163c4a11628f55a4df523b3ef91016124b3565b60006111c08373ffffffffffffffffffffffffffffffffffffffff8416613ffd565b60006111c08373ffffffffffffffffffffffffffffffffffffffff841661404c565b60006111c08383614146565b6000610713825490565b60606000613cbd836002614d2c565b613cc8906002614a46565b67ffffffffffffffff811115613ce057613ce0614757565b6040519080825280601f01601f191660200182016040528015613d0a576020820181803683370190505b5090507f300000000000000000000000000000000000000000000000000000000000000081600081518110613d4157613d4161491c565b60200101907effffffffffffffffffffffffffffffffffffffffffffffffffffffffffffff1916908160001a9053507f780000000000000000000000000000000000000000000000000000000000000081600181518110613da457613da461491c565b60200101907effffffffffffffffffffffffffffffffffffffffffffffffffffffffffffff1916908160001a9053506000613de0846002614d2c565b613deb906001614a46565b90505b6001811115613e88577f303132333435363738396162636465660000000000000000000000000000000085600f1660108110613e2c57613e2c61491c565b1a60f81b828281518110613e4257613e4261491c565b60200101907effffffffffffffffffffffffffffffffffffffffffffffffffffffffffffff1916908160001a90535060049490941c93613e8181614dd8565b9050613dee565b5083156111c0576040517f08c379a000000000000000000000000000000000000000000000000000000000815260206004820181905260248201527f537472696e67733a20686578206c656e67746820696e73756666696369656e7460448201526064016107fd565b6000613f53826040518060400160405280602081526020017f5361666545524332303a206c6f772d6c6576656c2063616c6c206661696c65648152508573ffffffffffffffffffffffffffffffffffffffff166141709092919063ffffffff16565b805190915015610d875780806020019051810190613f719190614e0d565b610d87576040517f08c379a000000000000000000000000000000000000000000000000000000000815260206004820152602a60248201527f5361666545524332303a204552433230206f7065726174696f6e20646964206e60448201527f6f7420737563636565640000000000000000000000000000000000000000000060648201526084016107fd565b600081815260018301602052604081205461404457508154600181810184556000848152602080822090930184905584548482528286019093526040902091909155610713565b506000610713565b60008181526001830160205260408120548015614135576000614070600183614a59565b855490915060009061408490600190614a59565b90508181146140e95760008660000182815481106140a4576140a461491c565b90600052602060002001549050808760000184815481106140c7576140c761491c565b6000918252602080832090910192909255918252600188019052604090208390555b85548690806140fa576140fa614e2f565b600190038181906000526020600020016000905590558560010160008681526020019081526020016000206000905560019350505050610713565b6000915050610713565b5092915050565b600082600001828154811061415d5761415d61491c565b9060005260206000200154905092915050565b60606139c78484600085856000808673ffffffffffffffffffffffffffffffffffffffff1685876040516141a49190614abf565b60006040518083038185875af1925050503d80600081146141e1576040519150601f19603f3d011682016040523d82523d6000602084013e6141e6565b606091505b50915091506141f787838387614202565b979650505050505050565b606083156142985782516000036142915773ffffffffffffffffffffffffffffffffffffffff85163b614291576040517f08c379a000000000000000000000000000000000000000000000000000000000815260206004820152601d60248201527f416464726573733a2063616c6c20746f206e6f6e2d636f6e747261637400000060448201526064016107fd565b50816139c7565b6139c783838151156142ad5781518083602001fd5b806040517f08c379a00000000000000000000000000000000000000000000000000000000081526004016107fd9190614334565b803563ffffffff811681146126b157600080fd5b60006020828403121561430757600080fd5b6111c0826142e1565b60005b8381101561432b578181015183820152602001614313565b50506000910152565b6020815260008251806020840152614353816040850160208701614310565b601f017fffffffffffffffffffffffffffffffffffffffffffffffffffffffffffffffe0169190910160400192915050565b73ffffffffffffffffffffffffffffffffffffffff81168114611eed57600080fd5b80356126b181614385565b600080604083850312156143c557600080fd5b82356143d081614385565b946020939093013593505050565b60008083601f8401126143f057600080fd5b50813567ffffffffffffffff81111561440857600080fd5b6020830191508360208260051b850101111561442357600080fd5b9250929050565b6000806000806040858703121561444057600080fd5b843567ffffffffffffffff8082111561445857600080fd5b614464888389016143de565b9096509450602087013591508082111561447d57600080fd5b5061448a878288016143de565b95989497509550505050565b600080604083850312156144a957600080fd5b50508035926020909101359150565b6000806000606084860312156144cd57600080fd5b83356144d881614385565b925060208401356144e881614385565b929592945050506040919091013590565b60006020828403121561450b57600080fd5b5035919050565b6000806040838503121561452557600080fd5b82359150614535602084016142e1565b90509250929050565b6000806020838503121561455157600080fd5b823567ffffffffffffffff81111561456857600080fd5b614574858286016143de565b90969095509350505050565b6000806040838503121561459357600080fd5b8235915060208301356145a581614385565b809150509250929050565b6020808252825182820181905260009190848201906040850190845b8181101561462b576146188385518051825260208101516020830152604081015163ffffffff808216604085015280606084015116606085015280608084015116608085015250505050565b9284019260a092909201916001016145cc565b50909695505050505050565b6000806040838503121561464a57600080fd5b823561465581614385565b9150614535602084016142e1565b60a0810161071382848051825260208101516020830152604081015163ffffffff808216604085015280606084015116606085015280608084015116608085015250505050565b600080604083850312156146bd57600080fd5b82356146c881614385565b915060208301356145a581614385565b6000602082840312156146ea57600080fd5b81356111c081614385565b6020808252825182820181905260009190848201906040850190845b8181101561462b576147448385518051825260208082015163ffffffff9081169184019190915260409182015116910152565b9284019260609290920191600101614711565b7f4e487b7100000000000000000000000000000000000000000000000000000000600052604160045260246000fd5b6000602080838503121561479957600080fd5b823567ffffffffffffffff808211156147b157600080fd5b818501915085601f8301126147c557600080fd5b8135818111156147d7576147d7614757565b8060051b6040517fffffffffffffffffffffffffffffffffffffffffffffffffffffffffffffffe0603f8301168101818110858211171561481a5761481a614757565b60405291825284820192508381018501918883111561483857600080fd5b938501935b8285101561485d5761484e856143a7565b8452938501939285019261483d565b98975050505050505050565b6060810161071382848051825260208082015163ffffffff9081169184019190915260409182015116910152565b6000806000604084860312156148ac57600080fd5b83356148b781614385565b9250602084013567ffffffffffffffff808211156148d457600080fd5b818601915086601f8301126148e857600080fd5b8135818111156148f757600080fd5b87602082850101111561490957600080fd5b6020830194508093505050509250925092565b7f4e487b7100000000000000000000000000000000000000000000000000000000600052603260045260246000fd5b60008083357fffffffffffffffffffffffffffffffffffffffffffffffffffffffffffffffe184360301811261498057600080fd5b83018035915067ffffffffffffffff82111561499b57600080fd5b60200191503681900382131561442357600080fd5b7f4e487b7100000000000000000000000000000000000000000000000000000000600052601160045260246000fd5b60007fffffffffffffffffffffffffffffffffffffffffffffffffffffffffffffffff8203614a1057614a106149b0565b5060010190565b7f4e487b7100000000000000000000000000000000000000000000000000000000600052600160045260246000fd5b80820180821115610713576107136149b0565b81810381811115610713576107136149b0565b600181811c90821680614a8057607f821691505b602082108103614ab9577f4e487b7100000000000000000000000000000000000000000000000000000000600052602260045260246000fd5b50919050565b60008251614ad1818460208701614310565b9190910192915050565b7f4e487b7100000000000000000000000000000000000000000000000000000000600052601260045260246000fd5b600082614b1957614b19614adb565b500690565b63ffffffff81811683821601908082111561413f5761413f6149b0565b63ffffffff82811682821603908082111561413f5761413f6149b0565b601f821115610d8757600081815260208120601f850160051c81016020861015614b7f5750805b601f850160051c820191505b81811015614b9e57828155600101614b8b565b505050505050565b815167ffffffffffffffff811115614bc057614bc0614757565b614bd481614bce8454614a6c565b84614b58565b602080601f831160018114614c275760008415614bf15750858301515b7fffffffffffffffffffffffffffffffffffffffffffffffffffffffffffffffff600386901b1c1916600185901b178555614b9e565b6000858152602081207fffffffffffffffffffffffffffffffffffffffffffffffffffffffffffffffe08616915b82811015614c7457888601518255948401946001909101908401614c55565b5085821015614cb057878501517fffffffffffffffffffffffffffffffffffffffffffffffffffffffffffffffff600388901b60f8161c191681555b5050505050600190811b01905550565b7f53696d706c65426c61636b6c6973743a206163636f756e742000000000000000815260008251614cf8816019850160208701614310565b7f20697320626c61636b6c697374656400000000000000000000000000000000006019939091019283015250602801919050565b8082028115828204841417610713576107136149b0565b600082614d5257614d52614adb565b500490565b7f416363657373436f6e74726f6c3a206163636f756e7420000000000000000000815260008351614d8f816017850160208801614310565b7f206973206d697373696e6720726f6c65200000000000000000000000000000006017918401918201528351614dcc816028840160208801614310565b01602801949350505050565b600081614de757614de76149b0565b507fffffffffffffffffffffffffffffffffffffffffffffffffffffffffffffffff0190565b600060208284031215614e1f57600080fd5b815180151581146111c057600080fd5b7f4e487b7100000000000000000000000000000000000000000000000000000000600052603160045260246000fdfea2646970667358221220cb3ed805aa08195518b45abf67a8ec61647f2750f6e58002db1f05e9fce5bb0e64736f6c63430008110033",
  "devdoc": {
    "kind": "dev",
    "methods": {
      "allowance(address,address)": {
        "details": "Returns the remaining number of tokens that `spender` will be allowed to spend on behalf of `owner` through {transferFrom}. This is zero by default. This value changes when {approve} or {transferFrom} are called."
      },
      "approve(address,uint256)": {
        "details": "Sets `amount` as the allowance of `spender` over the caller's tokens. Returns a boolean value indicating whether the operation succeeded. IMPORTANT: Beware that changing an allowance with this method brings the risk that someone may use both the old and the new allowance by unfortunate transaction ordering. One possible solution to mitigate this race condition is to first reduce the spender's allowance to 0 and set the desired value afterwards: https://github.com/ethereum/EIPs/issues/20#issuecomment-263524729 Emits an {Approval} event."
      },
      "balanceOf(address)": {
        "details": "Returns the amount of tokens owned by `account`."
      },
      "blacklist(address,string)": {
        "details": "External function to add `account` to the blacklist. WARNING: This function is abstract, to enforce it's implementation          in the final contract. This is important to make sure          the final contraqct's access control mechanism will be used! See {ISimpleBlacklist-blacklist}"
      },
      "blacklist(address[],string[])": {
        "details": "External function to add `account` to the blacklist. WARNING: This function is abstract, to enforce it's implementation          in the final contract. This is important to make sure          the final contraqct's access control mechanism will be used! See {ISimpleBlacklist-blacklist}"
      },
      "decimals()": {
        "details": "Returns the decimals places of the token."
      },
      "decreaseAllowance(address,uint256)": {
        "details": "Atomically decreases the allowance granted to `spender` by the caller. This is an alternative to {approve} that can be used as a mitigation for problems described in {IERC20-approve}. Emits an {Approval} event indicating the updated allowance. Requirements: - `spender` cannot be the zero address. - `spender` must have allowance for the caller of at least `subtractedValue`."
      },
      "getRoleAdmin(bytes32)": {
        "details": "Returns the admin role that controls `role`. See {grantRole} and {revokeRole}. To change a role's admin, use {AccessControl-setRoleAdmin}."
      },
      "getRoleMember(bytes32,uint256)": {
        "details": "Returns one of the accounts that have `role`. `index` must be a value between 0 and {getRoleMemberCount}, non-inclusive. Role bearers are not sorted in any particular way, and their ordering may change at any point. WARNING: When using {getRoleMember} and {getRoleMemberCount}, make sure you perform all queries on the same block. See the following https://forum.openzeppelin.com/t/iterating-over-elements-on-enumerableset-in-openzeppelin-contracts/2296[forum post] for more information."
      },
      "getRoleMemberCount(bytes32)": {
        "details": "Returns the number of accounts that have `role`. Can be used together with {getRoleMember} to enumerate all bearers of a role."
      },
      "grantRole(bytes32,address)": {
        "details": "Grants `role` to `account`. If `account` had not been already granted `role`, emits a {RoleGranted} event. Requirements: - the caller must have ``role``'s admin role."
      },
      "hasRole(bytes32,address)": {
        "details": "Returns `true` if `account` has been granted `role`."
      },
      "increaseAllowance(address,uint256)": {
        "details": "Atomically increases the allowance granted to `spender` by the caller. This is an alternative to {approve} that can be used as a mitigation for problems described in {IERC20-approve}. Emits an {Approval} event indicating the updated allowance. Requirements: - `spender` cannot be the zero address."
      },
      "isBlacklisted(address)": {
        "details": "Returns `true` if `account` is blacklisted."
      },
      "isBlacklisted(address[])": {
        "details": "Returns `true` if any address in `accounts` is on the blacklist."
      },
      "name()": {
        "details": "Returns the name of the token."
      },
      "pause()": {
        "details": "Triggers stopped state. Requirements: - The contract must not be paused."
      },
      "paused()": {
        "details": "Returns true if the contract is paused, and false otherwise."
      },
      "renounceRole(bytes32,address)": {
        "details": "Revokes `role` from the calling account. Roles are often managed via {grantRole} and {revokeRole}: this function's purpose is to provide a mechanism for accounts to lose their privileges if they are compromised (such as when a trusted device is misplaced). If the calling account had been granted `role`, emits a {RoleRevoked} event. Requirements: - the caller must be `account`."
      },
      "revokeRole(bytes32,address)": {
        "details": "Revokes `role` from `account`. If `account` had been granted `role`, emits a {RoleRevoked} event. Requirements: - the caller must have ``role``'s admin role."
      },
      "setRoleAdmin(bytes32,bytes32)": {
        "details": "Sets `adminRole` as ``role``'s admin role. Emits a {RoleAdminChanged} event."
      },
      "symbol()": {
        "details": "Returns the symbol of the token."
      },
      "totalSupply()": {
        "details": "Returns the amount of tokens in existence."
      },
      "transfer(address,uint256)": {
        "details": "Moves `amount` tokens from the caller's account to `to`. Returns a boolean value indicating whether the operation succeeded. Emits a {Transfer} event."
      },
      "transferFrom(address,address,uint256)": {
        "details": "Moves `amount` tokens from `from` to `to` using the allowance mechanism. `amount` is then deducted from the caller's allowance. Returns a boolean value indicating whether the operation succeeded. Emits a {Transfer} event."
      },
      "unblacklist(address,string)": {
        "details": "External function to remove `account` from the blacklist. WARNING: This function is abstract, to enforce it's implementation          in the final contract. This is important to make sure          the final contraqct's access control mechanism will be used! See {ISimpleBlacklist-unblacklist}"
      },
      "unblacklist(address[],string[])": {
        "details": "External function to add `account` to the blacklist. WARNING: This function is abstract, to enforce it's implementation          in the final contract. This is important to make sure          the final contraqct's access control mechanism will be used! See {ISimpleBlacklist-blacklist}"
      },
      "unpause()": {
        "details": "Returns to normal state. Requirements: - The contract must be paused."
      }
    },
    "version": 1
  },
  "userdoc": {
    "events": {
      "Deposit(address,uint256,uint256,uint32,uint32,uint32)": {
        "notice": "DEPRECATED"
      }
    },
    "kind": "user",
    "methods": {
      "getUserInfo(address)": {
        "notice": "DEPRECATED"
      },
      "getUserInfo(address,uint256)": {
        "notice": "DEPRECATED"
      },
      "getUserInfoLength(address)": {
        "notice": "DEPRECATED"
      },
      "token()": {
        "notice": "DEPRECATED"
      },
      "userInfo(address,uint256)": {
        "notice": "DEPRECATED"
      }
    },
    "version": 1
  },
  "storageLayout": {
    "storage": [
      {
        "astId": 6100,
        "contract": "contracts/token-locker/TokenLocker.sol:TokenLocker",
        "label": "token",
        "offset": 0,
        "slot": "0",
        "type": "t_contract(IERC20)175"
      },
      {
        "astId": 6107,
        "contract": "contracts/token-locker/TokenLocker.sol:TokenLocker",
        "label": "userInfo",
        "offset": 0,
        "slot": "1",
        "type": "t_mapping(t_address,t_array(t_struct(UserInfo)5269_storage)dyn_storage)"
      },
      {
        "astId": 6113,
        "contract": "contracts/token-locker/TokenLocker.sol:TokenLocker",
        "label": "userInfoMigrated",
        "offset": 0,
        "slot": "2",
        "type": "t_mapping(t_address,t_mapping(t_uint256,t_bool))"
      }
    ],
    "types": {
      "t_address": {
        "encoding": "inplace",
        "label": "address",
        "numberOfBytes": "20"
      },
      "t_array(t_struct(UserInfo)5269_storage)dyn_storage": {
        "base": "t_struct(UserInfo)5269_storage",
        "encoding": "dynamic_array",
        "label": "struct ITokenLocker.UserInfo[]",
        "numberOfBytes": "32"
      },
      "t_bool": {
        "encoding": "inplace",
        "label": "bool",
        "numberOfBytes": "1"
      },
      "t_contract(IERC20)175": {
        "encoding": "inplace",
        "label": "contract IERC20",
        "numberOfBytes": "20"
      },
      "t_mapping(t_address,t_array(t_struct(UserInfo)5269_storage)dyn_storage)": {
        "encoding": "mapping",
        "key": "t_address",
        "label": "mapping(address => struct ITokenLocker.UserInfo[])",
        "numberOfBytes": "32",
        "value": "t_array(t_struct(UserInfo)5269_storage)dyn_storage"
      },
      "t_mapping(t_address,t_mapping(t_uint256,t_bool))": {
        "encoding": "mapping",
        "key": "t_address",
        "label": "mapping(address => mapping(uint256 => bool))",
        "numberOfBytes": "32",
        "value": "t_mapping(t_uint256,t_bool)"
      },
      "t_mapping(t_uint256,t_bool)": {
        "encoding": "mapping",
        "key": "t_uint256",
        "label": "mapping(uint256 => bool)",
        "numberOfBytes": "32",
        "value": "t_bool"
      },
      "t_struct(UserInfo)5269_storage": {
        "encoding": "inplace",
        "label": "struct ITokenLocker.UserInfo",
        "members": [
          {
            "astId": 5264,
            "contract": "contracts/token-locker/TokenLocker.sol:TokenLocker",
            "label": "amount",
            "offset": 0,
            "slot": "0",
            "type": "t_uint256"
          },
          {
            "astId": 5266,
            "contract": "contracts/token-locker/TokenLocker.sol:TokenLocker",
            "label": "duration",
            "offset": 0,
            "slot": "1",
            "type": "t_uint32"
          },
          {
            "astId": 5268,
            "contract": "contracts/token-locker/TokenLocker.sol:TokenLocker",
            "label": "lockedAt",
            "offset": 4,
            "slot": "1",
            "type": "t_uint32"
          }
        ],
        "numberOfBytes": "64"
      },
      "t_uint256": {
        "encoding": "inplace",
        "label": "uint256",
        "numberOfBytes": "32"
      },
      "t_uint32": {
        "encoding": "inplace",
        "label": "uint32",
        "numberOfBytes": "4"
      }
    }
  }
}