{
  "address": "0xf15d5316bF92eCC85ce4873Ac33518fe145Af668",
  "abi": [
    {
      "inputs": [],
      "name": "ERC20ApproveFromZeroAddress",
      "type": "error"
    },
    {
      "inputs": [],
      "name": "ERC20ApproveToZeroAddress",
      "type": "error"
    },
    {
      "inputs": [
        {
          "internalType": "uint256",
          "name": "amount",
          "type": "uint256"
        },
        {
          "internalType": "uint256",
          "name": "balance",
          "type": "uint256"
        }
      ],
      "name": "ERC20BurnAmountExceedsBalance",
      "type": "error"
    },
    {
      "inputs": [],
      "name": "ERC20BurnFromZeroAddress",
      "type": "error"
    },
    {
      "inputs": [
        {
          "internalType": "uint256",
          "name": "value",
          "type": "uint256"
        },
        {
          "internalType": "uint256",
          "name": "allowance",
          "type": "uint256"
        }
      ],
      "name": "ERC20DecreasedAllowanceBelowZero",
      "type": "error"
    },
    {
      "inputs": [
        {
          "internalType": "uint256",
          "name": "amount",
          "type": "uint256"
        },
        {
          "internalType": "uint256",
          "name": "allowance",
          "type": "uint256"
        }
      ],
      "name": "ERC20InsufficientAllowance",
      "type": "error"
    },
    {
      "inputs": [],
      "name": "ERC20MintToZeroAddress",
      "type": "error"
    },
    {
      "inputs": [
        {
          "internalType": "uint256",
          "name": "amount",
          "type": "uint256"
        },
        {
          "internalType": "uint256",
          "name": "balance",
          "type": "uint256"
        }
      ],
      "name": "ERC20TransferAmountExceedsBalance",
      "type": "error"
    },
    {
      "inputs": [],
      "name": "ERC20TransferFromZeroAddress",
      "type": "error"
    },
    {
      "inputs": [],
      "name": "ERC20TransferToZeroAddress",
      "type": "error"
    },
    {
      "inputs": [],
      "name": "InitializerContractAlreadyInitialized",
      "type": "error"
    },
    {
      "inputs": [],
      "name": "InitializerContractIsInitializing",
      "type": "error"
    },
    {
      "inputs": [],
      "name": "InitializerContractIsNotInitializing",
      "type": "error"
    },
    {
      "inputs": [
        {
          "internalType": "uint8",
          "name": "version",
          "type": "uint8"
        }
      ],
      "name": "InitializerVersionAlreadyInitialized",
      "type": "error"
    },
    {
      "inputs": [],
      "name": "LockNotExpired",
      "type": "error"
    },
    {
      "inputs": [],
      "name": "LockNotFound",
      "type": "error"
    },
    {
      "inputs": [],
      "name": "UnsupportedDuration",
      "type": "error"
    },
    {
      "anonymous": false,
      "inputs": [
        {
          "indexed": true,
          "internalType": "address",
          "name": "owner",
          "type": "address"
        },
        {
          "indexed": true,
          "internalType": "address",
          "name": "spender",
          "type": "address"
        },
        {
          "indexed": false,
          "internalType": "uint256",
          "name": "value",
          "type": "uint256"
        }
      ],
      "name": "Approval",
      "type": "event"
    },
    {
      "anonymous": false,
      "inputs": [
        {
          "indexed": true,
          "internalType": "address",
          "name": "account",
          "type": "address"
        },
        {
          "indexed": true,
          "internalType": "string",
          "name": "reason",
          "type": "string"
        }
      ],
      "name": "Blacklisted",
      "type": "event"
    },
    {
      "anonymous": false,
      "inputs": [
        {
          "indexed": false,
          "internalType": "address",
          "name": "account",
          "type": "address"
        },
        {
          "indexed": false,
          "internalType": "uint256",
          "name": "amount",
          "type": "uint256"
        },
        {
          "indexed": false,
          "internalType": "uint256",
          "name": "reward",
          "type": "uint256"
        },
        {
          "indexed": false,
          "internalType": "uint32",
          "name": "duration",
          "type": "uint32"
        },
        {
          "indexed": false,
          "internalType": "uint32",
          "name": "lockedAt",
          "type": "uint32"
        },
        {
          "indexed": false,
          "internalType": "uint32",
          "name": "expiresAt",
          "type": "uint32"
        }
      ],
      "name": "Deposit",
      "type": "event"
    },
    {
      "anonymous": false,
      "inputs": [
        {
          "indexed": false,
          "internalType": "uint8",
          "name": "version",
          "type": "uint8"
        }
      ],
      "name": "Initialized",
      "type": "event"
    },
    {
      "anonymous": false,
      "inputs": [
        {
          "indexed": false,
          "internalType": "address",
          "name": "account",
          "type": "address"
        },
        {
          "indexed": false,
          "internalType": "uint256",
          "name": "amount",
          "type": "uint256"
        },
        {
          "indexed": false,
          "internalType": "uint256",
          "name": "reward",
          "type": "uint256"
        },
        {
          "indexed": false,
          "internalType": "uint32",
          "name": "duration",
          "type": "uint32"
        },
        {
          "indexed": false,
          "internalType": "uint32",
          "name": "lockedAt",
          "type": "uint32"
        }
      ],
      "name": "Redeem",
      "type": "event"
    },
    {
      "anonymous": false,
      "inputs": [
        {
          "indexed": true,
          "internalType": "bytes32",
          "name": "role",
          "type": "bytes32"
        },
        {
          "indexed": true,
          "internalType": "bytes32",
          "name": "previousAdminRole",
          "type": "bytes32"
        },
        {
          "indexed": true,
          "internalType": "bytes32",
          "name": "newAdminRole",
          "type": "bytes32"
        }
      ],
      "name": "RoleAdminChanged",
      "type": "event"
    },
    {
      "anonymous": false,
      "inputs": [
        {
          "indexed": true,
          "internalType": "bytes32",
          "name": "role",
          "type": "bytes32"
        },
        {
          "indexed": true,
          "internalType": "address",
          "name": "account",
          "type": "address"
        },
        {
          "indexed": true,
          "internalType": "address",
          "name": "sender",
          "type": "address"
        }
      ],
      "name": "RoleGranted",
      "type": "event"
    },
    {
      "anonymous": false,
      "inputs": [
        {
          "indexed": true,
          "internalType": "bytes32",
          "name": "role",
          "type": "bytes32"
        },
        {
          "indexed": true,
          "internalType": "address",
          "name": "account",
          "type": "address"
        },
        {
          "indexed": true,
          "internalType": "address",
          "name": "sender",
          "type": "address"
        }
      ],
      "name": "RoleRevoked",
      "type": "event"
    },
    {
      "anonymous": false,
      "inputs": [
        {
          "indexed": true,
          "internalType": "address",
          "name": "from",
          "type": "address"
        },
        {
          "indexed": true,
          "internalType": "address",
          "name": "to",
          "type": "address"
        },
        {
          "indexed": false,
          "internalType": "uint256",
          "name": "value",
          "type": "uint256"
        }
      ],
      "name": "Transfer",
      "type": "event"
    },
    {
      "anonymous": false,
      "inputs": [
        {
          "indexed": true,
          "internalType": "address",
          "name": "account",
          "type": "address"
        },
        {
          "indexed": true,
          "internalType": "string",
          "name": "reason",
          "type": "string"
        }
      ],
      "name": "UnBlacklisted",
      "type": "event"
    },
    {
      "inputs": [],
      "name": "MAX_DEPOSIT_AMOUNT",
      "outputs": [
        {
          "internalType": "uint256",
          "name": "",
          "type": "uint256"
        }
      ],
      "stateMutability": "view",
      "type": "function"
    },
    {
      "inputs": [],
      "name": "MIN_DEPOSIT_AMOUNT",
      "outputs": [
        {
          "internalType": "uint256",
          "name": "",
          "type": "uint256"
        }
      ],
      "stateMutability": "view",
      "type": "function"
    },
    {
      "inputs": [
        {
          "internalType": "address",
          "name": "owner",
          "type": "address"
        },
        {
          "internalType": "address",
          "name": "spender",
          "type": "address"
        }
      ],
      "name": "allowance",
      "outputs": [
        {
          "internalType": "uint256",
          "name": "",
          "type": "uint256"
        }
      ],
      "stateMutability": "view",
      "type": "function"
    },
    {
      "inputs": [
        {
          "internalType": "address",
          "name": "spender",
          "type": "address"
        },
        {
          "internalType": "uint256",
          "name": "amount",
          "type": "uint256"
        }
      ],
      "name": "approve",
      "outputs": [
        {
          "internalType": "bool",
          "name": "",
          "type": "bool"
        }
      ],
      "stateMutability": "nonpayable",
      "type": "function"
    },
    {
      "inputs": [
        {
          "internalType": "address",
          "name": "account",
          "type": "address"
        }
      ],
      "name": "balanceOf",
      "outputs": [
        {
          "internalType": "uint256",
          "name": "",
          "type": "uint256"
        }
      ],
      "stateMutability": "view",
      "type": "function"
    },
    {
      "inputs": [
        {
          "internalType": "address[]",
          "name": "accounts",
          "type": "address[]"
        },
        {
          "internalType": "string[]",
          "name": "reasons",
          "type": "string[]"
        }
      ],
      "name": "blacklist",
      "outputs": [],
      "stateMutability": "nonpayable",
      "type": "function"
    },
    {
      "inputs": [
        {
          "internalType": "address",
          "name": "account",
          "type": "address"
        },
        {
          "internalType": "string",
          "name": "reason",
          "type": "string"
        }
      ],
      "name": "blacklist",
      "outputs": [],
      "stateMutability": "nonpayable",
      "type": "function"
    },
    {
      "inputs": [],
      "name": "decimals",
      "outputs": [
        {
          "internalType": "uint8",
          "name": "",
          "type": "uint8"
        }
      ],
      "stateMutability": "view",
      "type": "function"
    },
    {
      "inputs": [
        {
          "internalType": "address",
          "name": "spender",
          "type": "address"
        },
        {
          "internalType": "uint256",
          "name": "subtractedValue",
          "type": "uint256"
        }
      ],
      "name": "decreaseAllowance",
      "outputs": [
        {
          "internalType": "bool",
          "name": "",
          "type": "bool"
        }
      ],
      "stateMutability": "nonpayable",
      "type": "function"
    },
    {
      "inputs": [
        {
          "internalType": "uint256",
          "name": "amount",
          "type": "uint256"
        },
        {
          "internalType": "uint32",
          "name": "duration",
          "type": "uint32"
        }
      ],
      "name": "deposit",
      "outputs": [],
      "stateMutability": "nonpayable",
      "type": "function"
    },
    {
      "inputs": [],
      "name": "deprecatedToken",
      "outputs": [
        {
          "internalType": "contract IERC20",
          "name": "",
          "type": "address"
        }
      ],
      "stateMutability": "view",
      "type": "function"
    },
    {
      "inputs": [
        {
          "internalType": "address",
          "name": "",
          "type": "address"
        },
        {
          "internalType": "uint256",
          "name": "",
          "type": "uint256"
        }
      ],
      "name": "deprecatedUserInfo",
      "outputs": [
        {
          "internalType": "uint256",
          "name": "amount",
          "type": "uint256"
        },
        {
          "internalType": "uint32",
          "name": "duration",
          "type": "uint32"
        },
        {
          "internalType": "uint32",
          "name": "lockedAt",
          "type": "uint32"
        }
      ],
      "stateMutability": "view",
      "type": "function"
    },
    {
      "inputs": [
        {
          "internalType": "address",
          "name": "",
          "type": "address"
        },
        {
          "internalType": "uint256",
          "name": "",
          "type": "uint256"
        }
      ],
      "name": "deprecatedUserInfoMigrated",
      "outputs": [
        {
          "internalType": "bool",
          "name": "",
          "type": "bool"
        }
      ],
      "stateMutability": "view",
      "type": "function"
    },
    {
      "inputs": [
        {
          "internalType": "address",
          "name": "account",
          "type": "address"
        },
        {
          "internalType": "uint32",
          "name": "duration",
          "type": "uint32"
        }
      ],
      "name": "getLock",
      "outputs": [
        {
          "components": [
            {
              "internalType": "uint256",
              "name": "amount",
              "type": "uint256"
            },
            {
              "internalType": "uint256",
              "name": "reward",
              "type": "uint256"
            },
            {
              "internalType": "uint32",
              "name": "duration",
              "type": "uint32"
            },
            {
              "internalType": "uint32",
              "name": "lockedAt",
              "type": "uint32"
            },
            {
              "internalType": "uint32",
              "name": "expiresAt",
              "type": "uint32"
            }
          ],
          "internalType": "struct ITokenLocker.Lock",
          "name": "lock",
          "type": "tuple"
        }
      ],
      "stateMutability": "view",
      "type": "function"
    },
    {
      "inputs": [
        {
          "internalType": "address[]",
          "name": "accounts",
          "type": "address[]"
        },
        {
          "internalType": "uint32[]",
          "name": "durations",
          "type": "uint32[]"
        }
      ],
      "name": "getLocks",
      "outputs": [
        {
          "components": [
            {
              "internalType": "uint256",
              "name": "amount",
              "type": "uint256"
            },
            {
              "internalType": "uint256",
              "name": "reward",
              "type": "uint256"
            },
            {
              "internalType": "uint32",
              "name": "duration",
              "type": "uint32"
            },
            {
              "internalType": "uint32",
              "name": "lockedAt",
              "type": "uint32"
            },
            {
              "internalType": "uint32",
              "name": "expiresAt",
              "type": "uint32"
            }
          ],
          "internalType": "struct ITokenLocker.Lock[]",
          "name": "locks",
          "type": "tuple[]"
        }
      ],
      "stateMutability": "view",
      "type": "function"
    },
    {
      "inputs": [
        {
          "internalType": "bytes32",
          "name": "role",
          "type": "bytes32"
        }
      ],
      "name": "getRoleAdmin",
      "outputs": [
        {
          "internalType": "bytes32",
          "name": "",
          "type": "bytes32"
        }
      ],
      "stateMutability": "view",
      "type": "function"
    },
    {
      "inputs": [
        {
          "internalType": "bytes32",
          "name": "role",
          "type": "bytes32"
        },
        {
          "internalType": "uint256",
          "name": "index",
          "type": "uint256"
        }
      ],
      "name": "getRoleMember",
      "outputs": [
        {
          "internalType": "address",
          "name": "",
          "type": "address"
        }
      ],
      "stateMutability": "view",
      "type": "function"
    },
    {
      "inputs": [
        {
          "internalType": "bytes32",
          "name": "role",
          "type": "bytes32"
        }
      ],
      "name": "getRoleMemberCount",
      "outputs": [
        {
          "internalType": "uint256",
          "name": "",
          "type": "uint256"
        }
      ],
      "stateMutability": "view",
      "type": "function"
    },
    {
      "inputs": [
        {
          "internalType": "bytes32",
          "name": "role",
          "type": "bytes32"
        },
        {
          "internalType": "address",
          "name": "account",
          "type": "address"
        }
      ],
      "name": "grantRole",
      "outputs": [],
      "stateMutability": "nonpayable",
      "type": "function"
    },
    {
      "inputs": [
        {
          "internalType": "bytes32",
          "name": "role",
          "type": "bytes32"
        },
        {
          "internalType": "address",
          "name": "account",
          "type": "address"
        }
      ],
      "name": "hasRole",
      "outputs": [
        {
          "internalType": "bool",
          "name": "",
          "type": "bool"
        }
      ],
      "stateMutability": "view",
      "type": "function"
    },
    {
      "inputs": [
        {
          "internalType": "address",
          "name": "spender",
          "type": "address"
        },
        {
          "internalType": "uint256",
          "name": "addedValue",
          "type": "uint256"
        }
      ],
      "name": "increaseAllowance",
      "outputs": [
        {
          "internalType": "bool",
          "name": "",
          "type": "bool"
        }
      ],
      "stateMutability": "nonpayable",
      "type": "function"
    },
    {
      "inputs": [
        {
          "internalType": "contract IERC20",
          "name": "token_",
          "type": "address"
        },
        {
          "internalType": "address",
          "name": "owner",
          "type": "address"
        }
      ],
      "name": "initialize",
      "outputs": [],
      "stateMutability": "nonpayable",
      "type": "function"
    },
    {
      "inputs": [
        {
          "internalType": "address[]",
          "name": "accounts",
          "type": "address[]"
        }
      ],
      "name": "isBlacklisted",
      "outputs": [
        {
          "internalType": "bool",
          "name": "",
          "type": "bool"
        }
      ],
      "stateMutability": "view",
      "type": "function"
    },
    {
      "inputs": [
        {
          "internalType": "address",
          "name": "account",
          "type": "address"
        }
      ],
      "name": "isBlacklisted",
      "outputs": [
        {
          "internalType": "bool",
          "name": "",
          "type": "bool"
        }
      ],
      "stateMutability": "view",
      "type": "function"
    },
    {
      "inputs": [],
      "name": "name",
      "outputs": [
        {
          "internalType": "string",
          "name": "",
          "type": "string"
        }
      ],
      "stateMutability": "view",
      "type": "function"
    },
    {
      "inputs": [],
      "name": "pause",
      "outputs": [],
      "stateMutability": "nonpayable",
      "type": "function"
    },
    {
      "inputs": [],
      "name": "paused",
      "outputs": [
        {
          "internalType": "bool",
          "name": "",
          "type": "bool"
        }
      ],
      "stateMutability": "view",
      "type": "function"
    },
    {
      "inputs": [
        {
          "internalType": "uint32",
          "name": "duration",
          "type": "uint32"
        }
      ],
      "name": "redeem",
      "outputs": [],
      "stateMutability": "nonpayable",
      "type": "function"
    },
    {
      "inputs": [
        {
          "internalType": "address[]",
          "name": "migrationManagers",
          "type": "address[]"
        }
      ],
      "name": "reinitialize",
      "outputs": [],
      "stateMutability": "nonpayable",
      "type": "function"
    },
    {
      "inputs": [
        {
          "internalType": "bytes32",
          "name": "role",
          "type": "bytes32"
        },
        {
          "internalType": "address",
          "name": "account",
          "type": "address"
        }
      ],
      "name": "renounceRole",
      "outputs": [],
      "stateMutability": "nonpayable",
      "type": "function"
    },
    {
      "inputs": [
        {
          "internalType": "bytes32",
          "name": "role",
          "type": "bytes32"
        },
        {
          "internalType": "address",
          "name": "account",
          "type": "address"
        }
      ],
      "name": "revokeRole",
      "outputs": [],
      "stateMutability": "nonpayable",
      "type": "function"
    },
    {
      "inputs": [
        {
          "internalType": "bytes32",
          "name": "role",
          "type": "bytes32"
        },
        {
          "internalType": "bytes32",
          "name": "adminRole",
          "type": "bytes32"
        }
      ],
      "name": "setRoleAdmin",
      "outputs": [],
      "stateMutability": "nonpayable",
      "type": "function"
    },
    {
      "inputs": [],
      "name": "symbol",
      "outputs": [
        {
          "internalType": "string",
          "name": "",
          "type": "string"
        }
      ],
      "stateMutability": "view",
      "type": "function"
    },
    {
      "inputs": [],
      "name": "totalSupply",
      "outputs": [
        {
          "internalType": "uint256",
          "name": "",
          "type": "uint256"
        }
      ],
      "stateMutability": "view",
      "type": "function"
    },
    {
      "inputs": [
        {
          "internalType": "address",
          "name": "to",
          "type": "address"
        },
        {
          "internalType": "uint256",
          "name": "amount",
          "type": "uint256"
        }
      ],
      "name": "transfer",
      "outputs": [
        {
          "internalType": "bool",
          "name": "",
          "type": "bool"
        }
      ],
      "stateMutability": "nonpayable",
      "type": "function"
    },
    {
      "inputs": [
        {
          "internalType": "address",
          "name": "from",
          "type": "address"
        },
        {
          "internalType": "address",
          "name": "to",
          "type": "address"
        },
        {
          "internalType": "uint256",
          "name": "amount",
          "type": "uint256"
        }
      ],
      "name": "transferFrom",
      "outputs": [
        {
          "internalType": "bool",
          "name": "",
          "type": "bool"
        }
      ],
      "stateMutability": "nonpayable",
      "type": "function"
    },
    {
      "inputs": [
        {
          "internalType": "address[]",
          "name": "accounts",
          "type": "address[]"
        },
        {
          "internalType": "string[]",
          "name": "reasons",
          "type": "string[]"
        }
      ],
      "name": "unblacklist",
      "outputs": [],
      "stateMutability": "nonpayable",
      "type": "function"
    },
    {
      "inputs": [
        {
          "internalType": "address",
          "name": "account",
          "type": "address"
        },
        {
          "internalType": "string",
          "name": "reason",
          "type": "string"
        }
      ],
      "name": "unblacklist",
      "outputs": [],
      "stateMutability": "nonpayable",
      "type": "function"
    },
    {
      "inputs": [],
      "name": "unpause",
      "outputs": [],
      "stateMutability": "nonpayable",
      "type": "function"
    }
  ],
  "transactionHash": "0xe075404f46745955aeddbb345d0b7f646d4bee8014c3d05d9d3d535c078844a3",
  "args": [],
  "numDeployments": 4,
  "solcInputHash": "b369c18af9cb0f0fb9ecb5fd818c201f",
  "bytecode": "0x608060405234801561001057600080fd5b50614337806100206000396000f3fe608060405234801561001057600080fd5b50600436106102ad5760003560e01c80635c975abb1161017b578063a457c2d7116100d8578063d547741f1161008c578063dd62ed3e11610071578063dd62ed3e146105cc578063ddf579ff146105df578063fe575a87146105f257600080fd5b8063d547741f14610599578063d560005c146105ac57600080fd5b8063ca15c873116100bd578063ca15c87314610560578063ce5da40714610573578063d1e6c30c1461058657600080fd5b8063a457c2d71461053f578063a9059cbb1461055257600080fd5b806385bee14b1161012f57806391d148541161011457806391d14854146104f657806395d89b4114610509578063977521d91461051157600080fd5b806385bee14b146104ab5780639010d07c146104be57600080fd5b806370a082311161016057806370a082311461045b578063741d4b471461046e5780638456cb59146104a357600080fd5b80635c975abb146104405780636ebb16d31461044857600080fd5b80632b2dfd2c1161022957806338c6e795116101dd5780633f4ba83a116101c25780633f4ba83a14610414578063485cc9551461041c5780634c34a9821461042f57600080fd5b806338c6e795146103e1578063395093511461040157600080fd5b8063313ce5671161020e578063313ce5671461039f57806336568abe146103ae57806338bae1f7146103c157600080fd5b80632b2dfd2c146103795780632f2ff15d1461038c57600080fd5b8063186d3830116102805780631ea30fef116102655780631ea30fef1461034457806323b872dd14610353578063248a9ca31461036657600080fd5b8063186d38301461031e5780631e4e00911461033157600080fd5b806305a7508b146102b257806306fdde03146102c7578063095ea7b3146102e557806318160ddd14610308575b600080fd5b6102c56102c0366004613845565b610605565b005b6102cf61062e565b6040516102dc9190613884565b60405180910390f35b6102f86102f3366004613902565b61063d565b60405190151581526020016102dc565b610310610654565b6040519081526020016102dc565b6102c561032c36600461397a565b61067e565b6102c561033f3660046139e6565b610850565b610310670de0b6b3a764000081565b6102f8610361366004613a08565b610894565b610310610374366004613a49565b6108f9565b6102c5610387366004613a62565b61092f565b6102c561039a366004613a8e565b610a47565b604051601281526020016102dc565b6102c56103bc366004613a8e565b610a8b565b6103d46103cf36600461397a565b610b3a565b6040516102dc9190613abe565b6103f46103ef366004613b45565b610d90565b6040516102dc9190613b71565b6102f861040f366004613902565b610e82565b6102c5610eea565b6102c561042a366004613bb8565b610f25565b61031069010f0cf064dd5920000081565b6102f861115b565b6102f8610456366004613c15565b611165565b610310610469366004613cf8565b611170565b61048161047c366004613902565b6111ba565b6040805193845263ffffffff92831660208501529116908201526060016102dc565b6102c5611208565b6102c56104b9366004613d15565b611241565b6104d16104cc3660046139e6565b611529565b60405173ffffffffffffffffffffffffffffffffffffffff90911681526020016102dc565b6102f8610504366004613a8e565b611535565b6102cf611541565b6102f861051f366004613902565b600260209081526000928352604080842090915290825290205460ff1681565b6102f861054d366004613902565b61154b565b6102f8610361366004613902565b61031061056e366004613a49565b6115f6565b6102c561058136600461397a565b611601565b6102c5610594366004613d57565b6117c0565b6102c56105a7366004613a8e565b611829565b6000546104d19073ffffffffffffffffffffffffffffffffffffffff1681565b6103106105da366004613bb8565b611863565b6102c56105ed366004613d57565b6118bc565b6102f8610600366004613cf8565b611925565b61060d611972565b61061633611a11565b6106203382611a1d565b61062a3382611b11565b5050565b6060610638611e11565b905090565b600061064a338484611ec5565b5060015b92915050565b60006106387f1bdb0091f995c1d3419374bcead175ae14251e0f0aba8df7ace36571bda12e9c5490565b6106a77ff988e4fb62b8e14f4820fed03192306ddf4d7dbfa215595ba1c6ba4b76b369ee611fed565b80156107ec57828114610741576040517f08c379a000000000000000000000000000000000000000000000000000000000815260206004820152602360248201527f53696d706c65426c61636b6c6973743a204e6f7420656e6f756768207265617360448201527f6f6e73000000000000000000000000000000000000000000000000000000000060648201526084015b60405180910390fd5b60005b838110156107e6576107d485858381811061076157610761613ddc565b90506020020160208101906107769190613cf8565b84848481811061078857610788613ddc565b905060200281019061079a9190613e0b565b8080601f016020809104026020016040519081016040528093929190818152602001838380828437600092019190915250611ff792505050565b806107de81613e9f565b915050610744565b5061084a565b60005b838110156108485761083685858381811061080c5761080c613ddc565b90506020020160208101906108219190613cf8565b60405180602001604052806000815250611ff7565b8061084081613e9f565b9150506107ef565b505b50505050565b60008281527fffaa26784aca465bf23123375047d80ccb2b41102e02e5c4ef5b5aa00624b2d2602052604090206001015461088a90611fed565b61062a8282612108565b6040517f08c379a000000000000000000000000000000000000000000000000000000000815260206004820152601860248201527f45524332303a204e6f74207472616e736665727261626c6500000000000000006044820152600090606401610738565b60008181527fffaa26784aca465bf23123375047d80ccb2b41102e02e5c4ef5b5aa00624b2d2602052604081206001015461064e565b610937611972565b61094033611a11565b670de0b6b3a764000082116109b1576040517f08c379a000000000000000000000000000000000000000000000000000000000815260206004820152601b60248201527f416d6f756e74203c204d494e5f4445504f5349545f414d4f554e5400000000006044820152606401610738565b69010f0cf064dd592000008210610a24576040517f08c379a000000000000000000000000000000000000000000000000000000000815260206004820152601b60248201527f416d6f756e74203e204d41585f4445504f5349545f414d4f554e5400000000006044820152606401610738565b6000610a2f82612172565b11610a3c57610a3c613ed7565b61062a3383836121e3565b60008281527fffaa26784aca465bf23123375047d80ccb2b41102e02e5c4ef5b5aa00624b2d26020526040902060010154610a8190611fed565b61062a8282612462565b73ffffffffffffffffffffffffffffffffffffffff81163314610b30576040517f08c379a000000000000000000000000000000000000000000000000000000000815260206004820152602f60248201527f416363657373436f6e74726f6c3a2063616e206f6e6c792072656e6f756e636560448201527f20726f6c657320666f722073656c6600000000000000000000000000000000006064820152608401610738565b61062a8282612564565b606083828114610ba6576040517f08c379a000000000000000000000000000000000000000000000000000000000815260206004820152601060248201527f4c656e677468206d6973736d61746368000000000000000000000000000000006044820152606401610738565b8467ffffffffffffffff811115610bbf57610bbf613be6565b604051908082528060200260200182016040528015610c3657816020015b6040805160a0810182526000808252602080830182905292820181905260608201819052608082015282527fffffffffffffffffffffffffffffffffffffffffffffffffffffffffffffffff909201910181610bdd5790505b50915060005b81811015610d8657610d61878783818110610c5957610c59613ddc565b9050602002016020810190610c6e9190613cf8565b868684818110610c8057610c80613ddc565b9050602002016020810190610c959190613845565b6040805160a08082018352600080835260208084018290528385018290526060808501839052608094850183905273ffffffffffffffffffffffffffffffffffffffff9790971682527fc3e2198cb9100972704cf8e52b0abb0942d86d4aefd2e3b156a1254839eebab6815284822063ffffffff9687168352815290849020845192830185528054835260018101549183019190915260020154808516938201939093526401000000008304841694810194909452680100000000000000009091049091169082015290565b838281518110610d7357610d73613ddc565b6020908102919091010152600101610c3c565b5050949350505050565b6040805160a08082018352600080835260208084018290528385018290526060808501839052608080860184905286518086018852848152808401859052808801859052808301859052810184905273ffffffffffffffffffffffffffffffffffffffff891684527fc3e2198cb9100972704cf8e52b0abb0942d86d4aefd2e3b156a1254839eebab6835286842063ffffffff808a168652908452938790208751958601885280548652600181015493860193909352600290920154808416968501969096526401000000008604831690840152680100000000000000009094041692810192909252905b9392505050565b3360008181527f1bdb0091f995c1d3419374bcead175ae14251e0f0aba8df7ace36571bda12ea06020908152604080832073ffffffffffffffffffffffffffffffffffffffff87168452909152812054909161064a918590610ee5908690613f06565b611ec5565b610f137f356a809dfdea9198dd76fb76bf6d403ecf13ea675eb89e1eda2db2c4a4676a26611fed565b610f1b612664565b610f23612702565b565b7f0de7f2b0af5ab1aa4eca2b133cdee828bdcfefa98e4927fa304b2ad002ca6eb354610100900460ff1615808015610f8357507f0de7f2b0af5ab1aa4eca2b133cdee828bdcfefa98e4927fa304b2ad002ca6eb354600160ff909116105b80610fa25750303b158015610fa25750610f9b61277f565b60ff166001145b1561112957610fb160016127ac565b8015611003577f0de7f2b0af5ab1aa4eca2b133cdee828bdcfefa98e4927fa304b2ad002ca6eb380547fffffffffffffffffffffffffffffffffffffffffffffffffffffffffffff00ff166101001790555b600080547fffffffffffffffffffffffff00000000000000000000000000000000000000001673ffffffffffffffffffffffffffffffffffffffff851617815561104d9083612462565b6110777f241ecf16d79d0f8dbfb92cbc07fe17840425976cf0667f022fe9877caa831b0883612462565b6110a17fda6fac9f81a22bb02ed26455dcee2a5f2434c8a3377a2cc986478052c1594f9e83612462565b8015611124577f0de7f2b0af5ab1aa4eca2b133cdee828bdcfefa98e4927fa304b2ad002ca6eb380547fffffffffffffffffffffffffffffffffffffffffffffffffffffffffffff00ff169055604051600181527f7f26b83ff96e1f2b6a682f133852f6798a09c465da95921460cefb3847402498906020015b60405180910390a15b505050565b6040517f5d99ebd200000000000000000000000000000000000000000000000000000000815260040160405180910390fd5b6000610638612864565b600061064e8261288c565b73ffffffffffffffffffffffffffffffffffffffff811660009081527f1bdb0091f995c1d3419374bcead175ae14251e0f0aba8df7ace36571bda12e9f602052604081205461064e565b600160205281600052604060002081815481106111d657600080fd5b60009182526020909120600290910201805460019091015490925063ffffffff80821692506401000000009091041683565b6112317f356a809dfdea9198dd76fb76bf6d403ecf13ea675eb89e1eda2db2c4a4676a26611fed565b611239611972565b610f23612929565b7f0de7f2b0af5ab1aa4eca2b133cdee828bdcfefa98e4927fa304b2ad002ca6eb354600290610100900460ff16806112a057507f0de7f2b0af5ab1aa4eca2b133cdee828bdcfefa98e4927fa304b2ad002ca6eb35460ff808316911610155b156112dc576040517fbfdd178500000000000000000000000000000000000000000000000000000000815260ff82166004820152602401610738565b6112e5816127ac565b7f0de7f2b0af5ab1aa4eca2b133cdee828bdcfefa98e4927fa304b2ad002ca6eb380547fffffffffffffffffffffffffffffffffffffffffffffffffffffffffffff00ff166101001790556113597f241ecf16d79d0f8dbfb92cbc07fe17840425976cf0667f022fe9877caa831b08611fed565b6113976040518060400160405280601a81526020017f4b796f746f5377617020476f7665726e616e636520546f6b656e0000000000008152506129a3565b6113d56040518060400160405280600781526020017f766f4b53574150000000000000000000000000000000000000000000000000008152506129ce565b6000547fc3e2198cb9100972704cf8e52b0abb0942d86d4aefd2e3b156a1254839eebab580547fffffffffffffffffffffffff00000000000000000000000000000000000000001673ffffffffffffffffffffffffffffffffffffffff909216919091179055611443612929565b60005b828110156114ae5761149e7f739a51874800ca2ea551f6738888eda63da7b0ffed906ab18243498239604e9685858481811061148457611484613ddc565b90506020020160208101906114999190613cf8565b612462565b6114a781613e9f565b9050611446565b507f0de7f2b0af5ab1aa4eca2b133cdee828bdcfefa98e4927fa304b2ad002ca6eb380547fffffffffffffffffffffffffffffffffffffffffffffffffffffffffffff00ff16905560405160ff821681527f7f26b83ff96e1f2b6a682f133852f6798a09c465da95921460cefb38474024989060200161111b565b6000610e7b83836129f9565b6000610e7b8383612a30565b6060610638612b23565b3360009081527f1bdb0091f995c1d3419374bcead175ae14251e0f0aba8df7ace36571bda12ea06020908152604080832073ffffffffffffffffffffffffffffffffffffffff86168452909152812054808311156115df576040517fc7d2f36c0000000000000000000000000000000000000000000000000000000081526004810184905260248101829052604401610738565b6115ec3385858403611ec5565b5060019392505050565b600061064e82612b54565b61162a7ff988e4fb62b8e14f4820fed03192306ddf4d7dbfa215595ba1c6ba4b76b369ee611fed565b8015611764578281146116bf576040517f08c379a000000000000000000000000000000000000000000000000000000000815260206004820152602360248201527f53696d706c65426c61636b6c6973743a204e6f7420656e6f756768207265617360448201527f6f6e7300000000000000000000000000000000000000000000000000000000006064820152608401610738565b60005b838110156107e6576117528585838181106116df576116df613ddc565b90506020020160208101906116f49190613cf8565b84848481811061170657611706613ddc565b90506020028101906117189190613e0b565b8080601f016020809104026020016040519081016040528093929190818152602001838380828437600092019190915250612b8a92505050565b8061175c81613e9f565b9150506116c2565b60005b83811015610848576117ae85858381811061178457611784613ddc565b90506020020160208101906117999190613cf8565b60405180602001604052806000815250612b8a565b806117b881613e9f565b915050611767565b6117e97ff988e4fb62b8e14f4820fed03192306ddf4d7dbfa215595ba1c6ba4b76b369ee611fed565b6111248383838080601f016020809104026020016040519081016040528093929190818152602001838380828437600092019190915250611ff792505050565b60008281527fffaa26784aca465bf23123375047d80ccb2b41102e02e5c4ef5b5aa00624b2d26020526040902060010154610b3090611fed565b73ffffffffffffffffffffffffffffffffffffffff80831660009081527f1bdb0091f995c1d3419374bcead175ae14251e0f0aba8df7ace36571bda12ea060209081526040808320938516835292905290812054610e7b565b6118e57ff988e4fb62b8e14f4820fed03192306ddf4d7dbfa215595ba1c6ba4b76b369ee611fed565b6111248383838080601f016020809104026020016040519081016040528093929190818152602001838380828437600092019190915250612b8a92505050565b73ffffffffffffffffffffffffffffffffffffffff811660009081527fdd021e813d5056b401d30ba505d211a2ca2652076f58ad407a75764b92ed7d9d602052604081205460ff1661064e565b61197a612864565b15806119ab57506119ab7fda6fac9f81a22bb02ed26455dcee2a5f2434c8a3377a2cc986478052c1594f9e33612a30565b610f23576040517f08c379a000000000000000000000000000000000000000000000000000000000815260206004820152601060248201527f5061757361626c653a20706175736564000000000000000000000000000000006044820152606401610738565b611a1a81612c9d565b50565b73ffffffffffffffffffffffffffffffffffffffff821660009081527fc3e2198cb9100972704cf8e52b0abb0942d86d4aefd2e3b156a1254839eebab66020908152604080832063ffffffff85811685529252822060028101549092680100000000000000009091049091169003611ac1576040517fc10ddcde00000000000000000000000000000000000000000000000000000000815260040160405180910390fd5b600281015468010000000000000000900463ffffffff16421015611124576040517f6855a80200000000000000000000000000000000000000000000000000000000815260040160405180910390fd5b73ffffffffffffffffffffffffffffffffffffffff821660009081527fc3e2198cb9100972704cf8e52b0abb0942d86d4aefd2e3b156a1254839eebab66020908152604080832063ffffffff8581168552908352818420825160a081018452815480825260018301549582019590955260029091015480831693820193909352640100000000830482166060820152680100000000000000009092041660808201527fc3e2198cb9100972704cf8e52b0abb0942d86d4aefd2e3b156a1254839eebab5918303611c0d576040517fc10ddcde00000000000000000000000000000000000000000000000000000000815260040160405180910390fd5b611c2a8582602001518360000151611c259190613f06565b612d79565b6020810151608082015163ffffffff16421015611c6857611c65818360400151846060015163ffffffff1642611c609190613f19565b612edf565b90505b8151611c75908290613f06565b83546040517f40c10f190000000000000000000000000000000000000000000000000000000081523060048201526024810184905291955073ffffffffffffffffffffffffffffffffffffffff169081906340c10f1990604401600060405180830381600087803b158015611ce957600080fd5b505af1158015611cfd573d6000803e3d6000fd5b50611d239250505073ffffffffffffffffffffffffffffffffffffffff82168887612f1f565b6020808401516060808601516040805173ffffffffffffffffffffffffffffffffffffffff8d1681529485018a905284019290925263ffffffff808a16918401919091521660808201527f7e7b8348e805fc4ba413c959fbbe6735485605b293a9fd525bb79c0e027ef7ba9060a00160405180910390a150505073ffffffffffffffffffffffffffffffffffffffff909316600090815260019384016020908152604080832063ffffffff909516835293905291822082815592830191909155600290910180547fffffffffffffffffffffffffffffffffffffffff00000000000000000000000016905590565b60607f1bdb0091f995c1d3419374bcead175ae14251e0f0aba8df7ace36571bda12e9c6001018054611e4290613f2c565b80601f0160208091040260200160405190810160405280929190818152602001828054611e6e90613f2c565b8015611ebb5780601f10611e9057610100808354040283529160200191611ebb565b820191906000526020600020905b815481529060010190602001808311611e9e57829003601f168201915b5050505050905090565b73ffffffffffffffffffffffffffffffffffffffff8316611f12576040517fbec36d8f00000000000000000000000000000000000000000000000000000000815260040160405180910390fd5b73ffffffffffffffffffffffffffffffffffffffff8216611f5f576040517fd8aedff600000000000000000000000000000000000000000000000000000000815260040160405180910390fd5b73ffffffffffffffffffffffffffffffffffffffff83811660008181527f1bdb0091f995c1d3419374bcead175ae14251e0f0aba8df7ace36571bda12ea0602090815260408083209487168084529482529182902085905590518481527f8c5be1e5ebec7d5bd14f71427d1e84f3dd0314c0f7b2291e5b200ac8c7c3b92591015b60405180910390a3505050565b611a1a8133612ff3565b73ffffffffffffffffffffffffffffffffffffffff821660009081527fdd021e813d5056b401d30ba505d211a2ca2652076f58ad407a75764b92ed7d9d602052604090205460ff161561062a5773ffffffffffffffffffffffffffffffffffffffff821660009081527fdd021e813d5056b401d30ba505d211a2ca2652076f58ad407a75764b92ed7d9d60205260409081902080547fffffffffffffffffffffffffffffffffffffffffffffffffffffffffffffff00169055516120bc908290613f7f565b6040519081900381209073ffffffffffffffffffffffffffffffffffffffff8416907fe4e3c0e67592981f9042a3df81ea0ee0dfb06be469efdbd2bfc674ab37ab62fe90600090a35050565b60008281527fffaa26784aca465bf23123375047d80ccb2b41102e02e5c4ef5b5aa00624b2d26020526040808220600101805490849055905190918391839186917fbd79b86ffe0ab8e8776151514217cd7cacd52c909f66475c3af44e129f0b00ff9190a4505050565b60008163ffffffff1662278d000361218f57506304f27ac0919050565b8163ffffffff166301e13380036121ac57506401836e2100919050565b6040517f4df76e0300000000000000000000000000000000000000000000000000000000815260040160405180910390fd5b919050565b7fc3e2198cb9100972704cf8e52b0abb0942d86d4aefd2e3b156a1254839eebab5600061221564010000000042613fca565b73ffffffffffffffffffffffffffffffffffffffff86166000908152600184016020908152604080832063ffffffff881684529091529020549091501561226d576122608584611b11565b61226a9085613f06565b93505b81546122919073ffffffffffffffffffffffffffffffffffffffff1686308761303e565b60006040518060a001604052808681526020016122ae878761309c565b815263ffffffff8087166020830152841660408201526060016122d18685613fde565b63ffffffff90811690915273ffffffffffffffffffffffffffffffffffffffff881660009081526001808701602090815260408084208a86168552825292839020855180825591860151928101839055928501516002909301805460608701516080880151871668010000000000000000027fffffffffffffffffffffffffffffffffffffffff00000000ffffffffffffffff918816640100000000027fffffffffffffffffffffffffffffffffffffffffffffffff000000000000000090931696909716959095171793909316939093179091559192506123be9188916123b99190613f06565b6130c1565b7f4263ff4bf483fdbd3d385d4777e89e099a862063a0fd57650c8ee052ff5dcce586826000015183602001518460400151856060015186608001516040516124529695949392919073ffffffffffffffffffffffffffffffffffffffff9690961686526020860194909452604085019290925263ffffffff908116606085015290811660808401521660a082015260c00190565b60405180910390a1505050505050565b61246c8282612a30565b61062a5760008281527fffaa26784aca465bf23123375047d80ccb2b41102e02e5c4ef5b5aa00624b2d26020908152604080832073ffffffffffffffffffffffffffffffffffffffff85168452825280832080547fffffffffffffffffffffffffffffffffffffffffffffffffffffffffffffff001660011790558483527fffaa26784aca465bf23123375047d80ccb2b41102e02e5c4ef5b5aa00624b2d3909152902061251a90826131a4565b50604051339073ffffffffffffffffffffffffffffffffffffffff83169084907f2f8788117e7eff1d82e926ec794901d17c78024a50270940304540a733656f0d90600090a45050565b61256e8282612a30565b1561062a5760008281527fffaa26784aca465bf23123375047d80ccb2b41102e02e5c4ef5b5aa00624b2d26020908152604080832073ffffffffffffffffffffffffffffffffffffffff85168452825280832080547fffffffffffffffffffffffffffffffffffffffffffffffffffffffffffffff001690558483527fffaa26784aca465bf23123375047d80ccb2b41102e02e5c4ef5b5aa00624b2d3909152902061261a90826131c6565b50604051339073ffffffffffffffffffffffffffffffffffffffff83169084907ff6391f5c32d9c69d2a47ea670b442974b53935d1edc7fd64eb21e047a839171b90600090a45050565b61266c612864565b8061269c575061269c7fda6fac9f81a22bb02ed26455dcee2a5f2434c8a3377a2cc986478052c1594f9e33612a30565b610f23576040517f08c379a000000000000000000000000000000000000000000000000000000000815260206004820152601460248201527f5061757361626c653a206e6f74207061757365640000000000000000000000006044820152606401610738565b7fb65939979d77055fe20d21bcb90b95461947bffa39f3588194f5015117626ea780547fffffffffffffffffffffffffffffffffffffffffffffffffffffffffffffff001690556040513381527f5db9ee0a495bf2e6ff9c91a7834c1ba4fdd244a5e8aa4e537bd38aeae4b073aa906020015b60405180910390a1565b60007f0de7f2b0af5ab1aa4eca2b133cdee828bdcfefa98e4927fa304b2ad002ca6eb35b5460ff16919050565b7f0de7f2b0af5ab1aa4eca2b133cdee828bdcfefa98e4927fa304b2ad002ca6eb35460ff808316911610612811576040517fbfdd178500000000000000000000000000000000000000000000000000000000815260ff82166004820152602401610738565b7f0de7f2b0af5ab1aa4eca2b133cdee828bdcfefa98e4927fa304b2ad002ca6eb380547fffffffffffffffffffffffffffffffffffffffffffffffffffffffffffffff001660ff92909216919091179055565b60007fb65939979d77055fe20d21bcb90b95461947bffa39f3588194f5015117626ea76127a3565b6000805b8251811015612920576129008382815181106128ae576128ae613ddc565b602002602001015173ffffffffffffffffffffffffffffffffffffffff1660009081527fdd021e813d5056b401d30ba505d211a2ca2652076f58ad407a75764b92ed7d9d602052604090205460ff1690565b1561290e5750600192915050565b8061291881613e9f565b915050612890565b50600092915050565b7fb65939979d77055fe20d21bcb90b95461947bffa39f3588194f5015117626ea780547fffffffffffffffffffffffffffffffffffffffffffffffffffffffffffffff001660011790556040513381527f62e78cea01bee320cd4e420270b5ea74000d11b0c9f74754ebdbfc544b05a25890602001612775565b7f1bdb0091f995c1d3419374bcead175ae14251e0f0aba8df7ace36571bda12e9d61062a8282614049565b7f1bdb0091f995c1d3419374bcead175ae14251e0f0aba8df7ace36571bda12e9e61062a8282614049565b60008281527fffaa26784aca465bf23123375047d80ccb2b41102e02e5c4ef5b5aa00624b2d360205260408120610e7b90836131e8565b60007fffaa26784aca465bf23123375047d80ccb2b41102e02e5c4ef5b5aa00624b2d260008481526020918252604080822073ffffffffffffffffffffffffffffffffffffffff86168352909252205460ff1680610e7b57507fffaa26784aca465bf23123375047d80ccb2b41102e02e5c4ef5b5aa00624b2d26000612ae48560009081527fffaa26784aca465bf23123375047d80ccb2b41102e02e5c4ef5b5aa00624b2d2602052604090206001015490565b81526020808201929092526040908101600090812073ffffffffffffffffffffffffffffffffffffffff8616825290925290205460ff16905092915050565b60607f1bdb0091f995c1d3419374bcead175ae14251e0f0aba8df7ace36571bda12e9c6002018054611e4290613f2c565b60008181527fffaa26784aca465bf23123375047d80ccb2b41102e02e5c4ef5b5aa00624b2d36020526040812061064e906131f4565b73ffffffffffffffffffffffffffffffffffffffff821660009081527fdd021e813d5056b401d30ba505d211a2ca2652076f58ad407a75764b92ed7d9d602052604090205460ff1661062a5773ffffffffffffffffffffffffffffffffffffffff821660009081527fdd021e813d5056b401d30ba505d211a2ca2652076f58ad407a75764b92ed7d9d60205260409081902080547fffffffffffffffffffffffffffffffffffffffffffffffffffffffffffffff0016600117905551612c51908290613f7f565b6040519081900381209073ffffffffffffffffffffffffffffffffffffffff8416907f71ffd5b2f7b305f2f756c161455e2951077ed1951f9ecbee6252949bc1e13c5a90600090a35050565b73ffffffffffffffffffffffffffffffffffffffff811660009081527fdd021e813d5056b401d30ba505d211a2ca2652076f58ad407a75764b92ed7d9d602052604090205460ff1615611a1a57612d0b8173ffffffffffffffffffffffffffffffffffffffff1660146131fe565b604051602001612d1b9190614163565b604080517fffffffffffffffffffffffffffffffffffffffffffffffffffffffffffffffe0818403018152908290527f08c379a000000000000000000000000000000000000000000000000000000000825261073891600401613884565b73ffffffffffffffffffffffffffffffffffffffff8216612dc6576040517f560d88fb00000000000000000000000000000000000000000000000000000000815260040160405180910390fd5b73ffffffffffffffffffffffffffffffffffffffff821660009081527f1bdb0091f995c1d3419374bcead175ae14251e0f0aba8df7ace36571bda12e9f60205260409020547f1bdb0091f995c1d3419374bcead175ae14251e0f0aba8df7ace36571bda12e9c9080831115612e71576040517fe1166d410000000000000000000000000000000000000000000000000000000081526004810184905260248101829052604401610738565b73ffffffffffffffffffffffffffffffffffffffff841660008181526003840160209081526040808320878603905585548790038655518681529192917fddf252ad1be2c89b69c2b068fc378daa952ba7f163c4a11628f55a4df523b3ef910160405180910390a350505050565b60006402540be4008263ffffffff8516612ef983886141cf565b612f0391906141e6565b612f0d91906141cf565b612f1791906141e6565b949350505050565b60405173ffffffffffffffffffffffffffffffffffffffff83166024820152604481018290526111249084907fa9059cbb00000000000000000000000000000000000000000000000000000000906064015b604080517fffffffffffffffffffffffffffffffffffffffffffffffffffffffffffffffe08184030181529190526020810180517bffffffffffffffffffffffffffffffffffffffffffffffffffffffff167fffffffff0000000000000000000000000000000000000000000000000000000090931692909217909152613441565b612ffd8282612a30565b61062a576130228173ffffffffffffffffffffffffffffffffffffffff1660146131fe565b61302d8360206131fe565b604051602001612d1b9291906141fa565b60405173ffffffffffffffffffffffffffffffffffffffff8085166024830152831660448201526064810182905261084a9085907f23b872dd0000000000000000000000000000000000000000000000000000000090608401612f71565b60006402540be4006130ad83612172565b6130b790856141cf565b610e7b91906141e6565b73ffffffffffffffffffffffffffffffffffffffff821661310e576040517fd1bb5a3e00000000000000000000000000000000000000000000000000000000815260040160405180910390fd5b7f1bdb0091f995c1d3419374bcead175ae14251e0f0aba8df7ace36571bda12e9c805482908290600090613143908490613f06565b909155505073ffffffffffffffffffffffffffffffffffffffff831660008181526003830160209081526040808320805487019055518581527fddf252ad1be2c89b69c2b068fc378daa952ba7f163c4a11628f55a4df523b3ef9101611fe0565b6000610e7b8373ffffffffffffffffffffffffffffffffffffffff841661354d565b6000610e7b8373ffffffffffffffffffffffffffffffffffffffff841661359c565b6000610e7b8383613696565b600061064e825490565b6060600061320d8360026141cf565b613218906002613f06565b67ffffffffffffffff81111561323057613230613be6565b6040519080825280601f01601f19166020018201604052801561325a576020820181803683370190505b5090507f30000000000000000000000000000000000000000000000000000000000000008160008151811061329157613291613ddc565b60200101907effffffffffffffffffffffffffffffffffffffffffffffffffffffffffffff1916908160001a9053507f7800000000000000000000000000000000000000000000000000000000000000816001815181106132f4576132f4613ddc565b60200101907effffffffffffffffffffffffffffffffffffffffffffffffffffffffffffff1916908160001a90535060006133308460026141cf565b61333b906001613f06565b90505b60018111156133d8577f303132333435363738396162636465660000000000000000000000000000000085600f166010811061337c5761337c613ddc565b1a60f81b82828151811061339257613392613ddc565b60200101907effffffffffffffffffffffffffffffffffffffffffffffffffffffffffffff1916908160001a90535060049490941c936133d18161427b565b905061333e565b508315610e7b576040517f08c379a000000000000000000000000000000000000000000000000000000000815260206004820181905260248201527f537472696e67733a20686578206c656e67746820696e73756666696369656e746044820152606401610738565b60006134a3826040518060400160405280602081526020017f5361666545524332303a206c6f772d6c6576656c2063616c6c206661696c65648152508573ffffffffffffffffffffffffffffffffffffffff166136c09092919063ffffffff16565b80519091501561112457808060200190518101906134c191906142b0565b611124576040517f08c379a000000000000000000000000000000000000000000000000000000000815260206004820152602a60248201527f5361666545524332303a204552433230206f7065726174696f6e20646964206e60448201527f6f742073756363656564000000000000000000000000000000000000000000006064820152608401610738565b60008181526001830160205260408120546135945750815460018181018455600084815260208082209093018490558454848252828601909352604090209190915561064e565b50600061064e565b600081815260018301602052604081205480156136855760006135c0600183613f19565b85549091506000906135d490600190613f19565b90508181146136395760008660000182815481106135f4576135f4613ddc565b906000526020600020015490508087600001848154811061361757613617613ddc565b6000918252602080832090910192909255918252600188019052604090208390555b855486908061364a5761364a6142d2565b60019003818190600052602060002001600090559055856001016000868152602001908152602001600020600090556001935050505061064e565b600091505061064e565b5092915050565b60008260000182815481106136ad576136ad613ddc565b9060005260206000200154905092915050565b6060612f178484600085856000808673ffffffffffffffffffffffffffffffffffffffff1685876040516136f49190613f7f565b60006040518083038185875af1925050503d8060008114613731576040519150601f19603f3d011682016040523d82523d6000602084013e613736565b606091505b509150915061374787838387613752565b979650505050505050565b606083156137e85782516000036137e15773ffffffffffffffffffffffffffffffffffffffff85163b6137e1576040517f08c379a000000000000000000000000000000000000000000000000000000000815260206004820152601d60248201527f416464726573733a2063616c6c20746f206e6f6e2d636f6e74726163740000006044820152606401610738565b5081612f17565b612f1783838151156137fd5781518083602001fd5b806040517f08c379a00000000000000000000000000000000000000000000000000000000081526004016107389190613884565b803563ffffffff811681146121de57600080fd5b60006020828403121561385757600080fd5b610e7b82613831565b60005b8381101561387b578181015183820152602001613863565b50506000910152565b60208152600082518060208401526138a3816040850160208701613860565b601f017fffffffffffffffffffffffffffffffffffffffffffffffffffffffffffffffe0169190910160400192915050565b73ffffffffffffffffffffffffffffffffffffffff81168114611a1a57600080fd5b80356121de816138d5565b6000806040838503121561391557600080fd5b8235613920816138d5565b946020939093013593505050565b60008083601f84011261394057600080fd5b50813567ffffffffffffffff81111561395857600080fd5b6020830191508360208260051b850101111561397357600080fd5b9250929050565b6000806000806040858703121561399057600080fd5b843567ffffffffffffffff808211156139a857600080fd5b6139b48883890161392e565b909650945060208701359150808211156139cd57600080fd5b506139da8782880161392e565b95989497509550505050565b600080604083850312156139f957600080fd5b50508035926020909101359150565b600080600060608486031215613a1d57600080fd5b8335613a28816138d5565b92506020840135613a38816138d5565b929592945050506040919091013590565b600060208284031215613a5b57600080fd5b5035919050565b60008060408385031215613a7557600080fd5b82359150613a8560208401613831565b90509250929050565b60008060408385031215613aa157600080fd5b823591506020830135613ab3816138d5565b809150509250929050565b6020808252825182820181905260009190848201906040850190845b81811015613b3957613b268385518051825260208101516020830152604081015163ffffffff808216604085015280606084015116606085015280608084015116608085015250505050565b9284019260a09290920191600101613ada565b50909695505050505050565b60008060408385031215613b5857600080fd5b8235613b63816138d5565b9150613a8560208401613831565b60a0810161064e82848051825260208101516020830152604081015163ffffffff808216604085015280606084015116606085015280608084015116608085015250505050565b60008060408385031215613bcb57600080fd5b8235613bd6816138d5565b91506020830135613ab3816138d5565b7f4e487b7100000000000000000000000000000000000000000000000000000000600052604160045260246000fd5b60006020808385031215613c2857600080fd5b823567ffffffffffffffff80821115613c4057600080fd5b818501915085601f830112613c5457600080fd5b813581811115613c6657613c66613be6565b8060051b6040517fffffffffffffffffffffffffffffffffffffffffffffffffffffffffffffffe0603f83011681018181108582111715613ca957613ca9613be6565b604052918252848201925083810185019188831115613cc757600080fd5b938501935b82851015613cec57613cdd856138f7565b84529385019392850192613ccc565b98975050505050505050565b600060208284031215613d0a57600080fd5b8135610e7b816138d5565b60008060208385031215613d2857600080fd5b823567ffffffffffffffff811115613d3f57600080fd5b613d4b8582860161392e565b90969095509350505050565b600080600060408486031215613d6c57600080fd5b8335613d77816138d5565b9250602084013567ffffffffffffffff80821115613d9457600080fd5b818601915086601f830112613da857600080fd5b813581811115613db757600080fd5b876020828501011115613dc957600080fd5b6020830194508093505050509250925092565b7f4e487b7100000000000000000000000000000000000000000000000000000000600052603260045260246000fd5b60008083357fffffffffffffffffffffffffffffffffffffffffffffffffffffffffffffffe1843603018112613e4057600080fd5b83018035915067ffffffffffffffff821115613e5b57600080fd5b60200191503681900382131561397357600080fd5b7f4e487b7100000000000000000000000000000000000000000000000000000000600052601160045260246000fd5b60007fffffffffffffffffffffffffffffffffffffffffffffffffffffffffffffffff8203613ed057613ed0613e70565b5060010190565b7f4e487b7100000000000000000000000000000000000000000000000000000000600052600160045260246000fd5b8082018082111561064e5761064e613e70565b8181038181111561064e5761064e613e70565b600181811c90821680613f4057607f821691505b602082108103613f79577f4e487b7100000000000000000000000000000000000000000000000000000000600052602260045260246000fd5b50919050565b60008251613f91818460208701613860565b9190910192915050565b7f4e487b7100000000000000000000000000000000000000000000000000000000600052601260045260246000fd5b600082613fd957613fd9613f9b565b500690565b63ffffffff81811683821601908082111561368f5761368f613e70565b601f82111561112457600081815260208120601f850160051c810160208610156140225750805b601f850160051c820191505b818110156140415782815560010161402e565b505050505050565b815167ffffffffffffffff81111561406357614063613be6565b614077816140718454613f2c565b84613ffb565b602080601f8311600181146140ca57600084156140945750858301515b7fffffffffffffffffffffffffffffffffffffffffffffffffffffffffffffffff600386901b1c1916600185901b178555614041565b6000858152602081207fffffffffffffffffffffffffffffffffffffffffffffffffffffffffffffffe08616915b82811015614117578886015182559484019460019091019084016140f8565b508582101561415357878501517fffffffffffffffffffffffffffffffffffffffffffffffffffffffffffffffff600388901b60f8161c191681555b5050505050600190811b01905550565b7f53696d706c65426c61636b6c6973743a206163636f756e74200000000000000081526000825161419b816019850160208701613860565b7f20697320626c61636b6c697374656400000000000000000000000000000000006019939091019283015250602801919050565b808202811582820484141761064e5761064e613e70565b6000826141f5576141f5613f9b565b500490565b7f416363657373436f6e74726f6c3a206163636f756e7420000000000000000000815260008351614232816017850160208801613860565b7f206973206d697373696e6720726f6c6520000000000000000000000000000000601791840191820152835161426f816028840160208801613860565b01602801949350505050565b60008161428a5761428a613e70565b507fffffffffffffffffffffffffffffffffffffffffffffffffffffffffffffffff0190565b6000602082840312156142c257600080fd5b81518015158114610e7b57600080fd5b7f4e487b7100000000000000000000000000000000000000000000000000000000600052603160045260246000fdfea26469706673582212202ac2623a7a7375ac49ecc68e7191ce04c83ef255e61e468f5e966ce31b197af364736f6c63430008110033",
  "devdoc": {
    "kind": "dev",
    "methods": {
      "allowance(address,address)": {
        "details": "Returns the remaining number of tokens that `spender` will be allowed to spend on behalf of `owner` through {transferFrom}. This is zero by default. This value changes when {approve} or {transferFrom} are called."
      },
      "approve(address,uint256)": {
        "details": "Sets `amount` as the allowance of `spender` over the caller's tokens. Returns a boolean value indicating whether the operation succeeded. IMPORTANT: Beware that changing an allowance with this method brings the risk that someone may use both the old and the new allowance by unfortunate transaction ordering. One possible solution to mitigate this race condition is to first reduce the spender's allowance to 0 and set the desired value afterwards: https://github.com/ethereum/EIPs/issues/20#issuecomment-263524729 Emits an {Approval} event."
      },
      "balanceOf(address)": {
        "details": "Returns the amount of tokens owned by `account`."
      },
      "blacklist(address,string)": {
        "details": "External function to add `account` to the blacklist. WARNING: This function is abstract, to enforce it's implementation          in the final contract. This is important to make sure          the final contraqct's access control mechanism will be used! See {ISimpleBlacklist-blacklist}"
      },
      "blacklist(address[],string[])": {
        "details": "External function to add `account` to the blacklist. WARNING: This function is abstract, to enforce it's implementation          in the final contract. This is important to make sure          the final contraqct's access control mechanism will be used! See {ISimpleBlacklist-blacklist}"
      },
      "decimals()": {
        "details": "Returns the decimals places of the token."
      },
      "decreaseAllowance(address,uint256)": {
        "details": "Atomically decreases the allowance granted to `spender` by the caller. This is an alternative to {approve} that can be used as a mitigation for problems described in {IERC20-approve}. Emits an {Approval} event indicating the updated allowance. Requirements: - `spender` cannot be the zero address. - `spender` must have allowance for the caller of at least `subtractedValue`."
      },
      "getRoleAdmin(bytes32)": {
        "details": "Returns the admin role that controls `role`. See {grantRole} and {revokeRole}. To change a role's admin, use {AccessControl-setRoleAdmin}."
      },
      "getRoleMember(bytes32,uint256)": {
        "details": "Returns one of the accounts that have `role`. `index` must be a value between 0 and {getRoleMemberCount}, non-inclusive. Role bearers are not sorted in any particular way, and their ordering may change at any point. WARNING: When using {getRoleMember} and {getRoleMemberCount}, make sure you perform all queries on the same block. See the following https://forum.openzeppelin.com/t/iterating-over-elements-on-enumerableset-in-openzeppelin-contracts/2296[forum post] for more information."
      },
      "getRoleMemberCount(bytes32)": {
        "details": "Returns the number of accounts that have `role`. Can be used together with {getRoleMember} to enumerate all bearers of a role."
      },
      "grantRole(bytes32,address)": {
        "details": "Grants `role` to `account`. If `account` had not been already granted `role`, emits a {RoleGranted} event. Requirements: - the caller must have ``role``'s admin role."
      },
      "hasRole(bytes32,address)": {
        "details": "Returns `true` if `account` has been granted `role`."
      },
      "increaseAllowance(address,uint256)": {
        "details": "Atomically increases the allowance granted to `spender` by the caller. This is an alternative to {approve} that can be used as a mitigation for problems described in {IERC20-approve}. Emits an {Approval} event indicating the updated allowance. Requirements: - `spender` cannot be the zero address."
      },
      "isBlacklisted(address)": {
        "details": "Returns `true` if `account` is blacklisted."
      },
      "isBlacklisted(address[])": {
        "details": "Returns `true` if any address in `accounts` is on the blacklist."
      },
      "name()": {
        "details": "Returns the name of the token."
      },
      "pause()": {
        "details": "Triggers stopped state. Requirements: - The contract must not be paused."
      },
      "paused()": {
        "details": "Returns true if the contract is paused, and false otherwise."
      },
      "renounceRole(bytes32,address)": {
        "details": "Revokes `role` from the calling account. Roles are often managed via {grantRole} and {revokeRole}: this function's purpose is to provide a mechanism for accounts to lose their privileges if they are compromised (such as when a trusted device is misplaced). If the calling account had been granted `role`, emits a {RoleRevoked} event. Requirements: - the caller must be `account`."
      },
      "revokeRole(bytes32,address)": {
        "details": "Revokes `role` from `account`. If `account` had been granted `role`, emits a {RoleRevoked} event. Requirements: - the caller must have ``role``'s admin role."
      },
      "setRoleAdmin(bytes32,bytes32)": {
        "details": "Sets `adminRole` as ``role``'s admin role. Emits a {RoleAdminChanged} event."
      },
      "symbol()": {
        "details": "Returns the symbol of the token."
      },
      "totalSupply()": {
        "details": "Returns the amount of tokens in existence."
      },
      "transfer(address,uint256)": {
        "details": "Moves `amount` tokens from the caller's account to `to`. Returns a boolean value indicating whether the operation succeeded. Emits a {Transfer} event."
      },
      "transferFrom(address,address,uint256)": {
        "details": "Moves `amount` tokens from `from` to `to` using the allowance mechanism. `amount` is then deducted from the caller's allowance. Returns a boolean value indicating whether the operation succeeded. Emits a {Transfer} event."
      },
      "unblacklist(address,string)": {
        "details": "External function to remove `account` from the blacklist. WARNING: This function is abstract, to enforce it's implementation          in the final contract. This is important to make sure          the final contraqct's access control mechanism will be used! See {ISimpleBlacklist-unblacklist}"
      },
      "unblacklist(address[],string[])": {
        "details": "External function to add `account` to the blacklist. WARNING: This function is abstract, to enforce it's implementation          in the final contract. This is important to make sure          the final contraqct's access control mechanism will be used! See {ISimpleBlacklist-blacklist}"
      },
      "unpause()": {
        "details": "Returns to normal state. Requirements: - The contract must be paused."
      }
    },
    "version": 1
  },
  "userdoc": {
    "kind": "user",
    "methods": {
      "deprecatedToken()": {
        "notice": "DEPRECATED"
      },
      "deprecatedUserInfo(address,uint256)": {
        "notice": "DEPRECATED"
      },
      "deprecatedUserInfoMigrated(address,uint256)": {
        "notice": "DEPRECATED"
      }
    },
    "version": 1
  },
  "storageLayout": {
    "storage": [
      {
        "astId": 6070,
        "contract": "contracts/token-locker/TokenLocker.sol:TokenLocker",
        "label": "deprecatedToken",
        "offset": 0,
        "slot": "0",
        "type": "t_contract(IERC20)175"
      },
      {
        "astId": 6077,
        "contract": "contracts/token-locker/TokenLocker.sol:TokenLocker",
        "label": "deprecatedUserInfo",
        "offset": 0,
        "slot": "1",
        "type": "t_mapping(t_address,t_array(t_struct(UserInfo)5323_storage)dyn_storage)"
      },
      {
        "astId": 6084,
        "contract": "contracts/token-locker/TokenLocker.sol:TokenLocker",
        "label": "deprecatedUserInfoMigrated",
        "offset": 0,
        "slot": "2",
        "type": "t_mapping(t_address,t_mapping(t_uint256,t_bool))"
      }
    ],
    "types": {
      "t_address": {
        "encoding": "inplace",
        "label": "address",
        "numberOfBytes": "20"
      },
      "t_array(t_struct(UserInfo)5323_storage)dyn_storage": {
        "base": "t_struct(UserInfo)5323_storage",
        "encoding": "dynamic_array",
        "label": "struct ITokenLocker.UserInfo[]",
        "numberOfBytes": "32"
      },
      "t_bool": {
        "encoding": "inplace",
        "label": "bool",
        "numberOfBytes": "1"
      },
      "t_contract(IERC20)175": {
        "encoding": "inplace",
        "label": "contract IERC20",
        "numberOfBytes": "20"
      },
      "t_mapping(t_address,t_array(t_struct(UserInfo)5323_storage)dyn_storage)": {
        "encoding": "mapping",
        "key": "t_address",
        "label": "mapping(address => struct ITokenLocker.UserInfo[])",
        "numberOfBytes": "32",
        "value": "t_array(t_struct(UserInfo)5323_storage)dyn_storage"
      },
      "t_mapping(t_address,t_mapping(t_uint256,t_bool))": {
        "encoding": "mapping",
        "key": "t_address",
        "label": "mapping(address => mapping(uint256 => bool))",
        "numberOfBytes": "32",
        "value": "t_mapping(t_uint256,t_bool)"
      },
      "t_mapping(t_uint256,t_bool)": {
        "encoding": "mapping",
        "key": "t_uint256",
        "label": "mapping(uint256 => bool)",
        "numberOfBytes": "32",
        "value": "t_bool"
      },
      "t_struct(UserInfo)5323_storage": {
        "encoding": "inplace",
        "label": "struct ITokenLocker.UserInfo",
        "members": [
          {
            "astId": 5318,
            "contract": "contracts/token-locker/TokenLocker.sol:TokenLocker",
            "label": "amount",
            "offset": 0,
            "slot": "0",
            "type": "t_uint256"
          },
          {
            "astId": 5320,
            "contract": "contracts/token-locker/TokenLocker.sol:TokenLocker",
            "label": "duration",
            "offset": 0,
            "slot": "1",
            "type": "t_uint32"
          },
          {
            "astId": 5322,
            "contract": "contracts/token-locker/TokenLocker.sol:TokenLocker",
            "label": "lockedAt",
            "offset": 4,
            "slot": "1",
            "type": "t_uint32"
          }
        ],
        "numberOfBytes": "64"
      },
      "t_uint256": {
        "encoding": "inplace",
        "label": "uint256",
        "numberOfBytes": "32"
      },
      "t_uint32": {
        "encoding": "inplace",
        "label": "uint32",
        "numberOfBytes": "4"
      }
    }
  }
}