{
  "address": "0xadf5cae3103Ba115300BeC49091ECe14A933e441",
  "abi": [
    {
      "inputs": [],
      "name": "InitializerContractAlreadyInitialized",
      "type": "error"
    },
    {
      "inputs": [],
      "name": "InitializerContractIsInitializing",
      "type": "error"
    },
    {
      "inputs": [],
      "name": "InitializerContractIsNotInitializing",
      "type": "error"
    },
    {
      "inputs": [
        {
          "internalType": "uint8",
          "name": "version",
          "type": "uint8"
        }
      ],
      "name": "InitializerVersionAlreadyInitialized",
      "type": "error"
    },
    {
      "anonymous": false,
      "inputs": [
        {
          "indexed": true,
          "internalType": "address",
          "name": "account",
          "type": "address"
        },
        {
          "indexed": true,
          "internalType": "string",
          "name": "reason",
          "type": "string"
        }
      ],
      "name": "Blacklisted",
      "type": "event"
    },
    {
      "anonymous": false,
      "inputs": [
        {
          "indexed": false,
          "internalType": "address",
          "name": "account",
          "type": "address"
        },
        {
          "indexed": false,
          "internalType": "uint256",
          "name": "amount",
          "type": "uint256"
        },
        {
          "indexed": false,
          "internalType": "uint32",
          "name": "duration",
          "type": "uint32"
        },
        {
          "indexed": false,
          "internalType": "uint32",
          "name": "lockedAt",
          "type": "uint32"
        }
      ],
      "name": "Deposit",
      "type": "event"
    },
    {
      "anonymous": false,
      "inputs": [
        {
          "indexed": false,
          "internalType": "uint8",
          "name": "version",
          "type": "uint8"
        }
      ],
      "name": "Initialized",
      "type": "event"
    },
    {
      "anonymous": false,
      "inputs": [
        {
          "indexed": true,
          "internalType": "bytes32",
          "name": "role",
          "type": "bytes32"
        },
        {
          "indexed": true,
          "internalType": "bytes32",
          "name": "previousAdminRole",
          "type": "bytes32"
        },
        {
          "indexed": true,
          "internalType": "bytes32",
          "name": "newAdminRole",
          "type": "bytes32"
        }
      ],
      "name": "RoleAdminChanged",
      "type": "event"
    },
    {
      "anonymous": false,
      "inputs": [
        {
          "indexed": true,
          "internalType": "bytes32",
          "name": "role",
          "type": "bytes32"
        },
        {
          "indexed": true,
          "internalType": "address",
          "name": "account",
          "type": "address"
        },
        {
          "indexed": true,
          "internalType": "address",
          "name": "sender",
          "type": "address"
        }
      ],
      "name": "RoleGranted",
      "type": "event"
    },
    {
      "anonymous": false,
      "inputs": [
        {
          "indexed": true,
          "internalType": "bytes32",
          "name": "role",
          "type": "bytes32"
        },
        {
          "indexed": true,
          "internalType": "address",
          "name": "account",
          "type": "address"
        },
        {
          "indexed": true,
          "internalType": "address",
          "name": "sender",
          "type": "address"
        }
      ],
      "name": "RoleRevoked",
      "type": "event"
    },
    {
      "anonymous": false,
      "inputs": [
        {
          "indexed": true,
          "internalType": "address",
          "name": "account",
          "type": "address"
        },
        {
          "indexed": true,
          "internalType": "string",
          "name": "reason",
          "type": "string"
        }
      ],
      "name": "UnBlacklisted",
      "type": "event"
    },
    {
      "inputs": [],
      "name": "MAX_DEPOSIT_AMOUNT",
      "outputs": [
        {
          "internalType": "uint256",
          "name": "",
          "type": "uint256"
        }
      ],
      "stateMutability": "view",
      "type": "function"
    },
    {
      "inputs": [],
      "name": "MIN_DEPOSIT_AMOUNT",
      "outputs": [
        {
          "internalType": "uint256",
          "name": "",
          "type": "uint256"
        }
      ],
      "stateMutability": "view",
      "type": "function"
    },
    {
      "inputs": [
        {
          "internalType": "address[]",
          "name": "accounts",
          "type": "address[]"
        },
        {
          "internalType": "string[]",
          "name": "reasons",
          "type": "string[]"
        }
      ],
      "name": "blacklist",
      "outputs": [],
      "stateMutability": "nonpayable",
      "type": "function"
    },
    {
      "inputs": [
        {
          "internalType": "address",
          "name": "account",
          "type": "address"
        },
        {
          "internalType": "string",
          "name": "reason",
          "type": "string"
        }
      ],
      "name": "blacklist",
      "outputs": [],
      "stateMutability": "nonpayable",
      "type": "function"
    },
    {
      "inputs": [
        {
          "internalType": "uint256",
          "name": "amount",
          "type": "uint256"
        },
        {
          "internalType": "uint32",
          "name": "duration",
          "type": "uint32"
        }
      ],
      "name": "deposit",
      "outputs": [],
      "stateMutability": "nonpayable",
      "type": "function"
    },
    {
      "inputs": [
        {
          "internalType": "bytes32",
          "name": "role",
          "type": "bytes32"
        }
      ],
      "name": "getRoleAdmin",
      "outputs": [
        {
          "internalType": "bytes32",
          "name": "",
          "type": "bytes32"
        }
      ],
      "stateMutability": "view",
      "type": "function"
    },
    {
      "inputs": [
        {
          "internalType": "bytes32",
          "name": "role",
          "type": "bytes32"
        },
        {
          "internalType": "uint256",
          "name": "index",
          "type": "uint256"
        }
      ],
      "name": "getRoleMember",
      "outputs": [
        {
          "internalType": "address",
          "name": "",
          "type": "address"
        }
      ],
      "stateMutability": "view",
      "type": "function"
    },
    {
      "inputs": [
        {
          "internalType": "bytes32",
          "name": "role",
          "type": "bytes32"
        }
      ],
      "name": "getRoleMemberCount",
      "outputs": [
        {
          "internalType": "uint256",
          "name": "",
          "type": "uint256"
        }
      ],
      "stateMutability": "view",
      "type": "function"
    },
    {
      "inputs": [
        {
          "internalType": "address",
          "name": "account",
          "type": "address"
        }
      ],
      "name": "getUserInfo",
      "outputs": [
        {
          "components": [
            {
              "internalType": "uint256",
              "name": "amount",
              "type": "uint256"
            },
            {
              "internalType": "uint32",
              "name": "duration",
              "type": "uint32"
            },
            {
              "internalType": "uint32",
              "name": "lockedAt",
              "type": "uint32"
            }
          ],
          "internalType": "struct ITokenLocker.UserInfo[]",
          "name": "userLockInfo",
          "type": "tuple[]"
        }
      ],
      "stateMutability": "view",
      "type": "function"
    },
    {
      "inputs": [
        {
          "internalType": "address",
          "name": "account",
          "type": "address"
        },
        {
          "internalType": "uint256",
          "name": "id",
          "type": "uint256"
        }
      ],
      "name": "getUserInfo",
      "outputs": [
        {
          "components": [
            {
              "internalType": "uint256",
              "name": "amount",
              "type": "uint256"
            },
            {
              "internalType": "uint32",
              "name": "duration",
              "type": "uint32"
            },
            {
              "internalType": "uint32",
              "name": "lockedAt",
              "type": "uint32"
            }
          ],
          "internalType": "struct ITokenLocker.UserInfo",
          "name": "",
          "type": "tuple"
        }
      ],
      "stateMutability": "view",
      "type": "function"
    },
    {
      "inputs": [
        {
          "internalType": "address",
          "name": "account",
          "type": "address"
        }
      ],
      "name": "getUserInfoLength",
      "outputs": [
        {
          "internalType": "uint256",
          "name": "",
          "type": "uint256"
        }
      ],
      "stateMutability": "view",
      "type": "function"
    },
    {
      "inputs": [
        {
          "internalType": "bytes32",
          "name": "role",
          "type": "bytes32"
        },
        {
          "internalType": "address",
          "name": "account",
          "type": "address"
        }
      ],
      "name": "grantRole",
      "outputs": [],
      "stateMutability": "nonpayable",
      "type": "function"
    },
    {
      "inputs": [
        {
          "internalType": "bytes32",
          "name": "role",
          "type": "bytes32"
        },
        {
          "internalType": "address",
          "name": "account",
          "type": "address"
        }
      ],
      "name": "hasRole",
      "outputs": [
        {
          "internalType": "bool",
          "name": "",
          "type": "bool"
        }
      ],
      "stateMutability": "view",
      "type": "function"
    },
    {
      "inputs": [
        {
          "internalType": "contract IERC20",
          "name": "token_",
          "type": "address"
        },
        {
          "internalType": "address",
          "name": "owner",
          "type": "address"
        }
      ],
      "name": "initialize",
      "outputs": [],
      "stateMutability": "nonpayable",
      "type": "function"
    },
    {
      "inputs": [
        {
          "internalType": "address[]",
          "name": "accounts",
          "type": "address[]"
        }
      ],
      "name": "isBlacklisted",
      "outputs": [
        {
          "internalType": "bool",
          "name": "",
          "type": "bool"
        }
      ],
      "stateMutability": "view",
      "type": "function"
    },
    {
      "inputs": [
        {
          "internalType": "address",
          "name": "account",
          "type": "address"
        }
      ],
      "name": "isBlacklisted",
      "outputs": [
        {
          "internalType": "bool",
          "name": "",
          "type": "bool"
        }
      ],
      "stateMutability": "view",
      "type": "function"
    },
    {
      "inputs": [],
      "name": "pause",
      "outputs": [],
      "stateMutability": "nonpayable",
      "type": "function"
    },
    {
      "inputs": [],
      "name": "paused",
      "outputs": [
        {
          "internalType": "bool",
          "name": "",
          "type": "bool"
        }
      ],
      "stateMutability": "view",
      "type": "function"
    },
    {
      "inputs": [
        {
          "internalType": "bytes32",
          "name": "role",
          "type": "bytes32"
        },
        {
          "internalType": "address",
          "name": "account",
          "type": "address"
        }
      ],
      "name": "renounceRole",
      "outputs": [],
      "stateMutability": "nonpayable",
      "type": "function"
    },
    {
      "inputs": [
        {
          "internalType": "bytes32",
          "name": "role",
          "type": "bytes32"
        },
        {
          "internalType": "address",
          "name": "account",
          "type": "address"
        }
      ],
      "name": "revokeRole",
      "outputs": [],
      "stateMutability": "nonpayable",
      "type": "function"
    },
    {
      "inputs": [
        {
          "internalType": "bytes32",
          "name": "role",
          "type": "bytes32"
        },
        {
          "internalType": "bytes32",
          "name": "adminRole",
          "type": "bytes32"
        }
      ],
      "name": "setRoleAdmin",
      "outputs": [],
      "stateMutability": "nonpayable",
      "type": "function"
    },
    {
      "inputs": [],
      "name": "token",
      "outputs": [
        {
          "internalType": "contract IERC20",
          "name": "",
          "type": "address"
        }
      ],
      "stateMutability": "view",
      "type": "function"
    },
    {
      "inputs": [
        {
          "internalType": "address[]",
          "name": "accounts",
          "type": "address[]"
        },
        {
          "internalType": "string[]",
          "name": "reasons",
          "type": "string[]"
        }
      ],
      "name": "unblacklist",
      "outputs": [],
      "stateMutability": "nonpayable",
      "type": "function"
    },
    {
      "inputs": [
        {
          "internalType": "address",
          "name": "account",
          "type": "address"
        },
        {
          "internalType": "string",
          "name": "reason",
          "type": "string"
        }
      ],
      "name": "unblacklist",
      "outputs": [],
      "stateMutability": "nonpayable",
      "type": "function"
    },
    {
      "inputs": [],
      "name": "unpause",
      "outputs": [],
      "stateMutability": "nonpayable",
      "type": "function"
    },
    {
      "inputs": [
        {
          "internalType": "address",
          "name": "",
          "type": "address"
        },
        {
          "internalType": "uint256",
          "name": "",
          "type": "uint256"
        }
      ],
      "name": "userInfo",
      "outputs": [
        {
          "internalType": "uint256",
          "name": "amount",
          "type": "uint256"
        },
        {
          "internalType": "uint32",
          "name": "duration",
          "type": "uint32"
        },
        {
          "internalType": "uint32",
          "name": "lockedAt",
          "type": "uint32"
        }
      ],
      "stateMutability": "view",
      "type": "function"
    }
  ],
  "transactionHash": "0x15972725494642cd692a03889f140ba9be8834d0076877503c732ceb5e4b04fa",
  "args": [],
  "numDeployments": 1,
  "solcInputHash": "45f33095789595be00c97586a22d289b",
  "bytecode": "0x608060405234801561001057600080fd5b50612cd0806100206000396000f3fe608060405234801561001057600080fd5b50600436106101ae5760003560e01c80636ebb16d3116100ee578063ca15c87311610097578063d547741f11610071578063d547741f146103d7578063ddf579ff146103ea578063fc0c546a146103fd578063fe575a871461041d57600080fd5b8063ca15c8731461039e578063ce5da407146103b1578063d1e6c30c146103c457600080fd5b80639010d07c116100c85780639010d07c1461031d57806391d1485414610355578063c3392ee51461036857600080fd5b80636ebb16d3146102e257806376e8424f146102f55780638456cb591461031557600080fd5b80632f2ff15d1161015b578063485cc95511610135578063485cc955146102865780634c34a982146102995780635c975abb146102aa5780636386c1c7146102c257600080fd5b80632f2ff15d1461025857806336568abe1461026b5780633f4ba83a1461027e57600080fd5b806321ce919d1161018c57806321ce919d146101fd578063248a9ca3146102325780632b2dfd2c1461024557600080fd5b8063186d3830146101b35780631e4e0091146101c85780631ea30fef146101db575b600080fd5b6101c66101c1366004612542565b610430565b005b6101c66101d63660046125ae565b610602565b6101ea670de0b6b3a764000081565b6040519081526020015b60405180910390f35b61021061020b366004612602565b61064a565b6040805193845263ffffffff92831660208501529116908201526060016101f4565b6101ea61024036600461262e565b610698565b6101c6610253366004612647565b6106d0565b6101c6610266366004612680565b610961565b6101c6610279366004612680565b6109a5565b6101c6610a54565b6101c66102943660046126a5565b610a8f565b6101ea69010f0cf064dd5920000081565b6102b2610cc0565b60405190151581526020016101f4565b6102d56102d03660046126d3565b610ccf565b6040516101f491906126f0565b6102b26102f036600461278d565b610e0e565b610308610303366004612602565b610e19565b6040516101f49190612870565b6101c6610eb7565b61033061032b3660046125ae565b610ef0565b60405173ffffffffffffffffffffffffffffffffffffffff90911681526020016101f4565b6102b2610363366004612680565b610f03565b6101ea6103763660046126d3565b73ffffffffffffffffffffffffffffffffffffffff1660009081526001602052604090205490565b6101ea6103ac36600461262e565b610f0f565b6101c66103bf366004612542565b610f1a565b6101c66103d236600461289e565b6110d9565b6101c66103e5366004612680565b611142565b6101c66103f836600461289e565b61117c565b6000546103309073ffffffffffffffffffffffffffffffffffffffff1681565b6102b261042b3660046126d3565b6111e5565b6104597ff988e4fb62b8e14f4820fed03192306ddf4d7dbfa215595ba1c6ba4b76b369ee611232565b801561059e578281146104f3576040517f08c379a000000000000000000000000000000000000000000000000000000000815260206004820152602360248201527f53696d706c65426c61636b6c6973743a204e6f7420656e6f756768207265617360448201527f6f6e73000000000000000000000000000000000000000000000000000000000060648201526084015b60405180910390fd5b60005b838110156105985761058685858381811061051357610513612923565b905060200201602081019061052891906126d3565b84848481811061053a5761053a612923565b905060200281019061054c9190612952565b8080601f01602080910402602001604051908101604052809392919081815260200183838082843760009201919091525061123f92505050565b80610590816129e6565b9150506104f6565b506105fc565b60005b838110156105fa576105e88585838181106105be576105be612923565b90506020020160208101906105d391906126d3565b6040518060200160405280600081525061123f565b806105f2816129e6565b9150506105a1565b505b50505050565b60008281527fffaa26784aca465bf23123375047d80ccb2b41102e02e5c4ef5b5aa00624b2d2602052604090206001015461063c90611232565b6106468282611350565b5050565b6001602052816000526040600020818154811061066657600080fd5b60009182526020909120600290910201805460019091015490925063ffffffff80821692506401000000009091041683565b60008181527fffaa26784aca465bf23123375047d80ccb2b41102e02e5c4ef5b5aa00624b2d260205260408120600101545b92915050565b6106d86113ba565b6106e133611459565b670de0b6b3a76400008211610752576040517f08c379a000000000000000000000000000000000000000000000000000000000815260206004820152601b60248201527f416d6f756e74203c204d494e5f4445504f5349545f414d4f554e54000000000060448201526064016104ea565b69010f0cf064dd5920000082106107c5576040517f08c379a000000000000000000000000000000000000000000000000000000000815260206004820152601b60248201527f416d6f756e74203e204d41585f4445504f5349545f414d4f554e54000000000060448201526064016104ea565b8063ffffffff1662278d0014806107e557508063ffffffff166301e13380145b61084b576040517f08c379a000000000000000000000000000000000000000000000000000000000815260206004820152601460248201527f556e737570706f72746564206475726174696f6e00000000000000000000000060448201526064016104ea565b6000546108709073ffffffffffffffffffffffffffffffffffffffff16333085611462565b600061088164010000000042612a1e565b3360008181526001602081815260408084208151606080820184528b825263ffffffff8b81168387018181528b83168588018181528754808c018955978c529a899020955160029097029095019586555194909701805498518216640100000000027fffffffffffffffffffffffffffffffffffffffffffffffff00000000000000009099169490911693909317969096179091558151958652918501899052840191909152908201529091507f515c226595407d89f3b4904316195e8a7dd0aaa91bab476501ec4efe9f2af3e0906080015b60405180910390a1505050565b60008281527fffaa26784aca465bf23123375047d80ccb2b41102e02e5c4ef5b5aa00624b2d2602052604090206001015461099b90611232565b61064682826114f7565b73ffffffffffffffffffffffffffffffffffffffff81163314610a4a576040517f08c379a000000000000000000000000000000000000000000000000000000000815260206004820152602f60248201527f416363657373436f6e74726f6c3a2063616e206f6e6c792072656e6f756e636560448201527f20726f6c657320666f722073656c66000000000000000000000000000000000060648201526084016104ea565b61064682826115f9565b610a7d7f356a809dfdea9198dd76fb76bf6d403ecf13ea675eb89e1eda2db2c4a4676a26611232565b610a856116f9565b610a8d611797565b565b7f0de7f2b0af5ab1aa4eca2b133cdee828bdcfefa98e4927fa304b2ad002ca6eb354610100900460ff1615808015610aed57507f0de7f2b0af5ab1aa4eca2b133cdee828bdcfefa98e4927fa304b2ad002ca6eb354600160ff909116105b80610b0c5750303b158015610b0c5750610b05611814565b60ff166001145b15610c8e57610b1b6001611841565b8015610b6d577f0de7f2b0af5ab1aa4eca2b133cdee828bdcfefa98e4927fa304b2ad002ca6eb380547fffffffffffffffffffffffffffffffffffffffffffffffffffffffffffff00ff166101001790555b600080547fffffffffffffffffffffffff00000000000000000000000000000000000000001673ffffffffffffffffffffffffffffffffffffffff8516178155610bb790836114f7565b610be17f241ecf16d79d0f8dbfb92cbc07fe17840425976cf0667f022fe9877caa831b08836114f7565b610c0b7fda6fac9f81a22bb02ed26455dcee2a5f2434c8a3377a2cc986478052c1594f9e836114f7565b8015610c89577f0de7f2b0af5ab1aa4eca2b133cdee828bdcfefa98e4927fa304b2ad002ca6eb380547fffffffffffffffffffffffffffffffffffffffffffffffffffffffffffff00ff169055604051600181527f7f26b83ff96e1f2b6a682f133852f6798a09c465da95921460cefb384740249890602001610954565b505050565b6040517f5d99ebd200000000000000000000000000000000000000000000000000000000815260040160405180910390fd5b6000610cca6118f9565b905090565b73ffffffffffffffffffffffffffffffffffffffff8116600090815260016020526040812080546060928167ffffffffffffffff811115610d1257610d1261275e565b604051908082528060200260200182016040528015610d7b57816020015b60408051606081018252600080825260208083018290529282015282527fffffffffffffffffffffffffffffffffffffffffffffffffffffffffffffffff909201910181610d305790505b5093505b81811015610e0657828181548110610d9957610d99612923565b6000918252602091829020604080516060810182526002909302909101805483526001015463ffffffff808216948401949094526401000000009004909216918101919091528451859083908110610df357610df3612923565b6020908102919091010152600101610d7f565b505050919050565b60006106ca82611921565b604080516060810182526000808252602080830182905282840182905273ffffffffffffffffffffffffffffffffffffffff861682526001905291909120805483908110610e6957610e69612923565b6000918252602091829020604080516060810182526002909302909101805483526001015463ffffffff80821694840194909452640100000000900490921691810191909152905092915050565b610ee07f356a809dfdea9198dd76fb76bf6d403ecf13ea675eb89e1eda2db2c4a4676a26611232565b610ee86113ba565b610a8d6119be565b6000610efc8383611a38565b9392505050565b6000610efc8383611a6f565b60006106ca82611b62565b610f437ff988e4fb62b8e14f4820fed03192306ddf4d7dbfa215595ba1c6ba4b76b369ee611232565b801561107d57828114610fd8576040517f08c379a000000000000000000000000000000000000000000000000000000000815260206004820152602360248201527f53696d706c65426c61636b6c6973743a204e6f7420656e6f756768207265617360448201527f6f6e73000000000000000000000000000000000000000000000000000000000060648201526084016104ea565b60005b838110156105985761106b858583818110610ff857610ff8612923565b905060200201602081019061100d91906126d3565b84848481811061101f5761101f612923565b90506020028101906110319190612952565b8080601f016020809104026020016040519081016040528093929190818152602001838380828437600092019190915250611b9892505050565b80611075816129e6565b915050610fdb565b60005b838110156105fa576110c785858381811061109d5761109d612923565b90506020020160208101906110b291906126d3565b60405180602001604052806000815250611b98565b806110d1816129e6565b915050611080565b6111027ff988e4fb62b8e14f4820fed03192306ddf4d7dbfa215595ba1c6ba4b76b369ee611232565b610c898383838080601f01602080910402602001604051908101604052809392919081815260200183838082843760009201919091525061123f92505050565b60008281527fffaa26784aca465bf23123375047d80ccb2b41102e02e5c4ef5b5aa00624b2d26020526040902060010154610a4a90611232565b6111a57ff988e4fb62b8e14f4820fed03192306ddf4d7dbfa215595ba1c6ba4b76b369ee611232565b610c898383838080601f016020809104026020016040519081016040528093929190818152602001838380828437600092019190915250611b9892505050565b73ffffffffffffffffffffffffffffffffffffffff811660009081527fdd021e813d5056b401d30ba505d211a2ca2652076f58ad407a75764b92ed7d9d602052604081205460ff166106ca565b61123c8133611cab565b50565b73ffffffffffffffffffffffffffffffffffffffff821660009081527fdd021e813d5056b401d30ba505d211a2ca2652076f58ad407a75764b92ed7d9d602052604090205460ff16156106465773ffffffffffffffffffffffffffffffffffffffff821660009081527fdd021e813d5056b401d30ba505d211a2ca2652076f58ad407a75764b92ed7d9d60205260409081902080547fffffffffffffffffffffffffffffffffffffffffffffffffffffffffffffff0016905551611304908290612a7d565b6040519081900381209073ffffffffffffffffffffffffffffffffffffffff8416907fe4e3c0e67592981f9042a3df81ea0ee0dfb06be469efdbd2bfc674ab37ab62fe90600090a35050565b60008281527fffaa26784aca465bf23123375047d80ccb2b41102e02e5c4ef5b5aa00624b2d26020526040808220600101805490849055905190918391839186917fbd79b86ffe0ab8e8776151514217cd7cacd52c909f66475c3af44e129f0b00ff9190a4505050565b6113c26118f9565b15806113f357506113f37fda6fac9f81a22bb02ed26455dcee2a5f2434c8a3377a2cc986478052c1594f9e33611a6f565b610a8d576040517f08c379a000000000000000000000000000000000000000000000000000000000815260206004820152601060248201527f5061757361626c653a207061757365640000000000000000000000000000000060448201526064016104ea565b61123c81611d54565b6040805173ffffffffffffffffffffffffffffffffffffffff85811660248301528416604482015260648082018490528251808303909101815260849091019091526020810180517bffffffffffffffffffffffffffffffffffffffffffffffffffffffff167f23b872dd000000000000000000000000000000000000000000000000000000001790526105fc908590611dd2565b6115018282611a6f565b6106465760008281527fffaa26784aca465bf23123375047d80ccb2b41102e02e5c4ef5b5aa00624b2d26020908152604080832073ffffffffffffffffffffffffffffffffffffffff85168452825280832080547fffffffffffffffffffffffffffffffffffffffffffffffffffffffffffffff001660011790558483527fffaa26784aca465bf23123375047d80ccb2b41102e02e5c4ef5b5aa00624b2d390915290206115af9082611ede565b50604051339073ffffffffffffffffffffffffffffffffffffffff83169084907f2f8788117e7eff1d82e926ec794901d17c78024a50270940304540a733656f0d90600090a45050565b6116038282611a6f565b156106465760008281527fffaa26784aca465bf23123375047d80ccb2b41102e02e5c4ef5b5aa00624b2d26020908152604080832073ffffffffffffffffffffffffffffffffffffffff85168452825280832080547fffffffffffffffffffffffffffffffffffffffffffffffffffffffffffffff001690558483527fffaa26784aca465bf23123375047d80ccb2b41102e02e5c4ef5b5aa00624b2d390915290206116af9082611f00565b50604051339073ffffffffffffffffffffffffffffffffffffffff83169084907ff6391f5c32d9c69d2a47ea670b442974b53935d1edc7fd64eb21e047a839171b90600090a45050565b6117016118f9565b8061173157506117317fda6fac9f81a22bb02ed26455dcee2a5f2434c8a3377a2cc986478052c1594f9e33611a6f565b610a8d576040517f08c379a000000000000000000000000000000000000000000000000000000000815260206004820152601460248201527f5061757361626c653a206e6f742070617573656400000000000000000000000060448201526064016104ea565b7fb65939979d77055fe20d21bcb90b95461947bffa39f3588194f5015117626ea780547fffffffffffffffffffffffffffffffffffffffffffffffffffffffffffffff001690556040513381527f5db9ee0a495bf2e6ff9c91a7834c1ba4fdd244a5e8aa4e537bd38aeae4b073aa906020015b60405180910390a1565b60007f0de7f2b0af5ab1aa4eca2b133cdee828bdcfefa98e4927fa304b2ad002ca6eb35b5460ff16919050565b7f0de7f2b0af5ab1aa4eca2b133cdee828bdcfefa98e4927fa304b2ad002ca6eb35460ff8083169116106118a6576040517fbfdd178500000000000000000000000000000000000000000000000000000000815260ff821660048201526024016104ea565b7f0de7f2b0af5ab1aa4eca2b133cdee828bdcfefa98e4927fa304b2ad002ca6eb380547fffffffffffffffffffffffffffffffffffffffffffffffffffffffffffffff001660ff92909216919091179055565b60007fb65939979d77055fe20d21bcb90b95461947bffa39f3588194f5015117626ea7611838565b6000805b82518110156119b55761199583828151811061194357611943612923565b602002602001015173ffffffffffffffffffffffffffffffffffffffff1660009081527fdd021e813d5056b401d30ba505d211a2ca2652076f58ad407a75764b92ed7d9d602052604090205460ff1690565b156119a35750600192915050565b806119ad816129e6565b915050611925565b50600092915050565b7fb65939979d77055fe20d21bcb90b95461947bffa39f3588194f5015117626ea780547fffffffffffffffffffffffffffffffffffffffffffffffffffffffffffffff001660011790556040513381527f62e78cea01bee320cd4e420270b5ea74000d11b0c9f74754ebdbfc544b05a2589060200161180a565b60008281527fffaa26784aca465bf23123375047d80ccb2b41102e02e5c4ef5b5aa00624b2d360205260408120610efc9083611f22565b60007fffaa26784aca465bf23123375047d80ccb2b41102e02e5c4ef5b5aa00624b2d260008481526020918252604080822073ffffffffffffffffffffffffffffffffffffffff86168352909252205460ff1680610efc57507fffaa26784aca465bf23123375047d80ccb2b41102e02e5c4ef5b5aa00624b2d26000611b238560009081527fffaa26784aca465bf23123375047d80ccb2b41102e02e5c4ef5b5aa00624b2d2602052604090206001015490565b81526020808201929092526040908101600090812073ffffffffffffffffffffffffffffffffffffffff8616825290925290205460ff16905092915050565b60008181527fffaa26784aca465bf23123375047d80ccb2b41102e02e5c4ef5b5aa00624b2d3602052604081206106ca90611f2e565b73ffffffffffffffffffffffffffffffffffffffff821660009081527fdd021e813d5056b401d30ba505d211a2ca2652076f58ad407a75764b92ed7d9d602052604090205460ff166106465773ffffffffffffffffffffffffffffffffffffffff821660009081527fdd021e813d5056b401d30ba505d211a2ca2652076f58ad407a75764b92ed7d9d60205260409081902080547fffffffffffffffffffffffffffffffffffffffffffffffffffffffffffffff0016600117905551611c5f908290612a7d565b6040519081900381209073ffffffffffffffffffffffffffffffffffffffff8416907f71ffd5b2f7b305f2f756c161455e2951077ed1951f9ecbee6252949bc1e13c5a90600090a35050565b611cb58282611a6f565b61064657611cda8173ffffffffffffffffffffffffffffffffffffffff166014611f38565b611ce5836020611f38565b604051602001611cf6929190612a99565b604080517fffffffffffffffffffffffffffffffffffffffffffffffffffffffffffffffe0818403018152908290527f08c379a00000000000000000000000000000000000000000000000000000000082526104ea91600401612b1a565b73ffffffffffffffffffffffffffffffffffffffff811660009081527fdd021e813d5056b401d30ba505d211a2ca2652076f58ad407a75764b92ed7d9d602052604090205460ff161561123c57611dc28173ffffffffffffffffffffffffffffffffffffffff166014611f38565b604051602001611cf69190612b6b565b6000611e34826040518060400160405280602081526020017f5361666545524332303a206c6f772d6c6576656c2063616c6c206661696c65648152508573ffffffffffffffffffffffffffffffffffffffff1661217b9092919063ffffffff16565b805190915015610c895780806020019051810190611e529190612bd7565b610c89576040517f08c379a000000000000000000000000000000000000000000000000000000000815260206004820152602a60248201527f5361666545524332303a204552433230206f7065726174696f6e20646964206e60448201527f6f7420737563636565640000000000000000000000000000000000000000000060648201526084016104ea565b6000610efc8373ffffffffffffffffffffffffffffffffffffffff8416612192565b6000610efc8373ffffffffffffffffffffffffffffffffffffffff84166121e1565b6000610efc83836122d4565b60006106ca825490565b60606000611f47836002612bf9565b611f52906002612c10565b67ffffffffffffffff811115611f6a57611f6a61275e565b6040519080825280601f01601f191660200182016040528015611f94576020820181803683370190505b5090507f300000000000000000000000000000000000000000000000000000000000000081600081518110611fcb57611fcb612923565b60200101907effffffffffffffffffffffffffffffffffffffffffffffffffffffffffffff1916908160001a9053507f78000000000000000000000000000000000000000000000000000000000000008160018151811061202e5761202e612923565b60200101907effffffffffffffffffffffffffffffffffffffffffffffffffffffffffffff1916908160001a905350600061206a846002612bf9565b612075906001612c10565b90505b6001811115612112577f303132333435363738396162636465660000000000000000000000000000000085600f16601081106120b6576120b6612923565b1a60f81b8282815181106120cc576120cc612923565b60200101907effffffffffffffffffffffffffffffffffffffffffffffffffffffffffffff1916908160001a90535060049490941c9361210b81612c23565b9050612078565b508315610efc576040517f08c379a000000000000000000000000000000000000000000000000000000000815260206004820181905260248201527f537472696e67733a20686578206c656e67746820696e73756666696369656e7460448201526064016104ea565b606061218a84846000856122fe565b949350505050565b60008181526001830160205260408120546121d9575081546001818101845560008481526020808220909301849055845484825282860190935260409020919091556106ca565b5060006106ca565b600081815260018301602052604081205480156122ca576000612205600183612c58565b855490915060009061221990600190612c58565b905081811461227e57600086600001828154811061223957612239612923565b906000526020600020015490508087600001848154811061225c5761225c612923565b6000918252602080832090910192909255918252600188019052604090208390555b855486908061228f5761228f612c6b565b6001900381819060005260206000200160009055905585600101600086815260200190815260200160002060009055600193505050506106ca565b60009150506106ca565b60008260000182815481106122eb576122eb612923565b9060005260206000200154905092915050565b606082471015612390576040517f08c379a000000000000000000000000000000000000000000000000000000000815260206004820152602660248201527f416464726573733a20696e73756666696369656e742062616c616e636520666f60448201527f722063616c6c000000000000000000000000000000000000000000000000000060648201526084016104ea565b6000808673ffffffffffffffffffffffffffffffffffffffff1685876040516123b99190612a7d565b60006040518083038185875af1925050503d80600081146123f6576040519150601f19603f3d011682016040523d82523d6000602084013e6123fb565b606091505b509150915061240c87838387612417565b979650505050505050565b606083156124ad5782516000036124a65773ffffffffffffffffffffffffffffffffffffffff85163b6124a6576040517f08c379a000000000000000000000000000000000000000000000000000000000815260206004820152601d60248201527f416464726573733a2063616c6c20746f206e6f6e2d636f6e747261637400000060448201526064016104ea565b508161218a565b61218a83838151156124c25781518083602001fd5b806040517f08c379a00000000000000000000000000000000000000000000000000000000081526004016104ea9190612b1a565b60008083601f84011261250857600080fd5b50813567ffffffffffffffff81111561252057600080fd5b6020830191508360208260051b850101111561253b57600080fd5b9250929050565b6000806000806040858703121561255857600080fd5b843567ffffffffffffffff8082111561257057600080fd5b61257c888389016124f6565b9096509450602087013591508082111561259557600080fd5b506125a2878288016124f6565b95989497509550505050565b600080604083850312156125c157600080fd5b50508035926020909101359150565b73ffffffffffffffffffffffffffffffffffffffff8116811461123c57600080fd5b80356125fd816125d0565b919050565b6000806040838503121561261557600080fd5b8235612620816125d0565b946020939093013593505050565b60006020828403121561264057600080fd5b5035919050565b6000806040838503121561265a57600080fd5b82359150602083013563ffffffff8116811461267557600080fd5b809150509250929050565b6000806040838503121561269357600080fd5b823591506020830135612675816125d0565b600080604083850312156126b857600080fd5b82356126c3816125d0565b91506020830135612675816125d0565b6000602082840312156126e557600080fd5b8135610efc816125d0565b6020808252825182820181905260009190848201906040850190845b818110156127525761273f8385518051825260208082015163ffffffff9081169184019190915260409182015116910152565b928401926060929092019160010161270c565b50909695505050505050565b7f4e487b7100000000000000000000000000000000000000000000000000000000600052604160045260246000fd5b600060208083850312156127a057600080fd5b823567ffffffffffffffff808211156127b857600080fd5b818501915085601f8301126127cc57600080fd5b8135818111156127de576127de61275e565b8060051b6040517fffffffffffffffffffffffffffffffffffffffffffffffffffffffffffffffe0603f830116810181811085821117156128215761282161275e565b60405291825284820192508381018501918883111561283f57600080fd5b938501935b8285101561286457612855856125f2565b84529385019392850192612844565b98975050505050505050565b606081016106ca82848051825260208082015163ffffffff9081169184019190915260409182015116910152565b6000806000604084860312156128b357600080fd5b83356128be816125d0565b9250602084013567ffffffffffffffff808211156128db57600080fd5b818601915086601f8301126128ef57600080fd5b8135818111156128fe57600080fd5b87602082850101111561291057600080fd5b6020830194508093505050509250925092565b7f4e487b7100000000000000000000000000000000000000000000000000000000600052603260045260246000fd5b60008083357fffffffffffffffffffffffffffffffffffffffffffffffffffffffffffffffe184360301811261298757600080fd5b83018035915067ffffffffffffffff8211156129a257600080fd5b60200191503681900382131561253b57600080fd5b7f4e487b7100000000000000000000000000000000000000000000000000000000600052601160045260246000fd5b60007fffffffffffffffffffffffffffffffffffffffffffffffffffffffffffffffff8203612a1757612a176129b7565b5060010190565b600082612a54577f4e487b7100000000000000000000000000000000000000000000000000000000600052601260045260246000fd5b500690565b60005b83811015612a74578181015183820152602001612a5c565b50506000910152565b60008251612a8f818460208701612a59565b9190910192915050565b7f416363657373436f6e74726f6c3a206163636f756e7420000000000000000000815260008351612ad1816017850160208801612a59565b7f206973206d697373696e6720726f6c65200000000000000000000000000000006017918401918201528351612b0e816028840160208801612a59565b01602801949350505050565b6020815260008251806020840152612b39816040850160208701612a59565b601f017fffffffffffffffffffffffffffffffffffffffffffffffffffffffffffffffe0169190910160400192915050565b7f53696d706c65426c61636b6c6973743a206163636f756e742000000000000000815260008251612ba3816019850160208701612a59565b7f20697320626c61636b6c697374656400000000000000000000000000000000006019939091019283015250602801919050565b600060208284031215612be957600080fd5b81518015158114610efc57600080fd5b80820281158282048414176106ca576106ca6129b7565b808201808211156106ca576106ca6129b7565b600081612c3257612c326129b7565b507fffffffffffffffffffffffffffffffffffffffffffffffffffffffffffffffff0190565b818103818111156106ca576106ca6129b7565b7f4e487b7100000000000000000000000000000000000000000000000000000000600052603160045260246000fdfea264697066735822122008a83a570823a4e2ac981f4a3eac01b33915f07ec1effc25cf14bc0dd98b54e864736f6c63430008110033",
  "devdoc": {
    "kind": "dev",
    "methods": {
      "blacklist(address,string)": {
        "details": "External function to add `account` to the blacklist. WARNING: This function is abstract, to enforce it's implementation          in the final contract. This is important to make sure          the final contraqct's access control mechanism will be used! See {ISimpleBlacklist-blacklist}"
      },
      "blacklist(address[],string[])": {
        "details": "External function to add `account` to the blacklist. WARNING: This function is abstract, to enforce it's implementation          in the final contract. This is important to make sure          the final contraqct's access control mechanism will be used! See {ISimpleBlacklist-blacklist}"
      },
      "getRoleAdmin(bytes32)": {
        "details": "Returns the admin role that controls `role`. See {grantRole} and {revokeRole}. To change a role's admin, use {AccessControl-setRoleAdmin}."
      },
      "getRoleMember(bytes32,uint256)": {
        "details": "Returns one of the accounts that have `role`. `index` must be a value between 0 and {getRoleMemberCount}, non-inclusive. Role bearers are not sorted in any particular way, and their ordering may change at any point. WARNING: When using {getRoleMember} and {getRoleMemberCount}, make sure you perform all queries on the same block. See the following https://forum.openzeppelin.com/t/iterating-over-elements-on-enumerableset-in-openzeppelin-contracts/2296[forum post] for more information."
      },
      "getRoleMemberCount(bytes32)": {
        "details": "Returns the number of accounts that have `role`. Can be used together with {getRoleMember} to enumerate all bearers of a role."
      },
      "grantRole(bytes32,address)": {
        "details": "Grants `role` to `account`. If `account` had not been already granted `role`, emits a {RoleGranted} event. Requirements: - the caller must have ``role``'s admin role."
      },
      "hasRole(bytes32,address)": {
        "details": "Returns `true` if `account` has been granted `role`."
      },
      "isBlacklisted(address)": {
        "details": "Returns `true` if `account` is blacklisted."
      },
      "isBlacklisted(address[])": {
        "details": "Returns `true` if any address in `accounts` is on the blacklist."
      },
      "pause()": {
        "details": "Triggers stopped state. Requirements: - The contract must not be paused."
      },
      "paused()": {
        "details": "Returns true if the contract is paused, and false otherwise."
      },
      "renounceRole(bytes32,address)": {
        "details": "Revokes `role` from the calling account. Roles are often managed via {grantRole} and {revokeRole}: this function's purpose is to provide a mechanism for accounts to lose their privileges if they are compromised (such as when a trusted device is misplaced). If the calling account had been granted `role`, emits a {RoleRevoked} event. Requirements: - the caller must be `account`."
      },
      "revokeRole(bytes32,address)": {
        "details": "Revokes `role` from `account`. If `account` had been granted `role`, emits a {RoleRevoked} event. Requirements: - the caller must have ``role``'s admin role."
      },
      "setRoleAdmin(bytes32,bytes32)": {
        "details": "Sets `adminRole` as ``role``'s admin role. Emits a {RoleAdminChanged} event."
      },
      "unblacklist(address,string)": {
        "details": "External function to remove `account` from the blacklist. WARNING: This function is abstract, to enforce it's implementation          in the final contract. This is important to make sure          the final contraqct's access control mechanism will be used! See {ISimpleBlacklist-unblacklist}"
      },
      "unblacklist(address[],string[])": {
        "details": "External function to add `account` to the blacklist. WARNING: This function is abstract, to enforce it's implementation          in the final contract. This is important to make sure          the final contraqct's access control mechanism will be used! See {ISimpleBlacklist-blacklist}"
      },
      "unpause()": {
        "details": "Returns to normal state. Requirements: - The contract must be paused."
      }
    },
    "version": 1
  },
  "userdoc": {
    "kind": "user",
    "methods": {},
    "version": 1
  },
  "storageLayout": {
    "storage": [
      {
        "astId": 4451,
        "contract": "contracts/TokenLocker.sol:TokenLocker",
        "label": "token",
        "offset": 0,
        "slot": "0",
        "type": "t_contract(IERC20)175"
      },
      {
        "astId": 4457,
        "contract": "contracts/TokenLocker.sol:TokenLocker",
        "label": "userInfo",
        "offset": 0,
        "slot": "1",
        "type": "t_mapping(t_address,t_array(t_struct(UserInfo)4685_storage)dyn_storage)"
      }
    ],
    "types": {
      "t_address": {
        "encoding": "inplace",
        "label": "address",
        "numberOfBytes": "20"
      },
      "t_array(t_struct(UserInfo)4685_storage)dyn_storage": {
        "base": "t_struct(UserInfo)4685_storage",
        "encoding": "dynamic_array",
        "label": "struct ITokenLocker.UserInfo[]",
        "numberOfBytes": "32"
      },
      "t_contract(IERC20)175": {
        "encoding": "inplace",
        "label": "contract IERC20",
        "numberOfBytes": "20"
      },
      "t_mapping(t_address,t_array(t_struct(UserInfo)4685_storage)dyn_storage)": {
        "encoding": "mapping",
        "key": "t_address",
        "label": "mapping(address => struct ITokenLocker.UserInfo[])",
        "numberOfBytes": "32",
        "value": "t_array(t_struct(UserInfo)4685_storage)dyn_storage"
      },
      "t_struct(UserInfo)4685_storage": {
        "encoding": "inplace",
        "label": "struct ITokenLocker.UserInfo",
        "members": [
          {
            "astId": 4680,
            "contract": "contracts/TokenLocker.sol:TokenLocker",
            "label": "amount",
            "offset": 0,
            "slot": "0",
            "type": "t_uint256"
          },
          {
            "astId": 4682,
            "contract": "contracts/TokenLocker.sol:TokenLocker",
            "label": "duration",
            "offset": 0,
            "slot": "1",
            "type": "t_uint32"
          },
          {
            "astId": 4684,
            "contract": "contracts/TokenLocker.sol:TokenLocker",
            "label": "lockedAt",
            "offset": 4,
            "slot": "1",
            "type": "t_uint32"
          }
        ],
        "numberOfBytes": "64"
      },
      "t_uint256": {
        "encoding": "inplace",
        "label": "uint256",
        "numberOfBytes": "32"
      },
      "t_uint32": {
        "encoding": "inplace",
        "label": "uint32",
        "numberOfBytes": "4"
      }
    }
  }
}