{
  "address": "0xf99eE9bBcCd75011026A2bf39801A268354eBA6b",
  "abi": [
    {
      "inputs": [],
      "name": "InitializerContractAlreadyInitialized",
      "type": "error"
    },
    {
      "inputs": [],
      "name": "InitializerContractIsInitializing",
      "type": "error"
    },
    {
      "inputs": [],
      "name": "InitializerContractIsNotInitializing",
      "type": "error"
    },
    {
      "inputs": [
        {
          "internalType": "uint8",
          "name": "version",
          "type": "uint8"
        }
      ],
      "name": "InitializerVersionAlreadyInitialized",
      "type": "error"
    },
    {
      "inputs": [],
      "name": "ReentrancyGuardReentrantCall",
      "type": "error"
    },
    {
      "anonymous": false,
      "inputs": [
        {
          "indexed": true,
          "internalType": "uint256",
          "name": "pid",
          "type": "uint256"
        },
        {
          "indexed": false,
          "internalType": "uint256",
          "name": "allocPoint",
          "type": "uint256"
        },
        {
          "indexed": true,
          "internalType": "contract IERC20",
          "name": "lpToken",
          "type": "address"
        },
        {
          "indexed": false,
          "internalType": "bool",
          "name": "isRegular",
          "type": "bool"
        }
      ],
      "name": "AddPool",
      "type": "event"
    },
    {
      "anonymous": false,
      "inputs": [
        {
          "indexed": true,
          "internalType": "address",
          "name": "user",
          "type": "address"
        },
        {
          "indexed": true,
          "internalType": "uint256",
          "name": "pid",
          "type": "uint256"
        },
        {
          "indexed": false,
          "internalType": "uint256",
          "name": "amount",
          "type": "uint256"
        }
      ],
      "name": "Deposit",
      "type": "event"
    },
    {
      "anonymous": false,
      "inputs": [
        {
          "indexed": true,
          "internalType": "address",
          "name": "user",
          "type": "address"
        },
        {
          "indexed": true,
          "internalType": "uint256",
          "name": "pid",
          "type": "uint256"
        },
        {
          "indexed": false,
          "internalType": "uint256",
          "name": "amount",
          "type": "uint256"
        }
      ],
      "name": "EmergencyWithdraw",
      "type": "event"
    },
    {
      "anonymous": false,
      "inputs": [
        {
          "indexed": false,
          "internalType": "uint8",
          "name": "version",
          "type": "uint8"
        }
      ],
      "name": "Initialized",
      "type": "event"
    },
    {
      "anonymous": false,
      "inputs": [
        {
          "indexed": true,
          "internalType": "uint256",
          "name": "pid",
          "type": "uint256"
        },
        {
          "indexed": false,
          "internalType": "uint256",
          "name": "allocPoint",
          "type": "uint256"
        }
      ],
      "name": "SetPool",
      "type": "event"
    },
    {
      "anonymous": false,
      "inputs": [
        {
          "indexed": true,
          "internalType": "address",
          "name": "user",
          "type": "address"
        },
        {
          "indexed": false,
          "internalType": "address",
          "name": "treasury",
          "type": "address"
        }
      ],
      "name": "SetTreasuryAddress",
      "type": "event"
    },
    {
      "anonymous": false,
      "inputs": [
        {
          "indexed": true,
          "internalType": "address",
          "name": "boostContract",
          "type": "address"
        }
      ],
      "name": "UpdateBoostContract",
      "type": "event"
    },
    {
      "anonymous": false,
      "inputs": [
        {
          "indexed": true,
          "internalType": "address",
          "name": "user",
          "type": "address"
        },
        {
          "indexed": false,
          "internalType": "uint256",
          "name": "pid",
          "type": "uint256"
        },
        {
          "indexed": false,
          "internalType": "uint256",
          "name": "oldMultiplier",
          "type": "uint256"
        },
        {
          "indexed": false,
          "internalType": "uint256",
          "name": "newMultiplier",
          "type": "uint256"
        }
      ],
      "name": "UpdateBoostMultiplier",
      "type": "event"
    },
    {
      "anonymous": false,
      "inputs": [
        {
          "indexed": true,
          "internalType": "address",
          "name": "oldAdmin",
          "type": "address"
        },
        {
          "indexed": true,
          "internalType": "address",
          "name": "newAdmin",
          "type": "address"
        }
      ],
      "name": "UpdateBurnAdmin",
      "type": "event"
    },
    {
      "anonymous": false,
      "inputs": [
        {
          "indexed": false,
          "internalType": "uint256",
          "name": "burnRate",
          "type": "uint256"
        },
        {
          "indexed": false,
          "internalType": "uint256",
          "name": "regularFarmRate",
          "type": "uint256"
        },
        {
          "indexed": false,
          "internalType": "uint256",
          "name": "specialFarmRate",
          "type": "uint256"
        }
      ],
      "name": "UpdateCakeRate",
      "type": "event"
    },
    {
      "anonymous": false,
      "inputs": [
        {
          "indexed": true,
          "internalType": "uint256",
          "name": "pid",
          "type": "uint256"
        },
        {
          "indexed": false,
          "internalType": "uint256",
          "name": "lastRewardBlock",
          "type": "uint256"
        },
        {
          "indexed": false,
          "internalType": "uint256",
          "name": "lpSupply",
          "type": "uint256"
        },
        {
          "indexed": false,
          "internalType": "uint256",
          "name": "accKswapPerShare",
          "type": "uint256"
        }
      ],
      "name": "UpdatePool",
      "type": "event"
    },
    {
      "anonymous": false,
      "inputs": [
        {
          "indexed": true,
          "internalType": "address",
          "name": "user",
          "type": "address"
        },
        {
          "indexed": false,
          "internalType": "bool",
          "name": "isValid",
          "type": "bool"
        }
      ],
      "name": "UpdateWhiteList",
      "type": "event"
    },
    {
      "anonymous": false,
      "inputs": [
        {
          "indexed": true,
          "internalType": "address",
          "name": "user",
          "type": "address"
        },
        {
          "indexed": true,
          "internalType": "uint256",
          "name": "pid",
          "type": "uint256"
        },
        {
          "indexed": false,
          "internalType": "uint256",
          "name": "amount",
          "type": "uint256"
        }
      ],
      "name": "Withdraw",
      "type": "event"
    },
    {
      "inputs": [],
      "name": "ACC_KSWAP_PRECISION",
      "outputs": [
        {
          "internalType": "uint256",
          "name": "",
          "type": "uint256"
        }
      ],
      "stateMutability": "view",
      "type": "function"
    },
    {
      "inputs": [],
      "name": "BOOST_PRECISION",
      "outputs": [
        {
          "internalType": "uint256",
          "name": "",
          "type": "uint256"
        }
      ],
      "stateMutability": "view",
      "type": "function"
    },
    {
      "inputs": [],
      "name": "KSWAP_RATE_TOTAL_PRECISION",
      "outputs": [
        {
          "internalType": "uint256",
          "name": "",
          "type": "uint256"
        }
      ],
      "stateMutability": "view",
      "type": "function"
    },
    {
      "inputs": [],
      "name": "MASTERCHEF_KSWAP_PER_BLOCK",
      "outputs": [
        {
          "internalType": "uint256",
          "name": "",
          "type": "uint256"
        }
      ],
      "stateMutability": "view",
      "type": "function"
    },
    {
      "inputs": [],
      "name": "MAX_BOOST_PRECISION",
      "outputs": [
        {
          "internalType": "uint256",
          "name": "",
          "type": "uint256"
        }
      ],
      "stateMutability": "view",
      "type": "function"
    },
    {
      "inputs": [
        {
          "internalType": "uint256",
          "name": "_allocPoint",
          "type": "uint256"
        },
        {
          "internalType": "contract IERC20",
          "name": "_lpToken",
          "type": "address"
        },
        {
          "internalType": "bool",
          "name": "_isRegular",
          "type": "bool"
        },
        {
          "internalType": "uint256",
          "name": "_startBlockNumber",
          "type": "uint256"
        },
        {
          "internalType": "bool",
          "name": "_withUpdate",
          "type": "bool"
        }
      ],
      "name": "add",
      "outputs": [],
      "stateMutability": "nonpayable",
      "type": "function"
    },
    {
      "inputs": [],
      "name": "boostContract",
      "outputs": [
        {
          "internalType": "address",
          "name": "",
          "type": "address"
        }
      ],
      "stateMutability": "view",
      "type": "function"
    },
    {
      "inputs": [],
      "name": "burnAdmin",
      "outputs": [
        {
          "internalType": "address",
          "name": "",
          "type": "address"
        }
      ],
      "stateMutability": "view",
      "type": "function"
    },
    {
      "inputs": [
        {
          "internalType": "bool",
          "name": "_withUpdate",
          "type": "bool"
        }
      ],
      "name": "burnKswap",
      "outputs": [],
      "stateMutability": "nonpayable",
      "type": "function"
    },
    {
      "inputs": [
        {
          "internalType": "uint256",
          "name": "_pid",
          "type": "uint256"
        },
        {
          "internalType": "uint256",
          "name": "_amount",
          "type": "uint256"
        }
      ],
      "name": "deposit",
      "outputs": [],
      "stateMutability": "nonpayable",
      "type": "function"
    },
    {
      "inputs": [
        {
          "internalType": "uint256",
          "name": "_pid",
          "type": "uint256"
        }
      ],
      "name": "emergencyWithdraw",
      "outputs": [],
      "stateMutability": "nonpayable",
      "type": "function"
    },
    {
      "inputs": [
        {
          "internalType": "address",
          "name": "_user",
          "type": "address"
        },
        {
          "internalType": "uint256",
          "name": "_pid",
          "type": "uint256"
        }
      ],
      "name": "getBoostMultiplier",
      "outputs": [
        {
          "internalType": "uint256",
          "name": "",
          "type": "uint256"
        }
      ],
      "stateMutability": "view",
      "type": "function"
    },
    {
      "inputs": [
        {
          "internalType": "contract IERC20Mintable",
          "name": "kswap_",
          "type": "address"
        },
        {
          "internalType": "address",
          "name": "treasury_",
          "type": "address"
        },
        {
          "internalType": "address",
          "name": "burnAdmin_",
          "type": "address"
        },
        {
          "components": [
            {
              "internalType": "contract IERC20",
              "name": "lpToken",
              "type": "address"
            },
            {
              "internalType": "uint256",
              "name": "allocPoint",
              "type": "uint256"
            },
            {
              "internalType": "uint256",
              "name": "startBlockNumber",
              "type": "uint256"
            },
            {
              "internalType": "bool",
              "name": "isRegular",
              "type": "bool"
            }
          ],
          "internalType": "struct IMasterChef.AddNewPoolInfo[]",
          "name": "newPools",
          "type": "tuple[]"
        }
      ],
      "name": "initialize",
      "outputs": [],
      "stateMutability": "nonpayable",
      "type": "function"
    },
    {
      "inputs": [],
      "name": "kswap",
      "outputs": [
        {
          "internalType": "contract IERC20Mintable",
          "name": "",
          "type": "address"
        }
      ],
      "stateMutability": "view",
      "type": "function"
    },
    {
      "inputs": [
        {
          "internalType": "bool",
          "name": "_isRegular",
          "type": "bool"
        }
      ],
      "name": "kswapPerBlock",
      "outputs": [
        {
          "internalType": "uint256",
          "name": "amount",
          "type": "uint256"
        }
      ],
      "stateMutability": "view",
      "type": "function"
    },
    {
      "inputs": [],
      "name": "kswapPerBlockToBurn",
      "outputs": [
        {
          "internalType": "uint256",
          "name": "amount",
          "type": "uint256"
        }
      ],
      "stateMutability": "view",
      "type": "function"
    },
    {
      "inputs": [],
      "name": "kswapRateToBurn",
      "outputs": [
        {
          "internalType": "uint256",
          "name": "",
          "type": "uint256"
        }
      ],
      "stateMutability": "view",
      "type": "function"
    },
    {
      "inputs": [],
      "name": "kswapRateToRegularFarm",
      "outputs": [
        {
          "internalType": "uint256",
          "name": "",
          "type": "uint256"
        }
      ],
      "stateMutability": "view",
      "type": "function"
    },
    {
      "inputs": [],
      "name": "kswapRateToSpecialFarm",
      "outputs": [
        {
          "internalType": "uint256",
          "name": "",
          "type": "uint256"
        }
      ],
      "stateMutability": "view",
      "type": "function"
    },
    {
      "inputs": [],
      "name": "lastBurnedBlock",
      "outputs": [
        {
          "internalType": "uint256",
          "name": "",
          "type": "uint256"
        }
      ],
      "stateMutability": "view",
      "type": "function"
    },
    {
      "inputs": [
        {
          "internalType": "uint256",
          "name": "",
          "type": "uint256"
        }
      ],
      "name": "lpToken",
      "outputs": [
        {
          "internalType": "contract IERC20",
          "name": "",
          "type": "address"
        }
      ],
      "stateMutability": "view",
      "type": "function"
    },
    {
      "inputs": [],
      "name": "massUpdatePools",
      "outputs": [],
      "stateMutability": "nonpayable",
      "type": "function"
    },
    {
      "inputs": [
        {
          "internalType": "uint256",
          "name": "_pid",
          "type": "uint256"
        },
        {
          "internalType": "address",
          "name": "_user",
          "type": "address"
        }
      ],
      "name": "pendingKswap",
      "outputs": [
        {
          "internalType": "uint256",
          "name": "",
          "type": "uint256"
        }
      ],
      "stateMutability": "view",
      "type": "function"
    },
    {
      "inputs": [
        {
          "internalType": "uint256",
          "name": "",
          "type": "uint256"
        }
      ],
      "name": "poolInfo",
      "outputs": [
        {
          "internalType": "uint256",
          "name": "accKswapPerShare",
          "type": "uint256"
        },
        {
          "internalType": "uint256",
          "name": "lastRewardBlock",
          "type": "uint256"
        },
        {
          "internalType": "uint256",
          "name": "allocPoint",
          "type": "uint256"
        },
        {
          "internalType": "uint256",
          "name": "totalBoostedShare",
          "type": "uint256"
        },
        {
          "internalType": "bool",
          "name": "isRegular",
          "type": "bool"
        }
      ],
      "stateMutability": "view",
      "type": "function"
    },
    {
      "inputs": [],
      "name": "poolLength",
      "outputs": [
        {
          "internalType": "uint256",
          "name": "pools",
          "type": "uint256"
        }
      ],
      "stateMutability": "view",
      "type": "function"
    },
    {
      "inputs": [
        {
          "internalType": "uint256",
          "name": "_pid",
          "type": "uint256"
        },
        {
          "internalType": "uint256",
          "name": "_allocPoint",
          "type": "uint256"
        },
        {
          "internalType": "bool",
          "name": "_withUpdate",
          "type": "bool"
        }
      ],
      "name": "set",
      "outputs": [],
      "stateMutability": "nonpayable",
      "type": "function"
    },
    {
      "inputs": [
        {
          "internalType": "uint256",
          "name": "_pid",
          "type": "uint256"
        },
        {
          "internalType": "uint256",
          "name": "newLastRewardBlock",
          "type": "uint256"
        }
      ],
      "name": "setPoolLastRewardBlock",
      "outputs": [],
      "stateMutability": "nonpayable",
      "type": "function"
    },
    {
      "inputs": [
        {
          "internalType": "uint256[]",
          "name": "_pids",
          "type": "uint256[]"
        },
        {
          "internalType": "uint256",
          "name": "newLastRewardBlock",
          "type": "uint256"
        }
      ],
      "name": "setPoolLastRewardBlock",
      "outputs": [],
      "stateMutability": "nonpayable",
      "type": "function"
    },
    {
      "inputs": [
        {
          "internalType": "address",
          "name": "_treasury",
          "type": "address"
        }
      ],
      "name": "setTreasuryAddress",
      "outputs": [],
      "stateMutability": "nonpayable",
      "type": "function"
    },
    {
      "inputs": [],
      "name": "totalRegularAllocPoint",
      "outputs": [
        {
          "internalType": "uint256",
          "name": "",
          "type": "uint256"
        }
      ],
      "stateMutability": "view",
      "type": "function"
    },
    {
      "inputs": [],
      "name": "totalSpecialAllocPoint",
      "outputs": [
        {
          "internalType": "uint256",
          "name": "",
          "type": "uint256"
        }
      ],
      "stateMutability": "view",
      "type": "function"
    },
    {
      "inputs": [],
      "name": "treasury",
      "outputs": [
        {
          "internalType": "address",
          "name": "",
          "type": "address"
        }
      ],
      "stateMutability": "view",
      "type": "function"
    },
    {
      "inputs": [
        {
          "internalType": "address",
          "name": "_newBoostContract",
          "type": "address"
        }
      ],
      "name": "updateBoostContract",
      "outputs": [],
      "stateMutability": "nonpayable",
      "type": "function"
    },
    {
      "inputs": [
        {
          "internalType": "address",
          "name": "_user",
          "type": "address"
        },
        {
          "internalType": "uint256",
          "name": "_pid",
          "type": "uint256"
        },
        {
          "internalType": "uint256",
          "name": "_newMultiplier",
          "type": "uint256"
        }
      ],
      "name": "updateBoostMultiplier",
      "outputs": [],
      "stateMutability": "nonpayable",
      "type": "function"
    },
    {
      "inputs": [
        {
          "internalType": "address",
          "name": "_newAdmin",
          "type": "address"
        }
      ],
      "name": "updateBurnAdmin",
      "outputs": [],
      "stateMutability": "nonpayable",
      "type": "function"
    },
    {
      "inputs": [
        {
          "internalType": "uint256",
          "name": "_burnRate",
          "type": "uint256"
        },
        {
          "internalType": "uint256",
          "name": "_regularFarmRate",
          "type": "uint256"
        },
        {
          "internalType": "uint256",
          "name": "_specialFarmRate",
          "type": "uint256"
        },
        {
          "internalType": "bool",
          "name": "_withUpdate",
          "type": "bool"
        }
      ],
      "name": "updateKswapRate",
      "outputs": [],
      "stateMutability": "nonpayable",
      "type": "function"
    },
    {
      "inputs": [
        {
          "internalType": "uint256",
          "name": "_pid",
          "type": "uint256"
        }
      ],
      "name": "updatePool",
      "outputs": [
        {
          "components": [
            {
              "internalType": "uint256",
              "name": "accKswapPerShare",
              "type": "uint256"
            },
            {
              "internalType": "uint256",
              "name": "lastRewardBlock",
              "type": "uint256"
            },
            {
              "internalType": "uint256",
              "name": "allocPoint",
              "type": "uint256"
            },
            {
              "internalType": "uint256",
              "name": "totalBoostedShare",
              "type": "uint256"
            },
            {
              "internalType": "bool",
              "name": "isRegular",
              "type": "bool"
            }
          ],
          "internalType": "struct IMasterChef.PoolInfo",
          "name": "pool",
          "type": "tuple"
        }
      ],
      "stateMutability": "nonpayable",
      "type": "function"
    },
    {
      "inputs": [
        {
          "internalType": "address",
          "name": "_user",
          "type": "address"
        },
        {
          "internalType": "bool",
          "name": "_isValid",
          "type": "bool"
        }
      ],
      "name": "updateWhiteList",
      "outputs": [],
      "stateMutability": "nonpayable",
      "type": "function"
    },
    {
      "inputs": [
        {
          "internalType": "uint256",
          "name": "",
          "type": "uint256"
        },
        {
          "internalType": "address",
          "name": "",
          "type": "address"
        }
      ],
      "name": "userInfo",
      "outputs": [
        {
          "internalType": "uint256",
          "name": "amount",
          "type": "uint256"
        },
        {
          "internalType": "uint256",
          "name": "rewardDebt",
          "type": "uint256"
        },
        {
          "internalType": "uint256",
          "name": "boostMultiplier",
          "type": "uint256"
        }
      ],
      "stateMutability": "view",
      "type": "function"
    },
    {
      "inputs": [
        {
          "internalType": "address",
          "name": "",
          "type": "address"
        }
      ],
      "name": "whiteList",
      "outputs": [
        {
          "internalType": "bool",
          "name": "",
          "type": "bool"
        }
      ],
      "stateMutability": "view",
      "type": "function"
    },
    {
      "inputs": [
        {
          "internalType": "uint256",
          "name": "_pid",
          "type": "uint256"
        },
        {
          "internalType": "uint256",
          "name": "_amount",
          "type": "uint256"
        }
      ],
      "name": "withdraw",
      "outputs": [],
      "stateMutability": "nonpayable",
      "type": "function"
    }
  ],
  "transactionHash": "0x8506d4db23bf9113dcfe060508305480282bdefa4684fd52c59eaa2426859897",
  "args": [],
  "numDeployments": 1,
  "solcInputHash": "74cc34d8951a4120921c73d8c014b0f7",
  "bytecode": "0x608060405264e651151b55600a556402838ff4aa600b556001600c5534801561002757600080fd5b506144d0806100376000396000f3fe608060405234801561001057600080fd5b50600436106102d35760003560e01c80637577e2c311610186578063a8c28259116100e3578063dfcedeee11610097578063f41c8d9611610071578063f41c8d961461066f578063fb3b6c2a14610682578063fe4a00451461069557600080fd5b8063dfcedeee14610629578063e2bbb15814610649578063e671e5fc1461065c57600080fd5b8063ac656889116100c8578063ac65688914610610578063c40d337b14610620578063cc6db2da1461038357600080fd5b8063a8c28259146105ea578063ac1d0609146105fd57600080fd5b80637b51a7761161013a57806393f1a40b1161011f57806393f1a40b1461057957806399d7e84a146105ce5780639dd2fcc3146105d757600080fd5b80637b51a7761461054657806381bdf98c1461055957600080fd5b806378db4c341161016b57806378db4c341461052157806378ed5d1f1461052a5780637a994efd1461053d57600080fd5b80637577e2c3146104fb57806378d287811461050e57600080fd5b8063441a3e701161023457806361d027b3116101e857806364482f79116101cd57806364482f79146104c85780636605bfda146104db57806369b02128146104ee57600080fd5b806361d027b3146104a0578063630b5ba1146104c057600080fd5b80635312ea8e116102195780635312ea8e1461043557806357b46f88146104485780635a7894181461048d57600080fd5b8063441a3e70146103cb57806351eb05a6146103de57600080fd5b80630ee520581161028b578063325d186d11610270578063325d186d14610383578063372c12b11461038f5780633e0ca005146103c257600080fd5b80630ee52058146103375780631526fe271461034657600080fd5b80630433985b116102bc5780630433985b14610313578063081e3eda1461031c5780630bb844bc1461032457600080fd5b8063033186e8146102d8578063041a84c9146102fe575b600080fd5b6102eb6102e6366004613e4d565b61069d565b6040519081526020015b60405180910390f35b61031161030c366004613e79565b6106f3565b005b6102eb600b5481565b6004546102eb565b610311610332366004613eae565b610c31565b6102eb670de0b6b3a764000081565b610359610354366004613ecb565b610eac565b6040805195865260208601949094529284019190915260608301521515608082015260a0016102f5565b6102eb64e8d4a5100081565b6103b261039d366004613eae565b60076020526000908152604090205460ff1681565b60405190151581526020016102f5565b6102eb600a5481565b6103116103d9366004613ee4565b610ef0565b6103f16103ec366004613ecb565b6111b7565b6040516102f59190600060a0820190508251825260208301516020830152604083015160408301526060830151606083015260808301511515608083015292915050565b610311610443366004613ecb565b61150a565b6000546104689073ffffffffffffffffffffffffffffffffffffffff1681565b60405173ffffffffffffffffffffffffffffffffffffffff90911681526020016102f5565b6102eb61049b366004613f14565b6116b4565b6001546104689073ffffffffffffffffffffffffffffffffffffffff1681565b61031161170a565b6103116104d6366004613f31565b6117a2565b6103116104e9366004613eae565b61198d565b6102eb6501d1a94a200081565b610311610509366004613f6a565b611a89565b6102eb61051c366004613fc9565b611b53565b6102eb600d5481565b610468610538366004613ecb565b611cea565b6102eb600c5481565b610311610554366004613ff9565b611d21565b6002546104689073ffffffffffffffffffffffffffffffffffffffff1681565b6105b3610587366004613fc9565b600660209081526000928352604080842090915290825290208054600182015460029092015490919083565b604080519384526020840192909252908201526060016102f5565b6102eb60095481565b6103116105e5366004613eae565b611fd1565b6103116105f83660046140a4565b6121c2565b61031161060b3660046140e5565b61242f565b6102eb68022b1c8c1227a0000081565b6102eb60085481565b6003546104689073ffffffffffffffffffffffffffffffffffffffff1681565b610311610657366004613ee4565b612612565b61031161066a366004613ee4565b612a71565b61031161067d366004613f14565b612bf3565b610311610690366004614142565b612d13565b6102eb612e1e565b600081815260066020908152604080832073ffffffffffffffffffffffffffffffffffffffff8616845290915281206002015464e8d4a5100081116106e75764e8d4a510006106e9565b805b9150505b92915050565b7fd370c446e45a741b5961ac03f05d57d1a5768014420ffedc28dbab09fedaee595460020361074e576040517f3ee5aeb500000000000000000000000000000000000000000000000000000000815260040160405180910390fd5b61077760027fd370c446e45a741b5961ac03f05d57d1a5768014420ffedc28dbab09fedaee5955565b60035473ffffffffffffffffffffffffffffffffffffffff163314610823576040517f08c379a000000000000000000000000000000000000000000000000000000000815260206004820152602960248201527f4f776e61626c653a2063616c6c6572206973206e6f742074686520626f6f737460448201527f20636f6e7472616374000000000000000000000000000000000000000000000060648201526084015b60405180910390fd5b73ffffffffffffffffffffffffffffffffffffffff83166108c6576040517f08c379a000000000000000000000000000000000000000000000000000000000815260206004820152602a60248201527f4d6173746572436865663a2054686520757365722061646472657373206d757360448201527f742062652076616c696400000000000000000000000000000000000000000000606482015260840161081a565b600482815481106108d9576108d9614224565b600091825260209091206004600590920201015460ff1661097c576040517f08c379a000000000000000000000000000000000000000000000000000000000815260206004820152602e60248201527f4d6173746572436865663a204f6e6c7920726567756c6172206661726d20636f60448201527f756c6420626520626f6f73746564000000000000000000000000000000000000606482015260840161081a565b64e8d4a51000811015801561099757506501d1a94a20008111155b610a23576040517f08c379a000000000000000000000000000000000000000000000000000000000815260206004820152602860248201527f4d6173746572436865663a20496e76616c6964206e657720626f6f7374206d7560448201527f6c7469706c696572000000000000000000000000000000000000000000000000606482015260840161081a565b6000610a2e836111b7565b600084815260066020908152604080832073ffffffffffffffffffffffffffffffffffffffff891684529091528120919250610a6a868661069d565b9050610a77868683612e4c565b610ab7670de0b6b3a7640000610aab8560000151610ab164e8d4a51000610aab8a8960000154612f2690919063ffffffff16565b90612f39565b90612f26565b60018301558154610b0390610ad79064e8d4a5100090610aab9088612f26565b8354610afd90610af29064e8d4a5100090610aab9087612f26565b606087015190612f45565b90612f51565b60608401526004805484919087908110610b1f57610b1f614224565b600091825260208083208451600593909302019182558381015160018301556040808501516002808501919091556060808701516003860155608090960151600490940180547fffffffffffffffffffffffffffffffffffffffffffffffffffffffffffffff0016941515949094179093558984526006825280842073ffffffffffffffffffffffffffffffffffffffff8c1680865290835293819020909201889055815189815290810185905290810187905290917f01abd62439b64f6c5dab6f94d56099495bd0c094f9c21f98f4d3562a21edb4ba910160405180910390a2505050610c2c60017fd370c446e45a741b5961ac03f05d57d1a5768014420ffedc28dbab09fedaee5955565b505050565b7fb53127684a568b3173ae13b9f8a6016e243e63b6e8ee1178d6a717850b5d61035473ffffffffffffffffffffffffffffffffffffffff163373ffffffffffffffffffffffffffffffffffffffff1614610ce7576040517f08c379a000000000000000000000000000000000000000000000000000000000815260206004820152600e60248201527f4e4f545f415554484f52495a4544000000000000000000000000000000000000604482015260640161081a565b73ffffffffffffffffffffffffffffffffffffffff8116610d8a576040517f08c379a000000000000000000000000000000000000000000000000000000000815260206004820152602c60248201527f4d6173746572436865663a204275726e2061646d696e2061646472657373206d60448201527f7573742062652076616c69640000000000000000000000000000000000000000606482015260840161081a565b60025473ffffffffffffffffffffffffffffffffffffffff90811690821603610e35576040517f08c379a000000000000000000000000000000000000000000000000000000000815260206004820152603f60248201527f4d6173746572436865663a204275726e2061646d696e2061646472657373206960448201527f73207468652073616d6520776974682063757272656e74206164647265737300606482015260840161081a565b6002805473ffffffffffffffffffffffffffffffffffffffff8381167fffffffffffffffffffffffff0000000000000000000000000000000000000000831681179093556040519116919082907fd146fe330fdddf682413850a35b28edfccd4c4b53cfee802fd24950de5be1dbe90600090a35050565b60048181548110610ebc57600080fd5b6000918252602090912060059091020180546001820154600283015460038401546004909401549294509092909160ff1685565b7fd370c446e45a741b5961ac03f05d57d1a5768014420ffedc28dbab09fedaee5954600203610f4b576040517f3ee5aeb500000000000000000000000000000000000000000000000000000000815260040160405180910390fd5b610f7460027fd370c446e45a741b5961ac03f05d57d1a5768014420ffedc28dbab09fedaee5955565b610f7c612f5d565b610f8533612ffe565b6000610f90836111b7565b60008481526006602090815260408083203384529091529020805491925090831115611018576040517f08c379a000000000000000000000000000000000000000000000000000000000815260206004820152601660248201527f77697468647261773a20496e73756666696369656e7400000000000000000000604482015260640161081a565b6000611024338661069d565b9050611031338683612e4c565b831561108c5781546110439085612f45565b826000018190555061108c33856005888154811061106357611063614224565b60009182526020909120015473ffffffffffffffffffffffffffffffffffffffff169190613007565b6110c0670de0b6b3a7640000610aab8560000151610ab164e8d4a51000610aab878960000154612f2690919063ffffffff16565b600183015561110e6110db64e8d4a51000610aab8785612f26565b600487815481106110ee576110ee614224565b906000526020600020906005020160030154612f4590919063ffffffff16565b6004868154811061112157611121614224565b906000526020600020906005020160030181905550843373ffffffffffffffffffffffffffffffffffffffff167ff279e6a1f5e320cca91135676d9cb6e44ca8a08c0b88342bcdb1144f6511b5688660405161117f91815260200190565b60405180910390a35050506111b360017fd370c446e45a741b5961ac03f05d57d1a5768014420ffedc28dbab09fedaee5955565b5050565b6111eb6040518060a00160405280600081526020016000815260200160008152602001600081526020016000151581525090565b600482815481106111fe576111fe614224565b60009182526020918290206040805160a0810182526005909302909101805483526001810154938301849052600281015491830191909152600381015460608301526004015460ff16151560808201529150431115611505576060810151608082015160009061127057600954611274565b6008545b90506000821180156112865750600081115b156114315760006112a4846020015143612f4590919063ffffffff16565b905060006112cb83610aab8760400151610ab16112c48a608001516116b4565b8790612f26565b90506112ee6112e685610aab84670de0b6b3a7640000612f26565b865190612f51565b855260005460015473ffffffffffffffffffffffffffffffffffffffff918216916340c10f19911661132184600a612f39565b6040517fffffffff0000000000000000000000000000000000000000000000000000000060e085901b16815273ffffffffffffffffffffffffffffffffffffffff90921660048301526024820152604401600060405180830381600087803b15801561138c57600080fd5b505af11580156113a0573d6000803e3d6000fd5b50506000546040517f40c10f190000000000000000000000000000000000000000000000000000000081523060048201526024810185905273ffffffffffffffffffffffffffffffffffffffff90911692506340c10f199150604401600060405180830381600087803b15801561141657600080fd5b505af115801561142a573d6000803e3d6000fd5b5050505050505b436020840152600480548491908690811061144e5761144e614224565b600091825260209182902083516005929092020190815582820151600182015560408084015160028301556060808501516003840155608090940151600490920180547fffffffffffffffffffffffffffffffffffffffffffffffffffffffffffffff00169215159290921790915585820151865182519182529281018690529081019190915285917f3be3541fc42237d611b30329040bfa4569541d156560acdbbae57640d20b8f46910160405180910390a250505b919050565b7fd370c446e45a741b5961ac03f05d57d1a5768014420ffedc28dbab09fedaee5954600203611565576040517f3ee5aeb500000000000000000000000000000000000000000000000000000000815260040160405180910390fd5b61158e60027fd370c446e45a741b5961ac03f05d57d1a5768014420ffedc28dbab09fedaee5955565b611596612f5d565b61159f33612ffe565b6000600482815481106115b4576115b4614224565b60009182526020808320858452600682526040808520338087529352842080548582556001820186905560059094029091019450929061160a9064e8d4a5100090610aab90611603908961069d565b8590612f26565b90508084600301541161161e57600061162d565b600384015461162d9082612f45565b846003018190555061164d33836005888154811061106357611063614224565b604051828152859033907fbb757047c2b5f3974fe26b7c10f732e7bce710b0952a71082702781e62ae05959060200160405180910390a3505050506116b160017fd370c446e45a741b5961ac03f05d57d1a5768014420ffedc28dbab09fedaee5955565b50565b600081156116e3576106ed64e8d4a51000610aab600b5468022b1c8c1227a00000612f2690919063ffffffff16565b6106ed64e8d4a51000610aab600c5468022b1c8c1227a00000612f2690919063ffffffff16565b60045460005b818110156111b35760006004828154811061172d5761172d614224565b60009182526020918290206040805160a08101825260059093029091018054835260018101549383019390935260028301549082018190526003830154606083015260049092015460ff16151560808201529150156117915761178f826111b7565b505b5061179b81614282565b9050611710565b7fb53127684a568b3173ae13b9f8a6016e243e63b6e8ee1178d6a717850b5d61035473ffffffffffffffffffffffffffffffffffffffff163373ffffffffffffffffffffffffffffffffffffffff1614611858576040517f08c379a000000000000000000000000000000000000000000000000000000000815260206004820152600e60248201527f4e4f545f415554484f52495a4544000000000000000000000000000000000000604482015260640161081a565b611861836111b7565b5080156118705761187061170a565b6004838154811061188357611883614224565b600091825260209091206004600590920201015460ff16156118e4576118dc82610afd600486815481106118b9576118b9614224565b906000526020600020906005020160020154600854612f4590919063ffffffff16565b600855611925565b61192182610afd600486815481106118fe576118fe614224565b906000526020600020906005020160020154600954612f4590919063ffffffff16565b6009555b816004848154811061193957611939614224565b906000526020600020906005020160020181905550827fc0cfd54d2de2b55f1e6e108d3ec53ff0a1abe6055401d32c61e9433b747ef9f88360405161198091815260200190565b60405180910390a2505050565b60015473ffffffffffffffffffffffffffffffffffffffff163314611a0e576040517f08c379a000000000000000000000000000000000000000000000000000000000815260206004820152600960248201527f6465763a207775743f0000000000000000000000000000000000000000000000604482015260640161081a565b600180547fffffffffffffffffffffffff00000000000000000000000000000000000000001673ffffffffffffffffffffffffffffffffffffffff831690811790915560405190815233907f61885cdba916be748ff3e3f6f15e4206153b8ea3b7acabade9d04b4063a835109060200160405180910390a250565b7fb53127684a568b3173ae13b9f8a6016e243e63b6e8ee1178d6a717850b5d61035473ffffffffffffffffffffffffffffffffffffffff163373ffffffffffffffffffffffffffffffffffffffff1614611b3f576040517f08c379a000000000000000000000000000000000000000000000000000000000815260206004820152600e60248201527f4e4f545f415554484f52495a4544000000000000000000000000000000000000604482015260640161081a565b611b4c85858585856130db565b5050505050565b60008060048481548110611b6957611b69614224565b600091825260208083206040805160a081018252600590940290910180548452600180820154858501908152600280840154878601526003840154606080890191825260049095015460ff16151560808901528c89526006875285892073ffffffffffffffffffffffffffffffffffffffff8d168a528752978590208551948501865280548552928301549584019590955293015491810191909152825193519151929450929143118015611c1d57508015155b15611c96576000611c3b856020015143612f4590919063ffffffff16565b90506000611c6f8660800151611c5357600954611c57565b6008545b610aab8860400151610ab16112c48b608001516116b4565b9050611c91611c8a84610aab84670de0b6b3a7640000612f26565b8590612f51565b935050505b6000611cb664e8d4a51000610aab611cae8a8c61069d565b875190612f26565b6020850151909150611cde90611cd8670de0b6b3a7640000610aab8588612f26565b90612f45565b98975050505050505050565b60058181548110611cfa57600080fd5b60009182526020909120015473ffffffffffffffffffffffffffffffffffffffff16905081565b7f0de7f2b0af5ab1aa4eca2b133cdee828bdcfefa98e4927fa304b2ad002ca6eb354610100900460ff1615808015611d7f57507f0de7f2b0af5ab1aa4eca2b133cdee828bdcfefa98e4927fa304b2ad002ca6eb354600160ff909116105b80611d9e5750303b158015611d9e5750611d97613446565b60ff166001145b15611f9757611dad6001613473565b8015611dff577f0de7f2b0af5ab1aa4eca2b133cdee828bdcfefa98e4927fa304b2ad002ca6eb380547fffffffffffffffffffffffffffffffffffffffffffffffffffffffffffff00ff166101001790555b6000805473ffffffffffffffffffffffffffffffffffffffff8089167fffffffffffffffffffffffff0000000000000000000000000000000000000000928316178355600180548983169084161790556002805491881691909216179055825b80821015611f0657611efb858584818110611e7c57611e7c614224565b90506080020160200135868685818110611e9857611e98614224565b611eae9260206080909202019081019150613eae565b878786818110611ec057611ec0614224565b9050608002016060016020810190611ed89190613f14565b888887818110611eea57611eea614224565b9050608002016040013560006130db565b816001019150611e5f565b611f0e61352b565b50508015611f92577f0de7f2b0af5ab1aa4eca2b133cdee828bdcfefa98e4927fa304b2ad002ca6eb380547fffffffffffffffffffffffffffffffffffffffffffffffffffffffffffff00ff169055604051600181527f7f26b83ff96e1f2b6a682f133852f6798a09c465da95921460cefb38474024989060200160405180910390a15b611fc9565b6040517f5d99ebd200000000000000000000000000000000000000000000000000000000815260040160405180910390fd5b505050505050565b7fb53127684a568b3173ae13b9f8a6016e243e63b6e8ee1178d6a717850b5d61035473ffffffffffffffffffffffffffffffffffffffff163373ffffffffffffffffffffffffffffffffffffffff1614612087576040517f08c379a000000000000000000000000000000000000000000000000000000000815260206004820152600e60248201527f4e4f545f415554484f52495a4544000000000000000000000000000000000000604482015260640161081a565b73ffffffffffffffffffffffffffffffffffffffff8116158015906120c7575060035473ffffffffffffffffffffffffffffffffffffffff828116911614155b612153576040517f08c379a000000000000000000000000000000000000000000000000000000000815260206004820152603460248201527f4d6173746572436865663a204e657720626f6f737420636f6e7472616374206160448201527f646472657373206d7573742062652076616c6964000000000000000000000000606482015260840161081a565b600380547fffffffffffffffffffffffff00000000000000000000000000000000000000001673ffffffffffffffffffffffffffffffffffffffff83169081179091556040517f4c0c07d0b548b824a1b998eb4d11fccf1cfbc1e47edcdb309970ba88315eb30390600090a250565b7fb53127684a568b3173ae13b9f8a6016e243e63b6e8ee1178d6a717850b5d61035473ffffffffffffffffffffffffffffffffffffffff163373ffffffffffffffffffffffffffffffffffffffff1614612278576040517f08c379a000000000000000000000000000000000000000000000000000000000815260206004820152600e60248201527f4e4f545f415554484f52495a4544000000000000000000000000000000000000604482015260640161081a565b6000841180156122885750600083115b80156122945750600082115b612320576040517f08c379a000000000000000000000000000000000000000000000000000000000815260206004820152602d60248201527f4d6173746572436865663a204b737761702072617465206d757374206265206760448201527f726561746572207468616e203000000000000000000000000000000000000000606482015260840161081a565b64e8d4a5100061233483610afd8787612f51565b146123c1576040517f08c379a000000000000000000000000000000000000000000000000000000000815260206004820152602360248201527f4d6173746572436865663a20546f74616c2072617465206d757374206265203160448201527f6531320000000000000000000000000000000000000000000000000000000000606482015260840161081a565b80156123cf576123cf61170a565b6123d96000612bf3565b600a849055600b839055600c82905560408051858152602081018590529081018390527fae2d2e7d1ae84564fc72227253ce0f36a007209f7fd5ec414dea80e5af2fb5b09060600160405180910390a150505050565b7fb53127684a568b3173ae13b9f8a6016e243e63b6e8ee1178d6a717850b5d61035473ffffffffffffffffffffffffffffffffffffffff163373ffffffffffffffffffffffffffffffffffffffff16146124e5576040517f08c379a000000000000000000000000000000000000000000000000000000000815260206004820152600e60248201527f4e4f545f415554484f52495a4544000000000000000000000000000000000000604482015260640161081a565b73ffffffffffffffffffffffffffffffffffffffff8216612588576040517f08c379a000000000000000000000000000000000000000000000000000000000815260206004820152603060248201527f4d6173746572436865663a20546865207768697465206c69737420616464726560448201527f7373206d7573742062652076616c696400000000000000000000000000000000606482015260840161081a565b73ffffffffffffffffffffffffffffffffffffffff821660008181526007602090815260409182902080547fffffffffffffffffffffffffffffffffffffffffffffffffffffffffffffff001685151590811790915591519182527fc551bbb22d0406dbfb8b6b7740cc521bcf44e1106029cf899c19b6a8e4c99d51910160405180910390a25050565b7fd370c446e45a741b5961ac03f05d57d1a5768014420ffedc28dbab09fedaee595460020361266d576040517f3ee5aeb500000000000000000000000000000000000000000000000000000000815260040160405180910390fd5b61269660027fd370c446e45a741b5961ac03f05d57d1a5768014420ffedc28dbab09fedaee5955565b61269e612f5d565b6126a733612ffe565b60006126b2836111b7565b60008481526006602090815260408083203384529091529020608082015191925090806126ee57503360009081526007602052604090205460ff165b61277c57604080517f08c379a00000000000000000000000000000000000000000000000000000000081526020600482015260248101919091527f4d6173746572436865663a205468652061646472657373206973206e6f74206160448201527f7661696c61626c6520746f206465706f73697420696e207468697320706f6f6c606482015260840161081a565b6000612788338661069d565b82549091501561279d5761279d338683612e4c565b8315612983576000600586815481106127b8576127b8614224565b6000918252602090912001546040517f70a0823100000000000000000000000000000000000000000000000000000000815230600482015273ffffffffffffffffffffffffffffffffffffffff909116906370a0823190602401602060405180830381865afa15801561282f573d6000803e3d6000fd5b505050506040513d601f19601f8201168201806040525081019061285391906142ba565b905061289833308760058a8154811061286e5761286e614224565b60009182526020909120015473ffffffffffffffffffffffffffffffffffffffff169291906135a7565b61294a81600588815481106128af576128af614224565b6000918252602090912001546040517f70a0823100000000000000000000000000000000000000000000000000000000815230600482015273ffffffffffffffffffffffffffffffffffffffff909116906370a0823190602401602060405180830381865afa158015612926573d6000803e3d6000fd5b505050506040513d601f19601f82011682018060405250810190611cd891906142ba565b83549095506129599086612f51565b835561297c61297164e8d4a51000610aab8886612f26565b606086015190612f51565b6060850152505b6129b7670de0b6b3a7640000610aab8560000151610ab164e8d4a51000610aab878960000154612f2690919063ffffffff16565b826001018190555082600486815481106129d3576129d3614224565b6000918252602091829020835160059290920201908155828201516001820155604080840151600283015560608401516003830155608090930151600490910180547fffffffffffffffffffffffffffffffffffffffffffffffffffffffffffffff00169115159190911790559051858152869133917f90890809c654f11d6e72a28fa60149770a0d11ec6c92319d6ceb2bb0a4ea1a15910161117f565b7fb53127684a568b3173ae13b9f8a6016e243e63b6e8ee1178d6a717850b5d61035473ffffffffffffffffffffffffffffffffffffffff163373ffffffffffffffffffffffffffffffffffffffff1614612b27576040517f08c379a000000000000000000000000000000000000000000000000000000000815260206004820152600e60248201527f4e4f545f415554484f52495a4544000000000000000000000000000000000000604482015260640161081a565b600060048381548110612b3c57612b3c614224565b90600052602060002090600502016001015490504381118015612b5f5750438210155b612bc5576040517f08c379a000000000000000000000000000000000000000000000000000000000815260206004820152601460248201527f43616e2774206d6f6469667920686973746f7279000000000000000000000000604482015260640161081a565b8160048481548110612bd957612bd9614224565b906000526020600020906005020160010181905550505050565b7fb53127684a568b3173ae13b9f8a6016e243e63b6e8ee1178d6a717850b5d61035473ffffffffffffffffffffffffffffffffffffffff163373ffffffffffffffffffffffffffffffffffffffff1614612ca9576040517f08c379a000000000000000000000000000000000000000000000000000000000815260206004820152600e60248201527f4e4f545f415554484f52495a4544000000000000000000000000000000000000604482015260640161081a565b8015612cb757612cb761170a565b6000612cce600d5443612f4590919063ffffffff16565b90506000612ce4612cdd612e1e565b8390612f26565b600254909150612d0a9073ffffffffffffffffffffffffffffffffffffffff168261360b565b505043600d5550565b7fb53127684a568b3173ae13b9f8a6016e243e63b6e8ee1178d6a717850b5d61035473ffffffffffffffffffffffffffffffffffffffff163373ffffffffffffffffffffffffffffffffffffffff1614612dc9576040517f08c379a000000000000000000000000000000000000000000000000000000000815260206004820152600e60248201527f4e4f545f415554484f52495a4544000000000000000000000000000000000000604482015260640161081a565b80600003612ddf57612ddc4360c86142d3565b90505b60005b8251811015610c2c57612e0e838281518110612e0057612e00614224565b602002602001015183612a71565b612e1781614282565b9050612de2565b6000612e4764e8d4a51000610aab600a5468022b1c8c1227a00000612f2690919063ffffffff16565b905090565b600082815260066020908152604080832073ffffffffffffffffffffffffffffffffffffffff87168452825280832081516060810183528154808252600183015494820194909452600290910154918101919091529190612eb89064e8d4a5100090610aab9086612f26565b90506000612ef6670de0b6b3a7640000610aab60048881548110612ede57612ede614224565b60009182526020909120600590910201548590612f26565b90506000612f11846020015183612f4590919063ffffffff16565b9050612f1d878261360b565b50505050505050565b6000612f3282846142e6565b9392505050565b6000612f3282846142fd565b6000612f328284614338565b6000612f3282846142d3565b612f656136d6565b1580612f965750612f967fda6fac9f81a22bb02ed26455dcee2a5f2434c8a3377a2cc986478052c1594f9e336136fe565b612ffc576040517f08c379a000000000000000000000000000000000000000000000000000000000815260206004820152601060248201527f5061757361626c653a2070617573656400000000000000000000000000000000604482015260640161081a565b565b6116b1816137f1565b60405173ffffffffffffffffffffffffffffffffffffffff8316602482015260448101829052610c2c9084907fa9059cbb00000000000000000000000000000000000000000000000000000000906064015b604080517fffffffffffffffffffffffffffffffffffffffffffffffffffffffffffffffe08184030181529190526020810180517bffffffffffffffffffffffffffffffffffffffffffffffffffffffff167fffffffff00000000000000000000000000000000000000000000000000000000909316929092179091526138cd565b6040517f70a0823100000000000000000000000000000000000000000000000000000000815230600482015260009073ffffffffffffffffffffffffffffffffffffffff8616906370a0823190602401602060405180830381865afa158015613148573d6000803e3d6000fd5b505050506040513d601f19601f8201168201806040525081019061316c91906142ba565b10156131d4576040517f08c379a000000000000000000000000000000000000000000000000000000000815260206004820152601160248201527f4e6f6e6520424550323020746f6b656e73000000000000000000000000000000604482015260640161081a565b60005473ffffffffffffffffffffffffffffffffffffffff9081169085160361327f576040517f08c379a000000000000000000000000000000000000000000000000000000000815260206004820152602860248201527f4b5357415020746f6b656e2063616e277420626520616464656420746f20666160448201527f726d20706f6f6c73000000000000000000000000000000000000000000000000606482015260840161081a565b801561328d5761328d61170a565b82156132a8576008546132a09086612f51565b6008556132b9565b6009546132b59086612f51565b6009555b6005805460018101825560009182527f036b6384b5eca791c62761152d0c79bb0604c104a5fb6f4eb0703f3154bb3db00180547fffffffffffffffffffffffff00000000000000000000000000000000000000001673ffffffffffffffffffffffffffffffffffffffff87161790556040805160a08101909152908152600490602081014385116133545761334f4360c86142d3565b613356565b845b8152602080820189905260006040808401829052881515606094850152855460018082018855968352918390208551600593840290910190815592850151838701558401516002830155918301516003820155608090920151600490920180547fffffffffffffffffffffffffffffffffffffffffffffffffffffffffffffff0016921515929092179091555473ffffffffffffffffffffffffffffffffffffffff8616916134059190612f45565b6040805188815286151560208201527f18caa0724a26384928efe604ae6ddc99c242548876259770fc88fcb7e719d8fa910160405180910390a35050505050565b60007f0de7f2b0af5ab1aa4eca2b133cdee828bdcfefa98e4927fa304b2ad002ca6eb35b5460ff16919050565b7f0de7f2b0af5ab1aa4eca2b133cdee828bdcfefa98e4927fa304b2ad002ca6eb35460ff8083169116106134d8576040517fbfdd178500000000000000000000000000000000000000000000000000000000815260ff8216600482015260240161081a565b7f0de7f2b0af5ab1aa4eca2b133cdee828bdcfefa98e4927fa304b2ad002ca6eb380547fffffffffffffffffffffffffffffffffffffffffffffffffffffffffffffff001660ff92909216919091179055565b7fb65939979d77055fe20d21bcb90b95461947bffa39f3588194f5015117626ea780547fffffffffffffffffffffffffffffffffffffffffffffffffffffffffffffff001690556040805133815290517f5db9ee0a495bf2e6ff9c91a7834c1ba4fdd244a5e8aa4e537bd38aeae4b073aa9181900360200190a1565b60405173ffffffffffffffffffffffffffffffffffffffff808516602483015283166044820152606481018290526136059085907f23b872dd0000000000000000000000000000000000000000000000000000000090608401613059565b50505050565b80156111b357600080546040517f70a0823100000000000000000000000000000000000000000000000000000000815230600482015273ffffffffffffffffffffffffffffffffffffffff909116906370a0823190602401602060405180830381865afa158015613680573d6000803e3d6000fd5b505050506040513d601f19601f820116820180604052508101906136a491906142ba565b9050818110156136b2578091505b600054610c2c9073ffffffffffffffffffffffffffffffffffffffff168484613007565b60007fb65939979d77055fe20d21bcb90b95461947bffa39f3588194f5015117626ea761346a565b60007fffaa26784aca465bf23123375047d80ccb2b41102e02e5c4ef5b5aa00624b2d260008481526020918252604080822073ffffffffffffffffffffffffffffffffffffffff86168352909252205460ff1680612f3257507fffaa26784aca465bf23123375047d80ccb2b41102e02e5c4ef5b5aa00624b2d260006137b28560009081527fffaa26784aca465bf23123375047d80ccb2b41102e02e5c4ef5b5aa00624b2d2602052604090206001015490565b81526020808201929092526040908101600090812073ffffffffffffffffffffffffffffffffffffffff8616825290925290205460ff16905092915050565b73ffffffffffffffffffffffffffffffffffffffff811660009081527fdd021e813d5056b401d30ba505d211a2ca2652076f58ad407a75764b92ed7d9d602052604090205460ff16156116b15761385f8173ffffffffffffffffffffffffffffffffffffffff1660146139d9565b60405160200161386f919061436f565b604080517fffffffffffffffffffffffffffffffffffffffffffffffffffffffffffffffe0818403018152908290527f08c379a000000000000000000000000000000000000000000000000000000000825261081a916004016143db565b600061392f826040518060400160405280602081526020017f5361666545524332303a206c6f772d6c6576656c2063616c6c206661696c65648152508573ffffffffffffffffffffffffffffffffffffffff16613c1c9092919063ffffffff16565b805190915015610c2c578080602001905181019061394d919061442c565b610c2c576040517f08c379a000000000000000000000000000000000000000000000000000000000815260206004820152602a60248201527f5361666545524332303a204552433230206f7065726174696f6e20646964206e60448201527f6f74207375636365656400000000000000000000000000000000000000000000606482015260840161081a565b606060006139e88360026142e6565b6139f39060026142d3565b67ffffffffffffffff811115613a0b57613a0b614113565b6040519080825280601f01601f191660200182016040528015613a35576020820181803683370190505b5090507f300000000000000000000000000000000000000000000000000000000000000081600081518110613a6c57613a6c614224565b60200101907effffffffffffffffffffffffffffffffffffffffffffffffffffffffffffff1916908160001a9053507f780000000000000000000000000000000000000000000000000000000000000081600181518110613acf57613acf614224565b60200101907effffffffffffffffffffffffffffffffffffffffffffffffffffffffffffff1916908160001a9053506000613b0b8460026142e6565b613b169060016142d3565b90505b6001811115613bb3577f303132333435363738396162636465660000000000000000000000000000000085600f1660108110613b5757613b57614224565b1a60f81b828281518110613b6d57613b6d614224565b60200101907effffffffffffffffffffffffffffffffffffffffffffffffffffffffffffff1916908160001a90535060049490941c93613bac81614449565b9050613b19565b5083156106e7576040517f08c379a000000000000000000000000000000000000000000000000000000000815260206004820181905260248201527f537472696e67733a20686578206c656e67746820696e73756666696369656e74604482015260640161081a565b6060613c2b8484600085613c33565b949350505050565b606082471015613cc5576040517f08c379a000000000000000000000000000000000000000000000000000000000815260206004820152602660248201527f416464726573733a20696e73756666696369656e742062616c616e636520666f60448201527f722063616c6c0000000000000000000000000000000000000000000000000000606482015260840161081a565b6000808673ffffffffffffffffffffffffffffffffffffffff168587604051613cee919061447e565b60006040518083038185875af1925050503d8060008114613d2b576040519150601f19603f3d011682016040523d82523d6000602084013e613d30565b606091505b5091509150613d4187838387613d4c565b979650505050505050565b60608315613de2578251600003613ddb5773ffffffffffffffffffffffffffffffffffffffff85163b613ddb576040517f08c379a000000000000000000000000000000000000000000000000000000000815260206004820152601d60248201527f416464726573733a2063616c6c20746f206e6f6e2d636f6e7472616374000000604482015260640161081a565b5081613c2b565b613c2b8383815115613df75781518083602001fd5b806040517f08c379a000000000000000000000000000000000000000000000000000000000815260040161081a91906143db565b73ffffffffffffffffffffffffffffffffffffffff811681146116b157600080fd5b60008060408385031215613e6057600080fd5b8235613e6b81613e2b565b946020939093013593505050565b600080600060608486031215613e8e57600080fd5b8335613e9981613e2b565b95602085013595506040909401359392505050565b600060208284031215613ec057600080fd5b81356106e781613e2b565b600060208284031215613edd57600080fd5b5035919050565b60008060408385031215613ef757600080fd5b50508035926020909101359150565b80151581146116b157600080fd5b600060208284031215613f2657600080fd5b81356106e781613f06565b600080600060608486031215613f4657600080fd5b83359250602084013591506040840135613f5f81613f06565b809150509250925092565b600080600080600060a08688031215613f8257600080fd5b853594506020860135613f9481613e2b565b93506040860135613fa481613f06565b9250606086013591506080860135613fbb81613f06565b809150509295509295909350565b60008060408385031215613fdc57600080fd5b823591506020830135613fee81613e2b565b809150509250929050565b60008060008060006080868803121561401157600080fd5b853561401c81613e2b565b9450602086013561402c81613e2b565b9350604086013561403c81613e2b565b9250606086013567ffffffffffffffff8082111561405957600080fd5b818801915088601f83011261406d57600080fd5b81358181111561407c57600080fd5b8960208260071b850101111561409157600080fd5b9699959850939650602001949392505050565b600080600080608085870312156140ba57600080fd5b84359350602085013592506040850135915060608501356140da81613f06565b939692955090935050565b600080604083850312156140f857600080fd5b823561410381613e2b565b91506020830135613fee81613f06565b7f4e487b7100000000000000000000000000000000000000000000000000000000600052604160045260246000fd5b6000806040838503121561415557600080fd5b823567ffffffffffffffff8082111561416d57600080fd5b818501915085601f83011261418157600080fd5b813560208282111561419557614195614113565b8160051b6040517fffffffffffffffffffffffffffffffffffffffffffffffffffffffffffffffe0603f830116810181811086821117156141d8576141d8614113565b6040529283528183019350848101820192898411156141f657600080fd5b948201945b83861015614214578535855294820194938201936141fb565b9997909101359750505050505050565b7f4e487b7100000000000000000000000000000000000000000000000000000000600052603260045260246000fd5b7f4e487b7100000000000000000000000000000000000000000000000000000000600052601160045260246000fd5b60007fffffffffffffffffffffffffffffffffffffffffffffffffffffffffffffffff82036142b3576142b3614253565b5060010190565b6000602082840312156142cc57600080fd5b5051919050565b808201808211156106ed576106ed614253565b80820281158282048414176106ed576106ed614253565b600082614333577f4e487b7100000000000000000000000000000000000000000000000000000000600052601260045260246000fd5b500490565b818103818111156106ed576106ed614253565b60005b8381101561436657818101518382015260200161434e565b50506000910152565b7f53696d706c65426c61636b6c6973743a206163636f756e7420000000000000008152600082516143a781601985016020870161434b565b7f20697320626c61636b6c697374656400000000000000000000000000000000006019939091019283015250602801919050565b60208152600082518060208401526143fa81604085016020870161434b565b601f017fffffffffffffffffffffffffffffffffffffffffffffffffffffffffffffffe0169190910160400192915050565b60006020828403121561443e57600080fd5b81516106e781613f06565b60008161445857614458614253565b507fffffffffffffffffffffffffffffffffffffffffffffffffffffffffffffffff0190565b6000825161449081846020870161434b565b919091019291505056fea2646970667358221220d9671aedb924c939810b47194e85a7911e7a3a954105331e31e3639e9f7e2d3964736f6c63430008110033",
  "devdoc": {
    "kind": "dev",
    "methods": {
      "add(uint256,address,bool,uint256,bool)": {
        "params": {
          "_allocPoint": "Number of allocation points for the new pool.",
          "_isRegular": "Whether the pool is regular or special. LP farms are always \"regular\". \"Special\" pools are",
          "_lpToken": "Address of the LP BEP-20 token.",
          "_withUpdate": "Whether call \"massUpdatePools\" operation. only for KSWAP distributions within Kyoto Swap products."
        }
      },
      "burnKswap(bool)": {
        "params": {
          "_withUpdate": "Whether call \"massUpdatePools\" operation."
        }
      },
      "deposit(uint256,uint256)": {
        "params": {
          "_amount": "Amount of LP tokens to deposit.",
          "_pid": "The id of the pool. See `poolInfo`."
        }
      },
      "emergencyWithdraw(uint256)": {
        "params": {
          "_pid": "The id of the pool. See `poolInfo`."
        }
      },
      "getBoostMultiplier(address,uint256)": {
        "params": {
          "_pid": "The pool id.",
          "_user": "The user address."
        }
      },
      "kswapPerBlock(bool)": {
        "params": {
          "_isRegular": "If the pool belongs to regular or special."
        }
      },
      "pendingKswap(uint256,address)": {
        "params": {
          "_pid": "The id of the pool. See `poolInfo`.",
          "_user": "Address of the user."
        }
      },
      "set(uint256,uint256,bool)": {
        "params": {
          "_allocPoint": "New number of allocation points for the pool.",
          "_pid": "The id of the pool. See `poolInfo`.",
          "_withUpdate": "Whether call \"massUpdatePools\" operation."
        }
      },
      "updateBoostContract(address)": {
        "params": {
          "_newBoostContract": "The new address for handling all the share boosts."
        }
      },
      "updateBoostMultiplier(address,uint256,uint256)": {
        "params": {
          "_newMultiplier": "New boost multiplier.",
          "_pid": "The pool id for the boost factor updates.",
          "_user": "The user address for boost factor updates."
        }
      },
      "updateBurnAdmin(address)": {
        "params": {
          "_newAdmin": "The new burn admin address."
        }
      },
      "updateKswapRate(uint256,uint256,uint256,bool)": {
        "params": {
          "_burnRate": "The % of KSWAP to burn each block.",
          "_regularFarmRate": "The % of KSWAP to regular pools each block.",
          "_specialFarmRate": "The % of KSWAP to special pools each block.",
          "_withUpdate": "Whether call \"massUpdatePools\" operation."
        }
      },
      "updatePool(uint256)": {
        "params": {
          "_pid": "The id of the pool. See `poolInfo`."
        },
        "returns": {
          "pool": "Returns the pool that was updated."
        }
      },
      "updateWhiteList(address,bool)": {
        "params": {
          "_isValid": "The flag for valid or invalid.",
          "_user": "The address to be updated."
        }
      },
      "withdraw(uint256,uint256)": {
        "params": {
          "_amount": "Amount of LP tokens to withdraw.",
          "_pid": "The id of the pool. See `poolInfo`."
        }
      }
    },
    "version": 1
  },
  "userdoc": {
    "kind": "user",
    "methods": {
      "BOOST_PRECISION()": {
        "notice": "Basic boost factor, none boosted user's boost factor"
      },
      "KSWAP_RATE_TOTAL_PRECISION()": {
        "notice": "total kswap rate = toBurn + toRegular + toSpecial"
      },
      "MASTERCHEF_KSWAP_PER_BLOCK()": {
        "notice": "40 KSWAP per block in MC"
      },
      "MAX_BOOST_PRECISION()": {
        "notice": "Hard limit for maxmium boost factor, it must greater than BOOST_PRECISION"
      },
      "add(uint256,address,bool,uint256,bool)": {
        "notice": "Add a new pool. Can only be called by the owner. DO NOT add the same LP token more than once. Rewards will be messed up if you do."
      },
      "boostContract()": {
        "notice": "The contract handles the share boosts."
      },
      "burnAdmin()": {
        "notice": "The only address can withdraw all the burn KSWAP."
      },
      "burnKswap(bool)": {
        "notice": "Send KSWAP pending for burn to `burnAdmin`."
      },
      "deposit(uint256,uint256)": {
        "notice": "Deposit LP tokens to pool."
      },
      "emergencyWithdraw(uint256)": {
        "notice": "Withdraw without caring about the rewards. EMERGENCY ONLY."
      },
      "getBoostMultiplier(address,uint256)": {
        "notice": "Get user boost multiplier for specific pool id."
      },
      "kswapPerBlock(bool)": {
        "notice": "Calculates and returns the `amount` of KSWAP per block."
      },
      "kswapPerBlockToBurn()": {
        "notice": "Calculates and returns the `amount` of KSWAP per block to burn."
      },
      "kswapRateToBurn()": {
        "notice": "The last block number of KSWAP burn action being executed.KSWAP distribute % for burn"
      },
      "kswapRateToRegularFarm()": {
        "notice": "KSWAP distribute % for regular farm pool"
      },
      "kswapRateToSpecialFarm()": {
        "notice": "KSWAP distribute % for special pools"
      },
      "lpToken(uint256)": {
        "notice": "Address of the LP token for each MCV2 pool."
      },
      "massUpdatePools()": {
        "notice": "Update kswap reward for all the active pools. Be careful of gas spending!"
      },
      "pendingKswap(uint256,address)": {
        "notice": "View function for checking pending KSWAP rewards."
      },
      "poolInfo(uint256)": {
        "notice": "Info of each MCV2 pool."
      },
      "poolLength()": {
        "notice": "Returns the number of MC pools."
      },
      "set(uint256,uint256,bool)": {
        "notice": "Update the given pool's KSWAP allocation point. Can only be called by the owner."
      },
      "totalRegularAllocPoint()": {
        "notice": "Total regular allocation points. Must be the sum of all regular pools' allocation points."
      },
      "totalSpecialAllocPoint()": {
        "notice": "Total special allocation points. Must be the sum of all special pools' allocation points."
      },
      "updateBoostContract(address)": {
        "notice": "Update boost contract address and max boost factor."
      },
      "updateBoostMultiplier(address,uint256,uint256)": {
        "notice": "Update user boost factor."
      },
      "updateBurnAdmin(address)": {
        "notice": "Update burn admin address."
      },
      "updateKswapRate(uint256,uint256,uint256,bool)": {
        "notice": "Update the % of KSWAP distributions for burn, regular pools and special pools."
      },
      "updatePool(uint256)": {
        "notice": "Update reward variables for the given pool."
      },
      "updateWhiteList(address,bool)": {
        "notice": "Update whitelisted addresses for special pools."
      },
      "userInfo(uint256,address)": {
        "notice": "Info of each pool user."
      },
      "whiteList(address)": {
        "notice": "The whitelist of addresses allowed to deposit in special pools."
      },
      "withdraw(uint256,uint256)": {
        "notice": "Withdraw LP tokens from pool."
      }
    },
    "version": 1
  },
  "storageLayout": {
    "storage": [
      {
        "astId": 4304,
        "contract": "contracts/MasterChef.sol:MasterChef",
        "label": "kswap",
        "offset": 0,
        "slot": "0",
        "type": "t_contract(IERC20Mintable)6034"
      },
      {
        "astId": 4306,
        "contract": "contracts/MasterChef.sol:MasterChef",
        "label": "treasury",
        "offset": 0,
        "slot": "1",
        "type": "t_address"
      },
      {
        "astId": 4309,
        "contract": "contracts/MasterChef.sol:MasterChef",
        "label": "burnAdmin",
        "offset": 0,
        "slot": "2",
        "type": "t_address"
      },
      {
        "astId": 4312,
        "contract": "contracts/MasterChef.sol:MasterChef",
        "label": "boostContract",
        "offset": 0,
        "slot": "3",
        "type": "t_address"
      },
      {
        "astId": 4317,
        "contract": "contracts/MasterChef.sol:MasterChef",
        "label": "poolInfo",
        "offset": 0,
        "slot": "4",
        "type": "t_array(t_struct(PoolInfo)6056_storage)dyn_storage"
      },
      {
        "astId": 4322,
        "contract": "contracts/MasterChef.sol:MasterChef",
        "label": "lpToken",
        "offset": 0,
        "slot": "5",
        "type": "t_array(t_contract(IERC20)77)dyn_storage"
      },
      {
        "astId": 4330,
        "contract": "contracts/MasterChef.sol:MasterChef",
        "label": "userInfo",
        "offset": 0,
        "slot": "6",
        "type": "t_mapping(t_uint256,t_mapping(t_address,t_struct(UserInfo)6045_storage))"
      },
      {
        "astId": 4335,
        "contract": "contracts/MasterChef.sol:MasterChef",
        "label": "whiteList",
        "offset": 0,
        "slot": "7",
        "type": "t_mapping(t_address,t_bool)"
      },
      {
        "astId": 4338,
        "contract": "contracts/MasterChef.sol:MasterChef",
        "label": "totalRegularAllocPoint",
        "offset": 0,
        "slot": "8",
        "type": "t_uint256"
      },
      {
        "astId": 4341,
        "contract": "contracts/MasterChef.sol:MasterChef",
        "label": "totalSpecialAllocPoint",
        "offset": 0,
        "slot": "9",
        "type": "t_uint256"
      },
      {
        "astId": 4370,
        "contract": "contracts/MasterChef.sol:MasterChef",
        "label": "kswapRateToBurn",
        "offset": 0,
        "slot": "10",
        "type": "t_uint256"
      },
      {
        "astId": 4374,
        "contract": "contracts/MasterChef.sol:MasterChef",
        "label": "kswapRateToRegularFarm",
        "offset": 0,
        "slot": "11",
        "type": "t_uint256"
      },
      {
        "astId": 4378,
        "contract": "contracts/MasterChef.sol:MasterChef",
        "label": "kswapRateToSpecialFarm",
        "offset": 0,
        "slot": "12",
        "type": "t_uint256"
      },
      {
        "astId": 4380,
        "contract": "contracts/MasterChef.sol:MasterChef",
        "label": "lastBurnedBlock",
        "offset": 0,
        "slot": "13",
        "type": "t_uint256"
      }
    ],
    "types": {
      "t_address": {
        "encoding": "inplace",
        "label": "address",
        "numberOfBytes": "20"
      },
      "t_array(t_contract(IERC20)77)dyn_storage": {
        "base": "t_contract(IERC20)77",
        "encoding": "dynamic_array",
        "label": "contract IERC20[]",
        "numberOfBytes": "32"
      },
      "t_array(t_struct(PoolInfo)6056_storage)dyn_storage": {
        "base": "t_struct(PoolInfo)6056_storage",
        "encoding": "dynamic_array",
        "label": "struct IMasterChef.PoolInfo[]",
        "numberOfBytes": "32"
      },
      "t_bool": {
        "encoding": "inplace",
        "label": "bool",
        "numberOfBytes": "1"
      },
      "t_contract(IERC20)77": {
        "encoding": "inplace",
        "label": "contract IERC20",
        "numberOfBytes": "20"
      },
      "t_contract(IERC20Mintable)6034": {
        "encoding": "inplace",
        "label": "contract IERC20Mintable",
        "numberOfBytes": "20"
      },
      "t_mapping(t_address,t_bool)": {
        "encoding": "mapping",
        "key": "t_address",
        "label": "mapping(address => bool)",
        "numberOfBytes": "32",
        "value": "t_bool"
      },
      "t_mapping(t_address,t_struct(UserInfo)6045_storage)": {
        "encoding": "mapping",
        "key": "t_address",
        "label": "mapping(address => struct IMasterChef.UserInfo)",
        "numberOfBytes": "32",
        "value": "t_struct(UserInfo)6045_storage"
      },
      "t_mapping(t_uint256,t_mapping(t_address,t_struct(UserInfo)6045_storage))": {
        "encoding": "mapping",
        "key": "t_uint256",
        "label": "mapping(uint256 => mapping(address => struct IMasterChef.UserInfo))",
        "numberOfBytes": "32",
        "value": "t_mapping(t_address,t_struct(UserInfo)6045_storage)"
      },
      "t_struct(PoolInfo)6056_storage": {
        "encoding": "inplace",
        "label": "struct IMasterChef.PoolInfo",
        "members": [
          {
            "astId": 6047,
            "contract": "contracts/MasterChef.sol:MasterChef",
            "label": "accKswapPerShare",
            "offset": 0,
            "slot": "0",
            "type": "t_uint256"
          },
          {
            "astId": 6049,
            "contract": "contracts/MasterChef.sol:MasterChef",
            "label": "lastRewardBlock",
            "offset": 0,
            "slot": "1",
            "type": "t_uint256"
          },
          {
            "astId": 6051,
            "contract": "contracts/MasterChef.sol:MasterChef",
            "label": "allocPoint",
            "offset": 0,
            "slot": "2",
            "type": "t_uint256"
          },
          {
            "astId": 6053,
            "contract": "contracts/MasterChef.sol:MasterChef",
            "label": "totalBoostedShare",
            "offset": 0,
            "slot": "3",
            "type": "t_uint256"
          },
          {
            "astId": 6055,
            "contract": "contracts/MasterChef.sol:MasterChef",
            "label": "isRegular",
            "offset": 0,
            "slot": "4",
            "type": "t_bool"
          }
        ],
        "numberOfBytes": "160"
      },
      "t_struct(UserInfo)6045_storage": {
        "encoding": "inplace",
        "label": "struct IMasterChef.UserInfo",
        "members": [
          {
            "astId": 6040,
            "contract": "contracts/MasterChef.sol:MasterChef",
            "label": "amount",
            "offset": 0,
            "slot": "0",
            "type": "t_uint256"
          },
          {
            "astId": 6042,
            "contract": "contracts/MasterChef.sol:MasterChef",
            "label": "rewardDebt",
            "offset": 0,
            "slot": "1",
            "type": "t_uint256"
          },
          {
            "astId": 6044,
            "contract": "contracts/MasterChef.sol:MasterChef",
            "label": "boostMultiplier",
            "offset": 0,
            "slot": "2",
            "type": "t_uint256"
          }
        ],
        "numberOfBytes": "96"
      },
      "t_uint256": {
        "encoding": "inplace",
        "label": "uint256",
        "numberOfBytes": "32"
      }
    }
  }
}