{
  "address": "0x10A901416163b791338E0CDaa4D1a59cf6212394",
  "abi": [
    {
      "inputs": [],
      "name": "InitializerContractAlreadyInitialized",
      "type": "error"
    },
    {
      "inputs": [],
      "name": "InitializerContractIsInitializing",
      "type": "error"
    },
    {
      "inputs": [],
      "name": "InitializerContractIsNotInitializing",
      "type": "error"
    },
    {
      "inputs": [
        {
          "internalType": "uint8",
          "name": "version",
          "type": "uint8"
        }
      ],
      "name": "InitializerVersionAlreadyInitialized",
      "type": "error"
    },
    {
      "inputs": [],
      "name": "ReentrancyGuardReentrantCall",
      "type": "error"
    },
    {
      "anonymous": false,
      "inputs": [
        {
          "indexed": true,
          "internalType": "uint256",
          "name": "pid",
          "type": "uint256"
        },
        {
          "indexed": false,
          "internalType": "uint256",
          "name": "allocPoint",
          "type": "uint256"
        },
        {
          "indexed": true,
          "internalType": "contract IERC20",
          "name": "lpToken",
          "type": "address"
        },
        {
          "indexed": false,
          "internalType": "bool",
          "name": "isRegular",
          "type": "bool"
        }
      ],
      "name": "AddPool",
      "type": "event"
    },
    {
      "anonymous": false,
      "inputs": [
        {
          "indexed": true,
          "internalType": "address",
          "name": "account",
          "type": "address"
        },
        {
          "indexed": true,
          "internalType": "string",
          "name": "reason",
          "type": "string"
        }
      ],
      "name": "Blacklisted",
      "type": "event"
    },
    {
      "anonymous": false,
      "inputs": [
        {
          "indexed": true,
          "internalType": "address",
          "name": "user",
          "type": "address"
        },
        {
          "indexed": true,
          "internalType": "uint256",
          "name": "pid",
          "type": "uint256"
        },
        {
          "indexed": false,
          "internalType": "uint256",
          "name": "amount",
          "type": "uint256"
        }
      ],
      "name": "Deposit",
      "type": "event"
    },
    {
      "anonymous": false,
      "inputs": [
        {
          "indexed": true,
          "internalType": "address",
          "name": "user",
          "type": "address"
        },
        {
          "indexed": true,
          "internalType": "uint256",
          "name": "pid",
          "type": "uint256"
        },
        {
          "indexed": false,
          "internalType": "uint256",
          "name": "amount",
          "type": "uint256"
        }
      ],
      "name": "EmergencyWithdraw",
      "type": "event"
    },
    {
      "anonymous": false,
      "inputs": [
        {
          "indexed": false,
          "internalType": "uint8",
          "name": "version",
          "type": "uint8"
        }
      ],
      "name": "Initialized",
      "type": "event"
    },
    {
      "anonymous": false,
      "inputs": [
        {
          "indexed": true,
          "internalType": "uint256",
          "name": "pid",
          "type": "uint256"
        },
        {
          "indexed": false,
          "internalType": "uint256",
          "name": "allocPoint",
          "type": "uint256"
        }
      ],
      "name": "SetPool",
      "type": "event"
    },
    {
      "anonymous": false,
      "inputs": [
        {
          "indexed": true,
          "internalType": "address",
          "name": "user",
          "type": "address"
        },
        {
          "indexed": false,
          "internalType": "address",
          "name": "treasury",
          "type": "address"
        }
      ],
      "name": "SetTreasuryAddress",
      "type": "event"
    },
    {
      "anonymous": false,
      "inputs": [
        {
          "indexed": true,
          "internalType": "address",
          "name": "account",
          "type": "address"
        },
        {
          "indexed": true,
          "internalType": "string",
          "name": "reason",
          "type": "string"
        }
      ],
      "name": "UnBlacklisted",
      "type": "event"
    },
    {
      "anonymous": false,
      "inputs": [
        {
          "indexed": true,
          "internalType": "address",
          "name": "boostContract",
          "type": "address"
        }
      ],
      "name": "UpdateBoostContract",
      "type": "event"
    },
    {
      "anonymous": false,
      "inputs": [
        {
          "indexed": true,
          "internalType": "address",
          "name": "user",
          "type": "address"
        },
        {
          "indexed": false,
          "internalType": "uint256",
          "name": "pid",
          "type": "uint256"
        },
        {
          "indexed": false,
          "internalType": "uint256",
          "name": "oldMultiplier",
          "type": "uint256"
        },
        {
          "indexed": false,
          "internalType": "uint256",
          "name": "newMultiplier",
          "type": "uint256"
        }
      ],
      "name": "UpdateBoostMultiplier",
      "type": "event"
    },
    {
      "anonymous": false,
      "inputs": [
        {
          "indexed": true,
          "internalType": "address",
          "name": "oldAdmin",
          "type": "address"
        },
        {
          "indexed": true,
          "internalType": "address",
          "name": "newAdmin",
          "type": "address"
        }
      ],
      "name": "UpdateBurnAdmin",
      "type": "event"
    },
    {
      "anonymous": false,
      "inputs": [
        {
          "indexed": false,
          "internalType": "uint256",
          "name": "burnRate",
          "type": "uint256"
        },
        {
          "indexed": false,
          "internalType": "uint256",
          "name": "regularFarmRate",
          "type": "uint256"
        },
        {
          "indexed": false,
          "internalType": "uint256",
          "name": "specialFarmRate",
          "type": "uint256"
        }
      ],
      "name": "UpdateCakeRate",
      "type": "event"
    },
    {
      "anonymous": false,
      "inputs": [
        {
          "indexed": true,
          "internalType": "uint256",
          "name": "pid",
          "type": "uint256"
        },
        {
          "indexed": false,
          "internalType": "uint256",
          "name": "lastRewardBlock",
          "type": "uint256"
        },
        {
          "indexed": false,
          "internalType": "uint256",
          "name": "lpSupply",
          "type": "uint256"
        },
        {
          "indexed": false,
          "internalType": "uint256",
          "name": "accKswapPerShare",
          "type": "uint256"
        }
      ],
      "name": "UpdatePool",
      "type": "event"
    },
    {
      "anonymous": false,
      "inputs": [
        {
          "indexed": true,
          "internalType": "address",
          "name": "user",
          "type": "address"
        },
        {
          "indexed": false,
          "internalType": "bool",
          "name": "isValid",
          "type": "bool"
        }
      ],
      "name": "UpdateWhiteList",
      "type": "event"
    },
    {
      "anonymous": false,
      "inputs": [
        {
          "indexed": true,
          "internalType": "address",
          "name": "user",
          "type": "address"
        },
        {
          "indexed": true,
          "internalType": "uint256",
          "name": "pid",
          "type": "uint256"
        },
        {
          "indexed": false,
          "internalType": "uint256",
          "name": "amount",
          "type": "uint256"
        }
      ],
      "name": "Withdraw",
      "type": "event"
    },
    {
      "inputs": [],
      "name": "ACC_KSWAP_PRECISION",
      "outputs": [
        {
          "internalType": "uint256",
          "name": "",
          "type": "uint256"
        }
      ],
      "stateMutability": "view",
      "type": "function"
    },
    {
      "inputs": [],
      "name": "BOOST_PRECISION",
      "outputs": [
        {
          "internalType": "uint256",
          "name": "",
          "type": "uint256"
        }
      ],
      "stateMutability": "view",
      "type": "function"
    },
    {
      "inputs": [],
      "name": "KSWAP_RATE_TOTAL_PRECISION",
      "outputs": [
        {
          "internalType": "uint256",
          "name": "",
          "type": "uint256"
        }
      ],
      "stateMutability": "view",
      "type": "function"
    },
    {
      "inputs": [],
      "name": "MASTERCHEF_KSWAP_PER_BLOCK",
      "outputs": [
        {
          "internalType": "uint256",
          "name": "",
          "type": "uint256"
        }
      ],
      "stateMutability": "view",
      "type": "function"
    },
    {
      "inputs": [],
      "name": "MAX_BOOST_PRECISION",
      "outputs": [
        {
          "internalType": "uint256",
          "name": "",
          "type": "uint256"
        }
      ],
      "stateMutability": "view",
      "type": "function"
    },
    {
      "inputs": [
        {
          "internalType": "uint256",
          "name": "_allocPoint",
          "type": "uint256"
        },
        {
          "internalType": "contract IERC20",
          "name": "_lpToken",
          "type": "address"
        },
        {
          "internalType": "bool",
          "name": "_isRegular",
          "type": "bool"
        },
        {
          "internalType": "uint256",
          "name": "_startBlockNumber",
          "type": "uint256"
        },
        {
          "internalType": "bool",
          "name": "_withUpdate",
          "type": "bool"
        }
      ],
      "name": "add",
      "outputs": [],
      "stateMutability": "nonpayable",
      "type": "function"
    },
    {
      "inputs": [
        {
          "internalType": "address[]",
          "name": "accounts",
          "type": "address[]"
        },
        {
          "internalType": "string[]",
          "name": "reasons",
          "type": "string[]"
        }
      ],
      "name": "blacklist",
      "outputs": [],
      "stateMutability": "nonpayable",
      "type": "function"
    },
    {
      "inputs": [
        {
          "internalType": "address",
          "name": "account",
          "type": "address"
        },
        {
          "internalType": "string",
          "name": "reason",
          "type": "string"
        }
      ],
      "name": "blacklist",
      "outputs": [],
      "stateMutability": "nonpayable",
      "type": "function"
    },
    {
      "inputs": [],
      "name": "boostContract",
      "outputs": [
        {
          "internalType": "address",
          "name": "",
          "type": "address"
        }
      ],
      "stateMutability": "view",
      "type": "function"
    },
    {
      "inputs": [],
      "name": "burnAdmin",
      "outputs": [
        {
          "internalType": "address",
          "name": "",
          "type": "address"
        }
      ],
      "stateMutability": "view",
      "type": "function"
    },
    {
      "inputs": [
        {
          "internalType": "bool",
          "name": "_withUpdate",
          "type": "bool"
        }
      ],
      "name": "burnKswap",
      "outputs": [],
      "stateMutability": "nonpayable",
      "type": "function"
    },
    {
      "inputs": [
        {
          "internalType": "uint256",
          "name": "_pid",
          "type": "uint256"
        },
        {
          "internalType": "uint256",
          "name": "_amount",
          "type": "uint256"
        }
      ],
      "name": "deposit",
      "outputs": [],
      "stateMutability": "nonpayable",
      "type": "function"
    },
    {
      "inputs": [
        {
          "internalType": "uint256",
          "name": "_pid",
          "type": "uint256"
        }
      ],
      "name": "emergencyWithdraw",
      "outputs": [],
      "stateMutability": "nonpayable",
      "type": "function"
    },
    {
      "inputs": [
        {
          "internalType": "address",
          "name": "_user",
          "type": "address"
        },
        {
          "internalType": "uint256",
          "name": "_pid",
          "type": "uint256"
        }
      ],
      "name": "getBoostMultiplier",
      "outputs": [
        {
          "internalType": "uint256",
          "name": "",
          "type": "uint256"
        }
      ],
      "stateMutability": "view",
      "type": "function"
    },
    {
      "inputs": [
        {
          "internalType": "contract IERC20Mintable",
          "name": "kswap_",
          "type": "address"
        },
        {
          "internalType": "address",
          "name": "treasury_",
          "type": "address"
        },
        {
          "internalType": "address",
          "name": "burnAdmin_",
          "type": "address"
        },
        {
          "components": [
            {
              "internalType": "contract IERC20",
              "name": "lpToken",
              "type": "address"
            },
            {
              "internalType": "uint256",
              "name": "allocPoint",
              "type": "uint256"
            },
            {
              "internalType": "uint256",
              "name": "startBlockNumber",
              "type": "uint256"
            },
            {
              "internalType": "bool",
              "name": "isRegular",
              "type": "bool"
            }
          ],
          "internalType": "struct IMasterChefAdmin.AddNewPoolInfo[]",
          "name": "newPools",
          "type": "tuple[]"
        }
      ],
      "name": "initialize",
      "outputs": [],
      "stateMutability": "nonpayable",
      "type": "function"
    },
    {
      "inputs": [
        {
          "internalType": "address[]",
          "name": "accounts",
          "type": "address[]"
        }
      ],
      "name": "isBlacklisted",
      "outputs": [
        {
          "internalType": "bool",
          "name": "",
          "type": "bool"
        }
      ],
      "stateMutability": "view",
      "type": "function"
    },
    {
      "inputs": [
        {
          "internalType": "address",
          "name": "account",
          "type": "address"
        }
      ],
      "name": "isBlacklisted",
      "outputs": [
        {
          "internalType": "bool",
          "name": "",
          "type": "bool"
        }
      ],
      "stateMutability": "view",
      "type": "function"
    },
    {
      "inputs": [],
      "name": "kswap",
      "outputs": [
        {
          "internalType": "contract IERC20Mintable",
          "name": "",
          "type": "address"
        }
      ],
      "stateMutability": "view",
      "type": "function"
    },
    {
      "inputs": [
        {
          "internalType": "bool",
          "name": "_isRegular",
          "type": "bool"
        }
      ],
      "name": "kswapPerBlock",
      "outputs": [
        {
          "internalType": "uint256",
          "name": "amount",
          "type": "uint256"
        }
      ],
      "stateMutability": "view",
      "type": "function"
    },
    {
      "inputs": [],
      "name": "kswapPerBlockToBurn",
      "outputs": [
        {
          "internalType": "uint256",
          "name": "amount",
          "type": "uint256"
        }
      ],
      "stateMutability": "view",
      "type": "function"
    },
    {
      "inputs": [],
      "name": "kswapRateToBurn",
      "outputs": [
        {
          "internalType": "uint256",
          "name": "",
          "type": "uint256"
        }
      ],
      "stateMutability": "view",
      "type": "function"
    },
    {
      "inputs": [],
      "name": "kswapRateToRegularFarm",
      "outputs": [
        {
          "internalType": "uint256",
          "name": "",
          "type": "uint256"
        }
      ],
      "stateMutability": "view",
      "type": "function"
    },
    {
      "inputs": [],
      "name": "kswapRateToSpecialFarm",
      "outputs": [
        {
          "internalType": "uint256",
          "name": "",
          "type": "uint256"
        }
      ],
      "stateMutability": "view",
      "type": "function"
    },
    {
      "inputs": [],
      "name": "lastBurnedBlock",
      "outputs": [
        {
          "internalType": "uint256",
          "name": "",
          "type": "uint256"
        }
      ],
      "stateMutability": "view",
      "type": "function"
    },
    {
      "inputs": [
        {
          "internalType": "uint256",
          "name": "",
          "type": "uint256"
        }
      ],
      "name": "lpToken",
      "outputs": [
        {
          "internalType": "contract IERC20",
          "name": "",
          "type": "address"
        }
      ],
      "stateMutability": "view",
      "type": "function"
    },
    {
      "inputs": [],
      "name": "massUpdatePools",
      "outputs": [],
      "stateMutability": "nonpayable",
      "type": "function"
    },
    {
      "inputs": [],
      "name": "pause",
      "outputs": [],
      "stateMutability": "nonpayable",
      "type": "function"
    },
    {
      "inputs": [],
      "name": "paused",
      "outputs": [
        {
          "internalType": "bool",
          "name": "",
          "type": "bool"
        }
      ],
      "stateMutability": "view",
      "type": "function"
    },
    {
      "inputs": [
        {
          "internalType": "uint256",
          "name": "_pid",
          "type": "uint256"
        },
        {
          "internalType": "address",
          "name": "_user",
          "type": "address"
        }
      ],
      "name": "pendingKswap",
      "outputs": [
        {
          "internalType": "uint256",
          "name": "",
          "type": "uint256"
        }
      ],
      "stateMutability": "view",
      "type": "function"
    },
    {
      "inputs": [
        {
          "internalType": "uint256",
          "name": "",
          "type": "uint256"
        }
      ],
      "name": "poolInfo",
      "outputs": [
        {
          "internalType": "uint256",
          "name": "accKswapPerShare",
          "type": "uint256"
        },
        {
          "internalType": "uint256",
          "name": "lastRewardBlock",
          "type": "uint256"
        },
        {
          "internalType": "uint256",
          "name": "allocPoint",
          "type": "uint256"
        },
        {
          "internalType": "uint256",
          "name": "totalBoostedShare",
          "type": "uint256"
        },
        {
          "internalType": "bool",
          "name": "isRegular",
          "type": "bool"
        }
      ],
      "stateMutability": "view",
      "type": "function"
    },
    {
      "inputs": [],
      "name": "poolLength",
      "outputs": [
        {
          "internalType": "uint256",
          "name": "pools",
          "type": "uint256"
        }
      ],
      "stateMutability": "view",
      "type": "function"
    },
    {
      "inputs": [
        {
          "internalType": "uint256",
          "name": "_pid",
          "type": "uint256"
        },
        {
          "internalType": "uint256",
          "name": "_allocPoint",
          "type": "uint256"
        },
        {
          "internalType": "bool",
          "name": "_withUpdate",
          "type": "bool"
        }
      ],
      "name": "set",
      "outputs": [],
      "stateMutability": "nonpayable",
      "type": "function"
    },
    {
      "inputs": [
        {
          "internalType": "uint256",
          "name": "_pid",
          "type": "uint256"
        },
        {
          "internalType": "uint256",
          "name": "newLastRewardBlock",
          "type": "uint256"
        }
      ],
      "name": "setPoolLastRewardBlock",
      "outputs": [],
      "stateMutability": "nonpayable",
      "type": "function"
    },
    {
      "inputs": [
        {
          "internalType": "uint256[]",
          "name": "_pids",
          "type": "uint256[]"
        },
        {
          "internalType": "uint256",
          "name": "newLastRewardBlock",
          "type": "uint256"
        }
      ],
      "name": "setPoolLastRewardBlock",
      "outputs": [],
      "stateMutability": "nonpayable",
      "type": "function"
    },
    {
      "inputs": [
        {
          "internalType": "address",
          "name": "_treasury",
          "type": "address"
        }
      ],
      "name": "setTreasuryAddress",
      "outputs": [],
      "stateMutability": "nonpayable",
      "type": "function"
    },
    {
      "inputs": [],
      "name": "totalRegularAllocPoint",
      "outputs": [
        {
          "internalType": "uint256",
          "name": "",
          "type": "uint256"
        }
      ],
      "stateMutability": "view",
      "type": "function"
    },
    {
      "inputs": [],
      "name": "totalSpecialAllocPoint",
      "outputs": [
        {
          "internalType": "uint256",
          "name": "",
          "type": "uint256"
        }
      ],
      "stateMutability": "view",
      "type": "function"
    },
    {
      "inputs": [],
      "name": "treasury",
      "outputs": [
        {
          "internalType": "address",
          "name": "",
          "type": "address"
        }
      ],
      "stateMutability": "view",
      "type": "function"
    },
    {
      "inputs": [
        {
          "internalType": "address[]",
          "name": "accounts",
          "type": "address[]"
        },
        {
          "internalType": "string[]",
          "name": "reasons",
          "type": "string[]"
        }
      ],
      "name": "unblacklist",
      "outputs": [],
      "stateMutability": "nonpayable",
      "type": "function"
    },
    {
      "inputs": [
        {
          "internalType": "address",
          "name": "account",
          "type": "address"
        },
        {
          "internalType": "string",
          "name": "reason",
          "type": "string"
        }
      ],
      "name": "unblacklist",
      "outputs": [],
      "stateMutability": "nonpayable",
      "type": "function"
    },
    {
      "inputs": [],
      "name": "unpause",
      "outputs": [],
      "stateMutability": "nonpayable",
      "type": "function"
    },
    {
      "inputs": [
        {
          "internalType": "address",
          "name": "_newBoostContract",
          "type": "address"
        }
      ],
      "name": "updateBoostContract",
      "outputs": [],
      "stateMutability": "nonpayable",
      "type": "function"
    },
    {
      "inputs": [
        {
          "internalType": "address",
          "name": "_user",
          "type": "address"
        },
        {
          "internalType": "uint256",
          "name": "_pid",
          "type": "uint256"
        },
        {
          "internalType": "uint256",
          "name": "_newMultiplier",
          "type": "uint256"
        }
      ],
      "name": "updateBoostMultiplier",
      "outputs": [],
      "stateMutability": "nonpayable",
      "type": "function"
    },
    {
      "inputs": [
        {
          "internalType": "address",
          "name": "_newAdmin",
          "type": "address"
        }
      ],
      "name": "updateBurnAdmin",
      "outputs": [],
      "stateMutability": "nonpayable",
      "type": "function"
    },
    {
      "inputs": [
        {
          "internalType": "uint256",
          "name": "_burnRate",
          "type": "uint256"
        },
        {
          "internalType": "uint256",
          "name": "_regularFarmRate",
          "type": "uint256"
        },
        {
          "internalType": "uint256",
          "name": "_specialFarmRate",
          "type": "uint256"
        },
        {
          "internalType": "bool",
          "name": "_withUpdate",
          "type": "bool"
        }
      ],
      "name": "updateKswapRate",
      "outputs": [],
      "stateMutability": "nonpayable",
      "type": "function"
    },
    {
      "inputs": [
        {
          "internalType": "uint256",
          "name": "_pid",
          "type": "uint256"
        }
      ],
      "name": "updatePool",
      "outputs": [
        {
          "components": [
            {
              "internalType": "uint256",
              "name": "accKswapPerShare",
              "type": "uint256"
            },
            {
              "internalType": "uint256",
              "name": "lastRewardBlock",
              "type": "uint256"
            },
            {
              "internalType": "uint256",
              "name": "allocPoint",
              "type": "uint256"
            },
            {
              "internalType": "uint256",
              "name": "totalBoostedShare",
              "type": "uint256"
            },
            {
              "internalType": "bool",
              "name": "isRegular",
              "type": "bool"
            }
          ],
          "internalType": "struct IMasterChef.PoolInfo",
          "name": "pool",
          "type": "tuple"
        }
      ],
      "stateMutability": "nonpayable",
      "type": "function"
    },
    {
      "inputs": [
        {
          "internalType": "address",
          "name": "_user",
          "type": "address"
        },
        {
          "internalType": "bool",
          "name": "_isValid",
          "type": "bool"
        }
      ],
      "name": "updateWhiteList",
      "outputs": [],
      "stateMutability": "nonpayable",
      "type": "function"
    },
    {
      "inputs": [
        {
          "internalType": "uint256",
          "name": "",
          "type": "uint256"
        },
        {
          "internalType": "address",
          "name": "",
          "type": "address"
        }
      ],
      "name": "userInfo",
      "outputs": [
        {
          "internalType": "uint256",
          "name": "amount",
          "type": "uint256"
        },
        {
          "internalType": "uint256",
          "name": "rewardDebt",
          "type": "uint256"
        },
        {
          "internalType": "uint256",
          "name": "boostMultiplier",
          "type": "uint256"
        }
      ],
      "stateMutability": "view",
      "type": "function"
    },
    {
      "inputs": [
        {
          "internalType": "address",
          "name": "",
          "type": "address"
        }
      ],
      "name": "whiteList",
      "outputs": [
        {
          "internalType": "bool",
          "name": "",
          "type": "bool"
        }
      ],
      "stateMutability": "view",
      "type": "function"
    },
    {
      "inputs": [
        {
          "internalType": "uint256",
          "name": "_pid",
          "type": "uint256"
        },
        {
          "internalType": "uint256",
          "name": "_amount",
          "type": "uint256"
        }
      ],
      "name": "withdraw",
      "outputs": [],
      "stateMutability": "nonpayable",
      "type": "function"
    }
  ],
  "transactionHash": "0x4bcc95d318ee239934e9193b6e88ac40d502a0c7f5e1d96563eb33e41546adb6",
  "args": [],
  "numDeployments": 4,
  "solcInputHash": "066e7e17ed6143df1a5b3813686b840e",
  "bytecode": "0x608060405234801561001057600080fd5b50615209806100206000396000f3fe608060405234801561001057600080fd5b50600436106103365760003560e01c806378d28781116101b2578063ac656889116100f9578063dfcedeee116100a2578063f41c8d961161007c578063f41c8d9614610749578063fb3b6c2a1461075c578063fe4a00451461076f578063fe575a871461077757600080fd5b8063dfcedeee14610703578063e2bbb15814610723578063e671e5fc1461073657600080fd5b8063ce5da407116100d3578063ce5da407146106ca578063d1e6c30c146106dd578063ddf579ff146106f057600080fd5b8063ac656889146106b1578063c40d337b146106c1578063cc6db2da146103f957600080fd5b80638456cb591161015b5780639dd2fcc3116101355780639dd2fcc314610678578063a8c282591461068b578063ac1d06091461069e57600080fd5b80638456cb591461061257806393f1a40b1461061a57806399d7e84a1461066f57600080fd5b80637a994efd1161018c5780637a994efd146105d65780637b51a776146105df57806381bdf98c146105f257600080fd5b806378d28781146105a757806378db4c34146105ba57806378ed5d1f146105c357600080fd5b8063441a3e701161028157806361d027b31161022a5780636605bfda116102045780636605bfda1461056157806369b02128146105745780636ebb16d3146105815780637577e2c31461059457600080fd5b806361d027b314610526578063630b5ba11461054657806364482f791461054e57600080fd5b806357b46f881161025b57806357b46f88146104c65780635a7894181461050b5780635c975abb1461051e57600080fd5b8063441a3e701461044957806351eb05a61461045c5780635312ea8e146104b357600080fd5b80631526fe27116102e3578063372c12b1116102bd578063372c12b1146104055780633e0ca005146104385780633f4ba83a1461044157600080fd5b80631526fe27146103a9578063186d3830146103e6578063325d186d146103f957600080fd5b8063081e3eda11610314578063081e3eda1461037f5780630bb844bc146103875780630ee520581461039a57600080fd5b8063033186e81461033b578063041a84c9146103615780630433985b14610376575b600080fd5b61034e6103493660046148a7565b61078a565b6040519081526020015b60405180910390f35b61037461036f3660046148d3565b6107e0565b005b61034e600b5481565b60045461034e565b610374610395366004614908565b610d1e565b61034e670de0b6b3a764000081565b6103bc6103b7366004614925565b610f99565b6040805195865260208601949094529284019190915260608301521515608082015260a001610358565b6103746103f436600461498a565b610fdd565b61034e64e8d4a5100081565b610428610413366004614908565b60076020526000908152604090205460ff1681565b6040519015158152602001610358565b61034e600a5481565b6103746111aa565b6103746104573660046149f6565b6111e5565b61046f61046a366004614925565b6114ac565b6040516103589190600060a0820190508251825260208301516020830152604083015160408301526060830151606083015260808301511515608083015292915050565b6103746104c1366004614925565b6117ff565b6000546104e69073ffffffffffffffffffffffffffffffffffffffff1681565b60405173ffffffffffffffffffffffffffffffffffffffff9091168152602001610358565b61034e610519366004614a26565b6119a9565b6104286119ff565b6001546104e69073ffffffffffffffffffffffffffffffffffffffff1681565b610374611a0e565b61037461055c366004614a43565b611aa6565b61037461056f366004614908565b611c91565b61034e6501d1a94a200081565b61042861058f366004614b1e565b611d8d565b6103746105a2366004614bb2565b611d98565b61034e6105b5366004614c11565b611e5b565b61034e600d5481565b6104e66105d1366004614925565b611ff2565b61034e600c5481565b6103746105ed366004614c41565b612029565b6002546104e69073ffffffffffffffffffffffffffffffffffffffff1681565b6103746122f2565b610654610628366004614c11565b600660209081526000928352604080842090915290825290208054600182015460029092015490919083565b60408051938452602084019290925290820152606001610358565b61034e60095481565b610374610686366004614908565b61232b565b610374610699366004614cec565b61251c565b6103746106ac366004614d2d565b612789565b61034e68022b1c8c1227a0000081565b61034e60085481565b6103746106d836600461498a565b61296c565b6103746106eb366004614d5b565b612b2b565b6103746106fe366004614d5b565b612b94565b6003546104e69073ffffffffffffffffffffffffffffffffffffffff1681565b6103746107313660046149f6565b612bfd565b6103746107443660046149f6565b61305c565b610374610757366004614a26565b6131de565b61037461076a366004614de0565b6132fe565b61034e613409565b610428610785366004614908565b613432565b600081815260066020908152604080832073ffffffffffffffffffffffffffffffffffffffff8616845290915281206002015464e8d4a5100081116107d45764e8d4a510006107d6565b805b9150505b92915050565b7fd370c446e45a741b5961ac03f05d57d1a5768014420ffedc28dbab09fedaee595460020361083b576040517f3ee5aeb500000000000000000000000000000000000000000000000000000000815260040160405180910390fd5b61086460027fd370c446e45a741b5961ac03f05d57d1a5768014420ffedc28dbab09fedaee5955565b60035473ffffffffffffffffffffffffffffffffffffffff163314610910576040517f08c379a000000000000000000000000000000000000000000000000000000000815260206004820152602960248201527f4f776e61626c653a2063616c6c6572206973206e6f742074686520626f6f737460448201527f20636f6e7472616374000000000000000000000000000000000000000000000060648201526084015b60405180910390fd5b73ffffffffffffffffffffffffffffffffffffffff83166109b3576040517f08c379a000000000000000000000000000000000000000000000000000000000815260206004820152602a60248201527f4d6173746572436865663a2054686520757365722061646472657373206d757360448201527f742062652076616c6964000000000000000000000000000000000000000000006064820152608401610907565b600482815481106109c6576109c6614e77565b600091825260209091206004600590920201015460ff16610a69576040517f08c379a000000000000000000000000000000000000000000000000000000000815260206004820152602e60248201527f4d6173746572436865663a204f6e6c7920726567756c6172206661726d20636f60448201527f756c6420626520626f6f737465640000000000000000000000000000000000006064820152608401610907565b64e8d4a510008110158015610a8457506501d1a94a20008111155b610b10576040517f08c379a000000000000000000000000000000000000000000000000000000000815260206004820152602860248201527f4d6173746572436865663a20496e76616c6964206e657720626f6f7374206d7560448201527f6c7469706c6965720000000000000000000000000000000000000000000000006064820152608401610907565b6000610b1b836114ac565b600084815260066020908152604080832073ffffffffffffffffffffffffffffffffffffffff891684529091528120919250610b57868661078a565b9050610b6486868361347f565b610ba4670de0b6b3a7640000610b988560000151610b9e64e8d4a51000610b988a896000015461355990919063ffffffff16565b9061356c565b90613559565b60018301558154610bf090610bc49064e8d4a5100090610b989088613559565b8354610bea90610bdf9064e8d4a5100090610b989087613559565b606087015190613578565b90613584565b60608401526004805484919087908110610c0c57610c0c614e77565b600091825260208083208451600593909302019182558381015160018301556040808501516002808501919091556060808701516003860155608090960151600490940180547fffffffffffffffffffffffffffffffffffffffffffffffffffffffffffffff0016941515949094179093558984526006825280842073ffffffffffffffffffffffffffffffffffffffff8c1680865290835293819020909201889055815189815290810185905290810187905290917f01abd62439b64f6c5dab6f94d56099495bd0c094f9c21f98f4d3562a21edb4ba910160405180910390a2505050610d1960017fd370c446e45a741b5961ac03f05d57d1a5768014420ffedc28dbab09fedaee5955565b505050565b7fb53127684a568b3173ae13b9f8a6016e243e63b6e8ee1178d6a717850b5d61035473ffffffffffffffffffffffffffffffffffffffff163373ffffffffffffffffffffffffffffffffffffffff1614610dd4576040517f08c379a000000000000000000000000000000000000000000000000000000000815260206004820152600e60248201527f4e4f545f415554484f52495a45440000000000000000000000000000000000006044820152606401610907565b73ffffffffffffffffffffffffffffffffffffffff8116610e77576040517f08c379a000000000000000000000000000000000000000000000000000000000815260206004820152602c60248201527f4d6173746572436865663a204275726e2061646d696e2061646472657373206d60448201527f7573742062652076616c696400000000000000000000000000000000000000006064820152608401610907565b60025473ffffffffffffffffffffffffffffffffffffffff90811690821603610f22576040517f08c379a000000000000000000000000000000000000000000000000000000000815260206004820152603f60248201527f4d6173746572436865663a204275726e2061646d696e2061646472657373206960448201527f73207468652073616d6520776974682063757272656e742061646472657373006064820152608401610907565b6002805473ffffffffffffffffffffffffffffffffffffffff8381167fffffffffffffffffffffffff0000000000000000000000000000000000000000831681179093556040519116919082907fd146fe330fdddf682413850a35b28edfccd4c4b53cfee802fd24950de5be1dbe90600090a35050565b60048181548110610fa957600080fd5b6000918252602090912060059091020180546001820154600283015460038401546004909401549294509092909160ff1685565b6110067ff988e4fb62b8e14f4820fed03192306ddf4d7dbfa215595ba1c6ba4b76b369ee613590565b80156111465782811461109b576040517f08c379a000000000000000000000000000000000000000000000000000000000815260206004820152602360248201527f53696d706c65426c61636b6c6973743a204e6f7420656e6f756768207265617360448201527f6f6e7300000000000000000000000000000000000000000000000000000000006064820152608401610907565b60005b838110156111405761112e8585838181106110bb576110bb614e77565b90506020020160208101906110d09190614908565b8484848181106110e2576110e2614e77565b90506020028101906110f49190614ea6565b8080601f01602080910402602001604051908101604052809392919081815260200183838082843760009201919091525061359a92505050565b8061113881614f3a565b91505061109e565b506111a4565b60005b838110156111a25761119085858381811061116657611166614e77565b905060200201602081019061117b9190614908565b6040518060200160405280600081525061359a565b8061119a81614f3a565b915050611149565b505b50505050565b6111d37f356a809dfdea9198dd76fb76bf6d403ecf13ea675eb89e1eda2db2c4a4676a26613590565b6111db6136ab565b6111e3613749565b565b7fd370c446e45a741b5961ac03f05d57d1a5768014420ffedc28dbab09fedaee5954600203611240576040517f3ee5aeb500000000000000000000000000000000000000000000000000000000815260040160405180910390fd5b61126960027fd370c446e45a741b5961ac03f05d57d1a5768014420ffedc28dbab09fedaee5955565b6112716137c6565b61127a33613865565b6000611285836114ac565b6000848152600660209081526040808320338452909152902080549192509083111561130d576040517f08c379a000000000000000000000000000000000000000000000000000000000815260206004820152601660248201527f77697468647261773a20496e73756666696369656e74000000000000000000006044820152606401610907565b6000611319338661078a565b905061132633868361347f565b83156113815781546113389085613578565b826000018190555061138133856005888154811061135857611358614e77565b60009182526020909120015473ffffffffffffffffffffffffffffffffffffffff16919061386e565b6113b5670de0b6b3a7640000610b988560000151610b9e64e8d4a51000610b9887896000015461355990919063ffffffff16565b60018301556114036113d064e8d4a51000610b988785613559565b600487815481106113e3576113e3614e77565b90600052602060002090600502016003015461357890919063ffffffff16565b6004868154811061141657611416614e77565b906000526020600020906005020160030181905550843373ffffffffffffffffffffffffffffffffffffffff167ff279e6a1f5e320cca91135676d9cb6e44ca8a08c0b88342bcdb1144f6511b5688660405161147491815260200190565b60405180910390a35050506114a860017fd370c446e45a741b5961ac03f05d57d1a5768014420ffedc28dbab09fedaee5955565b5050565b6114e06040518060a00160405280600081526020016000815260200160008152602001600081526020016000151581525090565b600482815481106114f3576114f3614e77565b60009182526020918290206040805160a0810182526005909302909101805483526001810154938301849052600281015491830191909152600381015460608301526004015460ff161515608082015291504311156117fa576060810151608082015160009061156557600954611569565b6008545b905060008211801561157b5750600081115b1561172657600061159984602001514361357890919063ffffffff16565b905060006115c083610b988760400151610b9e6115b98a608001516119a9565b8790613559565b90506115e36115db85610b9884670de0b6b3a7640000613559565b865190613584565b855260005460015473ffffffffffffffffffffffffffffffffffffffff918216916340c10f19911661161684600a61356c565b6040517fffffffff0000000000000000000000000000000000000000000000000000000060e085901b16815273ffffffffffffffffffffffffffffffffffffffff90921660048301526024820152604401600060405180830381600087803b15801561168157600080fd5b505af1158015611695573d6000803e3d6000fd5b50506000546040517f40c10f190000000000000000000000000000000000000000000000000000000081523060048201526024810185905273ffffffffffffffffffffffffffffffffffffffff90911692506340c10f199150604401600060405180830381600087803b15801561170b57600080fd5b505af115801561171f573d6000803e3d6000fd5b5050505050505b436020840152600480548491908690811061174357611743614e77565b600091825260209182902083516005929092020190815582820151600182015560408084015160028301556060808501516003840155608090940151600490920180547fffffffffffffffffffffffffffffffffffffffffffffffffffffffffffffff00169215159290921790915585820151865182519182529281018690529081019190915285917f3be3541fc42237d611b30329040bfa4569541d156560acdbbae57640d20b8f46910160405180910390a250505b919050565b7fd370c446e45a741b5961ac03f05d57d1a5768014420ffedc28dbab09fedaee595460020361185a576040517f3ee5aeb500000000000000000000000000000000000000000000000000000000815260040160405180910390fd5b61188360027fd370c446e45a741b5961ac03f05d57d1a5768014420ffedc28dbab09fedaee5955565b61188b6137c6565b61189433613865565b6000600482815481106118a9576118a9614e77565b6000918252602080832085845260068252604080852033808752935284208054858255600182018690556005909402909101945092906118ff9064e8d4a5100090610b98906118f8908961078a565b8590613559565b905080846003015411611913576000611922565b60038401546119229082613578565b846003018190555061194233836005888154811061135857611358614e77565b604051828152859033907fbb757047c2b5f3974fe26b7c10f732e7bce710b0952a71082702781e62ae05959060200160405180910390a3505050506119a660017fd370c446e45a741b5961ac03f05d57d1a5768014420ffedc28dbab09fedaee5955565b50565b600081156119d8576107da64e8d4a51000610b98600b5468022b1c8c1227a0000061355990919063ffffffff16565b6107da64e8d4a51000610b98600c5468022b1c8c1227a0000061355990919063ffffffff16565b6000611a09613942565b905090565b60045460005b818110156114a857600060048281548110611a3157611a31614e77565b60009182526020918290206040805160a08101825260059093029091018054835260018101549383019390935260028301549082018190526003830154606083015260049092015460ff1615156080820152915015611a9557611a93826114ac565b505b50611a9f81614f3a565b9050611a14565b7fb53127684a568b3173ae13b9f8a6016e243e63b6e8ee1178d6a717850b5d61035473ffffffffffffffffffffffffffffffffffffffff163373ffffffffffffffffffffffffffffffffffffffff1614611b5c576040517f08c379a000000000000000000000000000000000000000000000000000000000815260206004820152600e60248201527f4e4f545f415554484f52495a45440000000000000000000000000000000000006044820152606401610907565b611b65836114ac565b508015611b7457611b74611a0e565b60048381548110611b8757611b87614e77565b600091825260209091206004600590920201015460ff1615611be857611be082610bea60048681548110611bbd57611bbd614e77565b90600052602060002090600502016002015460085461357890919063ffffffff16565b600855611c29565b611c2582610bea60048681548110611c0257611c02614e77565b90600052602060002090600502016002015460095461357890919063ffffffff16565b6009555b8160048481548110611c3d57611c3d614e77565b906000526020600020906005020160020181905550827fc0cfd54d2de2b55f1e6e108d3ec53ff0a1abe6055401d32c61e9433b747ef9f883604051611c8491815260200190565b60405180910390a2505050565b60015473ffffffffffffffffffffffffffffffffffffffff163314611d12576040517f08c379a000000000000000000000000000000000000000000000000000000000815260206004820152600960248201527f6465763a207775743f00000000000000000000000000000000000000000000006044820152606401610907565b600180547fffffffffffffffffffffffff00000000000000000000000000000000000000001673ffffffffffffffffffffffffffffffffffffffff831690811790915560405190815233907f61885cdba916be748ff3e3f6f15e4206153b8ea3b7acabade9d04b4063a835109060200160405180910390a250565b60006107da8261396f565b7fb53127684a568b3173ae13b9f8a6016e243e63b6e8ee1178d6a717850b5d61035473ffffffffffffffffffffffffffffffffffffffff163373ffffffffffffffffffffffffffffffffffffffff1614611e4e576040517f08c379a000000000000000000000000000000000000000000000000000000000815260206004820152600e60248201527f4e4f545f415554484f52495a45440000000000000000000000000000000000006044820152606401610907565b6111a28585858585613a0c565b60008060048481548110611e7157611e71614e77565b600091825260208083206040805160a081018252600590940290910180548452600180820154858501908152600280840154878601526003840154606080890191825260049095015460ff16151560808901528c89526006875285892073ffffffffffffffffffffffffffffffffffffffff8d168a528752978590208551948501865280548552928301549584019590955293015491810191909152825193519151929450929143118015611f2557508015155b15611f9e576000611f4385602001514361357890919063ffffffff16565b90506000611f778660800151611f5b57600954611f5f565b6008545b610b988860400151610b9e6115b98b608001516119a9565b9050611f99611f9284610b9884670de0b6b3a7640000613559565b8590613584565b935050505b6000611fbe64e8d4a51000610b98611fb68a8c61078a565b875190613559565b6020850151909150611fe690611fe0670de0b6b3a7640000610b988588613559565b90613578565b98975050505050505050565b6005818154811061200257600080fd5b60009182526020909120015473ffffffffffffffffffffffffffffffffffffffff16905081565b7f0de7f2b0af5ab1aa4eca2b133cdee828bdcfefa98e4927fa304b2ad002ca6eb354610100900460ff161580801561208757507f0de7f2b0af5ab1aa4eca2b133cdee828bdcfefa98e4927fa304b2ad002ca6eb354600160ff909116105b806120a65750303b1580156120a6575061209f613d77565b60ff166001145b156122b8576120b56001613d9f565b8015612107577f0de7f2b0af5ab1aa4eca2b133cdee828bdcfefa98e4927fa304b2ad002ca6eb380547fffffffffffffffffffffffffffffffffffffffffffffffffffffffffffff00ff166101001790555b6000805473ffffffffffffffffffffffffffffffffffffffff8089167fffffffffffffffffffffffff00000000000000000000000000000000000000009283161783556001805489831690841617815560028054928916929093169190911790915564e651151b55600a556402838ff4aa600b55600c55825b808210156122275761221c85858481811061219d5761219d614e77565b905060800201602001358686858181106121b9576121b9614e77565b6121cf9260206080909202019081019150614908565b8787868181106121e1576121e1614e77565b90506080020160600160208101906121f99190614a26565b88888781811061220b5761220b614e77565b905060800201604001356000613a0c565b816001019150612180565b61222f613749565b505080156122b3577f0de7f2b0af5ab1aa4eca2b133cdee828bdcfefa98e4927fa304b2ad002ca6eb380547fffffffffffffffffffffffffffffffffffffffffffffffffffffffffffff00ff169055604051600181527f7f26b83ff96e1f2b6a682f133852f6798a09c465da95921460cefb38474024989060200160405180910390a15b6122ea565b6040517f5d99ebd200000000000000000000000000000000000000000000000000000000815260040160405180910390fd5b505050505050565b61231b7f356a809dfdea9198dd76fb76bf6d403ecf13ea675eb89e1eda2db2c4a4676a26613590565b6123236137c6565b6111e3613e57565b7fb53127684a568b3173ae13b9f8a6016e243e63b6e8ee1178d6a717850b5d61035473ffffffffffffffffffffffffffffffffffffffff163373ffffffffffffffffffffffffffffffffffffffff16146123e1576040517f08c379a000000000000000000000000000000000000000000000000000000000815260206004820152600e60248201527f4e4f545f415554484f52495a45440000000000000000000000000000000000006044820152606401610907565b73ffffffffffffffffffffffffffffffffffffffff811615801590612421575060035473ffffffffffffffffffffffffffffffffffffffff828116911614155b6124ad576040517f08c379a000000000000000000000000000000000000000000000000000000000815260206004820152603460248201527f4d6173746572436865663a204e657720626f6f737420636f6e7472616374206160448201527f646472657373206d7573742062652076616c69640000000000000000000000006064820152608401610907565b600380547fffffffffffffffffffffffff00000000000000000000000000000000000000001673ffffffffffffffffffffffffffffffffffffffff83169081179091556040517f4c0c07d0b548b824a1b998eb4d11fccf1cfbc1e47edcdb309970ba88315eb30390600090a250565b7fb53127684a568b3173ae13b9f8a6016e243e63b6e8ee1178d6a717850b5d61035473ffffffffffffffffffffffffffffffffffffffff163373ffffffffffffffffffffffffffffffffffffffff16146125d2576040517f08c379a000000000000000000000000000000000000000000000000000000000815260206004820152600e60248201527f4e4f545f415554484f52495a45440000000000000000000000000000000000006044820152606401610907565b6000841180156125e25750600083115b80156125ee5750600082115b61267a576040517f08c379a000000000000000000000000000000000000000000000000000000000815260206004820152602d60248201527f4d6173746572436865663a204b737761702072617465206d757374206265206760448201527f726561746572207468616e2030000000000000000000000000000000000000006064820152608401610907565b64e8d4a5100061268e83610bea8787613584565b1461271b576040517f08c379a000000000000000000000000000000000000000000000000000000000815260206004820152602360248201527f4d6173746572436865663a20546f74616c2072617465206d757374206265203160448201527f65313200000000000000000000000000000000000000000000000000000000006064820152608401610907565b801561272957612729611a0e565b61273360006131de565b600a849055600b839055600c82905560408051858152602081018590529081018390527fae2d2e7d1ae84564fc72227253ce0f36a007209f7fd5ec414dea80e5af2fb5b09060600160405180910390a150505050565b7fb53127684a568b3173ae13b9f8a6016e243e63b6e8ee1178d6a717850b5d61035473ffffffffffffffffffffffffffffffffffffffff163373ffffffffffffffffffffffffffffffffffffffff161461283f576040517f08c379a000000000000000000000000000000000000000000000000000000000815260206004820152600e60248201527f4e4f545f415554484f52495a45440000000000000000000000000000000000006044820152606401610907565b73ffffffffffffffffffffffffffffffffffffffff82166128e2576040517f08c379a000000000000000000000000000000000000000000000000000000000815260206004820152603060248201527f4d6173746572436865663a20546865207768697465206c69737420616464726560448201527f7373206d7573742062652076616c6964000000000000000000000000000000006064820152608401610907565b73ffffffffffffffffffffffffffffffffffffffff821660008181526007602090815260409182902080547fffffffffffffffffffffffffffffffffffffffffffffffffffffffffffffff001685151590811790915591519182527fc551bbb22d0406dbfb8b6b7740cc521bcf44e1106029cf899c19b6a8e4c99d51910160405180910390a25050565b6129957ff988e4fb62b8e14f4820fed03192306ddf4d7dbfa215595ba1c6ba4b76b369ee613590565b8015612acf57828114612a2a576040517f08c379a000000000000000000000000000000000000000000000000000000000815260206004820152602360248201527f53696d706c65426c61636b6c6973743a204e6f7420656e6f756768207265617360448201527f6f6e7300000000000000000000000000000000000000000000000000000000006064820152608401610907565b60005b8381101561114057612abd858583818110612a4a57612a4a614e77565b9050602002016020810190612a5f9190614908565b848484818110612a7157612a71614e77565b9050602002810190612a839190614ea6565b8080601f016020809104026020016040519081016040528093929190818152602001838380828437600092019190915250613ed192505050565b80612ac781614f3a565b915050612a2d565b60005b838110156111a257612b19858583818110612aef57612aef614e77565b9050602002016020810190612b049190614908565b60405180602001604052806000815250613ed1565b80612b2381614f3a565b915050612ad2565b612b547ff988e4fb62b8e14f4820fed03192306ddf4d7dbfa215595ba1c6ba4b76b369ee613590565b610d198383838080601f01602080910402602001604051908101604052809392919081815260200183838082843760009201919091525061359a92505050565b612bbd7ff988e4fb62b8e14f4820fed03192306ddf4d7dbfa215595ba1c6ba4b76b369ee613590565b610d198383838080601f016020809104026020016040519081016040528093929190818152602001838380828437600092019190915250613ed192505050565b7fd370c446e45a741b5961ac03f05d57d1a5768014420ffedc28dbab09fedaee5954600203612c58576040517f3ee5aeb500000000000000000000000000000000000000000000000000000000815260040160405180910390fd5b612c8160027fd370c446e45a741b5961ac03f05d57d1a5768014420ffedc28dbab09fedaee5955565b612c896137c6565b612c9233613865565b6000612c9d836114ac565b6000848152600660209081526040808320338452909152902060808201519192509080612cd957503360009081526007602052604090205460ff165b612d6757604080517f08c379a00000000000000000000000000000000000000000000000000000000081526020600482015260248101919091527f4d6173746572436865663a205468652061646472657373206973206e6f74206160448201527f7661696c61626c6520746f206465706f73697420696e207468697320706f6f6c6064820152608401610907565b6000612d73338661078a565b825490915015612d8857612d8833868361347f565b8315612f6e57600060058681548110612da357612da3614e77565b6000918252602090912001546040517f70a0823100000000000000000000000000000000000000000000000000000000815230600482015273ffffffffffffffffffffffffffffffffffffffff909116906370a0823190602401602060405180830381865afa158015612e1a573d6000803e3d6000fd5b505050506040513d601f19601f82011682018060405250810190612e3e9190614f72565b9050612e8333308760058a81548110612e5957612e59614e77565b60009182526020909120015473ffffffffffffffffffffffffffffffffffffffff16929190613fe4565b612f358160058881548110612e9a57612e9a614e77565b6000918252602090912001546040517f70a0823100000000000000000000000000000000000000000000000000000000815230600482015273ffffffffffffffffffffffffffffffffffffffff909116906370a0823190602401602060405180830381865afa158015612f11573d6000803e3d6000fd5b505050506040513d601f19601f82011682018060405250810190611fe09190614f72565b8354909550612f449086613584565b8355612f67612f5c64e8d4a51000610b988886613559565b606086015190613584565b6060850152505b612fa2670de0b6b3a7640000610b988560000151610b9e64e8d4a51000610b9887896000015461355990919063ffffffff16565b82600101819055508260048681548110612fbe57612fbe614e77565b6000918252602091829020835160059290920201908155828201516001820155604080840151600283015560608401516003830155608090930151600490910180547fffffffffffffffffffffffffffffffffffffffffffffffffffffffffffffff00169115159190911790559051858152869133917f90890809c654f11d6e72a28fa60149770a0d11ec6c92319d6ceb2bb0a4ea1a159101611474565b7fb53127684a568b3173ae13b9f8a6016e243e63b6e8ee1178d6a717850b5d61035473ffffffffffffffffffffffffffffffffffffffff163373ffffffffffffffffffffffffffffffffffffffff1614613112576040517f08c379a000000000000000000000000000000000000000000000000000000000815260206004820152600e60248201527f4e4f545f415554484f52495a45440000000000000000000000000000000000006044820152606401610907565b60006004838154811061312757613127614e77565b9060005260206000209060050201600101549050438111801561314a5750438210155b6131b0576040517f08c379a000000000000000000000000000000000000000000000000000000000815260206004820152601460248201527f43616e2774206d6f6469667920686973746f72790000000000000000000000006044820152606401610907565b81600484815481106131c4576131c4614e77565b906000526020600020906005020160010181905550505050565b7fb53127684a568b3173ae13b9f8a6016e243e63b6e8ee1178d6a717850b5d61035473ffffffffffffffffffffffffffffffffffffffff163373ffffffffffffffffffffffffffffffffffffffff1614613294576040517f08c379a000000000000000000000000000000000000000000000000000000000815260206004820152600e60248201527f4e4f545f415554484f52495a45440000000000000000000000000000000000006044820152606401610907565b80156132a2576132a2611a0e565b60006132b9600d544361357890919063ffffffff16565b905060006132cf6132c8613409565b8390613559565b6002549091506132f59073ffffffffffffffffffffffffffffffffffffffff1682614042565b505043600d5550565b7fb53127684a568b3173ae13b9f8a6016e243e63b6e8ee1178d6a717850b5d61035473ffffffffffffffffffffffffffffffffffffffff163373ffffffffffffffffffffffffffffffffffffffff16146133b4576040517f08c379a000000000000000000000000000000000000000000000000000000000815260206004820152600e60248201527f4e4f545f415554484f52495a45440000000000000000000000000000000000006044820152606401610907565b806000036133ca576133c74360c8614f8b565b90505b60005b8251811015610d19576133f98382815181106133eb576133eb614e77565b60200260200101518361305c565b61340281614f3a565b90506133cd565b6000611a0964e8d4a51000610b98600a5468022b1c8c1227a0000061355990919063ffffffff16565b73ffffffffffffffffffffffffffffffffffffffff811660009081527fdd021e813d5056b401d30ba505d211a2ca2652076f58ad407a75764b92ed7d9d602052604081205460ff166107da565b600082815260066020908152604080832073ffffffffffffffffffffffffffffffffffffffff871684528252808320815160608101835281548082526001830154948201949094526002909101549181019190915291906134eb9064e8d4a5100090610b989086613559565b90506000613529670de0b6b3a7640000610b986004888154811061351157613511614e77565b60009182526020909120600590910201548590613559565b9050600061354484602001518361357890919063ffffffff16565b90506135508782614042565b50505050505050565b60006135658284614f9e565b9392505050565b60006135658284614fb5565b60006135658284614ff0565b60006135658284614f8b565b6119a6813361410d565b73ffffffffffffffffffffffffffffffffffffffff821660009081527fdd021e813d5056b401d30ba505d211a2ca2652076f58ad407a75764b92ed7d9d602052604090205460ff16156114a85773ffffffffffffffffffffffffffffffffffffffff821660009081527fdd021e813d5056b401d30ba505d211a2ca2652076f58ad407a75764b92ed7d9d60205260409081902080547fffffffffffffffffffffffffffffffffffffffffffffffffffffffffffffff001690555161365f908290615027565b6040519081900381209073ffffffffffffffffffffffffffffffffffffffff8416907fe4e3c0e67592981f9042a3df81ea0ee0dfb06be469efdbd2bfc674ab37ab62fe90600090a35050565b6136b3613942565b806136e357506136e37fda6fac9f81a22bb02ed26455dcee2a5f2434c8a3377a2cc986478052c1594f9e336141b6565b6111e3576040517f08c379a000000000000000000000000000000000000000000000000000000000815260206004820152601460248201527f5061757361626c653a206e6f74207061757365640000000000000000000000006044820152606401610907565b7fb65939979d77055fe20d21bcb90b95461947bffa39f3588194f5015117626ea780547fffffffffffffffffffffffffffffffffffffffffffffffffffffffffffffff001690556040513381527f5db9ee0a495bf2e6ff9c91a7834c1ba4fdd244a5e8aa4e537bd38aeae4b073aa906020015b60405180910390a1565b6137ce613942565b15806137ff57506137ff7fda6fac9f81a22bb02ed26455dcee2a5f2434c8a3377a2cc986478052c1594f9e336141b6565b6111e3576040517f08c379a000000000000000000000000000000000000000000000000000000000815260206004820152601060248201527f5061757361626c653a20706175736564000000000000000000000000000000006044820152606401610907565b6119a6816142a9565b60405173ffffffffffffffffffffffffffffffffffffffff8316602482015260448101829052610d199084907fa9059cbb00000000000000000000000000000000000000000000000000000000906064015b604080517fffffffffffffffffffffffffffffffffffffffffffffffffffffffffffffffe08184030181529190526020810180517bffffffffffffffffffffffffffffffffffffffffffffffffffffffff167fffffffff0000000000000000000000000000000000000000000000000000000090931692909217909152614327565b60007fb65939979d77055fe20d21bcb90b95461947bffa39f3588194f5015117626ea75b5460ff16919050565b6000805b8251811015613a03576139e383828151811061399157613991614e77565b602002602001015173ffffffffffffffffffffffffffffffffffffffff1660009081527fdd021e813d5056b401d30ba505d211a2ca2652076f58ad407a75764b92ed7d9d602052604090205460ff1690565b156139f15750600192915050565b806139fb81614f3a565b915050613973565b50600092915050565b6040517f70a0823100000000000000000000000000000000000000000000000000000000815230600482015260009073ffffffffffffffffffffffffffffffffffffffff8616906370a0823190602401602060405180830381865afa158015613a79573d6000803e3d6000fd5b505050506040513d601f19601f82011682018060405250810190613a9d9190614f72565b1015613b05576040517f08c379a000000000000000000000000000000000000000000000000000000000815260206004820152601160248201527f4e6f6e6520424550323020746f6b656e730000000000000000000000000000006044820152606401610907565b60005473ffffffffffffffffffffffffffffffffffffffff90811690851603613bb0576040517f08c379a000000000000000000000000000000000000000000000000000000000815260206004820152602860248201527f4b5357415020746f6b656e2063616e277420626520616464656420746f20666160448201527f726d20706f6f6c730000000000000000000000000000000000000000000000006064820152608401610907565b8015613bbe57613bbe611a0e565b8215613bd957600854613bd19086613584565b600855613bea565b600954613be69086613584565b6009555b6005805460018101825560009182527f036b6384b5eca791c62761152d0c79bb0604c104a5fb6f4eb0703f3154bb3db00180547fffffffffffffffffffffffff00000000000000000000000000000000000000001673ffffffffffffffffffffffffffffffffffffffff87161790556040805160a0810190915290815260049060208101438511613c8557613c804360c8614f8b565b613c87565b845b8152602080820189905260006040808401829052881515606094850152855460018082018855968352918390208551600593840290910190815592850151838701558401516002830155918301516003820155608090920151600490920180547fffffffffffffffffffffffffffffffffffffffffffffffffffffffffffffff0016921515929092179091555473ffffffffffffffffffffffffffffffffffffffff861691613d369190613578565b6040805188815286151560208201527f18caa0724a26384928efe604ae6ddc99c242548876259770fc88fcb7e719d8fa910160405180910390a35050505050565b60007f0de7f2b0af5ab1aa4eca2b133cdee828bdcfefa98e4927fa304b2ad002ca6eb3613966565b7f0de7f2b0af5ab1aa4eca2b133cdee828bdcfefa98e4927fa304b2ad002ca6eb35460ff808316911610613e04576040517fbfdd178500000000000000000000000000000000000000000000000000000000815260ff82166004820152602401610907565b7f0de7f2b0af5ab1aa4eca2b133cdee828bdcfefa98e4927fa304b2ad002ca6eb380547fffffffffffffffffffffffffffffffffffffffffffffffffffffffffffffff001660ff92909216919091179055565b7fb65939979d77055fe20d21bcb90b95461947bffa39f3588194f5015117626ea780547fffffffffffffffffffffffffffffffffffffffffffffffffffffffffffffff001660011790556040513381527f62e78cea01bee320cd4e420270b5ea74000d11b0c9f74754ebdbfc544b05a258906020016137bc565b73ffffffffffffffffffffffffffffffffffffffff821660009081527fdd021e813d5056b401d30ba505d211a2ca2652076f58ad407a75764b92ed7d9d602052604090205460ff166114a85773ffffffffffffffffffffffffffffffffffffffff821660009081527fdd021e813d5056b401d30ba505d211a2ca2652076f58ad407a75764b92ed7d9d60205260409081902080547fffffffffffffffffffffffffffffffffffffffffffffffffffffffffffffff0016600117905551613f98908290615027565b6040519081900381209073ffffffffffffffffffffffffffffffffffffffff8416907f71ffd5b2f7b305f2f756c161455e2951077ed1951f9ecbee6252949bc1e13c5a90600090a35050565b60405173ffffffffffffffffffffffffffffffffffffffff808516602483015283166044820152606481018290526111a49085907f23b872dd00000000000000000000000000000000000000000000000000000000906084016138c0565b80156114a857600080546040517f70a0823100000000000000000000000000000000000000000000000000000000815230600482015273ffffffffffffffffffffffffffffffffffffffff909116906370a0823190602401602060405180830381865afa1580156140b7573d6000803e3d6000fd5b505050506040513d601f19601f820116820180604052508101906140db9190614f72565b9050818110156140e9578091505b600054610d199073ffffffffffffffffffffffffffffffffffffffff16848461386e565b61411782826141b6565b6114a85761413c8173ffffffffffffffffffffffffffffffffffffffff166014614433565b614147836020614433565b604051602001614158929190615043565b604080517fffffffffffffffffffffffffffffffffffffffffffffffffffffffffffffffe0818403018152908290527f08c379a0000000000000000000000000000000000000000000000000000000008252610907916004016150c4565b60007fffaa26784aca465bf23123375047d80ccb2b41102e02e5c4ef5b5aa00624b2d260008481526020918252604080822073ffffffffffffffffffffffffffffffffffffffff86168352909252205460ff168061356557507fffaa26784aca465bf23123375047d80ccb2b41102e02e5c4ef5b5aa00624b2d2600061426a8560009081527fffaa26784aca465bf23123375047d80ccb2b41102e02e5c4ef5b5aa00624b2d2602052604090206001015490565b81526020808201929092526040908101600090812073ffffffffffffffffffffffffffffffffffffffff8616825290925290205460ff16905092915050565b73ffffffffffffffffffffffffffffffffffffffff811660009081527fdd021e813d5056b401d30ba505d211a2ca2652076f58ad407a75764b92ed7d9d602052604090205460ff16156119a6576143178173ffffffffffffffffffffffffffffffffffffffff166014614433565b6040516020016141589190615115565b6000614389826040518060400160405280602081526020017f5361666545524332303a206c6f772d6c6576656c2063616c6c206661696c65648152508573ffffffffffffffffffffffffffffffffffffffff166146769092919063ffffffff16565b805190915015610d1957808060200190518101906143a79190615181565b610d19576040517f08c379a000000000000000000000000000000000000000000000000000000000815260206004820152602a60248201527f5361666545524332303a204552433230206f7065726174696f6e20646964206e60448201527f6f742073756363656564000000000000000000000000000000000000000000006064820152608401610907565b60606000614442836002614f9e565b61444d906002614f8b565b67ffffffffffffffff81111561446557614465614a7c565b6040519080825280601f01601f19166020018201604052801561448f576020820181803683370190505b5090507f3000000000000000000000000000000000000000000000000000000000000000816000815181106144c6576144c6614e77565b60200101907effffffffffffffffffffffffffffffffffffffffffffffffffffffffffffff1916908160001a9053507f78000000000000000000000000000000000000000000000000000000000000008160018151811061452957614529614e77565b60200101907effffffffffffffffffffffffffffffffffffffffffffffffffffffffffffff1916908160001a9053506000614565846002614f9e565b614570906001614f8b565b90505b600181111561460d577f303132333435363738396162636465660000000000000000000000000000000085600f16601081106145b1576145b1614e77565b1a60f81b8282815181106145c7576145c7614e77565b60200101907effffffffffffffffffffffffffffffffffffffffffffffffffffffffffffff1916908160001a90535060049490941c936146068161519e565b9050614573565b5083156107d4576040517f08c379a000000000000000000000000000000000000000000000000000000000815260206004820181905260248201527f537472696e67733a20686578206c656e67746820696e73756666696369656e746044820152606401610907565b6060614685848460008561468d565b949350505050565b60608247101561471f576040517f08c379a000000000000000000000000000000000000000000000000000000000815260206004820152602660248201527f416464726573733a20696e73756666696369656e742062616c616e636520666f60448201527f722063616c6c00000000000000000000000000000000000000000000000000006064820152608401610907565b6000808673ffffffffffffffffffffffffffffffffffffffff1685876040516147489190615027565b60006040518083038185875af1925050503d8060008114614785576040519150601f19603f3d011682016040523d82523d6000602084013e61478a565b606091505b509150915061479b878383876147a6565b979650505050505050565b6060831561483c5782516000036148355773ffffffffffffffffffffffffffffffffffffffff85163b614835576040517f08c379a000000000000000000000000000000000000000000000000000000000815260206004820152601d60248201527f416464726573733a2063616c6c20746f206e6f6e2d636f6e74726163740000006044820152606401610907565b5081614685565b61468583838151156148515781518083602001fd5b806040517f08c379a000000000000000000000000000000000000000000000000000000000815260040161090791906150c4565b73ffffffffffffffffffffffffffffffffffffffff811681146119a657600080fd5b600080604083850312156148ba57600080fd5b82356148c581614885565b946020939093013593505050565b6000806000606084860312156148e857600080fd5b83356148f381614885565b95602085013595506040909401359392505050565b60006020828403121561491a57600080fd5b81356107d481614885565b60006020828403121561493757600080fd5b5035919050565b60008083601f84011261495057600080fd5b50813567ffffffffffffffff81111561496857600080fd5b6020830191508360208260051b850101111561498357600080fd5b9250929050565b600080600080604085870312156149a057600080fd5b843567ffffffffffffffff808211156149b857600080fd5b6149c48883890161493e565b909650945060208701359150808211156149dd57600080fd5b506149ea8782880161493e565b95989497509550505050565b60008060408385031215614a0957600080fd5b50508035926020909101359150565b80151581146119a657600080fd5b600060208284031215614a3857600080fd5b81356107d481614a18565b600080600060608486031215614a5857600080fd5b83359250602084013591506040840135614a7181614a18565b809150509250925092565b7f4e487b7100000000000000000000000000000000000000000000000000000000600052604160045260246000fd5b604051601f82017fffffffffffffffffffffffffffffffffffffffffffffffffffffffffffffffe016810167ffffffffffffffff81118282101715614af257614af2614a7c565b604052919050565b600067ffffffffffffffff821115614b1457614b14614a7c565b5060051b60200190565b60006020808385031215614b3157600080fd5b823567ffffffffffffffff811115614b4857600080fd5b8301601f81018513614b5957600080fd5b8035614b6c614b6782614afa565b614aab565b81815260059190911b82018301908381019087831115614b8b57600080fd5b928401925b8284101561479b578335614ba381614885565b82529284019290840190614b90565b600080600080600060a08688031215614bca57600080fd5b853594506020860135614bdc81614885565b93506040860135614bec81614a18565b9250606086013591506080860135614c0381614a18565b809150509295509295909350565b60008060408385031215614c2457600080fd5b823591506020830135614c3681614885565b809150509250929050565b600080600080600060808688031215614c5957600080fd5b8535614c6481614885565b94506020860135614c7481614885565b93506040860135614c8481614885565b9250606086013567ffffffffffffffff80821115614ca157600080fd5b818801915088601f830112614cb557600080fd5b813581811115614cc457600080fd5b8960208260071b8501011115614cd957600080fd5b9699959850939650602001949392505050565b60008060008060808587031215614d0257600080fd5b8435935060208501359250604085013591506060850135614d2281614a18565b939692955090935050565b60008060408385031215614d4057600080fd5b8235614d4b81614885565b91506020830135614c3681614a18565b600080600060408486031215614d7057600080fd5b8335614d7b81614885565b9250602084013567ffffffffffffffff80821115614d9857600080fd5b818601915086601f830112614dac57600080fd5b813581811115614dbb57600080fd5b876020828501011115614dcd57600080fd5b6020830194508093505050509250925092565b60008060408385031215614df357600080fd5b823567ffffffffffffffff811115614e0a57600080fd5b8301601f81018513614e1b57600080fd5b80356020614e2b614b6783614afa565b82815260059290921b83018101918181019088841115614e4a57600080fd5b938201935b83851015614e6857843582529382019390820190614e4f565b98969091013596505050505050565b7f4e487b7100000000000000000000000000000000000000000000000000000000600052603260045260246000fd5b60008083357fffffffffffffffffffffffffffffffffffffffffffffffffffffffffffffffe1843603018112614edb57600080fd5b83018035915067ffffffffffffffff821115614ef657600080fd5b60200191503681900382131561498357600080fd5b7f4e487b7100000000000000000000000000000000000000000000000000000000600052601160045260246000fd5b60007fffffffffffffffffffffffffffffffffffffffffffffffffffffffffffffffff8203614f6b57614f6b614f0b565b5060010190565b600060208284031215614f8457600080fd5b5051919050565b808201808211156107da576107da614f0b565b80820281158282048414176107da576107da614f0b565b600082614feb577f4e487b7100000000000000000000000000000000000000000000000000000000600052601260045260246000fd5b500490565b818103818111156107da576107da614f0b565b60005b8381101561501e578181015183820152602001615006565b50506000910152565b60008251615039818460208701615003565b9190910192915050565b7f416363657373436f6e74726f6c3a206163636f756e742000000000000000000081526000835161507b816017850160208801615003565b7f206973206d697373696e6720726f6c652000000000000000000000000000000060179184019182015283516150b8816028840160208801615003565b01602801949350505050565b60208152600082518060208401526150e3816040850160208701615003565b601f017fffffffffffffffffffffffffffffffffffffffffffffffffffffffffffffffe0169190910160400192915050565b7f53696d706c65426c61636b6c6973743a206163636f756e74200000000000000081526000825161514d816019850160208701615003565b7f20697320626c61636b6c697374656400000000000000000000000000000000006019939091019283015250602801919050565b60006020828403121561519357600080fd5b81516107d481614a18565b6000816151ad576151ad614f0b565b507fffffffffffffffffffffffffffffffffffffffffffffffffffffffffffffffff019056fea26469706673582212206c2740d9e14526a7b56dc1b554f623af205a7d4ed730690438b6cfd3ec5d69f064736f6c63430008110033",
  "devdoc": {
    "kind": "dev",
    "methods": {
      "add(uint256,address,bool,uint256,bool)": {
        "params": {
          "_allocPoint": "Number of allocation points for the new pool.",
          "_isRegular": "Whether the pool is regular or special. LP farms are always \"regular\". \"Special\" pools are",
          "_lpToken": "Address of the LP BEP-20 token.",
          "_withUpdate": "Whether call \"massUpdatePools\" operation. only for KSWAP distributions within Kyoto Swap products."
        }
      },
      "blacklist(address,string)": {
        "details": "External function to add `account` to the blacklist. WARNING: This function is abstract, to enforce it's implementation          in the final contract. This is important to make sure          the final contraqct's access control mechanism will be used! See {ISimpleBlacklist-blacklist}"
      },
      "blacklist(address[],string[])": {
        "details": "External function to add `account` to the blacklist. WARNING: This function is abstract, to enforce it's implementation          in the final contract. This is important to make sure          the final contraqct's access control mechanism will be used! See {ISimpleBlacklist-blacklist}"
      },
      "burnKswap(bool)": {
        "params": {
          "_withUpdate": "Whether call \"massUpdatePools\" operation."
        }
      },
      "deposit(uint256,uint256)": {
        "params": {
          "_amount": "Amount of LP tokens to deposit.",
          "_pid": "The id of the pool. See `poolInfo`."
        }
      },
      "emergencyWithdraw(uint256)": {
        "params": {
          "_pid": "The id of the pool. See `poolInfo`."
        }
      },
      "getBoostMultiplier(address,uint256)": {
        "params": {
          "_pid": "The pool id.",
          "_user": "The user address."
        }
      },
      "isBlacklisted(address)": {
        "details": "Returns `true` if `account` is blacklisted."
      },
      "isBlacklisted(address[])": {
        "details": "Returns `true` if any address in `accounts` is on the blacklist."
      },
      "kswapPerBlock(bool)": {
        "params": {
          "_isRegular": "If the pool belongs to regular or special."
        }
      },
      "pause()": {
        "details": "Triggers stopped state. Requirements: - The contract must not be paused."
      },
      "paused()": {
        "details": "Returns true if the contract is paused, and false otherwise."
      },
      "pendingKswap(uint256,address)": {
        "params": {
          "_pid": "The id of the pool. See `poolInfo`.",
          "_user": "Address of the user."
        }
      },
      "set(uint256,uint256,bool)": {
        "params": {
          "_allocPoint": "New number of allocation points for the pool.",
          "_pid": "The id of the pool. See `poolInfo`.",
          "_withUpdate": "Whether call \"massUpdatePools\" operation."
        }
      },
      "setPoolLastRewardBlock(uint256,uint256)": {
        "params": {
          "_pid": "The pool id to update.",
          "newLastRewardBlock": "The new value."
        }
      },
      "setPoolLastRewardBlock(uint256[],uint256)": {
        "params": {
          "_pids": "The list of pool ids to update.",
          "newLastRewardBlock": "The new value."
        }
      },
      "unblacklist(address,string)": {
        "details": "External function to remove `account` from the blacklist. WARNING: This function is abstract, to enforce it's implementation          in the final contract. This is important to make sure          the final contraqct's access control mechanism will be used! See {ISimpleBlacklist-unblacklist}"
      },
      "unblacklist(address[],string[])": {
        "details": "External function to add `account` to the blacklist. WARNING: This function is abstract, to enforce it's implementation          in the final contract. This is important to make sure          the final contraqct's access control mechanism will be used! See {ISimpleBlacklist-blacklist}"
      },
      "unpause()": {
        "details": "Returns to normal state. Requirements: - The contract must be paused."
      },
      "updateBoostContract(address)": {
        "params": {
          "_newBoostContract": "The new address for handling all the share boosts."
        }
      },
      "updateBoostMultiplier(address,uint256,uint256)": {
        "params": {
          "_newMultiplier": "New boost multiplier.",
          "_pid": "The pool id for the boost factor updates.",
          "_user": "The user address for boost factor updates."
        }
      },
      "updateBurnAdmin(address)": {
        "params": {
          "_newAdmin": "The new burn admin address."
        }
      },
      "updateKswapRate(uint256,uint256,uint256,bool)": {
        "params": {
          "_burnRate": "The % of KSWAP to burn each block.",
          "_regularFarmRate": "The % of KSWAP to regular pools each block.",
          "_specialFarmRate": "The % of KSWAP to special pools each block.",
          "_withUpdate": "Whether call \"massUpdatePools\" operation."
        }
      },
      "updatePool(uint256)": {
        "params": {
          "_pid": "The id of the pool. See `poolInfo`."
        },
        "returns": {
          "pool": "Returns the pool that was updated."
        }
      },
      "updateWhiteList(address,bool)": {
        "params": {
          "_isValid": "The flag for valid or invalid.",
          "_user": "The address to be updated."
        }
      },
      "withdraw(uint256,uint256)": {
        "params": {
          "_amount": "Amount of LP tokens to withdraw.",
          "_pid": "The id of the pool. See `poolInfo`."
        }
      }
    },
    "version": 1
  },
  "userdoc": {
    "kind": "user",
    "methods": {
      "BOOST_PRECISION()": {
        "notice": "Basic boost factor, none boosted user's boost factor"
      },
      "KSWAP_RATE_TOTAL_PRECISION()": {
        "notice": "total kswap rate = toBurn + toRegular + toSpecial"
      },
      "MASTERCHEF_KSWAP_PER_BLOCK()": {
        "notice": "40 KSWAP per block in MC"
      },
      "MAX_BOOST_PRECISION()": {
        "notice": "Hard limit for maxmium boost factor, it must greater than BOOST_PRECISION"
      },
      "add(uint256,address,bool,uint256,bool)": {
        "notice": "Add a new pool. Can only be called by the owner. DO NOT add the same LP token more than once. Rewards will be messed up if you do."
      },
      "boostContract()": {
        "notice": "The contract handles the share boosts."
      },
      "burnAdmin()": {
        "notice": "The only address can withdraw all the burn KSWAP."
      },
      "burnKswap(bool)": {
        "notice": "Send KSWAP pending for burn to `burnAdmin`."
      },
      "deposit(uint256,uint256)": {
        "notice": "Deposit LP tokens to pool."
      },
      "emergencyWithdraw(uint256)": {
        "notice": "Withdraw without caring about the rewards. EMERGENCY ONLY."
      },
      "getBoostMultiplier(address,uint256)": {
        "notice": "Get user boost multiplier for specific pool id."
      },
      "kswapPerBlock(bool)": {
        "notice": "Calculates and returns the `amount` of KSWAP per block."
      },
      "kswapPerBlockToBurn()": {
        "notice": "Calculates and returns the `amount` of KSWAP per block to burn."
      },
      "kswapRateToBurn()": {
        "notice": "The last block number of KSWAP burn action being executed."
      },
      "lpToken(uint256)": {
        "notice": "Address of the LP token for each MCV2 pool."
      },
      "massUpdatePools()": {
        "notice": "Update kswap reward for all the active pools. Be careful of gas spending!"
      },
      "pendingKswap(uint256,address)": {
        "notice": "View function for checking pending KSWAP rewards."
      },
      "poolInfo(uint256)": {
        "notice": "Info of each MCV2 pool."
      },
      "poolLength()": {
        "notice": "Returns the number of MC pools."
      },
      "set(uint256,uint256,bool)": {
        "notice": "Update the given pool's KSWAP allocation point. Can only be called by the owner."
      },
      "setPoolLastRewardBlock(uint256,uint256)": {
        "notice": "Updates the lastRewardBlock for a pool.         Both the new and old values must be future blocks!         If the new value is 0, it will be set to `block.number + 200`."
      },
      "setPoolLastRewardBlock(uint256[],uint256)": {
        "notice": "Updates the lastRewardBlock for a list of pools.         Both the new and old values must be future blocks!         If the new value is 0, it will be set to `block.number + 200`."
      },
      "setTreasuryAddress(address)": {
        "notice": "Update the treasury address."
      },
      "totalRegularAllocPoint()": {
        "notice": "Total regular allocation points. Must be the sum of all regular pools' allocation points."
      },
      "totalSpecialAllocPoint()": {
        "notice": "Total special allocation points. Must be the sum of all special pools' allocation points."
      },
      "updateBoostContract(address)": {
        "notice": "Update boost contract address and max boost factor."
      },
      "updateBoostMultiplier(address,uint256,uint256)": {
        "notice": "Update user boost factor."
      },
      "updateBurnAdmin(address)": {
        "notice": "Update burn admin address."
      },
      "updateKswapRate(uint256,uint256,uint256,bool)": {
        "notice": "Update the % of KSWAP distributions for burn, regular pools and special pools."
      },
      "updatePool(uint256)": {
        "notice": "Update reward variables for the given pool."
      },
      "updateWhiteList(address,bool)": {
        "notice": "Update whitelisted addresses for special pools."
      },
      "userInfo(uint256,address)": {
        "notice": "Info of each pool user."
      },
      "whiteList(address)": {
        "notice": "The whitelist of addresses allowed to deposit in special pools."
      },
      "withdraw(uint256,uint256)": {
        "notice": "Withdraw LP tokens from pool."
      }
    },
    "version": 1
  },
  "storageLayout": {
    "storage": [
      {
        "astId": 4312,
        "contract": "contracts/MasterChef.sol:MasterChef",
        "label": "kswap",
        "offset": 0,
        "slot": "0",
        "type": "t_contract(IERC20Mintable)6052"
      },
      {
        "astId": 4314,
        "contract": "contracts/MasterChef.sol:MasterChef",
        "label": "treasury",
        "offset": 0,
        "slot": "1",
        "type": "t_address"
      },
      {
        "astId": 4317,
        "contract": "contracts/MasterChef.sol:MasterChef",
        "label": "burnAdmin",
        "offset": 0,
        "slot": "2",
        "type": "t_address"
      },
      {
        "astId": 4320,
        "contract": "contracts/MasterChef.sol:MasterChef",
        "label": "boostContract",
        "offset": 0,
        "slot": "3",
        "type": "t_address"
      },
      {
        "astId": 4325,
        "contract": "contracts/MasterChef.sol:MasterChef",
        "label": "poolInfo",
        "offset": 0,
        "slot": "4",
        "type": "t_array(t_struct(PoolInfo)6074_storage)dyn_storage"
      },
      {
        "astId": 4330,
        "contract": "contracts/MasterChef.sol:MasterChef",
        "label": "lpToken",
        "offset": 0,
        "slot": "5",
        "type": "t_array(t_contract(IERC20)77)dyn_storage"
      },
      {
        "astId": 4338,
        "contract": "contracts/MasterChef.sol:MasterChef",
        "label": "userInfo",
        "offset": 0,
        "slot": "6",
        "type": "t_mapping(t_uint256,t_mapping(t_address,t_struct(UserInfo)6063_storage))"
      },
      {
        "astId": 4343,
        "contract": "contracts/MasterChef.sol:MasterChef",
        "label": "whiteList",
        "offset": 0,
        "slot": "7",
        "type": "t_mapping(t_address,t_bool)"
      },
      {
        "astId": 4346,
        "contract": "contracts/MasterChef.sol:MasterChef",
        "label": "totalRegularAllocPoint",
        "offset": 0,
        "slot": "8",
        "type": "t_uint256"
      },
      {
        "astId": 4349,
        "contract": "contracts/MasterChef.sol:MasterChef",
        "label": "totalSpecialAllocPoint",
        "offset": 0,
        "slot": "9",
        "type": "t_uint256"
      },
      {
        "astId": 4377,
        "contract": "contracts/MasterChef.sol:MasterChef",
        "label": "kswapRateToBurn",
        "offset": 0,
        "slot": "10",
        "type": "t_uint256"
      },
      {
        "astId": 4379,
        "contract": "contracts/MasterChef.sol:MasterChef",
        "label": "kswapRateToRegularFarm",
        "offset": 0,
        "slot": "11",
        "type": "t_uint256"
      },
      {
        "astId": 4381,
        "contract": "contracts/MasterChef.sol:MasterChef",
        "label": "kswapRateToSpecialFarm",
        "offset": 0,
        "slot": "12",
        "type": "t_uint256"
      },
      {
        "astId": 4383,
        "contract": "contracts/MasterChef.sol:MasterChef",
        "label": "lastBurnedBlock",
        "offset": 0,
        "slot": "13",
        "type": "t_uint256"
      }
    ],
    "types": {
      "t_address": {
        "encoding": "inplace",
        "label": "address",
        "numberOfBytes": "20"
      },
      "t_array(t_contract(IERC20)77)dyn_storage": {
        "base": "t_contract(IERC20)77",
        "encoding": "dynamic_array",
        "label": "contract IERC20[]",
        "numberOfBytes": "32"
      },
      "t_array(t_struct(PoolInfo)6074_storage)dyn_storage": {
        "base": "t_struct(PoolInfo)6074_storage",
        "encoding": "dynamic_array",
        "label": "struct IMasterChef.PoolInfo[]",
        "numberOfBytes": "32"
      },
      "t_bool": {
        "encoding": "inplace",
        "label": "bool",
        "numberOfBytes": "1"
      },
      "t_contract(IERC20)77": {
        "encoding": "inplace",
        "label": "contract IERC20",
        "numberOfBytes": "20"
      },
      "t_contract(IERC20Mintable)6052": {
        "encoding": "inplace",
        "label": "contract IERC20Mintable",
        "numberOfBytes": "20"
      },
      "t_mapping(t_address,t_bool)": {
        "encoding": "mapping",
        "key": "t_address",
        "label": "mapping(address => bool)",
        "numberOfBytes": "32",
        "value": "t_bool"
      },
      "t_mapping(t_address,t_struct(UserInfo)6063_storage)": {
        "encoding": "mapping",
        "key": "t_address",
        "label": "mapping(address => struct IMasterChef.UserInfo)",
        "numberOfBytes": "32",
        "value": "t_struct(UserInfo)6063_storage"
      },
      "t_mapping(t_uint256,t_mapping(t_address,t_struct(UserInfo)6063_storage))": {
        "encoding": "mapping",
        "key": "t_uint256",
        "label": "mapping(uint256 => mapping(address => struct IMasterChef.UserInfo))",
        "numberOfBytes": "32",
        "value": "t_mapping(t_address,t_struct(UserInfo)6063_storage)"
      },
      "t_struct(PoolInfo)6074_storage": {
        "encoding": "inplace",
        "label": "struct IMasterChef.PoolInfo",
        "members": [
          {
            "astId": 6065,
            "contract": "contracts/MasterChef.sol:MasterChef",
            "label": "accKswapPerShare",
            "offset": 0,
            "slot": "0",
            "type": "t_uint256"
          },
          {
            "astId": 6067,
            "contract": "contracts/MasterChef.sol:MasterChef",
            "label": "lastRewardBlock",
            "offset": 0,
            "slot": "1",
            "type": "t_uint256"
          },
          {
            "astId": 6069,
            "contract": "contracts/MasterChef.sol:MasterChef",
            "label": "allocPoint",
            "offset": 0,
            "slot": "2",
            "type": "t_uint256"
          },
          {
            "astId": 6071,
            "contract": "contracts/MasterChef.sol:MasterChef",
            "label": "totalBoostedShare",
            "offset": 0,
            "slot": "3",
            "type": "t_uint256"
          },
          {
            "astId": 6073,
            "contract": "contracts/MasterChef.sol:MasterChef",
            "label": "isRegular",
            "offset": 0,
            "slot": "4",
            "type": "t_bool"
          }
        ],
        "numberOfBytes": "160"
      },
      "t_struct(UserInfo)6063_storage": {
        "encoding": "inplace",
        "label": "struct IMasterChef.UserInfo",
        "members": [
          {
            "astId": 6058,
            "contract": "contracts/MasterChef.sol:MasterChef",
            "label": "amount",
            "offset": 0,
            "slot": "0",
            "type": "t_uint256"
          },
          {
            "astId": 6060,
            "contract": "contracts/MasterChef.sol:MasterChef",
            "label": "rewardDebt",
            "offset": 0,
            "slot": "1",
            "type": "t_uint256"
          },
          {
            "astId": 6062,
            "contract": "contracts/MasterChef.sol:MasterChef",
            "label": "boostMultiplier",
            "offset": 0,
            "slot": "2",
            "type": "t_uint256"
          }
        ],
        "numberOfBytes": "96"
      },
      "t_uint256": {
        "encoding": "inplace",
        "label": "uint256",
        "numberOfBytes": "32"
      }
    }
  }
}